S010000052656D6F746520312E7372656357
S11300000C94FA020C948B040C94C9040C941703FA
S11300100C9417030C9417030C9417030C942C03DF
S11300200C9417030C9417030C9417030C94B9073E
S11300300C9417030C9417030C9417030C941703D4
S11300400C9417030C9417030C9437040C941703A3
S11300500C9417030C9417030C9417030C941703B4
S11300600C9417030C94170307634236B79BD8A765
S11300701A39685618AEBAAB558C1D3CB7CC5763C9
S1130080BD6DEDFD753EF6177231BF000000803F77
S113009008000000BE922449123EABAAAA2ABECD93
S11300A0CCCC4C3E00000080BEABAAAAAA3E000005
S11300B00000BF000000803F0000000000084178FD
S11300C0D3BB4387D1133D190E3CC3BD4282AD2B34
S11300D03E68EC8276BED98FE1A93E4C80EFFFBE2C
S11300E001C4FF7F3F00000000003915556E7238CF
S11300F00C01067180710000000000000000000087
S113010000000000000000000000000000000000EB
S113011000000000000000000000000000000000DB
S113012000000000000000000000000000000000CB
S113013000000000000000000000000000000000BB
S113014000000000000000000000000000000000AB
S1130150000000000000000000000000000000009B
S1130160000000000000000000000000000000008B
S1130170000000000000000000000000000000007B
S1130180000000000000000000000000000000006B
S1130190000000000000000000000000000000005B
S11301A0000000000000000000000000000000004B
S11301B0000000000000000000000000000000003B
S11301C0000000000000000000000000000000002B
S11301D0000000000000000000000000000000001B
S11301E0000000000000000000000000000000000B
S11301F0000000636C6F6C48636C6F6C48636D60E7
S11302006D6A606A48680000000000000000000099
S113021000000000000000000000000000000000DA
S113022000000000000000000000000000000000CA
S113023000000000000000000000000000000000BA
S113024000000000000000000000000000000000AA
S1130250000000000000000000000000000000009A
S1130260000000000000000000000000000000008A
S1130270000000000000000000000000000000007A
S1130280000000000000000000000000000000006A
S1130290000000000000000000000000000000005A
S11302A0000000000000000000000000000000004A
S11302B0000000000000000000000000000000003A
S11302C0000000000000000000000000000000002A
S11302D0000000000000000000000000000000001A
S11302E0000000000000000000000000000000000A
S11302F00000002D4D60684D68888A4C8580654AF1
S1130300688886488180616383806383856686808C
S11303106686884A6C6D4F6F68516F8F8D4F6C681D
S11303204D6C8C8A4C8580654A68888648618081DA
S11303304D6C8C8A686C6D6F316F6D6C6D4F6F880E
S113034080686C6D6F2D6C6A686A4C6C858065681A
S11303506A6C4D6A8A8C4D6A8A8C4D6A6D527260E1
S113036032716F6D6F51718D802D2F6D6C6A6C4D74
S11303706D8A802A4D6C8C8A48618081284A4C2D74
S11303806D000000000000000000000000000000FC
S11303900000000000000000000000000000000059
S11303A00000000000000000000000000000000049
S11303B00000000000000000000000000000000039
S11303C00000000000000000000000000000000029
S11303D00000000000000000000000000000000019
S11303E00000000000000000000000000000000009
S11303F00000004A4C4E4F51536A808A4C6E808EE6
S11304006F8F804F404A4C4E4F51536A808A4C6ED6
S1130410808E6F8F804F4056537696807674315419
S113042051543676968056537696807674314A4C7B
S11304304E2F4F00000000000000000000000000EC
S113044000000000000000000000000000000000A8
S11304500000000000000000000000000000000098
S11304600000000000000000000000000000000088
S11304700000000000000000000000000000000078
S11304800000000000000000000000000000000068
S11304900000000000000000000000000000000058
S11304A00000000000000000000000000000000048
S11304B00000000000000000000000000000000038
S11304C00000000000000000000000000000000028
S11304D00000000000000000000000000000000018
S11304E00000000000000000000000000000000008
S11304F000000061818041688880486A8A804A28B7
S1130500668680466585804563838043216888804C
S11305104866868046658580452368888048668667
S11305208046658580452361818041688880486A6A
S11305308A804A2866868046658580456383804331
S11305402100000000000000000000000000000086
S11305500000000000000000000000000000000097
S11305600000000000000000000000000000000087
S11305700000000000000000000000000000000077
S11305800000000000000000000000000000000067
S11305900000000000000000000000000000000057
S11305A00000000000000000000000000000000047
S11305B00000000000000000000000000000000037
S11305C00000000000000000000000000000000027
S11305D00000000000000000000000000000000017
S11305E00000000000000000000000000000000007
S11305F00000000011241FBECFEFD8E0DEBFCDBF46
S113060011E0A0E0B1E0E4E6F8E102C005900D924B
S1130610A836B107D9F722E0A8E6B1E001C01D92DF
S1130620A932B207E1F70E94FC040C94300C0C943C
S113063000000E94DF0580E090E0089580E00E94C1
S1130640830681E291E00E94680680E10E948306AD
S113065082E391E00C9468061F920F920FB60F92FA
S113066011242F933F934F935F936F937F938F93B3
S11306709F93AF93BF93EF93FF9380916A018F5F32
S113068080936A01833318F05F9A10926A01809113
S11306906901843128F4809169018F5F8093690135
S11306A00E949E06FF91EF91BF91AF919F918F9110
S11306B07F916F915F914F913F912F910F900FBE5A
S11306C00F901F9018958DE48093B30082E080937F
S11306D0B00097E09093B1008093700008955F9804
S11306E00895813319F08233B9F00895613341F0EC
S11306F0623379F0603301F583E491E00C94C10630
S1130700BA0183E192E00E94F40B81E080936801D6
S113071008958AE491E009C0613331F0623339F01D
S1130720603351F40C946F03CA010C94D806FA0197
S1130730808180530C940F0808951F93CF93DF9307
S11307408FE10E94830680911302803311F08FE5BC
S113075001C082E50E945F068EE10E9483068091BB
S11307601402803311F08FE501C08CE40E945F060F
S11307708FE00E94830680911602803311F08FE58A
S113078001C088E50E945F0680911502803339F428
S11307905E9906C080E00E940F085E9A01C05E98D0
S11307A0C5E081E08C0FE82FF0E0ED5EFD4F908115
S11307B0903211F0C82FF5CFCE5F10828C2F91E0CC
S11307C0980FE92FF0E0ED5EFD4F2081203211F00B
S11307D0892FF5CFD2E0D80F108285E00E948306DE
S11307E0C73039F480911302803319F48FE491E017
S11307F013C0E8E1F2E001900020E9F7CF0189514C
S1130800924013E0181B11162CF480E20E945F063C
S11308101150F9CF88E192E00E94680684E10E94B9
S113082083068D2F90E0D0E08C1B9D0B029749F43A
S1130830FE01ED5EFD4F8081803319F48FE491E079
S113084011C0CD5EDD4FFE0101900020E9F71C2FA1
S11308501E1B1C5F11162CF480E20E945F061150CF
S1130860F9CFCE01DF91CF911F910C9468061F92AE
S11308700F920FB60F9211242F933F934F935F93D0
S11308806F937F938F939F93AF93BF93EF93FF9354
S1130890E0916B01F0E08091C600E150FE4F80834F
S11308A0E0916B01F0E0E150FE4F80818A3089F4E1
S11308B0E0916B01F0E0E150FE4F10826091000284
S11308C08091FF0141E052E00E94710310926B019C
S11308D005C080916B018F5F80936B01FF91EF9155
S11308E0BF91AF919F918F917F916F915F914F9144
S11308F03F912F910F900FBE0F901F9018958AB1C2
S1130900837E8AB98BB18C618BB98AE0809369004C
S113091083E08DBB08951F920F920FB60F9211249E
S11309202F933F934F935F936F937F938F939F93F3
S1130930AF93BF93EF93FF934C9B1AC065E070E0B5
S113094080E00E9418068737924090F069E170E0D9
S113095081E00E941806909303018093020169E1EB
S113096070E082E00E9418069093010180930001D8
S1130970FF91EF91BF91AF919F918F917F916F9173
S11309805F914F913F912F910F900FBE0F901F9049
S113099018951F920F920FB60F9211242F933F9325
S11309A04F935F936F937F938F939F93AF93BF9373
S11309B0EF93FF934C9903C083E591E002C087E570
S11309C091E00E94E605FF91EF91BF91AF919F9155
S11309D08F917F916F915F914F913F912F910F90E4
S11309E00FBE0F901F9018958AB1806E8AB98BB193
S11309F08F798BB95F9A0895CF93DF93CDB7DEB724
S1130A002F970FB6F894DEBF0FBECDBF83E0E2E1AF
S1130A10F1E09E012F5F3F4F6901D90101900D92D2
S1130A208A95E1F7FE0134968CE0DF011D928A95E8
S1130A30E9F70E942D07BFEF20E732E0B1502040D4
S1130A403040E1F700C000000E9443060E940C06FB
S1130A500E9401060E94F9050E94F4040E947F048A
S1130A600E9407080E9463030E941E0384E091E031
S1130A7090932602809325027894812C912CA12CAA
S1130A80B12C20E2522E0E942A07811102C00E943A
S1130A900B0780916801882321F00E949D03109226
S1130AA068014C997BC05D9905C08AE591E00E947C
S1130AB0E6055D9A80916901843109F076C010924F
S1130AC06901009102011091030169E170E081E084
S1130AD00E9418063801681A790A009100011091E1
S1130AE0010169E170E082E00E941806081B190BFD
S1130AF07301E01AF10A060D171D80E8E816F104E7
S1130B0064F491E8E9169FEFF9065CF0C7010996D1
S1130B10439758F4E12CF12C08C09FE7E92EF12CFF
S1130B2004C081E8E82EFF24FA94003811055CF42F
S1130B300138AFEF1A0754F0C8010996439740F4FF
S1130B4000E010E005C00FE710E002C001E81FEF6D
S1130B50AE14BF0419F48016910639F14AE0BE01BF
S1130B606D5F7F4FC7010E94FB0BF60101900020CF
S1130B70E9F73197EC19FD09D601AE0FB11D5C926E
S1130B80EF5FB6016E0F711D4AE0C8010E94FB0BB6
S1130B90C6010E94E6054801570107C05D9B05C0D8
S1130BA08EE591E00E94E6055D98BFEF20E732E014
S1130BB0B15020403040E1F700C0000064CF909174
S1130BC0C00095FFFCCF8093C6000895FC0191916D
S1130BD0992339F08091C00085FFFCCF9093C60023
S1130BE0F6CF8091C00085FFFCCF8AE08093C600D9
S1130BF008958091C00087FF03C08091C600F9CF9B
S1130C0008951092C5001092C40088E98093C10031
S1130C1086E08093C200089587B1887F87B986E80B
S1130C2080937A0088E380937E0010927B0008957D
S1130C309B01806480937C0040E060E070E0CB0125
S1130C40E42FF0E0E217F30798F450917A0050642F
S1130C5050937A0050917A0056FDFCCFE0917800D1
S1130C60F09179006E0F7F1F811D911D4F5FE8CFBA
S1130C7040E050E00E94B30BC90108958EBD0DB44D
S1130C8007FEFDCF0895CF93DF9384B1856084B9C7
S1130C9085B18A7F85B9CAEED0E0FE0184910E94B5
S1130CA03E0687EB9BE00197F1F700C00000219618
S1130CB090E0C33FD90789F7DF91CF910895289A2F
S1130CC02A980E943E0680E58A95F1F728980895AF
S1130CD01F93CF93DF93EC01289A2A9880E011E0C8
S1130CE0180FFE01E80FF11D8081882339F00E945E
S1130CF03E0680E58A95F1F7812FF1CF2898DF91A0
S1130D00CF911F9108952A9880680E943E0680E53D
S1130D108A95F1F70895CF938295807F0E94830688
S1130D20289A2A98C0E180E20E943E0680E58A95CE
S1130D30F1F7C150C1F72898CF91089580916C01C3
S1130D408823F1F08091F9019091FA010196909332
S1130D50FA018093F9018536910590F08091F801AC
S1130D608F5F8093F801863038F01092F80110926A
S1130D706C0182E00E948B061092FA011092F90134
S1130D800895CF93DF93EC0181E080936C0110927E
S1130D90FA011092F9011092F80182E00E948B0688
S1130DA080E20E948306CE01DF91CF910C94680605
S1130DB0CF93DF93EC0180916D01883081F48091B1
S1130DC06E0191E0980F90936E01877021E1829FEC
S1130DD0C001112480599E4F0E94C1060AC080910F
S1130DE06D018F5F80936D01893018F088E08093E6
S1130DF06D0180916F0191E0980F90936F0187705E
S1130E0021E1829FC0011124BE0180599E4FDF91D0
S1130E10CF910C94F40B80916D018823D1F080E282
S1130E200E94830680916E0191E0980F90936E0169
S1130E30877021E1829FC001112480599E4F0E9436
S1130E40680681E080936C0180916D0181508093EC
S1130E506D01089580916C01089584B18C6284B908
S1130E60249880E58CBD0895CF92DF92EF92FF9293
S1130E70CF93DF93D82F682F70E06F71809180003B
S1130E806115710521F48F7B8093800021C08064FB
S1130E908093800061507109072E000C880B990B18
S1130EA00E94C8089B01AC016DE77CE987E89FE3D9
S1130EB00E9454099B01AC0160E070E680E796E46F
S1130EC00E9425080E949708709389006093880007
S1130ED02091880030918900C091FC012F5F3F4F21
S1130EE040E050E060E072E18AE790E00E94D50BB8
S1130EF0CA01B9010E94C8086B017C01EC2FF0E023
S1130F00EE59FE4F608170E080E090E00E94C808D6
S1130F1020E030E040E753E40E9425089B01AC0147
S1130F20C701B6010E9425086B017C01D295D695B4
S1130F30D77061E070E002C0660F771FDA95E2F7C0
S1130F40072E000C880B990B0E94C8089B01AC016A
S1130F50C701B6010E9425080E9497087093FE01FC
S1130F606093FD01DF91CF91FF90EF90DF90CF90E0
S1130F7008951F920F920FB60F9211242F933F934F
S1130F804F935F936F937F938F939F93AF93BF938D
S1130F90EF93FF938091FD019091FE01019790934F
S1130FA0FE018093FD018091FD019091FE01892B4A
S1130FB0E9F48091FB018F5F8093FB01E091FC01D8
S1130FC08091FB01F0E0FE2FEE27E80FF11DED50BC
S1130FD0FF4F8491811108C010926F0080918100AD
S1130FE08E7F8093810002C00E943407FF91EF91AD
S1130FF0BF91AF919F918F917F916F915F914F912D
S11310003F912F910F900FBE0F901F901895219A2A
S113101080E48093800088E0809381000895809329
S1131020FC011092FB01E82FF0E0FE2FEE27ED50BB
S1131030FF4F84910E94340782E080936F00E1E8BF
S1131040F0E080818160808308950E9439080C94C7
S11310501A090E94130958F00E940C0940F029F45F
S11310605F3F29F00C94030951110C944E090C9420
S113107009090E942B0968F39923B1F3552391F3CD
S1131080951B550BBB27AA2762177307840738F0F3
S11310909F5F5F4F220F331F441FAA1FA9F335D050
S11310A00E2E3AF0E0E832D091505040E695001C04
S11310B0CAF72BD0FE2F29D0660F771F881FBB1FBE
S11310C0261737074807AB07B0E809F0BB0B802D9C
S11310D0BF01FF2793585F4F3AF09E3F510578F0C8
S11310E00C9403090C944E095F3FE4F3983ED4F347
S11310F0869577956795B795F7959F5FC9F7880F9C
S1131100911D9695879597F90895E1E0660F771FED
S1131110881FBB1F621773078407BA0720F0621B7E
S1131120730B840BBA0BEE1F88F7E09508950E94A9
S1131130330988F09F5798F0B92F9927B751B0F029
S1131140E1F0660F771F881F991F1AF0BA95C9F747
S113115014C0B13091F00E944D09B1E008950C948F
S11311604D09672F782F8827B85F39F0B93FCCF342
S1131170869577956795B395D9F73EF490958095C4
S1131180709561957F4F8F4F9F4F0895E89409C0E4
S113119097FB3EF490958095709561957F4F8F4FA6
S11311A09F4F9923A9F0F92F96E9BB279395F695BC
S11311B0879577956795B795F111F8CFFAF4BB0F3A
S11311C011F460FF1BC06F5F7F4F8F4F9F4F16C09E
S11311D0882311F096E911C0772321F09EE8872F28
S11311E0762F05C0662371F096E8862F70E060E0E4
S11311F02AF09A95660F771F881FDAF7880F96955D
S1131200879597F9089597F99F6780E870E060E003
S113121008959FEF80EC089500240A94161617068B
S113122018060906089500240A94121613061406D3
S113123005060895092E0394000C11F4882352F036
S1131240BB0F40F4BF2B11F460FF04C06F5F7F4FEE
S11312508F4F9F4F089557FD9058440F551F59F0D5
S11312605F3F71F04795880F97FB991F61F09F3F8F
S113127079F087950895121613061406551FF2CFB8
S11312804695F1DF08C0161617061806991FF1CF08
S113129086957105610508940895E894BB2766272F
S11312A07727CB0197F90895FA01EE0FFF1F3096C7
S11312B021053105A1F16115710561F48038BFE3A1
S11312C09B0749F168949038810561F08038BFEF3D
S11312D09B0741F099234AF5FF3FE10531052105BC
S11312E019F1E8940894E795D901AA2329F4AB2FBE
S11312F0BE2FF85FD0F310C0FF5F70F4A695E0F73F
S1131300F73950F019F0FF3A38F49F779F930DD0D6
S11313100F9007FC9058089546F00C94090960E07A
S113132070E080E89FE308954FE79F775F934F93C2
S11313303F932F930E944F0A2F913F914F915F91BA
S11313400E94CB0A0C94AC0929F416F00C940309FE
S11313500C944D090C9409090E943309A8F396389A
S1131360A0F707F80F92E8942BE33AEA48EB5FE71B
S11313700E94E10A0F920F920F924DB75EB70F923F
S11313800E94970AE8E6F0E00E94DE094F915F911F
S1131390EF91FF91E595EE1FFF1F49F0FE57E068BE
S11313A04427EE0F441FFA95E1F74195550B0E942F
S11313B0110A0F9007FE0C94050A0895DF93CF934A
S11313C01F930F93FF92EF92DF927B018C0168943D
S11313D006C0DA2EEF010E94DE0AFE01E894A59110
S11313E02591359145915591A6F3EF010E94500B3B
S11313F0FE019701A801DA9469F7DF90EF90FF905E
S11314000F911F91CF91DF9108959B01AC0160E092
S113141070E080E89FE30C9425080C9403090C9475
S1131420A50B0E943309D8F39923C9F3940F511DD6
S1131430A3F39150504094F059F0882332F0660F92
S1131440771F881F91505040C1F79E3F51052CF7DC
S1131450880F911D9695879597F908955F3FACF095
S1131460983E9CF0BB27869577956795B79508F4C9
S1131470B1609395C1F7BB0F58F711F460FFE8CF43
S11314806F5F7F4F8F4F9F4FE3CF0C944E0916F041
S11314900C94A50B0C94090968940C9403090E94FC
S11314A03309A8F39923C1F3AEF3DF93CF931F93CA
S11314B00F93FF92C92FDD2788232AF02197660F07
S11314C0771F881FDAF720E030E040E85FEB9FE306
S11314D0883920F0803E38F021968F770E94390BAE
S11314E0E0E9F0E004C00E94390BEDEBF0E00E946B
S11314F0DE098B01BE01EC01FB2E6F577109759556
S1131500771F880B990B0E94C80828E132E741E352
S11315105FE30E94DE0AAF2D9801AE01FF900F91A8
S11315201F91CF91DF910E94500B0C941A09FA017C
S1131530DC01AA0FBB1F9B01AC01BF5728F4222773
S113154033274427507820C0B75190F4AB2F0024A0
S1131550469537952795011CA395D2F3002071F089
S1131560220F331F441FB395DAF30ED00C94380BBB
S113157061307105A0E88A07B94630F49B01AC01DB
S11315806627772788279078309621F02083318347
S11315904283538308950E94DE0A0C941A090E9420
S11315A00C0938F00E94130920F0952311F00C94D3
S11315B003090C94090911240C944E090E942B0967
S11315C070F3959FC1F3950F50E0551F629FF00192
S11315D0729FBB27F00DB11D639FAA27F00DB11DAB
S11315E0AA1F649F6627B00DA11D661F829F222734
S11315F0B00DA11D621F739FB00DA11D621F839FBB
S1131600A00D611D221F749F3327A00D611D231F90
S1131610849F600D211D822F762F6A2F11249F57DE
S113162050409AF0F1F088234AF0EE0FFF1FBB1FE1
S1131630661F771F881F91505040A9F79E3F5105A0
S113164080F00C9403090C944E095F3FE4F3983E38
S1131650D4F3869577956795B795F795E7959F5F4A
S1131660C1F7FE2B880F911D9695879597F90895DC
S11316705058BB27AA270E94500B0C941A090E94A9
S11316800C0938F00E94130920F039F49F3F19F433
S113169026F40C9409090EF4E095E7FB0C94030975
S11316A0E92F0E942B0958F3BA17620773078407BE
S11316B0950720F079F4A6F50C944D090EF4E09505
S11316C00B2EBA2FA02D0B01B90190010C01CA01F8
S11316D0A0011124FF27591B99F0593F50F4503EA3
S11316E068F11A16F040A22F232F342F4427585F95
S11316F0F3CF469537952795A795F0405395C9F7AD
S11317007EF41F16BA0B620B730B840BBAF0915064
S1131710A1F0FF0FBB1F661F771F881FC2F70EC003
S1131720BA0F621F731F841F48F4879577956795D6
S1131730B795F7959E3F08F0B0CF9395880F08F0C2
S11317409927EE0F9795879508959F3F31F0915013
S113175020F4879577956795B795880F911D969591
S1131760879597F90895A1E21A2EAA1BBB1BFD01C8
S11317700DC0AA1FBB1FEE1FFF1FA217B307E4076C
S1131780F50720F0A21BB30BE40BF50B661F771FC4
S1131790881F991F1A9469F76095709580959095A4
S11317A09B01AC01BD01CF010895052E97FB1EF4EA
S11317B000940E94EC0B57FD07D00E94B30B07FC6A
S11317C003D04EF40C94EC0B509540953095219534
S11317D03F4F4F4F5F4F0895909580957095619559
S11317E07F4F8F4F9F4F0895FB01DC0101900D92B5
S11317F00020E1F70895BB274A3031F4992322F4FD
S1131800BDE2909581959F4F0C94070CBB27FB017B
S11318105527AA27880F991FAA1FA41710F0A41BE5
S113182083955051B9F7A05DAA3308F0A95DA1933F
S1131830009779F7B111B1931192CB010C94200C5C
S1131840DC01FC01672F71917723E1F7329704C023
S11318507C916D9370836291AE17BF07C8F30895AE
S1071860F894FFCF26
S1131864FB01FF0100000000000000001903000058
S113187400003033000000000000000000000000FD
S1131884004672616D3A205F5F636D205049523A9D
S11318945F0042616B3A205F5F636D2020433A200E
S11318A45F5F0053746F70702100504F4E470021E6
S11318B421210030323000333200303431003034EE
S10B18C43000B46E4B80640097
S9030000FC
