S010000052656D6F746520312E7372656357
S11300000C94FA020C94D0030C94DA030C941703A6
S11300100C9417030C9417030C9417030C941903F2
S11300200C9417030C9417030C9417030C944405B5
S11300300C9417030C9417030C9417030C941703D4
S11300400C9417030C9417030C947C030C9417035F
S11300500C9417030C9417030C9417030C941703B4
S11300600C9417030C94170307634236B79BD8A765
S11300701A39685618AEBAAB558C1D3CB7CC5763C9
S1130080BD6DEDFD753EF6177231BF000000803F77
S113009008000000BE922449123EABAAAA2ABECD93
S11300A0CCCC4C3E00000080BEABAAAAAA3E000005
S11300B00000BF000000803F0000000000084178FD
S11300C0D3BB4387D1133D190E3CC3BD4282AD2B34
S11300D03E68EC8276BED98FE1A93E4C80EFFFBE2C
S11300E001C4FF7F3F00000000003915556E7238CF
S11300F00C01067180710000000000000000000087
S113010000000000000000000000000000000000EB
S113011000000000000000000000000000000000DB
S113012000000000000000000000000000000000CB
S113013000000000000000000000000000000000BB
S113014000000000000000000000000000000000AB
S1130150000000000000000000000000000000009B
S1130160000000000000000000000000000000008B
S1130170000000000000000000000000000000007B
S1130180000000000000000000000000000000006B
S1130190000000000000000000000000000000005B
S11301A0000000000000000000000000000000004B
S11301B0000000000000000000000000000000003B
S11301C0000000000000000000000000000000002B
S11301D0000000000000000000000000000000001B
S11301E0000000000000000000000000000000000B
S11301F0000000636C6F6C48636C6F6C48636D60E7
S11302006D6A606A48680000000000000000000099
S113021000000000000000000000000000000000DA
S113022000000000000000000000000000000000CA
S113023000000000000000000000000000000000BA
S113024000000000000000000000000000000000AA
S1130250000000000000000000000000000000009A
S1130260000000000000000000000000000000008A
S1130270000000000000000000000000000000007A
S1130280000000000000000000000000000000006A
S1130290000000000000000000000000000000005A
S11302A0000000000000000000000000000000004A
S11302B0000000000000000000000000000000003A
S11302C0000000000000000000000000000000002A
S11302D0000000000000000000000000000000001A
S11302E0000000000000000000000000000000000A
S11302F00000002D4D60684D68888A4C8580654AF1
S1130300688886488180616383806383856686808C
S11303106686884A6C6D4F6F68516F8F8D4F6C681D
S11303204D6C8C8A4C8580654A68888648618081DA
S11303304D6C8C8A686C6D6F316F6D6C6D4F6F880E
S113034080686C6D6F2D6C6A686A4C6C858065681A
S11303506A6C4D6A8A8C4D6A8A8C4D6A6D527260E1
S113036032716F6D6F51718D802D2F6D6C6A6C4D74
S11303706D8A802A4D6C8C8A48618081284A4C2D74
S11303806D000000000000000000000000000000FC
S11303900000000000000000000000000000000059
S11303A00000000000000000000000000000000049
S11303B00000000000000000000000000000000039
S11303C00000000000000000000000000000000029
S11303D00000000000000000000000000000000019
S11303E00000000000000000000000000000000009
S11303F00000004A4C4E4F51536A808A4C6E808EE6
S11304006F8F804F404A4C4E4F51536A808A4C6ED6
S1130410808E6F8F804F4056537696807674315419
S113042051543676968056537696807674314A4C7B
S11304304E2F4F00000000000000000000000000EC
S113044000000000000000000000000000000000A8
S11304500000000000000000000000000000000098
S11304600000000000000000000000000000000088
S11304700000000000000000000000000000000078
S11304800000000000000000000000000000000068
S11304900000000000000000000000000000000058
S11304A00000000000000000000000000000000048
S11304B00000000000000000000000000000000038
S11304C00000000000000000000000000000000028
S11304D00000000000000000000000000000000018
S11304E00000000000000000000000000000000008
S11304F000000061818041688880486A8A804A28B7
S1130500668680466585804563838043216888804C
S11305104866868046658580452368888048668667
S11305208046658580452361818041688880486A6A
S11305308A804A2866868046658580456383804331
S11305402100000000000000000000000000000086
S11305500000000000000000000000000000000097
S11305600000000000000000000000000000000087
S11305700000000000000000000000000000000077
S11305800000000000000000000000000000000067
S11305900000000000000000000000000000000057
S11305A00000000000000000000000000000000047
S11305B00000000000000000000000000000000037
S11305C00000000000000000000000000000000027
S11305D00000000000000000000000000000000017
S11305E00000000000000000000000000000000007
S11305F00000000011241FBECFEFD8E0DEBFCDBF46
S113060011E0A0E0B1E0E2E0F3E102C005900D9258
S1130610A433B107D9F721E0A4E3B1E001C01D92EE
S1130620A239B207E1F70E940A040C947F090C94E2
S113063000001F920F920FB60F9211248F93809196
S113064034018F5F80933401853618F05F9A1092DD
S113065034018F910F900FBE0F901F90189585E570
S11306608093B30082E08093B0001092B100809335
S1130670700008955F980895CF93DF93EA01813362
S113068019F0823351F02CC080E00E949F0480E076
S11306900E94970480E091E02BC0613359F06233EB
S11306A089F06033A1F487E08093B100DF91CF91AA
S11306B00C943A0382E00E949F0480E20E94970413
S11306C0CE0116C080E0DF91CF910C949A0580E0B2
S11306D00E949F0480E00E94970489E091E008C092
S11306E080E00E949F0480E00E94970489E191E0E9
S11306F0DF91CF910C947C041F920F920FB60F924E
S113070011242F933F934F935F936F937F938F9312
S11307109F93AF93BF93EF93FF93E0913501F0E084
S11307208091C600E659FE4F8083E0913501F0E0E8
S1130730E659FE4F80818A3089F4E0913501F0E07A
S1130740E659FE4F108260916C0180916A014EE679
S113075051E00E943C031092350105C0809135019F
S11307608F5F80933501FF91EF91BF91AF919F917E
S11307708F917F916F915F914F913F912F910F9046
S11307800FBE0F901F9018958AB1837E8AB98BB1E2
S11307908C618BB98AE08093690083E08DBB0895F6
S11307A01F920F920FB60F9211240F900FBE0F904D
S11307B01F9018951F920F920FB60F9211242F932A
S11307C03F934F935F936F937F938F939F93AF93D5
S11307D0BF93EF93FF934C9B04C084E291E00E948B
S11307E02E04FF91EF91BF91AF919F918F917F91D3
S11307F06F915F914F913F912F910F900FBE0F908A
S11308001F9018958AB1806E8AB98BB18F798BB994
S11308105F9A08950E94B8042FEF80E792E0215078
S113082080409040E1F700C000000E9460040E94F4
S113083054040E9449040E9441040E9402040E943C
S1130840C4030E9492050E942F03789489B18FE11A
S11308509EE40197F1F700C00000F8CFFC019191EC
S1130860992339F08091C00085FFFCCF9093C60096
S1130870F6CF8091C00085FFFCCF8AE08093C6004C
S113088008958091C00087FF03C08091C600F9CF0E
S113089008951092C5001092C40088E98093C100A5
S11308A086E08093C200089587B18C7F87B986E87B
S11308B080937A0088E380937E0010927B000895F1
S11308C0CF93DF9384B1856084B985B18A7F85B97C
S11308D0CAEED0E0FE0184910E94B20487EB9BE053
S11308E00197F1F700C00000219690E0C33FD907BB
S11308F089F7DF91CF9108951F93CF93DF93EC0194
S1130900289A2A9880E011E0180FFE01E80FF11DE3
S11309108081882339F00E94B20480E58A95F1F73A
S1130920812FF1CF2898DF91CF911F9108952A98B4
S113093080680E94B20480E58A95F1F70895CF9308
S11309408295807F0E949704289A2A98C0E180E2C9
S11309500E94B20480E58A95F1F7C150C1F7289846
S1130960CF9108958EBD0DB407FEFDCF8EB50895C9
S113097084B18C6284B9249880E58CBD0895CF92AB
S1130980DF92EF92FF92CF93DF93D82F682F70E01E
S11309906F71809180006115710521F48F7B8093C4
S11309A0800021C080648093800061507109072E0B
S11309B0000C880B990B0E9453069B01AC016DE758
S11309C07CE987E89FE30E94DF069B01AC0160E0BD
S11309D070E680E796E40E94B0050E9422067093B8
S11309E08900609388002091880030918900C0912B
S11309F037012F5F3F4F40E050E060E072E18AE74B
S1130A0090E00E946009CA01B9010E9453066B017B
S1130A107C01EC2FF0E0E25DFE4F608170E080E04D
S1130A2090E00E94530620E030E040E753E40E9447
S1130A30B0059B01AC01C701B6010E94B0056B0172
S1130A407C01D295D695D77061E070E002C0660F44
S1130A50771FDA95E2F7072E000C880B990B0E949A
S1130A6053069B01AC01C701B6010E94B0050E9468
S1130A7022067093390160933801DF91CF91FF9082
S1130A80EF90DF90CF9008951F920F920FB60F92C0
S1130A9011242F933F934F935F936F937F938F937F
S1130AA09F93AF93BF93EF93FF93809138019091FD
S1130AB0390101979093390180933801809138016D
S1130AC090913901892BE9F4809136018F5F8093ED
S1130AD03601E091370180913601F0E0FE2FEE27D8
S1130AE0E80FF11DED50FF4F8491811108C0109261
S1130AF06F00809181008E7F8093810002C00E94EC
S1130B00BF04FF91EF91BF91AF919F918F917F911E
S1130B106F915F914F913F912F910F900FBE0F9066
S1130B201F901895219A80E48093800088E0809338
S1130B30810008958093370110923601E82FF0E088
S1130B40FE2FEE27ED50FF4F84910E94BF0482E0F8
S1130B5080936F00E1E8F0E08081816080830895F4
S1130B600E94C4050C94A5060E949E0658F00E949B
S1130B70970640F029F45F3F29F00C948E0651113A
S1130B800C94D9060C9494060E94B60668F3992333
S1130B90B1F3552391F3951B550BBB27AA27621775
S1130BA07307840738F09F5F5F4F220F331F441F82
S1130BB0AA1FA9F335D00E2E3AF0E0E832D09150B6
S1130BC05040E695001CCAF72BD0FE2F29D0660FA3
S1130BD0771F881FBB1F261737074807AB07B0E8E6
S1130BE009F0BB0B802DBF01FF2793585F4F3AF0EC
S1130BF09E3F510578F00C948E060C94D9065F3F05
S1130C00E4F3983ED4F3869577956795B795F79571
S1130C109F5FC9F7880F911D9695879597F9089559
S1130C20E1E0660F771F881FBB1F621773078407F5
S1130C30BA0720F0621B730B840BBA0BEE1F88F704
S1130C40E09508950E94BE0688F09F5798F0B92F4A
S1130C509927B751B0F0E1F0660F771F881F991FED
S1130C601AF0BA95C9F714C0B13091F00E94D806B1
S1130C70B1E008950C94D806672F782F8827B85FC1
S1130C8039F0B93FCCF3869577956795B395D9F745
S1130C903EF490958095709561957F4F8F4F9F4F4F
S1130CA00895E89409C097FB3EF49095809570955B
S1130CB061957F4F8F4F9F4F9923A9F0F92F96E9A4
S1130CC0BB279395F695879577956795B795F11119
S1130CD0F8CFFAF4BB0F11F460FF1BC06F5F7F4FB6
S1130CE08F4F9F4F16C0882311F096E911C07723C8
S1130CF021F09EE8872F762F05C0662371F096E8D1
S1130D00862F70E060E02AF09A95660F771F881F9F
S1130D10DAF7880F9695879597F9089597F99F675D
S1130D2080E870E060E008959FEF80EC089500246F
S1130D300A941616170618060906089500240A943C
S1130D4012161306140605060895092E0394000CC2
S1130D5011F4882352F0BB0F40F4BF2B11F460FF51
S1130D6004C06F5F7F4F8F4F9F4F089557FD90587A
S1130D70440F551F59F05F3F71F04795880F97FB5B
S1130D80991F61F09F3F79F0879508951216130615
S1130D901406551FF2CF4695F1DF08C01616170644
S1130DA01806991FF1CF8695710561050894089579
S1130DB0E894BB2766277727CB0197F90895FA01B2
S1130DC0EE0FFF1F309621053105A1F16115710564
S1130DD061F48038BFE39B0749F16894903881053A
S1130DE061F08038BFEF9B0741F099234AF5FF3F3C
S1130DF0E1053105210519F1E8940894E795D90135
S1130E00AA2329F4AB2FBE2FF85FD0F310C0FF5FE5
S1130E1070F4A695E0F7F73950F019F0FF3A38F47A
S1130E209F779F930DD00F9007FC9058089546F03C
S1130E300C94940660E070E080E89FE308954FE727
S1130E409F775F934F933F932F930E94DA072F91DD
S1130E503F914F915F910E9456080C94370729F4F3
S1130E6016F00C948E060C94D8060C9494060E94EA
S1130E70BE06A8F39638A0F707F80F92E8942BE380
S1130E803AEA48EB5FE70E946C080F920F920F92C8
S1130E904DB75EB70F920E942208E8E6F0E00E9488
S1130EA069074F915F91EF91FF91E595EE1FFF1F49
S1130EB049F0FE57E0684427EE0F441FFA95E1F726
S1130EC04195550B0E949C070F9007FE0C949007C8
S1130ED00895DF93CF931F930F93FF92EF92DF92C6
S1130EE07B018C01689406C0DA2EEF010E94690828
S1130EF0FE01E894A5912591359145915591A6F36C
S1130F00EF010E94DB08FE019701A801DA9469F75A
S1130F10DF90EF90FF900F911F91CF91DF91089593
S1130F209B01AC0160E070E080E89FE30C94B005A5
S1130F300C948E060C9430090E94BE06D8F39923B3
S1130F40C9F3940F511DA3F39150504094F059F0FC
S1130F50882332F0660F771F881F91505040C1F7E5
S1130F609E3F51052CF7880F911D9695879597F90B
S1130F7008955F3FACF0983E9CF0BB27869577952B
S1130F806795B79508F4B1609395C1F7BB0F58F70F
S1130F9011F460FFE8CF6F5F7F4F8F4F9F4FE3CF18
S1130FA00C94D90616F00C9430090C9494066894A9
S1130FB00C948E060E94BE06A8F39923C1F3AEF3E7
S1130FC0DF93CF931F930F93FF92C92FDD278823BD
S1130FD02AF02197660F771F881FDAF720E030E0A8
S1130FE040E85FEB9FE3883920F0803E38F021969B
S1130FF08F770E94C408E0E9F0E004C00E94C408AE
S1131000EDEBF0E00E9469078B01BE01EC01FB2EC1
S11310106F5771097595771F880B990B0E945306BA
S113102028E132E741E35FE30E946908AF2D9801AC
S1131030AE01FF900F911F91CF91DF910E94DB08C9
S11310400C94A506FA01DC01AA0FBB1F9B01AC019D
S1131050BF5728F4222733274427507820C0B7519C
S113106090F4AB2F0024469537952795011CA39542
S1131070D2F3002071F0220F331F441FB395DAF32B
S11310800ED00C94C30861307105A0E88A07B946F4
S113109030F49B01AC016627772788279078309637
S11310A021F0208331834283538308950E94690889
S11310B00C94A5060E94970638F00E949E0620F024
S11310C0952311F00C948E060C94940611240C9420
S11310D0D9060E94B60670F3959FC1F3950F50E0B0
S11310E0551F629FF001729FBB27F00DB11D639FD6
S11310F0AA27F00DB11DAA1F649F6627B00DA11D7C
S1131100661F829F2227B00DA11D621F739FB00D21
S1131110A11D621F839FA00D611D221F749F332791
S1131120A00D611D231F849F600D211D822F762F2A
S11311306A2F11249F5750409AF0F1F088234AF007
S1131140EE0FFF1FBB1F661F771F881F9150504073
S1131150A9F79E3F510580F00C948E060C94D90695
S11311605F3FE4F3983ED4F3869577956795B795FA
S1131170F795E7959F5FC1F7FE2B880F911D969514
S1131180879597F908955058BB27AA270E94DB0832
S11311900C94A5060E94970638F00E949E0620F043
S11311A039F49F3F19F426F40C9494060EF4E09558
S11311B0E7FB0C948E06E92F0E94B60658F3BA1783
S11311C0620773078407950720F079F4A6F50C9459
S11311D0D8060EF4E0950B2EBA2FA02D0B01B90101
S11311E090010C01CA01A0011124FF27591B99F099
S11311F0593F50F4503E68F11A16F040A22F232FA5
S1131200342F4427585FF3CF469537952795A795F4
S1131210F0405395C9F77EF41F16BA0B620B730B9B
S1131220840BBAF09150A1F0FF0FBB1F661F771F0C
S1131230881FC2F70EC0BA0F621F731F841F48F4C1
S1131240879577956795B795F7959E3F08F0B0CF4A
S11312509395880F08F09927EE0F97958795089531
S11312609F3F31F0915020F4879577956795B79516
S1131270880F911D9695879597F90895A1E21A2EE6
S1131280AA1BBB1BFD010DC0AA1FBB1FEE1FFF1F26
S1131290A217B307E407F50720F0A21BB30BE40B76
S11312A0F50B661F771F881F991F1A9469F76095BD
S11312B07095809590959B01AC01BD01CF01089577
S11312C0052E97FB1EF400940E94770957FD07D062
S11312D00E943E0907FC03D04EF40C947709509504
S11312E04095309521953F4F4F4F5F4F089590950E
S11312F08095709561957F4F8F4F9F4F0895F89417
S1051300FFCF19
S113130246726F6D2063617200496E76616C696426
S113131220636F6D6D616E64004E6F7420666F7230
S1131322206D65003320312048656A205600B46E72
S10713324B80640084
S9030000FC
