S010000052656D6F746520312E7372656357
S11300000C94FA020C94E5040C94EF040C9417037A
S11300100C9417030C9417030C9417030C942C03DF
S11300200C9417030C9417030C9417030C943E07B9
S11300300C9417030C9417030C9417030C941703D4
S11300400C9417030C9417030C9491040C94170349
S11300500C9417030C9417030C9417030C941703B4
S11300600C9417030C94170307634236B79BD8A765
S11300701A39685618AEBAAB558C1D3CB7CC5763C9
S1130080BD6DEDFD753EF6177231BF000000803F77
S113009008000000BE922449123EABAAAA2ABECD93
S11300A0CCCC4C3E00000080BEABAAAAAA3E000005
S11300B00000BF000000803F0000000000084178FD
S11300C0D3BB4387D1133D190E3CC3BD4282AD2B34
S11300D03E68EC8276BED98FE1A93E4C80EFFFBE2C
S11300E001C4FF7F3F00000000003915556E7238CF
S11300F00C01067180710000000000000000000087
S113010000000000000000000000000000000000EB
S113011000000000000000000000000000000000DB
S113012000000000000000000000000000000000CB
S113013000000000000000000000000000000000BB
S113014000000000000000000000000000000000AB
S1130150000000000000000000000000000000009B
S1130160000000000000000000000000000000008B
S1130170000000000000000000000000000000007B
S1130180000000000000000000000000000000006B
S1130190000000000000000000000000000000005B
S11301A0000000000000000000000000000000004B
S11301B0000000000000000000000000000000003B
S11301C0000000000000000000000000000000002B
S11301D0000000000000000000000000000000001B
S11301E0000000000000000000000000000000000B
S11301F0000000636C6F6C48636C6F6C48636D60E7
S11302006D6A606A48680000000000000000000099
S113021000000000000000000000000000000000DA
S113022000000000000000000000000000000000CA
S113023000000000000000000000000000000000BA
S113024000000000000000000000000000000000AA
S1130250000000000000000000000000000000009A
S1130260000000000000000000000000000000008A
S1130270000000000000000000000000000000007A
S1130280000000000000000000000000000000006A
S1130290000000000000000000000000000000005A
S11302A0000000000000000000000000000000004A
S11302B0000000000000000000000000000000003A
S11302C0000000000000000000000000000000002A
S11302D0000000000000000000000000000000001A
S11302E0000000000000000000000000000000000A
S11302F00000002D4D60684D68888A4C8580654AF1
S1130300688886488180616383806383856686808C
S11303106686884A6C6D4F6F68516F8F8D4F6C681D
S11303204D6C8C8A4C8580654A68888648618081DA
S11303304D6C8C8A686C6D6F316F6D6C6D4F6F880E
S113034080686C6D6F2D6C6A686A4C6C858065681A
S11303506A6C4D6A8A8C4D6A8A8C4D6A6D527260E1
S113036032716F6D6F51718D802D2F6D6C6A6C4D74
S11303706D8A802A4D6C8C8A48618081284A4C2D74
S11303806D000000000000000000000000000000FC
S11303900000000000000000000000000000000059
S11303A00000000000000000000000000000000049
S11303B00000000000000000000000000000000039
S11303C00000000000000000000000000000000029
S11303D00000000000000000000000000000000019
S11303E00000000000000000000000000000000009
S11303F00000004A4C4E4F51536A808A4C6E808EE6
S11304006F8F804F404A4C4E4F51536A808A4C6ED6
S1130410808E6F8F804F4056537696807674315419
S113042051543676968056537696807674314A4C7B
S11304304E2F4F00000000000000000000000000EC
S113044000000000000000000000000000000000A8
S11304500000000000000000000000000000000098
S11304600000000000000000000000000000000088
S11304700000000000000000000000000000000078
S11304800000000000000000000000000000000068
S11304900000000000000000000000000000000058
S11304A00000000000000000000000000000000048
S11304B00000000000000000000000000000000038
S11304C00000000000000000000000000000000028
S11304D00000000000000000000000000000000018
S11304E00000000000000000000000000000000008
S11304F000000061818041688880486A8A804A28B7
S1130500668680466585804563838043216888804C
S11305104866868046658580452368888048668667
S11305208046658580452361818041688880486A6A
S11305308A804A2866868046658580456383804331
S11305402100000000000000000000000000000086
S11305500000000000000000000000000000000097
S11305600000000000000000000000000000000087
S11305700000000000000000000000000000000077
S11305800000000000000000000000000000000067
S11305900000000000000000000000000000000057
S11305A00000000000000000000000000000000047
S11305B00000000000000000000000000000000037
S11305C00000000000000000000000000000000027
S11305D00000000000000000000000000000000017
S11305E00000000000000000000000000000000007
S11305F00000000011241FBECFEFD8E0DEBFCDBF46
S113060011E0A0E0B1E0EEE6F7E102C005900D9242
S1130610A036B107D9F721E0A0E6B1E001C01D92F0
S1130620AB3FB207E1F70E9422050C94B50B0C9482
S113063000000E94F20580E090E0089580E00E94AE
S113064091068DE191E00E94760680E10E94910678
S11306508EE291E00C9476061F920F920FB60F92E1
S113066011242F933F934F935F936F937F938F93B3
S11306709F93AF93BF93EF93FF93809167018F5F35
S113068080936701833318F05F9A10926701809119
S113069061018823B9F0809166018F5F80936601C0
S11306A0853680F0809165018F5F80936501863087
S11306B038F0109265011092610182E00E9499065F
S11306C010926601FF91EF91BF91AF919F918F912D
S11306D07F916F915F914F913F912F910F900FBE3A
S11306E00F901F9018958DE48093B30082E080935F
S11306F0B00097E09093B1008093700008955F98E4
S11307000895CF93DF93EC01F89481E08093610125
S1130710109266011092650182E00E94990680E2BF
S11307200E949106CE010E9476067894DF91CF91C3
S11307300895CF93DF93662321F0DF91CF910C943A
S11307408103EC01809162018530F1F480916301B1
S113075091E0980F9093630120E1829FC0011124DE
S113076083599E4F0E94810380916301853010F06C
S113077010926301809162018150809362018091A3
S113078064018F5F809364019091640181E0890F1B
S11307908093640120E1929FC0011124BE0183591A
S11307A09E4F0E94790B809162018F5F809362015A
S11307B0863018F085E08093620180916401853071
S11307C010F010926401DF91CF910895813319F0F4
S11307D08233C1F00895613341F0623379F06033BC
S11307E001F58FE391E00C948103BA0185EE91E069
S11307F00E94790B81E080936001089560E086E4B3
S113080091E00AC0613331F0623341F0603349F45E
S11308100C947F0360E0CA010C94990380E00C946B
S113082094070895809162018823F9F080E20E9480
S113083091068091630191E0980F9093630120E108
S1130840829FC001112483599E4F0E94760681E045
S11308508093610180916301853010F010926301EF
S1130860809162018150809362010895CF93DF9358
S113087080E091E0980FE92FF0E0EB51FE4F2081EA
S1130880203211F0892FF5CFD2E0D80F1082CD2F6E
S113089081E08C0FE82FF0E0EB51FE4F9081903215
S11308A011F0C82FF5CF108286E00E94910685EEE4
S11308B091E00E94760685E10E9491068D2F90E0DA
S11308C08B519E4F0E9476068FE10E949106CE5F67
S11308D0D0E0FE01EB51FE4F8081803311F08FE5B3
S11308E001C082E50E946D068EE10E949106FE0120
S11308F0EA51FE4F8081803311F08FE501C08CE412
S11309000E946D068FE00E949106C851DE4F8881D7
S1130910803311F08FE501C088E5DF91CF910C940D
S11309206D061F920F920FB60F9211242F933F93CF
S11309304F935F936F937F938F939F93AF93BF93E3
S1130940EF93FF93E0916801F0E08091C600E354D7
S1130950FE4F8083E0916801F0E0E354FE4F808114
S11309608A3089F4E0916801F0E0E354FE4F10828C
S11309706091BE018091BD014FEB51E00E94E603FE
S11309801092680105C0809168018F5F80936801AF
S1130990FF91EF91BF91AF919F918F917F916F9153
S11309A05F914F913F912F910F900FBE0F901F9029
S11309B018958AB1837E8AB98BB18C618BB98AE030
S11309C08093690083E08DBB08951F920F920FB648
S11309D00F9211240F900FBE0F901F9018951F9225
S11309E00F920FB60F9211242F933F934F935F935F
S11309F06F937F938F939F93AF93BF93EF93FF93E3
S1130A004C9903C08BE491E002C08FE491E00E9412
S1130A10F905FF91EF91BF91AF919F918F917F91D4
S1130A206F915F914F913F912F910F900FBE0F9057
S1130A301F9018958AB1806E8AB98BB18F798BB962
S1130A405F9A0895CF93DF93CDB7DEB72F970FB694
S1130A50F894DEBF0FBECDBF83E0EEE0F1E09E016F
S1130A602F5F3F4F6901D90101900D928A95E1F7FB
S1130A70FE0134968CE0DF011D928A95E9F70E940D
S1130A80B206BFEFE0E7F2E0B150E040F040E1F73A
S1130A9000C000000E9451060E941F060E94140616
S1130AA00E940C060E941A050E94D9040E948C0719
S1130AB00E9473030E941E0380E091E09093F8016A
S1130AC08093F7017894812C912CA12CB12C44248F
S1130AD04A94552453942BEF622E7724739430E276
S1130AE0332E80916101811102C00E941204809111
S1130AF06001882321F00E943604109260014C9911
S1130B0060C05D9905C082E591E00E94F9055D9A97
S1130B1069E170E081E00E942B068201081B190B39
S1130B2069E170E082E00E942B067301E81AF90A79
S1130B3001382FEF120714F401E81FEF00381105F4
S1130B4014F00FE710E0C70131E8E3163FEFF306B6
S1130B5014F481E89FEF7C0180E8E816F1041CF0AE
S1130B608FE7E82EF12CA016B10619F48E149F0419
S1130B7079F14AE0BE016D5F7F4FC8018E199F096C
S1130B800E94800BF60101900020E9F73197EC19DF
S1130B90FD0981E08E0FD601AE0FB11DFD0130823B
S1130BA0B601680F711DFB0110824AE0C701800F76
S1130BB0911F0E94800BC6010E94F905470158014C
S1130BC007C05D9B05C086E591E00E94F9055D982C
S1130BD0FFEF20E732E0F15020403040E1F700C061
S1130BE000007FCF9091C00095FFFCCF8093C6009A
S1130BF00895FC019191992339F08091C00085FFFB
S1130C00FCCF9093C600F6CF8091C00085FFFCCF47
S1130C108AE08093C60008958091C00087FF03C0D6
S1130C208091C600F9CF08951092C5001092C400B7
S1130C3088E98093C10086E08093C200089587B15B
S1130C40887F87B986E880937A0088E380937E0062
S1130C5010927B0008959B01806480937C0040E0A7
S1130C6060E070E0CB01E42FF0E0E217F30798F4C2
S1130C7050917A00506450937A0050917A0056FD56
S1130C80FCCFE0917800F09179006E0F7F1F811DF9
S1130C90911D4F5FE8CF40E050E00E94380BC9013E
S1130CA00895CF93DF9384B1856084B985B18A7F39
S1130CB085B9CAEED0E0FE0184910E94AC0687EBB0
S1130CC09BE00197F1F700C00000219690E0C33F3C
S1130CD0D90789F7DF91CF910895289A2A980E941D
S1130CE0AC0680E58A95F1F7289808951F93CF9371
S1130CF0DF93EC01289A2A9880E011E0180FFE0196
S1130D00E80FF11D8081882339F00E94AC0680E54C
S1130D108A95F1F7812FF1CF2898DF91CF911F9118
S1130D2008952A9880680E94AC0680E58A95F1F7B8
S1130D300895CF938295807F0E949106289A2A98DD
S1130D40C0E180E20E94AC0680E58A95F1F7C150CB
S1130D50C1F72898CF9108958EBD0DB407FEFDCF3D
S1130D608EB5089584B18C6284B9249880E58CBDD5
S1130D700895CF92DF92EF92FF92CF93DF93D82F13
S1130D80682F70E06F71809180006115710521F406
S1130D908F7B8093800021C08064809380006150A9
S1130DA07109072E000C880B990B0E944D089B01BA
S1130DB0AC016DE77CE987E89FE30E94D9089B01B9
S1130DC0AC0160E070E680E796E40E94AA070E9406
S1130DD01C087093890060938800209188003091EA
S1130DE08900C0916A012F5F3F4F40E050E060E00E
S1130DF072E18AE790E00E945A0BCA01B9010E948D
S1130E004D086B017C01EC2FF0E0E65AFE4F608147
S1130E1070E080E090E00E944D0820E030E040E780
S1130E2053E40E94AA079B01AC01C701B6010E94CA
S1130E30AA076B017C01D295D695D77061E070E06A
S1130E4002C0660F771FDA95E2F7072E000C880BB5
S1130E50990B0E944D089B01AC01C701B6010E9489
S1130E60AA070E941C0870936C0160936B01DF91C8
S1130E70CF91FF90EF90DF90CF9008951F920F9243
S1130E800FB60F9211242F933F934F935F936F9359
S1130E907F938F939F93AF93BF93EF93FF9380912F
S1130EA06B0190916C01019790936C0180936B019D
S1130EB080916B0190916C01892BE9F48091690117
S1130EC08F5F80936901E0916A0180916901F0E08C
S1130ED0FE2FEE27E80FF11DED50FF4F8491811195
S1130EE008C010926F00809181008E7F80938100F2
S1130EF002C00E94B906FF91EF91BF91AF919F91FB
S1130F008F917F916F915F914F913F912F910F90AE
S1130F100FBE0F901F901895219A80E48093800053
S1130F2088E080938100089580936A01109269019A
S1130F30E82FF0E0FE2FEE27ED50FF4F84910E9442
S1130F40B90682E080936F00E1E8F0E0808181607F
S1130F50808308950E94BE070C949F080E949808FD
S1130F6058F00E94910840F029F45F3F29F00C9456
S1130F70880851110C94D3080C948E080E94B00870
S1130F8068F39923B1F3552391F3951B550BBB27B4
S1130F90AA2762177307840738F09F5F5F4F220FF9
S1130FA0331F441FAA1FA9F335D00E2E3AF0E0E8F0
S1130FB032D091505040E695001CCAF72BD0FE2F3A
S1130FC029D0660F771F881FBB1F261737074807CE
S1130FD0AB07B0E809F0BB0B802DBF01FF27935886
S1130FE05F4F3AF09E3F510578F00C9488080C94BA
S1130FF0D3085F3FE4F3983ED4F3869577956795DD
S1131000B795F7959F5FC9F7880F911D96958795BA
S113101097F90895E1E0660F771F881FBB1F6217D9
S113102073078407BA0720F0621B730B840BBA0B97
S1131030EE1F88F7E09508950E94B80888F09F573E
S113104098F0B92F9927B751B0F0E1F0660F771FE8
S1131050881F991F1AF0BA95C9F714C0B13091F0DE
S11310600E94D208B1E008950C94D208672F782F1B
S11310708827B85F39F0B93FCCF3869577956795A3
S1131080B395D9F73EF490958095709561957F4F0F
S11310908F4F9F4F0895E89409C097FB3EF49095B5
S11310A08095709561957F4F8F4F9F4F9923A9F03D
S11310B0F92F96E9BB279395F695879577956795CC
S11310C0B795F111F8CFFAF4BB0F11F460FF1BC010
S11310D06F5F7F4F8F4F9F4F16C0882311F096E9A3
S11310E011C0772321F09EE8872F762F05C0662351
S11310F071F096E8862F70E060E02AF09A95660F0A
S1131100771F881FDAF7880F9695879597F90895C2
S113111097F99F6780E870E060E008959FEF80ECA6
S1131120089500240A941616170618060906089549
S113113000240A9412161306140605060895092EAF
S11311400394000C11F4882352F0BB0F40F4BF2B1E
S113115011F460FF04C06F5F7F4F8F4F9F4F08955E
S113116057FD9058440F551F59F05F3F71F0479554
S1131170880F97FB991F61F09F3F79F08795089539
S1131180121613061406551FF2CF4695F1DF08C058
S1131190161617061806991FF1CF86957105610575
S11311A008940895E894BB2766277727CB0197F91D
S11311B00895FA01EE0FFF1F309621053105A1F1C4
S11311C06115710561F48038BFE39B0749F16894A8
S11311D09038810561F08038BFEF9B0741F0992377
S11311E04AF5FF3FE1053105210519F1E89408941A
S11311F0E795D901AA2329F4AB2FBE2FF85FD0F3CA
S113120010C0FF5F70F4A695E0F7F73950F019F0BD
S1131210FF3A38F49F779F930DD00F9007FC9058B6
S1131220089546F00C948E0860E070E080E89FE337
S113123008954FE79F775F934F933F932F930E94B7
S1131240D4092F913F914F915F910E94500A0C94C1
S1131250310929F416F00C9488080C94D2080C94E3
S11312608E080E94B808A8F39638A0F707F80F92E2
S1131270E8942BE33AEA48EB5FE70E94660A0F9290
S11312800F920F924DB75EB70F920E941C0AE8E6C8
S1131290F0E00E9463094F915F91EF91FF91E59512
S11312A0EE1FFF1F49F0FE57E0684427EE0F441F6E
S11312B0FA95E1F74195550B0E9496090F9007FEA8
S11312C00C948A090895DF93CF931F930F93FF9291
S11312D0EF92DF927B018C01689406C0DA2EEF0155
S11312E00E94630AFE01E894A591259135914591E8
S11312F05591A6F3EF010E94D50AFE019701A801BA
S1131300DA9469F7DF90EF90FF900F911F91CF91DE
S1131310DF9108959B01AC0160E070E080E89FE3F9
S11313200C94AA070C9488080C942A0B0E94B80801
S1131330D8F39923C9F3940F511DA3F3915050404E
S113134094F059F0882332F0660F771F881F91506C
S11313505040C1F79E3F51052CF7880F911D96957B
S1131360879597F908955F3FACF0983E9CF0BB27B2
S1131370869577956795B79508F4B1609395C1F70D
S1131380BB0F58F711F460FFE8CF6F5F7F4F8F4FAB
S11313909F4FE3CF0C94D30816F00C942A0B0C94B3
S11313A08E0868940C9488080E94B808A8F39923BE
S11313B0C1F3AEF3DF93CF931F930F93FF92C92F23
S11313C0DD2788232AF02197660F771F881FDAF715
S11313D020E030E040E85FEB9FE3883920F0803E76
S11313E038F021968F770E94BE0AE0E9F0E004C04D
S11313F00E94BE0AEDEBF0E00E9463098B01BE017E
S1131400EC01FB2E6F5771097595771F880B990BAB
S11314100E944D0828E132E741E35FE30E94630A3A
S1131420AF2D9801AE01FF900F911F91CF91DF91E5
S11314300E94D50A0C949F08FA01DC01AA0FBB1F75
S11314409B01AC01BF5728F4222733274427507847
S113145020C0B75190F4AB2F0024469537952795BB
S1131460011CA395D2F3002071F0220F331F441FF7
S1131470B395DAF30ED00C94BD0A61307105A0E87F
S11314808A07B94630F49B01AC0166277727882781
S11314909078309621F020833183428353830895DA
S11314A00E94630A0C949F080E94910838F00E94DD
S11314B0980820F0952311F00C9488080C948E0859
S11314C011240C94D3080E94B00870F3959FC1F3C3
S11314D0950F50E0551F629FF001729FBB27F00DDE
S11314E0B11D639FAA27F00DB11DAA1F649F662733
S11314F0B00DA11D661F829F2227B00DA11D621F82
S1131500739FB00DA11D621F839FA00D611D221F3B
S1131510749F3327A00D611D231F849F600D211D1F
S1131520822F762F6A2F11249F5750409AF0F1F0A2
S113153088234AF0EE0FFF1FBB1F661F771F881F0B
S113154091505040A9F79E3F510580F00C948808B3
S11315500C94D3085F3FE4F3983ED4F386957795D3
S11315606795B795F795E7959F5FC1F7FE2B880FB1
S1131570911D9695879597F908955058BB27AA27EA
S11315800E94D50A0C949F080E94910838F00E948A
S1131590980820F039F49F3F19F426F40C948E082F
S11315A00EF4E095E7FB0C948808E92F0E94B0083C
S11315B058F3BA17620773078407950720F079F484
S11315C0A6F50C94D2080EF4E0950B2EBA2FA02D9C
S11315D00B01B90190010C01CA01A0011124FF27DC
S11315E0591B99F0593F50F4503E68F11A16F040D7
S11315F0A22F232F342F4427585FF3CF46953795D6
S11316002795A795F0405395C9F77EF41F16BA0B9A
S1131610620B730B840BBAF09150A1F0FF0FBB1F48
S1131620661F771F881FC2F70EC0BA0F621F731F91
S1131630841F48F4879577956795B795F7959E3FEE
S113164008F0B0CF9395880F08F09927EE0F97957F
S1131650879508959F3F31F0915020F487957795B1
S11316606795B795880F911D9695879597F9089575
S1131670A1E21A2EAA1BBB1BFD010DC0AA1FBB1F92
S1131680EE1FFF1FA217B307E407F50720F0A21B04
S1131690B30BE40BF50B661F771F881F991F1A9471
S11316A069F760957095809590959B01AC01BD019B
S11316B0CF010895052E97FB1EF400940E94710B30
S11316C057FD07D00E94380B07FC03D04EF40C944E
S11316D0710B50954095309521953F4F4F4F5F4F7B
S11316E0089590958095709561957F4F8F4F9F4F8A
S11316F00895FB01DC0101900D920020E1F70895AB
S1131700BB274A3031F4992322F4BDE290958195A8
S11317109F4F0C948C0BBB27FB015527AA27880FDE
S1131720991FAA1FA41710F0A41B83955051B9F751
S1131730A05DAA3308F0A95DA193009779F7B111D0
S1131740B1931192CB010C94A50BDC01FC01672F22
S113175071917723E1F7329704C07C916D93708384
S11117606291AE17BF07C8F30895F894FFCF47
S113176E00000000000000001903000000003033E8
S113177E000000000000000000000000004672613E
S113178E6D3A205F5F636D205049523A5F004261AB
S113179E6B3A205F5F636D2020433A205F5F0053F6
S11317AE746F70702100504F4E470030326D00330D
S11317BE32003034310030343000B46E4B8064006B
S9030000FC
