S010000052656D6F746520312E7372656357
S11300000C94FA020C948A040C94C8040C941703FC
S11300100C9417030C9417030C9417030C942C03DF
S11300200C9417030C9417030C9417030C94B60741
S11300300C9417030C9417030C9417030C941703D4
S11300400C9417030C9417030C9436040C941703A4
S11300500C9417030C9417030C9417030C941703B4
S11300600C9417030C94170307634236B79BD8A765
S11300701A39685618AEBAAB558C1D3CB7CC5763C9
S1130080BD6DEDFD753EF6177231BF000000803F77
S113009008000000BE922449123EABAAAA2ABECD93
S11300A0CCCC4C3E00000080BEABAAAAAA3E000005
S11300B00000BF000000803F0000000000084178FD
S11300C0D3BB4387D1133D190E3CC3BD4282AD2B34
S11300D03E68EC8276BED98FE1A93E4C80EFFFBE2C
S11300E001C4FF7F3F00000000003915556E7238CF
S11300F00C01067180710000000000000000000087
S113010000000000000000000000000000000000EB
S113011000000000000000000000000000000000DB
S113012000000000000000000000000000000000CB
S113013000000000000000000000000000000000BB
S113014000000000000000000000000000000000AB
S1130150000000000000000000000000000000009B
S1130160000000000000000000000000000000008B
S1130170000000000000000000000000000000007B
S1130180000000000000000000000000000000006B
S1130190000000000000000000000000000000005B
S11301A0000000000000000000000000000000004B
S11301B0000000000000000000000000000000003B
S11301C0000000000000000000000000000000002B
S11301D0000000000000000000000000000000001B
S11301E0000000000000000000000000000000000B
S11301F0000000636C6F6C48636C6F6C48636D60E7
S11302006D6A606A48680000000000000000000099
S113021000000000000000000000000000000000DA
S113022000000000000000000000000000000000CA
S113023000000000000000000000000000000000BA
S113024000000000000000000000000000000000AA
S1130250000000000000000000000000000000009A
S1130260000000000000000000000000000000008A
S1130270000000000000000000000000000000007A
S1130280000000000000000000000000000000006A
S1130290000000000000000000000000000000005A
S11302A0000000000000000000000000000000004A
S11302B0000000000000000000000000000000003A
S11302C0000000000000000000000000000000002A
S11302D0000000000000000000000000000000001A
S11302E0000000000000000000000000000000000A
S11302F00000002D4D60684D68888A4C8580654AF1
S1130300688886488180616383806383856686808C
S11303106686884A6C6D4F6F68516F8F8D4F6C681D
S11303204D6C8C8A4C8580654A68888648618081DA
S11303304D6C8C8A686C6D6F316F6D6C6D4F6F880E
S113034080686C6D6F2D6C6A686A4C6C858065681A
S11303506A6C4D6A8A8C4D6A8A8C4D6A6D527260E1
S113036032716F6D6F51718D802D2F6D6C6A6C4D74
S11303706D8A802A4D6C8C8A48618081284A4C2D74
S11303806D000000000000000000000000000000FC
S11303900000000000000000000000000000000059
S11303A00000000000000000000000000000000049
S11303B00000000000000000000000000000000039
S11303C00000000000000000000000000000000029
S11303D00000000000000000000000000000000019
S11303E00000000000000000000000000000000009
S11303F00000004A4C4E4F51536A808A4C6E808EE6
S11304006F8F804F404A4C4E4F51536A808A4C6ED6
S1130410808E6F8F804F4056537696807674315419
S113042051543676968056537696807674314A4C7B
S11304304E2F4F00000000000000000000000000EC
S113044000000000000000000000000000000000A8
S11304500000000000000000000000000000000098
S11304600000000000000000000000000000000088
S11304700000000000000000000000000000000078
S11304800000000000000000000000000000000068
S11304900000000000000000000000000000000058
S11304A00000000000000000000000000000000048
S11304B00000000000000000000000000000000038
S11304C00000000000000000000000000000000028
S11304D00000000000000000000000000000000018
S11304E00000000000000000000000000000000008
S11304F000000061818041688880486A8A804A28B7
S1130500668680466585804563838043216888804C
S11305104866868046658580452368888048668667
S11305208046658580452361818041688880486A6A
S11305308A804A2866868046658580456383804331
S11305402100000000000000000000000000000086
S11305500000000000000000000000000000000097
S11305600000000000000000000000000000000087
S11305700000000000000000000000000000000077
S11305800000000000000000000000000000000067
S11305900000000000000000000000000000000057
S11305A00000000000000000000000000000000047
S11305B00000000000000000000000000000000037
S11305C00000000000000000000000000000000027
S11305D00000000000000000000000000000000017
S11305E00000000000000000000000000000000007
S11305F00000000011241FBECFEFD8E0DEBFCDBF46
S113060011E0A0E0B1E0EEE5F8E102C005900D9242
S1130610A836B107D9F722E0A8E6B1E001C01D92DF
S1130620A832B207E1F70E94FB040C942D0C0C9441
S113063000000E94DB0580E090E0089580E00E94C5
S11306407A0681E291E00E945F0680E10E947A06C8
S113065082E391E00C945F061F920F920FB60F9203
S113066011242F933F934F935F936F937F938F93B3
S11306709F93AF93BF93EF93FF93809169018F5F33
S113068080936901833318F05F9A109269010E9484
S11306909506FF91EF91BF91AF919F918F917F91BB
S11306A06F915F914F913F912F910F900FBE0F90DB
S11306B01F9018958DE48093B30082E08093B0007E
S11306C097E09093B1008093700008955F98089527
S11306D0813319F08233B9F00895613341F0623304
S11306E079F06033F1F483E491E00C94B806BA0134
S11306F082E192E00E94F10B81E080936801089509
S11307008AE491E009C0613331F0623339F0603337
S113071041F40C946603CA010C94CF0680E00C9457
S11307200C080895FF920F931F93CF93DF9300E07B
S113073081E0800FE82FF0E0EE5EFD4F9081903273
S113074011F0082FF5CF0E5F1082C02F81E08C0FBF
S1130750E82FF0E0EE5EFD4F9081903211F0C82F4B
S1130760F5CFCE5F108285E00E947A06023039F41C
S113077080911202803319F48FE491E013C0E2E116
S1130780F2E001900020E9F73197E251F240D3E022
S1130790DE1B1D162CF480E20E945606D150F9CFC0
S11307A082E192E00E945F0684E10E947A06D0E032
S11307B010E0CE01801B910B029749F4F801EE5E24
S11307C0FD4F8081803319F48FE491E013C00E5EF5
S11307D01D4FF80101900020E9F7802F8E1B94E053
S11307E0F92EF80E1F142CF480E20E945606FA9497
S11307F0F9CFC8010E945F068FE10E947A06FE01CC
S1130800EE5EFD4F8081803311F08FE501C082E5FB
S11308100E9456068EE10E947A06FE01ED5EFD4FAF
S11308208081803311F08FE501C08CE40E9456066C
S11308308FE00E947A06FE01EB5EFD4F80818033DB
S113084011F08FE501C088E50E945606CC5EDD4FAD
S11308508881803321F45E9903C05E9A01C05E985A
S1130860DF91CF911F910F91FF9008951F920F92E6
S11308700FB60F9211242F933F934F935F936F936F
S11308807F938F939F93AF93BF93EF93FF93E091E5
S11308906A01F0E08091C600E250FE4F8083E0914F
S11308A06A01F0E0E250FE4F80818A3089F4E091E1
S11308B06A01F0E0E250FE4F10826091FF018091E6
S11308C0FE0140E052E00E94680310926A0105C0F4
S11308D080916A018F5F80936A01FF91EF91BF91CC
S11308E0AF919F918F917F916F915F914F913F91C4
S11308F02F910F900FBE0F901F9018958AB1837E91
S11309008AB98BB18C618BB98AE08093690083E0EA
S11309108DBB08951F920F920FB60F9211242F933F
S11309203F934F935F936F937F938F939F93AF9373
S1130930BF93EF93FF934C9B1AC065E070E080E097
S11309400E9414068737924090F069E170E081E0DC
S11309500E941406909303018093020169E170E000
S113096082E00E9414069093010180930001FF919C
S1130970EF91BF91AF919F918F917F916F915F9113
S11309804F913F912F910F900FBE0F901F9018958C
S11309901F920F920FB60F9211242F933F934F93F0
S11309A05F936F937F938F939F93AF93BF93EF93D3
S11309B0FF934C9903C083E591E002C087E591E081
S11309C00E94E205FF91EF91BF91AF919F918F91AA
S11309D07F916F915F914F913F912F910F900FBE37
S11309E00F901F9018958AB1806E8AB98BB18F7958
S11309F08BB95F9A0895CF93DF93CDB7DEB72F9766
S1130A000FB6F894DEBF0FBECDBF83E0E2E1F1E0A4
S1130A109E012F5F3F4F6901D90101900D928A9584
S1130A20E1F7FE0134968CE0DF011D928A95E9F727
S1130A300E942A07BFEFE0E7F2E0B150E040F04047
S1130A40E1F700C000000E943A060E9408060E94D6
S1130A50FD050E94F5050E94F3040E947E040E9495
S1130A6004080E945A030E941E0384E091E09093BC
S1130A702502809324027894812C912CA12CB12CF2
S1130A8020E2522E0E942107811102C00E94020717
S1130A9080916801882321F00E94920310926801DA
S1130AA04C9978C05D9905C08AE591E00E94E20501
S1130AB05D9A009102011091030169E170E081E007
S1130AC00E9414063801681A790A009100011091F5
S1130AD0010169E170E082E00E941406081B190B11
S1130AE07301E01AF10A060D171D20E8E216F1045D
S1130AF064F431E8E3163FEFF3065CF0C7010996AE
S1130B00439758F4E12CF12C08C09FE7E92EF12C0F
S1130B1004C081E8E82EFF24FA94003811055CF43F
S1130B2001388FEF180754F0C8010996439740F431
S1130B3000E010E005C00FE710E002C001E81FEF7D
S1130B40AE14BF0419F48016910659F14AE0BE01AF
S1130B506D5F7F4FC7010E94F80BF60101900020E2
S1130B60E9F73197EC19FD0981E08E0FD601AE0F3C
S1130B70B11DFD015082B601680F711DFB01108289
S1130B804AE0C8010E94F80BC6010E94E205480130
S1130B90570107C05D9B05C08EE591E00E94E20508
S1130BA05D98FFEF20E732E0F15020403040E1F75C
S1130BB000C0000067CF9091C00095FFFCCF8093E8
S1130BC0C6000895FC019191992339F08091C000E9
S1130BD085FFFCCF9093C600F6CF8091C00085FFBF
S1130BE0FCCF8AE08093C60008958091C00087FFFF
S1130BF003C08091C600F9CF08951092C5001092E9
S1130C00C40088E98093C10086E08093C2000895FF
S1130C1087B1887F87B986E880937A0088E38093D8
S1130C207E0010927B0008959B01806480937C0079
S1130C3040E060E070E0CB01E42FF0E0E217F3075E
S1130C4098F450917A00506450937A0050917A004D
S1130C5056FDFCCFE0917800F09179006E0F7F1F74
S1130C60811D911D4F5FE8CF40E050E00E94B00B22
S1130C70C9010895CF93DF9384B1856084B985B1A8
S1130C808A7F85B9CAEED0E0FE0184910E942407D0
S1130C9087EB9BE00197F1F700C00000219690E0FC
S1130CA0C33FD90789F7DF91CF910895289A2A98ED
S1130CB00E94240780E58A95F1F7289808951F93E8
S1130CC0CF93DF93EC01289A2A9880E011E0180F63
S1130CD0FE01E80FF11D8081882339F00E9424076A
S1130CE080E58A95F1F7812FF1CF2898DF91CF9194
S1130CF01F9108952A9880680E94240780E58A95A8
S1130D00F1F70895CF938295807F0E947A06289AFE
S1130D102A98C0E180E20E94240780E58A95F1F7D1
S1130D20C150C1F72898CF91089580916B01882311
S1130D30F1F08091F8019091F90101969093F901F5
S1130D408093F8018536910590F08091F7018F5FCB
S1130D508093F701863038F01092F70110926B01FE
S1130D6082E00E9482061092F9011092F80108951F
S1130D70CF93DF93EC0181E080936B011092F90132
S1130D801092F8011092F70182E00E94820680E23C
S1130D900E947A06CE01DF91CF910C945F06CF9327
S1130DA0DF93EC0180916C01883081F480916D01B6
S1130DB091E0980F90936D01877021E1829FC001AB
S1130DC0112481599E4F0E94B8060AC080916C017B
S1130DD08F5F80936C01893018F088E080936C01F8
S1130DE080916E0191E0980F90936E01877021E1DC
S1130DF0829FC0011124BE0181599E4FDF91CF9182
S1130E000C94F10B80916C018823D1F080E20E9454
S1130E107A0680916D0191E0980F90936D0187702F
S1130E2021E1829FC001112481599E4F0E945F06D7
S1130E3081E080936B0180916C01815080936C01FF
S1130E40089580916B0108958EBD0DB407FEFDCF0A
S1130E508EB5089584B18C6284B9249880E58CBDE4
S1130E600895CF92DF92EF92FF92CF93DF93D82F22
S1130E70682F70E06F71809180006115710521F415
S1130E808F7B8093800021C08064809380006150B8
S1130E907109072E000C880B990B0E94C5089B0151
S1130EA0AC016DE77CE987E89FE30E9451099B014F
S1130EB0AC0160E070E680E796E40E9422080E949C
S1130EC09408709389006093880020918800309181
S1130ED08900C091FB012F5F3F4F40E050E060E08C
S1130EE072E18AE790E00E94D20BCA01B9010E9424
S1130EF0C5086B017C01EC2FF0E0EE59FE4F6081D8
S1130F0070E080E090E00E94C50820E030E040E717
S1130F1053E40E9422089B01AC01C701B6010E9460
S1130F2022086B017C01D295D695D77061E070E000
S1130F3002C0660F771FDA95E2F7072E000C880BC4
S1130F40990B0E94C5089B01AC01C701B6010E9420
S1130F5022080E9494087093FD016093FC01DF91C4
S1130F60CF91FF90EF90DF90CF9008951F920F9252
S1130F700FB60F9211242F933F934F935F936F9368
S1130F807F938F939F93AF93BF93EF93FF9380913E
S1130F90FC019091FD0101979093FD018093FC0168
S1130FA08091FC019091FD01892BE9F48091FA0173
S1130FB08F5F8093FA01E091FB018091FA01F0E0E8
S1130FC0FE2FEE27E80FF11DED50FF4F84918111A4
S1130FD008C010926F00809181008E7F8093810001
S1130FE002C00E943107FF91EF91BF91AF919F9191
S1130FF08F917F916F915F914F913F912F910F90BE
S11310000FBE0F901F901895219A80E48093800062
S113101088E08093810008958093FB011092FA0187
S1131020E82FF0E0FE2FEE27ED50FF4F84910E9451
S1131030310782E080936F00E1E8F0E08081816015
S1131040808308950E9436080C9417090E941009A1
S113105058F00E94090940F029F45F3F29F00C94EC
S1131060000951110C944B090C9406090E9428099B
S113107068F39923B1F3552391F3951B550BBB27C3
S1131080AA2762177307840738F09F5F5F4F220F08
S1131090331F441FAA1FA9F335D00E2E3AF0E0E8FF
S11310A032D091505040E695001CCAF72BD0FE2F49
S11310B029D0660F771F881FBB1F261737074807DD
S11310C0AB07B0E809F0BB0B802DBF01FF27935895
S11310D05F4F3AF09E3F510578F00C9400090C9450
S11310E04B095F3FE4F3983ED4F386957795679573
S11310F0B795F7959F5FC9F7880F911D96958795CA
S113110097F90895E1E0660F771F881FBB1F6217E8
S113111073078407BA0720F0621B730B840BBA0BA6
S1131120EE1F88F7E09508950E94300988F09F57D4
S113113098F0B92F9927B751B0F0E1F0660F771FF7
S1131140881F991F1AF0BA95C9F714C0B13091F0ED
S11311500E944A09B1E008950C944A09672F782F38
S11311608827B85F39F0B93FCCF3869577956795B2
S1131170B395D9F73EF490958095709561957F4F1E
S11311808F4F9F4F0895E89409C097FB3EF49095C4
S11311908095709561957F4F8F4F9F4F9923A9F04C
S11311A0F92F96E9BB279395F695879577956795DB
S11311B0B795F111F8CFFAF4BB0F11F460FF1BC01F
S11311C06F5F7F4F8F4F9F4F16C0882311F096E9B2
S11311D011C0772321F09EE8872F762F05C0662360
S11311E071F096E8862F70E060E02AF09A95660F19
S11311F0771F881FDAF7880F9695879597F90895D2
S113120097F99F6780E870E060E008959FEF80ECB5
S1131210089500240A941616170618060906089558
S113122000240A9412161306140605060895092EBE
S11312300394000C11F4882352F0BB0F40F4BF2B2D
S113124011F460FF04C06F5F7F4F8F4F9F4F08956D
S113125057FD9058440F551F59F05F3F71F0479563
S1131260880F97FB991F61F09F3F79F08795089548
S1131270121613061406551FF2CF4695F1DF08C067
S1131280161617061806991FF1CF86957105610584
S113129008940895E894BB2766277727CB0197F92C
S11312A00895FA01EE0FFF1F309621053105A1F1D3
S11312B06115710561F48038BFE39B0749F16894B7
S11312C09038810561F08038BFEF9B0741F0992386
S11312D04AF5FF3FE1053105210519F1E894089429
S11312E0E795D901AA2329F4AB2FBE2FF85FD0F3D9
S11312F010C0FF5F70F4A695E0F7F73950F019F0CD
S1131300FF3A38F49F779F930DD00F9007FC9058C5
S1131310089546F00C94060960E070E080E89FE3CD
S113132008954FE79F775F934F933F932F930E94C6
S11313304C0A2F913F914F915F910E94C80A0C94DF
S1131340A90929F416F00C9400090C944A090C9488
S113135006090E943009A8F39638A0F707F80F92FF
S1131360E8942BE33AEA48EB5FE70E94DE0A0F9227
S11313700F920F924DB75EB70F920E94940AE8E65F
S1131380F0E00E94DB094F915F91EF91FF91E595A9
S1131390EE1FFF1F49F0FE57E0684427EE0F441F7D
S11313A0FA95E1F74195550B0E940E0A0F9007FE3E
S11313B00C94020A0895DF93CF931F930F93FF9227
S11313C0EF92DF927B018C01689406C0DA2EEF0164
S11313D00E94DB0AFE01E894A5912591359145917F
S11313E05591A6F3EF010E944D0BFE019701A80150
S11313F0DA9469F7DF90EF90FF900F911F91CF91EE
S1131400DF9108959B01AC0160E070E080E89FE308
S11314100C9422080C9400090C94A20B0E9430092D
S1131420D8F39923C9F3940F511DA3F3915050405D
S113143094F059F0882332F0660F771F881F91507B
S11314405040C1F79E3F51052CF7880F911D96958A
S1131450879597F908955F3FACF0983E9CF0BB27C1
S1131460869577956795B79508F4B1609395C1F71C
S1131470BB0F58F711F460FFE8CF6F5F7F4F8F4FBA
S11314809F4FE3CF0C944B0916F00C94A20B0C94D1
S1131490060968940C9400090E943009A8F3992362
S11314A0C1F3AEF3DF93CF931F930F93FF92C92F32
S11314B0DD2788232AF02197660F771F881FDAF724
S11314C020E030E040E85FEB9FE3883920F0803E85
S11314D038F021968F770E94360BE0E9F0E004C0E3
S11314E00E94360BEDEBF0E00E94DB098B01BE019C
S11314F0EC01FB2E6F5771097595771F880B990BBB
S11315000E94C50828E132E741E35FE30E94DB0A59
S1131510AF2D9801AE01FF900F911F91CF91DF91F4
S11315200E944D0B0C941709FA01DC01AA0FBB1F92
S11315309B01AC01BF5728F4222733274427507856
S113154020C0B75190F4AB2F0024469537952795CA
S1131550011CA395D2F3002071F0220F331F441F06
S1131560B395DAF30ED00C94350B61307105A0E815
S11315708A07B94630F49B01AC0166277727882790
S11315809078309621F020833183428353830895E9
S11315900E94DB0A0C9417090E94090938F00E9482
S11315A0100920F0952311F00C9400090C940609FD
S11315B011240C944B090E94280970F3959FC1F3E0
S11315C0950F50E0551F629FF001729FBB27F00DED
S11315D0B11D639FAA27F00DB11DAA1F649F662742
S11315E0B00DA11D661F829F2227B00DA11D621F91
S11315F0739FB00DA11D621F839FA00D611D221F4B
S1131600749F3327A00D611D231F849F600D211D2E
S1131610822F762F6A2F11249F5750409AF0F1F0B1
S113162088234AF0EE0FFF1FBB1F661F771F881F1A
S113163091505040A9F79E3F510580F00C94000949
S11316400C944B095F3FE4F3983ED4F38695779569
S11316506795B795F795E7959F5FC1F7FE2B880FC0
S1131660911D9695879597F908955058BB27AA27F9
S11316700E944D0B0C9417090E94090938F00E942E
S1131680100920F039F49F3F19F426F40C9406094C
S11316900EF4E095E7FB0C940009E92F0E94280959
S11316A058F3BA17620773078407950720F079F493
S11316B0A6F50C944A090EF4E0950B2EBA2FA02D32
S11316C00B01B90190010C01CA01A0011124FF27EB
S11316D0591B99F0593F50F4503E68F11A16F040E6
S11316E0A22F232F342F4427585FF3CF46953795E5
S11316F02795A795F0405395C9F77EF41F16BA0BAA
S1131700620B730B840BBAF09150A1F0FF0FBB1F57
S1131710661F771F881FC2F70EC0BA0F621F731FA0
S1131720841F48F4879577956795B795F7959E3FFD
S113173008F0B0CF9395880F08F09927EE0F97958E
S1131740879508959F3F31F0915020F487957795C0
S11317506795B795880F911D9695879597F9089584
S1131760A1E21A2EAA1BBB1BFD010DC0AA1FBB1FA1
S1131770EE1FFF1FA217B307E407F50720F0A21B13
S1131780B30BE40BF50B661F771F881F991F1A9480
S113179069F760957095809590959B01AC01BD01AA
S11317A0CF010895052E97FB1EF400940E94E90BC7
S11317B057FD07D00E94B00B07FC03D04EF40C94E5
S11317C0E90B50954095309521953F4F4F4F5F4F12
S11317D0089590958095709561957F4F8F4F9F4F99
S11317E00895FB01DC0101900D920020E1F70895BA
S11317F0BB274A3031F4992322F4BDE290958195B8
S11318009F4F0C94040CBB27FB015527AA27880F74
S1131810991FAA1FA41710F0A41B83955051B9F760
S1131820A05DAA3308F0A95DA193009779F7B111DF
S1131830B1931192CB010C941D0CDC01FC01672FB8
S113184071917723E1F7329704C07C916D93708393
S11118506291AE17BF07C8F30895F894FFCF56
S113185EFB01FF010000000000000000190300005E
S113186E0000303300000000000000000000000003
S113187E004672616D3A205F5F636D205049523AA3
S113188E5F0042616B3A205F5F636D2020433A2014
S113189E5F5F0053746F70702100504F4E470021EC
S11318AE21210030323000333200303431003034F4
S10B18BE3000B46E4B8064009D
S9030000FC
