S010000052656D6F746520312E7372656357
S11300000C94FA020C9455050C9493050C94170364
S11300100C9417030C9417030C9417030C94B0035B
S11300200C9417030C9417030C9417030C94C40733
S11300300C9417030C9417030C9417030C941703D4
S11300400C9417030C9417030C9401050C941703D8
S11300500C9417030C9417030C9417030C941703B4
S11300600C9417030C94170307634236B79BD8A765
S11300701A39685618AEBAAB558C1D3CB7CC5763C9
S1130080BD6DEDFD753EF6177231BF000000803F77
S113009008000000BE922449123EABAAAA2ABECD93
S11300A0CCCC4C3E00000080BEABAAAAAA3E000005
S11300B00000BF000000803F0000000000084178FD
S11300C0D3BB4387D1133D190E3CC3BD4282AD2B34
S11300D03E68EC8276BED98FE1A93E4C80EFFFBE2C
S11300E001C4FF7F3F00000000003915556E7238CF
S11300F00C01067180710000000000000000000087
S113010000000000000000000000000000000000EB
S113011000000000000000000000000000000000DB
S113012000000000000000000000000000000000CB
S113013000000000000000000000000000000000BB
S113014000000000000000000000000000000000AB
S1130150000000000000000000000000000000009B
S1130160000000000000000000000000000000008B
S1130170000000000000000000000000000000007B
S1130180000000000000000000000000000000006B
S1130190000000000000000000000000000000005B
S11301A0000000000000000000000000000000004B
S11301B0000000000000000000000000000000003B
S11301C0000000000000000000000000000000002B
S11301D0000000000000000000000000000000001B
S11301E0000000000000000000000000000000000B
S11301F0000000636C6F6C48636C6F6C48636D60E7
S11302006D6A606A48680000000000000000000099
S113021000000000000000000000000000000000DA
S113022000000000000000000000000000000000CA
S113023000000000000000000000000000000000BA
S113024000000000000000000000000000000000AA
S1130250000000000000000000000000000000009A
S1130260000000000000000000000000000000008A
S1130270000000000000000000000000000000007A
S1130280000000000000000000000000000000006A
S1130290000000000000000000000000000000005A
S11302A0000000000000000000000000000000004A
S11302B0000000000000000000000000000000003A
S11302C0000000000000000000000000000000002A
S11302D0000000000000000000000000000000001A
S11302E0000000000000000000000000000000000A
S11302F00000002D4D60684D68888A4C8580654AF1
S1130300688886488180616383806383856686808C
S11303106686884A6C6D4F6F68516F8F8D4F6C681D
S11303204D6C8C8A4C8580654A68888648618081DA
S11303304D6C8C8A686C6D6F316F6D6C6D4F6F880E
S113034080686C6D6F2D6C6A686A4C6C858065681A
S11303506A6C4D6A8A8C4D6A8A8C4D6A6D527260E1
S113036032716F6D6F51718D802D2F6D6C6A6C4D74
S11303706D8A802A4D6C8C8A48618081284A4C2D74
S11303806D000000000000000000000000000000FC
S11303900000000000000000000000000000000059
S11303A00000000000000000000000000000000049
S11303B00000000000000000000000000000000039
S11303C00000000000000000000000000000000029
S11303D00000000000000000000000000000000019
S11303E00000000000000000000000000000000009
S11303F00000004A4C4E4F51536A808A4C6E808EE6
S11304006F8F804F404A4C4E4F51536A808A4C6ED6
S1130410808E6F8F804F4056537696807674315419
S113042051543676968056537696807674314A4C7B
S11304304E2F4F00000000000000000000000000EC
S113044000000000000000000000000000000000A8
S11304500000000000000000000000000000000098
S11304600000000000000000000000000000000088
S11304700000000000000000000000000000000078
S11304800000000000000000000000000000000068
S11304900000000000000000000000000000000058
S11304A00000000000000000000000000000000048
S11304B00000000000000000000000000000000038
S11304C00000000000000000000000000000000028
S11304D00000000000000000000000000000000018
S11304E00000000000000000000000000000000008
S11304F000000061818041688880486A8A804A28B7
S1130500668680466585804563838043216888804C
S11305104866868046658580452368888048668667
S11305208046658580452361818041688880486A6A
S11305308A804A2866868046658580456383804331
S11305402100000000000000000000000000000086
S11305500000000000000000000000000000000097
S11305600000000000000000000000000000000087
S11305700000000000000000000000000000000077
S11305800000000000000000000000000000000067
S11305900000000000000000000000000000000057
S11305A00000000000000000000000000000000047
S11305B00000000000000000000000000000000037
S11305C00000000000000000000000000000000027
S11305D00000000000000000000000000000000017
S11305E00000000000000000000000000000000007
S11305F00000000011241FBECFEFD8E0DEBFCDBF46
S113060011E0A0E0B1E0EAE7F8E102C005900D9244
S1130610A238B107D9F722E0A2E8B1E001C01D92E7
S1130620A535B207E1F70E94CD050C943B0C0C9460
S113063000000F931F93CF93DF938091890184313E
S113064009F07BC010928901C0911101D09112016F
S113065069E170E081E00E942406C81BD90B009177
S11306600F011091100169E170E082E00E942406FC
S11306709801281B390B8E01020F131FC21BD30BC9
S1130680003811055CF401383FEF130754F0C8013A
S11306900496099740F400E010E005C00FE710E06D
S11306A002C001E81FEFC038D1055CF4C1388FEFF8
S11306B0D80754F0CE010496099740F4C0E0D0E086
S11306C005C0CFE7D0E002C0C1E8DFEF809184012C
S11306D0909185018017910739F48091820190915E
S11306E083018C179D0709F14AE062E071E0C801BB
S11306F00E94060CE0E0F1E001900020E9F7319758
S1130700E050F140DF01BB27A050BF4F80E28C9343
S1130710EF5F6E2F70E060507F4F4AE0CE010E9481
S1130720060C80E091E00E94F2051093850100938D
S11307308401D0938301C0938201DF91CF911F91F3
S11307400F91089580E00E94950684E191E00E9453
S11307507D0680E10E94950685E291E00C947D0679
S11307601F920F920FB60F9211242F933F934F9322
S11307705F936F937F938F939F93AF93BF93EF9305
S1130780FF9380918A018F5F80938A01833318F0ED
S11307905F9A10928A0180918901843128F48091B2
S11307A089018F5F8093890180918801882329F0D2
S11307B0809188018150809388010E94A206FF9154
S11307C0EF91BF91AF919F918F917F916F915F91C5
S11307D04F913F912F910F900FBE0F901F9018953E
S11307E08DE48093B30082E08093B00097E090930F
S11307F0B100809370000895813319F08233B9F009
S11308000895613341F0623379F0603361F586E332
S113081091E00C94CA06BA0184E392E00E94FF0BB3
S113082081E080938701089587E491E00EC06133ED
S113083059F018F4603331F00895623341F06433B1
S113084059F008955F980895CA010C94DB06FA01E3
S1130850808180530C941A08FA018081803311F04E
S11308605E9A08955E9808951F93CF93DF938FE166
S11308700E94950680913402803311F08FE501C007
S113088082E50E946E068EE10E94950680913502F3
S1130890803311F08FE501C08CE40E946E068FE076
S11308A00E94950680913702803311F08FE501C0D4
S11308B088E50E946E0680913602803319F480E048
S11308C00E941A08C5E081E08C0FE82FF0E0EC5C90
S11308D0FD4F9081903211F0C82FF5CFCE5F10827A
S11308E08C2F91E0980FE92FF0E0EC5CFD4F208114
S11308F0203211F0892FF5CFD2E0D80F108285E095
S11309000E949506C73039F480913402803319F47B
S113091088E591E013C0E9E3F2E001900020E9F7F3
S1130920CF018A53924013E0181B11162CF480E275
S11309300E946E061150F9CF89E392E00E947D0671
S113094084E10E9495068D2F90E0D0E08C1B9D0BD6
S1130950029749F4FE01EC5CFD4F8081803319F469
S113096088E591E011C0CC5CDD4FFE0101900020D0
S1130970E9F71C2F1E1B1C5F11162CF480E20E9449
S11309806E061150F9CFCE01DF91CF911F910C94D7
S11309907D060E940E078091130181110DC080E233
S11309A00E9495060E943207FC012081211102C099
S11309B08CE591E00E947D0680918701882321F0D7
S11309C00E943404109287014C990AC05D9905C0B5
S11309D08DE691E00E94F2055D9A0E94190307C01A
S11309E05D9B05C081E791E00E94F2055D98FFE7F9
S11309F028E381E0F15020408040E1F700C000008E
S1130A0008951F920F920FB60F9211242F933F93C4
S1130A104F935F936F937F938F939F93AF93BF9302
S1130A20EF93FF93E0918B01F0E08091C600E05ECC
S1130A30FD4F8083E0918B01F0E0E05EFD4F80810B
S1130A408A3089F4E0918B01F0E0E05EFD4F108282
S1130A50609121028091200242E252E00E94FC0354
S1130A6010928B0105C080918B018F5F80938B0165
S1130A70FF91EF91BF91AF919F918F917F916F9172
S1130A805F914F913F912F910F900FBE0F901F9048
S1130A9018958AB1837E8AB98BB18C618BB98AE04F
S1130AA08093690083E08DBB08951F920F920FB667
S1130AB00F9211242F933F934F935F936F937F93E0
S1130AC08F939F93AF93BF93EF93FF934C9B1AC065
S1130AD065E070E080E00E9424068737924090F041
S1130AE069E170E081E00E942406909312018093F2
S1130AF0110169E170E082E00E94240690931001E4
S1130B0080930F01FF91EF91BF91AF919F918F91CE
S1130B107F916F915F914F913F912F910F900FBEF5
S1130B200F901F9018951F920F920FB60F921124D9
S1130B302F933F934F935F936F937F938F939F93E1
S1130B40AF93BF93EF93FF938091880181110CC001
S1130B504C9903C085E791E002C089E791E00E94C7
S1130B60F20584E180938801FF91EF91BF91AF91E9
S1130B709F918F917F916F915F914F913F912F91B1
S1130B800F900FBE0F901F9018958AB1806E8AB98E
S1130B908BB18F798BB95F9A08950E9438072FEF34
S1130BA080E792E0215080409040E1F700C00000CF
S1130BB00E944F060E9418060E940D060E94050618
S1130BC00E94C5050E9449050E9412080E94F00374
S1130BD00E94A2037894809186018111FCCF0E9427
S1130BE0C904F9CFFC019191992339F08091C00097
S1130BF085FFFCCF9093C600F6CF8091C00085FF9F
S1130C00FCCF8AE08093C60008958091C00087FFDE
S1130C1003C08091C600F9CF08951092C5001092C8
S1130C20C40088E98093C10086E08093C2000895DF
S1130C3087B1887F87B986E880937A0088E38093B8
S1130C407E0010927B0008959B01806480937C0059
S1130C5040E060E070E0CB01E42FF0E0E217F3073E
S1130C6098F450917A00506450937A0050917A002D
S1130C7056FDFCCFE0917800F09179006E0F7F1F54
S1130C80811D911D4F5FE8CF40E050E00E94BE0BF4
S1130C90C90108958EBD0DB407FEFDCF0895CF930D
S1130CA0DF9384B1856084B985B18A7F85B9CAEE42
S1130CB0D0E0FE0184910E944A0687EB9BE00197F5
S1130CC0F1F700C00000219690E0C33FD90789F7EF
S1130CD010928C012A9ADF91CF910895289A2A982C
S1130CE00E944A0680E58A95F1F728982A9A80910D
S1130CF08C018F5F80938C010895CF93DF93289AA2
S1130D002A98EC018991882359F00E944A0680E5CB
S1130D108A95F1F780918C018F5F80938C01F2CFDB
S1130D2028982A9ADF91CF910895CF93C82F2A98B3
S1130D3080680E944A0680E58A95F1F7C0938C0189
S1130D40CF91089580918D01882319F180911A0221
S1130D5090911B02019690931B0280931A02853690
S1130D609105B8F0809119028F5F80931902863043
S1130D7060F01092190210928D016CE671E084E427
S1130D8092E00E94FF0B1092130110921B0210922A
S1130D901A02089521E020938D0110921B021092F3
S1130DA01A0210921902BC0184E492E00E94FF0B23
S1130DB0109213010895CF93DF93EC0180918E017B
S1130DC0883081F480918F0191E0980F90938F0186
S1130DD0877021E1829FC00111248F569E4F0E948B
S1130DE0CA060AC080918E018F5F80938E0189307C
S1130DF018F088E080938E018091900191E0980F23
S1130E0090939001877021E1829FC0011124BE015B
S1130E108F569E4FDF91CF910C94FF0B80918E01E2
S1130E208823F9F080918D0181111BC060918F019D
S1130E3081E0860F80938F01677081E1689FB00124
S1130E4011246F567E4F84E492E00E94FF0B1092AF
S1130E50130181E080938D0180918E0181508093F4
S1130E608E01089581E08093130184E492E0089553
S1130E7084B18C6284B9249880E58CBD0895CF92A6
S1130E80DF92EF92FF92CF93DF93D82F682F70E019
S1130E906F71809180006115710521F48F7B8093BF
S1130EA0800021C080648093800061507109072E06
S1130EB0000C880B990B0E94D3089B01AC016DE7D1
S1130EC07CE987E89FE30E945F099B01AC0160E035
S1130ED070E680E796E40E9430080E94A2087093AE
S1130EE08900609388002091880030918900C09126
S1130EF01D022F5F3F4F40E050E060E072E18AE75F
S1130F0090E00E94E00BCA01B9010E94D3086B0172
S1130F107C01EC2FF0E0E458FE4F608170E080E04B
S1130F2090E00E94D30820E030E040E753E40E94C0
S1130F3030089B01AC01C701B6010E9430086B0167
S1130F407C01D295D695D77061E070E002C0660F3F
S1130F50771FDA95E2F7072E000C880B990B0E9495
S1130F60D3089B01AC01C701B6010E9430080E945E
S1130F70A20870931F0260931E02DF91CF91FF902D
S1130F80EF90DF90CF9008951F920F920FB60F92BB
S1130F9011242F933F934F935F936F937F938F937A
S1130FA09F93AF93BF93EF93FF9380911E02909111
S1130FB01F02019790931F0280931E0280911E02CC
S1130FC090911F02892BE9F480911C028F5F80931A
S1130FD01C02E0911D0280911C02F0E0FE2FEE271E
S1130FE0E80FF11DED50FF4F8491811108C010925C
S1130FF06F00809181008E7F8093810002C00E94E7
S11310003F07FF91EF91BF91AF919F918F917F9196
S11310106F915F914F913F912F910F900FBE0F9061
S11310201F901895219A80E48093800088E0809333
S11310308100089580931D0210921C02E82FF0E0B5
S1131040FE2FEE27ED50FF4F84910E943F0782E070
S113105080936F00E1E8F0E08081816080830895EF
S11310600E9444080C9425090E941E0958F00E940D
S1131070170940F029F45F3F29F00C940E0951112F
S11310800C9459090C9414090E94360968F39923A5
S1131090B1F3552391F3951B550BBB27AA27621770
S11310A07307840738F09F5F5F4F220F331F441F7D
S11310B0AA1FA9F335D00E2E3AF0E0E832D09150B1
S11310C05040E695001CCAF72BD0FE2F29D0660F9E
S11310D0771F881FBB1F261737074807AB07B0E8E1
S11310E009F0BB0B802DBF01FF2793585F4F3AF0E7
S11310F09E3F510578F00C940E090C9459095F3FFA
S1131100E4F3983ED4F3869577956795B795F7956C
S11311109F5FC9F7880F911D9695879597F9089554
S1131120E1E0660F771F881FBB1F621773078407F0
S1131130BA0720F0621B730B840BBA0BEE1F88F7FF
S1131140E09508950E943E0988F09F5798F0B92FC2
S11311509927B751B0F0E1F0660F771F881F991FE8
S11311601AF0BA95C9F714C0B13091F00E94580929
S1131170B1E008950C945809672F782F8827B85F39
S113118039F0B93FCCF3869577956795B395D9F740
S11311903EF490958095709561957F4F8F4F9F4F4A
S11311A00895E89409C097FB3EF490958095709556
S11311B061957F4F8F4F9F4F9923A9F0F92F96E99F
S11311C0BB279395F695879577956795B795F11114
S11311D0F8CFFAF4BB0F11F460FF1BC06F5F7F4FB1
S11311E08F4F9F4F16C0882311F096E911C07723C3
S11311F021F09EE8872F762F05C0662371F096E8CC
S1131200862F70E060E02AF09A95660F771F881F9A
S1131210DAF7880F9695879597F9089597F99F6758
S113122080E870E060E008959FEF80EC089500246A
S11312300A941616170618060906089500240A9437
S113124012161306140605060895092E0394000CBD
S113125011F4882352F0BB0F40F4BF2B11F460FF4C
S113126004C06F5F7F4F8F4F9F4F089557FD905875
S1131270440F551F59F05F3F71F04795880F97FB56
S1131280991F61F09F3F79F0879508951216130610
S11312901406551FF2CF4695F1DF08C0161617063F
S11312A01806991FF1CF8695710561050894089574
S11312B0E894BB2766277727CB0197F90895FA01AD
S11312C0EE0FFF1F309621053105A1F1611571055F
S11312D061F48038BFE39B0749F168949038810535
S11312E061F08038BFEF9B0741F099234AF5FF3F37
S11312F0E1053105210519F1E8940894E795D90130
S1131300AA2329F4AB2FBE2FF85FD0F310C0FF5FE0
S113131070F4A695E0F7F73950F019F0FF3A38F475
S11313209F779F930DD00F9007FC9058089546F037
S11313300C94140960E070E080E89FE308954FE79F
S11313409F775F934F933F932F930E945A0A2F9155
S11313503F914F915F910E94D60A0C94B70929F4EA
S113136016F00C940E090C9458090C9414090E945C
S11313703E09A8F39638A0F707F80F92E8942BE3F8
S11313803AEA48EB5FE70E94EC0A0F920F920F9241
S11313904DB75EB70F920E94A20AE8E6F0E00E9401
S11313A0E9094F915F91EF91FF91E595EE1FFF1FC2
S11313B049F0FE57E0684427EE0F441FFA95E1F721
S11313C04195550B0E941C0A0F9007FE0C94100ABD
S11313D00895DF93CF931F930F93FF92EF92DF92C1
S11313E07B018C01689406C0DA2EEF010E94E90AA1
S11313F0FE01E894A5912591359145915591A6F367
S1131400EF010E945B0BFE019701A801DA9469F7D2
S1131410DF90EF90FF900F911F91CF91DF9108958E
S11314209B01AC0160E070E080E89FE30C9430081D
S11314300C940E090C94B00B0E943E09D8F3992326
S1131440C9F3940F511DA3F39150504094F059F0F7
S1131450882332F0660F771F881F91505040C1F7E0
S11314609E3F51052CF7880F911D9695879597F906
S113147008955F3FACF0983E9CF0BB278695779526
S11314806795B79508F4B1609395C1F7BB0F58F70A
S113149011F460FFE8CF6F5F7F4F8F4F9F4FE3CF13
S11314A00C94590916F00C94B00B0C94140968941C
S11314B00C940E090E943E09A8F39923C1F3AEF3DC
S11314C0DF93CF931F930F93FF92C92FDD278823B8
S11314D02AF02197660F771F881FDAF720E030E0A3
S11314E040E85FEB9FE3883920F0803E38F0219696
S11314F08F770E94440BE0E9F0E004C00E94440BA3
S1131500EDEBF0E00E94E9098B01BE01EC01FB2E3A
S11315106F5771097595771F880B990B0E94D30833
S113152028E132E741E35FE30E94E90AAF2D980125
S1131530AE01FF900F911F91CF91DF910E945B0B41
S11315400C942509FA01DC01AA0FBB1F9B01AC0115
S1131550BF5728F4222733274427507820C0B75197
S113156090F4AB2F0024469537952795011CA3953D
S1131570D2F3002071F0220F331F441FB395DAF326
S11315800ED00C94430B61307105A0E88A07B9466C
S113159030F49B01AC016627772788279078309632
S11315A021F0208331834283538308950E94E90A02
S11315B00C9425090E94170938F00E941E0920F096
S11315C0952311F00C940E090C94140911240C9415
S11315D059090E94360970F3959FC1F3950F50E0A5
S11315E0551F629FF001729FBB27F00DB11D639FD1
S11315F0AA27F00DB11DAA1F649F6627B00DA11D77
S1131600661F829F2227B00DA11D621F739FB00D1C
S1131610A11D621F839FA00D611D221F749F33278C
S1131620A00D611D231F849F600D211D822F762F25
S11316306A2F11249F5750409AF0F1F088234AF002
S1131640EE0FFF1FBB1F661F771F881F915050406E
S1131650A9F79E3F510580F00C940E090C9459098A
S11316605F3FE4F3983ED4F3869577956795B795F5
S1131670F795E7959F5FC1F7FE2B880F911D96950F
S1131680879597F908955058BB27AA270E945B0BAA
S11316900C9425090E94170938F00E941E0920F0B5
S11316A039F49F3F19F426F40C9414090EF4E095D0
S11316B0E7FB0C940E09E92F0E94360958F3BA1778
S11316C0620773078407950720F079F4A6F50C9454
S11316D058090EF4E0950B2EBA2FA02D0B01B90179
S11316E090010C01CA01A0011124FF27591B99F094
S11316F0593F50F4503E68F11A16F040A22F232FA0
S1131700342F4427585FF3CF469537952795A795EF
S1131710F0405395C9F77EF41F16BA0B620B730B96
S1131720840BBAF09150A1F0FF0FBB1F661F771F07
S1131730881FC2F70EC0BA0F621F731F841F48F4BC
S1131740879577956795B795F7959E3F08F0B0CF45
S11317509395880F08F09927EE0F9795879508952C
S11317609F3F31F0915020F4879577956795B79511
S1131770880F911D9695879597F90895A1E21A2EE1
S1131780AA1BBB1BFD010DC0AA1FBB1FEE1FFF1F21
S1131790A217B307E407F50720F0A21BB30BE40B71
S11317A0F50B661F771F881F991F1A9469F76095B8
S11317B07095809590959B01AC01BD01CF01089572
S11317C0052E97FB1EF400940E94F70B57FD07D0DB
S11317D00E94BE0B07FC03D04EF40C94F70B5095FB
S11317E04095309521953F4F4F4F5F4F0895909509
S11317F08095709561957F4F8F4F9F4F0895FB01A2
S1131800DC0101900D920020E1F70895BB274A30D6
S113181031F4992322F4BDE2909581959F4F0C9465
S1131820120CBB27FB015527AA27880F991FAA1F53
S1131830A41710F0A41B83955051B9F7A05DAA33E7
S113184008F0A95DA193009779F7B111B1931192B2
S1131850CB010C942B0CDC01FC01672F71917723D5
S1131860E1F7329704C07C916D9370836291AE1757
S10D1870BF07C8F30895F894FFCFF2
S113187A303300000000000000000000000000FBFC
S113188A01FF01014672616D3A205F5F636D20506A
S113189A49523A5F0042616B3A205F5F636D2020D0
S11318AA433A205F5F0053746F7070212020202018
S11318BA20202020202000504F4E47202020202086
S11318CA2020202020202000212121002020202047
S11318DA20202020202020202020202000303431E5
S11318EA003034300030323000333200B46E4B8072
S10518FA640084
S9030000FC
