S010000052656D6F746520312E7372656357
S11300000C940E030C94EC080C9452090C942B03DE
S11300100C942B030C942B030C942B030C94A50627
S11300200C942B030C942B030C942B030C94E90BCE
S11300300C942B030C942B030C942B030C942B0384
S11300400C942B030C942B030C9496080C942B0304
S11300500C942B030C942B030C942B030C942B0364
S11300600C942B030C942B0307634236B79BD8A73D
S11300701A39685618AEBAAB558C1D3CB7CC5763C9
S1130080BD6DEDFD753EF6177231BF000000803F77
S113009008000000BE922449123EABAAAA2ABECD93
S11300A0CCCC4C3E00000080BEABAAAAAA3E000005
S11300B00000BF000000803F0000000000084178FD
S11300C0D3BB4387D1133D190E3CC3BD4282AD2B34
S11300D03E68EC8276BED98FE1A93E4C80EFFFBE2C
S11300E001C4FF7F3F00000000000E111111111127
S11300F00E1F11110A040A11111F00000000000054
S1130100001F0E15151F15150E0011151F0E1F15B6
S113011011003915556E72380C010671807100009A
S113012000000000000000000000000000000000CB
S113013000000000000000000000000000000000BB
S113014000000000000000000000000000000000AB
S1130150000000000000000000000000000000009B
S1130160000000000000000000000000000000008B
S1130170000000000000000000000000000000007B
S1130180000000000000000000000000000000006B
S1130190000000000000000000000000000000005B
S11301A0000000000000000000000000000000004B
S11301B0000000000000000000000000000000003B
S11301C0000000000000000000000000000000002B
S11301D0000000000000000000000000000000001B
S11301E0000000000000000000000000000000000B
S11301F000000000000000000000000000000000FB
S113020000000000000000000000000000000000EA
S11302100000000000000000000000636C6F6C48E8
S1130220636C6F6C48636D606D6A606A4868000057
S113023000000000000000000000000000000000BA
S113024000000000000000000000000000000000AA
S1130250000000000000000000000000000000009A
S1130260000000000000000000000000000000008A
S1130270000000000000000000000000000000007A
S1130280000000000000000000000000000000006A
S1130290000000000000000000000000000000005A
S11302A0000000000000000000000000000000004A
S11302B0000000000000000000000000000000003A
S11302C0000000000000000000000000000000002A
S11302D0000000000000000000000000000000001A
S11302E0000000000000000000000000000000000A
S11302F000000000000000000000000000000000FA
S113030000000000000000000000000000000000E9
S113031000000000000000000000002D4D60684D4A
S113032068888A4C8580654A6888864881806163CC
S113033083806383856686806686884A6C6D4F6F8A
S113034068516F8F8D4F6C684D6C8C8A4C858065BD
S11303504A688886486180814D6C8C8A686C6D6FB0
S1130360316F6D6C6D4F6F8880686C6D6F2D6C6A2A
S1130370686A4C6C858065686A6C4D6A8A8C4D6AC3
S11303808A8C4D6A6D52726032716F6D6F51718DCE
S1130390802D2F6D6C6A6C4D6D8A802A4D6C8C8A11
S11303A048618081284A4C2D6D0000000000000047
S11303B00000000000000000000000000000000039
S11303C00000000000000000000000000000000029
S11303D00000000000000000000000000000000019
S11303E00000000000000000000000000000000009
S11303F000000000000000000000000000000000F9
S113040000000000000000000000000000000000E8
S113041000000000000000000000004A4C4E4F5154
S1130420536A808A4C6E808E6F8F804F404A4C4E48
S11304304F51536A808A4C6E808E6F8F804F405626
S1130440537696807674315451543676968056534A
S11304507696807674314A4C4E2F4F00000000008F
S11304600000000000000000000000000000000088
S11304700000000000000000000000000000000078
S11304800000000000000000000000000000000068
S11304900000000000000000000000000000000058
S11304A00000000000000000000000000000000048
S11304B00000000000000000000000000000000038
S11304C00000000000000000000000000000000028
S11304D00000000000000000000000000000000018
S11304E00000000000000000000000000000000008
S11304F000000000000000000000000000000000F8
S113050000000000000000000000000000000000E7
S113051000000000000000000000006181804168CC
S11305208880486A8A804A28668680466585804530
S11305306383804321688880486686804665858019
S113054045236888804866868046658580452361A2
S1130550818041688880486A8A804A286686804605
S1130560658580456383804321000000000000000E
S11305700000000000000000000000000000000077
S11305800000000000000000000000000000000067
S11305900000000000000000000000000000000057
S11305A00000000000000000000000000000000047
S11305B00000000000000000000000000000000037
S11305C00000000000000000000000000000000027
S11305D00000000000000000000000000000000017
S11305E00000000000000000000000000000000007
S11305F000000000000000000000000000000000F7
S113060000000000000000000000000000000000E6
S113061000000000000000000000000011241FBEC4
S1130620CFEFD8E0DEBFCDBF11E0A0E0B1E0E4EC55
S1130630F0E202C005900D92AE3CB107D9F723E079
S1130640AEECB1E001C01D92A33CB207E1F70E94F9
S11306508C090C9460100C9400008F3068F46F3097
S113066058F49FE0899FF0011124ED52FE4FE60FEC
S1130670F11D908181E0941380E008956AE071E0B7
S113068081E00E949F0A62E071E082E00E949F0A7A
S11306906AEF70E083E00E949F0A62EF70E084E0FA
S11306A00E949F0A6AEE70E085E00C949F0A97E02E
S11306B09093D2019093D10196E09093CE018093D0
S11306C0000120E030E04FE050E280E090E0489FFD
S11306D0F001499FF00D1124ED52FE4FE20FF31F7C
S11306E0508301968F30910591F72F5F3F4F2F3044
S11306F0310559F708958091D201811103C081E039
S11307008093D2018091D20181508093D2010895C7
S11307108091D2018F5F8093D2018091D2018F307A
S113072018F08EE08093D20108958091D101811157
S113073003C081E08093D1018091D10181508093E5
S1130740D1019091D1018091CE01981720F480912C
S1130750D1018093CE0108958091D1018F5F809360
S1130760D1018091D1018F3018F08EE08093D101B6
S11307702091D1018091CE0130E090E00296821761
S113078093072CF48091D10182508093CE01089577
S1130790DC01809100018823D1F1E091D2018091A4
S11307A0D1019FE09E9FF0011124ED52FE4FE80F0E
S11307B0F11D8081803259F58091D2018093D0015E
S11307C08091D1018093CF0110920001E091D20178
S11307D08091D1019E9FF0011124ED52FE4FE80F4C
S11307E0F11D88E580836C9383E311968C931197B4
S11307F08091D201805D12968C9312978091D101E1
S1130800805D13968C93139714961C9208951C92F2
S11308100895FC0181E080930001928190539093AC
S1130820D001838180538093CF018091D001809344
S1130830D2018091CF018093D101E091D0018091C8
S1130840CF019FE0E99FF0011124ED52FE4FE80F24
S1130850F11D8FE480839091CF018091CE01981790
S113086020F48091CF018093CE012091CF0180911B
S1130870CE0130E090E00296821793072CF4809129
S1130880CF0182508093CE010895CF93DF932091BE
S1130890CE0130E0BFE04091CE01622F70E050E025
S11308A04E5F5F4F461757073CF1432F50E0EC0172
S11308B0C40FD51F293010F4E1E301C0E8E3E20FCF
S11308C0E883A1E0A30F40E050E0B49FF001B59F9E
S11308D0F00D1124ED52FE4FE60FF71FC081FC010D
S11308E0EA0FF11DC083AF5F4F5F5F4F4F3051057B
S11308F061F7305F2F5FCFCF2091D1013091CE01CE
S1130900E091D201231BEF5F30E1239FE00D11241E
S113091020910001F0E0E80FF91F222359F0208113
S11309202F3421F0283521F421E00EC022E00CC040
S11309302AE20AC020812F3421F0283521F424E052
S113094003C025E001C023E02083FC0110AADF914D
S1130950CF910895FF920F931F93CF93DF93E0916C
S1130960D0018091CF019FE0E99FF0011124ED5265
S1130970FE4FE80FF11DC0811091D0010091CF010D
S1130980D1E04C2F602F812F8D1B0E942D038823D3
S113099011F0DF5FF6CF1091D001D11BFD2EF10EC7
S11309A01F5F4C2F602F812F0E942D038111F6CFE2
S11309B084E08F1510F481E069C00091D00110919A
S11309C0CF01D1E04C2F612F6D1B802F0E942D038E
S11309D0882311F0DF5FF6CF1091CF01D11BFD2EDC
S11309E0F10E1F5F4C2F612F802F0E942D03811168
S11309F0F6CF94E09F15F8F2D091D0010091CF0189
S1130A0011E04C2F602F611B8D2F811B0E942D0341
S1130A10882311F01F5FF5CF0091D001D091CF0151
S1130A201D1B0D1BF12EFD0EDF5F4C2F6D2F802F34
S1130A308D0F0E942D038111F5CF84E08F1508F4EA
S1130A40BACFD091D0010091CF0111E04C2F612F8A
S1130A50600F8D2F811B0E942D03882311F01F5FCF
S1130A60F5CFD091D0010091CF011D1BF12EFD0EC9
S1130A700150DF5F4C2F602F8D2F0E942D038111B9
S1130A80F5CF81E094E09F1508F080E0DF91CF91ED
S1130A901F910F91FF9008951092BA021092B9021B
S1130AA021E0209301011092B8020C94EF0A0F93F5
S1130AB01F93CF93DF938091B4028823A9F02FEF83
S1130AC089E698E1215080409040E1F700C00000A1
S1130AD08091B402813019F082E291E002C089E190
S1130AE091E00E944C057DC04C9917C063E389E8EE
S1130AF093E00E94C80380918903882371F00E94C7
S1130B00AA04882319F081E08093B40289E893E071
S1130B100E94B80981E08093010164E170E081E002
S1130B200E94FB098C0164E170E082E00E94FB09F1
S1130B30EC0165E070E080E00E94FB092091120165
S1130B4030911301255031092817390718F481E031
S1130B5080930201809102018823A1F18091160102
S1130B609091170188968017910718F40E94AC039E
S1130B700AC080911601909117018D9708171907E3
S1130B8038F40E94950381E08093010110920201E0
S1130B90809114019091150149968C179D0718F4C2
S1130BA00E947B030AC0809114019091150149971A
S1130BB0C817D90738F40E94880381E080930101A3
S1130BC01092020180910101882359F088E593E095
S1130BD00E94450480E00E94790A88E593E00E941F
S1130BE0540A2FE788E391E0215080409040E1F7D8
S1130BF000C00000DF91CF911F910F91089581E013
S1130C008093BA021092B402809301015D9B05C0E7
S1130C108CE291E00E94B8095D9808950F931F93A8
S1130C20CF93DF938091C102843109F07BC010928D
S1130C30C102C0911601D091170169E170E081E011
S1130C400E94FB09C81BD90B0091140110911501D6
S1130C5069E170E082E00E94FB099801281B390BCE
S1130C608E01020F131FC21BD30B003811055CF455
S1130C7001383FEF130754F0C8010496099740F474
S1130C8000E010E005C00FE710E002C001E81FEF2C
S1130C90C038D1055CF4C1388FEFD80754F0CE01C9
S1130CA00496099740F4C0E0D0E005C0CFE7D0E057
S1130CB002C0C1E8DFEF8091BD029091BE028017AF
S1130CC0910739F48091BB029091BC028C179D0767
S1130CD009F14AE065E071E0C8010E942B10E3E0ED
S1130CE0F1E001900020E9F73197E350F140DF0192
S1130CF0BB27AD5FBE4F80E28C93EF5F6E2F70E039
S1130D006D5F7E4F4AE0CE010E942B1083E091E09C
S1130D100E94B8091093BE020093BD02D093BC0296
S1130D20C093BB02DF91CF911F910F91089580E092
S1130D300E94790A80E391E00E94540A80E10E94B3
S1130D40790A81E491E00C94540A1F920F920FB631
S1130D500F9211242F933F934F935F936F937F933D
S1130D608F939F93AF93BF93EF93FF938091C202AE
S1130D708F5F8093C202833318F05F9A1092C2028D
S1130D808091C102843128F48091C1028F5F8093E5
S1130D90C1028091C002882329F08091C002815051
S1130DA08093C0028091B5029091B6028838934135
S1130DB050F48091B5029091B60201969093B602D8
S1130DC08093B50206C01092B8021092B602109237
S1130DD0B5020E94C70AFF91EF91BF91AF919F9115
S1130DE08F917F916F915F914F913F912F910F90D0
S1130DF00FBE0F901F9018958DE48093B30082E08E
S1130E008093B00097E09093B100809370000895B0
S1130E10CF93DF93EA01813319F08233D1F06AC0B2
S1130E20613359F0623391F0603309F063C082E5B5
S1130E3091E0DF91CF910C94EF0ABA0182EA93E03A
S1130E400E94241081E08093BF0254C083E691E0A5
S1130E5011C0623399F038F4603351F0613309F012
S1130E6049C0CA0107C0633379F06433D9F142C081
S1130E705F9840C0DF91CF910C94000B8881805320
S1130E80DF91CF910C943F0C8091BA028130B1F480
S1130E908881813430F084E791E0DF91CF910C9424
S1130EA04C05CA0102970E9409040E94AA048823DF
S1130EB019F082E08093B40281E006C08881803317
S1130EC030F481E08093B9028093010113C00E9441
S1130ED0FF0580E00E945703CE010297DF91CF9176
S1130EE00C9409048881813311F45E9A03C05E98DE
S1130EF01092B702DF91CF9108951F93CF93DF93A0
S1130F008FE10E94790A8091A203803311F08FE56A
S1130F1001C082E50E94450A8EE10E94790A80910F
S1130F20A303803311F08FE501C08CE40E94450ACD
S1130F308FE00E94790A8091A503803311F08FE538
S1130F4001C088E50E94450A8091A403803319F406
S1130F5080E00E943F0CC5E081E08C0FE82FF0E0B8
S1130F60EE55FC4F9081903211F0C82FF5CFCE5F33
S1130F7010828C2F91E0980FE92FF0E0EE55FC4F92
S1130F802081203211F0892FF5CFD2E0D80F1082C2
S1130F9085E00E94790AC73039F48091A203803336
S1130FA019F482E891E013C0E7EAF3E0019000202D
S1130FB0E9F7CF01885A934013E0181B11162CF45B
S1130FC080E20E94450A1150F9CF87EA93E00E941B
S1130FD0540A84E10E94790A8D2F90E0D0E08C1BA2
S1130FE09D0B029749F4FE01EE55FC4F808180333E
S1130FF019F482E891E011C0CE55DC4FFE01019056
S11310000020E9F71C2F1E1B1C5F11162CF480E234
S11310100E94450A1150F9CFCE01DF91CF911F9163
S11310200C94540A8091B902882301F18091010142
S1131030882359F00E946C0A80E10E94790A87E9AA
S113104091E00E94540A109201014C9965C00E94DB
S1131050FF0581E00E9457032FEF80E792E02150C3
S113106080409040E1F700C0000056C0809101012B
S1131070882359F080E00E94860A81E00E94860A53
S11310800E9497061092010147C00E94330B809181
S1131090180181110DC080E20E94790A0E94570B49
S11310A0FC012081211102C086E891E00E94540ACB
S11310B08091BF02882321F00E947D071092BF0215
S11310C04C990EC08091B70281110AC05D9905C088
S11310D085EA91E00E94B8095D9A0E940E0607C055
S11310E05D9B05C08CE291E00E94B8095D981E9951
S11310F013C08091B80281110FC089EA91E00E9467
S1131100B8098DEA91E00E94EF0A81E08093B80269
S11311101092B6021092B502FFE728E381E0F15085
S113112020408040E1F700C0000008951F920F9214
S11311300FB60F9211242F933F934F935F936F93A6
S11311407F938F939F93AF93BF93EF93FF93E0911C
S1131150C302F0E08091C600E257FC4F8083E09127
S1131160C302F0E0E257FC4F80818A3089F4E091B9
S1131170C302F0E0E257FC4F108260918F0380912C
S11311808E0340E953E00E9408071092C30205C091
S11311908091C3028F5F8093C302FF91EF91BF914F
S11311A0AF919F918F917F916F915F914F913F91FB
S11311B02F910F900FBE0F901F9018958AB1837EC8
S11311C08AB98BB18C618BB926982E9A8AE0809368
S11311D0690083E08DBB08951F920F920FB60F92A2
S11311E011242F933F934F935F936F937F938F9328
S11311F09F93AF93BF93CF93EF93FF93C091BA02A2
S1131200C13059F484E791E00E944C058DEB91E0E4
S11312100E94B809C093B70233C08091B9028823F1
S113122031F01092B90281E08093010129C04C9BF6
S113123027C080E00E94EA09209112013091130135
S11312402550310928173907D8F469E170E080E0A6
S11312500E94FB09909313018093120169E170E0ED
S113126081E00E94FB09909317018093160169E1C4
S113127070E082E00E94FB099093150180931401B1
S1131280FF91EF91CF91BF91AF919F918F917F91FA
S11312906F915F914F913F912F910F900FBE0F90DF
S11312A01F9018951F920F920FB60F9211242F932F
S11312B03F934F935F936F937F938F939F93AF93DA
S11312C0BF93EF93FF938091C00281110CC04C999E
S11312D003C081EC91E002C085EC91E00E94B80962
S11312E084E18093C002FF91EF91BF91AF919F91F0
S11312F08F917F916F915F914F913F912F910F90BB
S11313000FBE0F901F9018958AB1806E8AB98BB169
S11313108F798BB95F9A08950E945D0B2FEF80E758
S113132092E0215080409040E1F700C000000E940C
S1131330260A0E943E030E94DE090E94D3090E94ED
S1131340CB090E9484090E94DE080E94370C0E9487
S1131350FC060E94970678948091BA02882329F0AB
S11313608130D1F70E945705F7CF0E941208F4CFBD
S1131370FC019191992339F08091C00085FFFCCF45
S11313809093C600F6CF8091C00085FFFCCF8AE021
S11313908093C60008958091C00087FF03C08091A8
S11313A0C600F9CF08951092C5001092C40088E9D0
S11313B08093C10086E08093C200089587B1887F3E
S11313C087B986E880937A0088E380937E00109240
S11313D07B000895806480937C0080917A0080640F
S11313E080937A0080917A0086FDFCCF809178000A
S11313F09091790008959B01806480937C0040E083
S113140060E070E0CB01E42FF0E0E217F30798F41A
S113141050917A00506450937A0050917A0056FDAE
S1131420FCCFE0917800F09179006E0F7F1F811D51
S1131430911D4F5FE8CF40E050E00E94E30FC901E7
S113144008958EBD0DB407FEFDCF0895CF93DF93AD
S113145084B1856084B985B18A7F85B9C2E1D1E060
S1131460FE0184910E94210A87EB9BE00197F1F72A
S113147000C00000219691E0CB31D90789F7109282
S1131480C4022A9ADF91CF910895289A2A980E943B
S1131490210A80E58A95F1F728982A9A8091C40256
S11314A08F5F8093C4020895CF93DF93289A2A987C
S11314B0EC018991882359F00E94210A80E58A95DC
S11314C0F1F78091C4028F5F8093C402F2CF289811
S11314D02A9ADF91CF9108952A9881E00E94210AE7
S11314E087EB9BE00197F1F700C000001092C40263
S11314F00895CF93C82F2A9880680E94210A80E516
S11315008A95F1F7C093C402CF910895CF93829541
S1131510807F0E94790A289A2A98C0E180E20E947A
S1131520210A80E58A95F1F78091C4028F5F809348
S1131530C402C15099F728982A9ACF9108950F931D
S11315401F93CF93DF932A9828E0829FC001112430
S1131550082F0064EB0110E02898802F812B0E9453
S1131560210A80E58A95F1F7289AFE0184910E9468
S1131570210AF0E5FA95F1F71F5F2196183061F71B
S113158028982A9ADF91CF911F910F910895809105
S1131590C502882319F18091520390915303019657
S11315A0909353038093520385369105B8F080914C
S11315B051038F5F80935103863060F01092510382
S11315C01092C50266E971E082EB93E00E94241058
S11315D0109218011092530310925203089521E0BF
S11315E02093C50210925303109252031092510398
S11315F0BC0182EB93E00E9424101092180108951C
S1131600CF93DF93EC018091C602883081F48091FE
S1131610C70291E0980F9093C702877021E1829FDF
S1131620C001112487539D4F0E94EF0A0AC0809184
S1131630C6028F5F8093C602893018F088E08093D9
S1131640C6028091C80291E0980F9093C8028770F7
S113165021E1829FC0011124BE0187539D4FDF9178
S1131660CF910C9424108091C6028823F9F08091C4
S1131670C50281111BC06091C70281E0860F80936F
S1131680C702677081E1689FB001112467537D4FE1
S113169082EB93E00E9424101092180181E0809361
S11316A0C5028091C60281508093C602089581E0EC
S11316B08093180182EB93E0089584B18C6284B91D
S11316C0249880E58CBD0895CF92DF92EF92FF922B
S11316D0CF93DF93D82F682F70E06F7180918000D3
S11316E06115710521F48F7B8093800021C0806493
S11316F08093800061507109072E000C880B990BB0
S11317000E94F80C9B01AC016DE77CE987E89FE33C
S11317100E94840D9B01AC0160E070E680E796E4D2
S11317200E94550C0E94C70C709389006093880036
S11317302091880030918900C09155032F5F3F4F5D
S113174040E050E060E072E18AE790E00E9405101A
S1131750CA01B9010E94F80C6B017C01EC2FF0E086
S1131760E853FE4F608170E080E090E00E94F80C46
S113177020E030E040E753E40E94550C9B01AC01AB
S1131780C701B6010E94550C6B017C01D295D69518
S1131790D77061E070E002C0660F771FDA95E2F758
S11317A0072E000C880B990B0E94F80C9B01AC01CE
S11317B0C701B6010E94550C0E94C70C70935703D1
S11317C060935603DF91CF91FF90EF90DF90CF901D
S11317D008951F920F920FB60F9211242F933F93E7
S11317E04F935F936F937F938F939F93AF93BF9325
S11317F0EF93FF9380915603909157030197909331
S11318005703809356038091560390915703892B75
S1131810E9F4809154038F5F80935403E09155035E
S113182080915403F0E0FE2FEE27E80FF11DE55EF2
S1131830FE4F8491811108C010926F008091810045
S11318408E7F8093810002C00E94640BFF91EF9110
S1131850BF91AF919F918F917F916F915F914F91C4
S11318603F912F910F900FBE0F901F901895219AC2
S113187080E48093800088E08093810008958093C1
S1131880550310925403E82FF0E0FE2FEE27E55E97
S1131890FE4F84910E94640B82E080936F00E1E824
S11318A0F0E080818160808308950E94690C0C942B
S11318B04A0D0E94430D58F00E943C0D40F029F45B
S11318C05F3F29F00C94330D51110C947E0D0C9450
S11318D0390D0E945B0D68F39923B1F3552391F3FD
S11318E0951B550BBB27AA2762177307840738F08B
S11318F09F5F5F4F220F331F441FAA1FA9F335D0E8
S11319000E2E3AF0E0E832D091505040E695001C9B
S1131910CAF72BD0FE2F29D0660F771F881FBB1F55
S1131920261737074807AB07B0E809F0BB0B802D33
S1131930BF01FF2793585F4F3AF09E3F510578F05F
S11319400C94330D0C947E0D5F3FE4F3983ED4F376
S1131950869577956795B795F7959F5FC9F7880F33
S1131960911D9695879597F90895E1E0660F771F85
S1131970881FBB1F621773078407BA0720F0621B16
S1131980730B840BBA0BEE1F88F7E09508950E9441
S1131990630D88F09F5798F0B92F9927B751B0F08D
S11319A0E1F0660F771F881F991F1AF0BA95C9F7DF
S11319B014C0B13091F00E947D0DB1E008950C94F3
S11319C07D0D672F782F8827B85F39F0B93FCCF3A6
S11319D0869577956795B395D9F73EF4909580955C
S11319E0709561957F4F8F4F9F4F0895E89409C07C
S11319F097FB3EF490958095709561957F4F8F4F3E
S1131A009F4F9923A9F0F92F96E9BB279395F69553
S1131A10879577956795B795F111F8CFFAF4BB0FD1
S1131A2011F460FF1BC06F5F7F4F8F4F9F4F16C035
S1131A30882311F096E911C0772321F09EE8872FBF
S1131A40762F05C0662371F096E8862F70E060E07B
S1131A502AF09A95660F771F881FDAF7880F9695F4
S1131A60879597F9089597F99F6780E870E060E09B
S1131A7008959FEF80EC089500240A941616170623
S1131A8018060906089500240A941216130614066B
S1131A9005060895092E0394000C11F4882352F0CE
S1131AA0BB0F40F4BF2B11F460FF04C06F5F7F4F86
S1131AB08F4F9F4F089557FD9058440F551F59F06D
S1131AC05F3F71F04795880F97FB991F61F09F3F27
S1131AD079F087950895121613061406551FF2CF50
S1131AE04695F1DF08C0161617061806991FF1CFA0
S1131AF086957105610508940895E894BB276627C7
S1131B007727CB0197F90895FA01EE0FFF1F30965E
S1131B1021053105A1F16115710561F48038BFE338
S1131B209B0749F168949038810561F08038BFEFD4
S1131B309B0741F099234AF5FF3FE1053105210553
S1131B4019F1E8940894E795D901AA2329F4AB2F55
S1131B50BE2FF85FD0F310C0FF5F70F4A695E0F7D6
S1131B60F73950F019F0FF3A38F49F779F930DD06E
S1131B700F9007FC9058089546F00C94390D60E0DE
S1131B8070E080E89FE308954FE79F775F934F935A
S1131B903F932F930E947F0E2F913F914F915F911E
S1131BA00E94FB0E0C94DC0D29F416F00C94330DFA
S1131BB00C947D0D0C94390D0E94630DA8F3963896
S1131BC0A0F707F80F92E8942BE33AEA48EB5FE7B3
S1131BD00E94110F0F920F920F924DB75EB70F92A2
S1131BE00E94C70EE8E6F0E00E940E0E4F915F914E
S1131BF0EF91FF91E595EE1FFF1F49F0FE57E06856
S1131C004427EE0F441FFA95E1F74195550B0E94C6
S1131C10410E0F9007FE0C94350E0895DF93CF9379
S1131C201F930F93FF92EF92DF927B018C016894D4
S1131C3006C0DA2EEF010E940E0FFE01E894A59172
S1131C402591359145915591A6F3EF010E94800F9E
S1131C50FE019701A801DA9469F7DF90EF90FF90F5
S1131C600F911F91CF91DF9108959B01AC0160E02A
S1131C7070E080E89FE30C94550C0C94330D0C94A5
S1131C80D50F0E94630DD8F39923C9F3940F511D06
S1131C90A3F39150504094F059F0882332F0660F2A
S1131CA0771F881F91505040C1F79E3F51052CF774
S1131CB0880F911D9695879597F908955F3FACF02D
S1131CC0983E9CF0BB27869577956795B79508F461
S1131CD0B1609395C1F7BB0F58F711F460FFE8CFDB
S1131CE06F5F7F4F8F4F9F4FE3CF0C947E0D16F0A5
S1131CF00C94D50F0C94390D68940C94330D0E94F8
S1131D00630DA8F39923C1F3AEF3DF93CF931F932D
S1131D100F93FF92C92FDD2788232AF02197660F9E
S1131D20771F881FDAF720E030E040E85FEB9FE39D
S1131D30883920F0803E38F021968F770E94690F11
S1131D40E0E9F0E004C00E94690FEDEBF0E00E94CE
S1131D500E0E8B01BE01EC01FB2E6F5771097595B8
S1131D60771F880B990B0E94F80C28E132E741E3B6
S1131D705FE30E940E0FAF2D9801AE01FF900F910B
S1131D801F91CF91DF910E94800F0C944A0DFA01AC
S1131D90DC01AA0FBB1F9B01AC01BF5728F422270B
S1131DA033274427507820C0B75190F4AB2F002438
S1131DB0469537952795011CA395D2F3002071F021
S1131DC0220F331F441FB395DAF30ED00C94680F1F
S1131DD061307105A0E88A07B94630F49B01AC0173
S1131DE06627772788279078309621F020833183DF
S1131DF04283538308950E940E0F0C944A0D0E944F
S1131E003C0D38F00E94430D20F0952311F00C9402
S1131E10330D0C94390D11240C947E0D0E945B0D2E
S1131E2070F3959FC1F3950F50E0551F629FF00129
S1131E30729FBB27F00DB11D639FAA27F00DB11D42
S1131E40AA1F649F6627B00DA11D661F829F2227CB
S1131E50B00DA11D621F739FB00DA11D621F839F52
S1131E60A00D611D221F749F3327A00D611D231F28
S1131E70849F600D211D822F762F6A2F11249F5776
S1131E8050409AF0F1F088234AF0EE0FFF1FBB1F79
S1131E90661F771F881F91505040A9F79E3F510538
S1131EA080F00C94330D0C947E0D5F3FE4F3983E68
S1131EB0D4F3869577956795B795F795E7959F5FE2
S1131EC0C1F7FE2B880F911D9695879597F9089574
S1131ED05058BB27AA270E94800F0C944A0D0E94D9
S1131EE03C0D38F00E94430D20F039F49F3F19F463
S1131EF026F40C94390D0EF4E095E7FB0C94330DA5
S1131F00E92F0E945B0D58F3BA1762077307840721
S1131F10950720F079F4A6F50C947D0D0EF4E09568
S1131F200B2EBA2FA02D0B01B90190010C01CA018F
S1131F30A0011124FF27591B99F0593F50F4503E3A
S1131F4068F11A16F040A22F232F342F4427585F2C
S1131F50F3CF469537952795A795F0405395C9F744
S1131F607EF41F16BA0B620B730B840BBAF09150FC
S1131F70A1F0FF0FBB1F661F771F881FC2F70EC09B
S1131F80BA0F621F731F841F48F48795779567956E
S1131F90B795F7959E3F08F0B0CF9395880F08F05A
S1131FA09927EE0F9795879508959F3F31F09150AB
S1131FB020F4879577956795B795880F911D969529
S1131FC0879597F90895A1E21A2EAA1BBB1BFD0160
S1131FD00DC0AA1FBB1FEE1FFF1FA217B307E40704
S1131FE0F50720F0A21BB30BE40BF50B661F771F5C
S1131FF0881F991F1A9469F760957095809590953C
S11320009B01AC01BD01CF010895052E97FB1EF481
S113201000940E941C1057FD07D00E94E30F07FC98
S113202003D04EF40C941C10509540953095219596
S11320303F4F4F4F5F4F08959095809570956195F0
S11320407F4F8F4F9F4F0895FB01DC0101900D924C
S11320500020E1F70895BB274A3031F4992322F494
S1132060BDE2909581959F4F0C943710BB27FB01DF
S11320705527AA27880F991FAA1FA41710F0A41B7D
S113208083955051B9F7A05DAA3308F0A95DA193D7
S1132090009779F7B111B1931192CB010C945010C0
S11320A0DC01FC01672F71917723E1F7329704C0BB
S11320B07C916D9370836291AE17BF07C8F3089546
S10720C0F894FFCFBE
S11320C401010130330000000000000000000000A2
S11320D400007902F501000201596F7520776F6ED3
S11320E42100596F75206C6F7374210030343000F3
S11320F44672616D3A205F5F636D205049523A5FC6
S11321040042616B3A205F5F636D2020433A205F95
S11321145F0053746F707021202020202020202021
S1132124202000504F4E4720202020202020202013
S11321342020200047616D652063616E63656C65D2
S11321446400212121002020202020202020202080
S11321542020202020200057616E7420746F20708A
S11321646C61793F003034310033332E00496E768C
S113217469746174696F6E2073656E7400333341DE
S11121840030323000333200B46E4B80640001
S9030000FC
