S010000052656D6F746520312E7372656357
S11300000C9413030C9453090C94B9090C94300305
S11300100C9430030C9430030C9430030C94A40619
S11300200C9430030C9430030C9430030C946A0C3D
S11300300C9430030C9430030C9430030C94300370
S11300400C9430030C9430030C94FD080C9430038E
S11300500C9430030C9430030C9430030C94300350
S11300600C9430030C94300307634236B79BD8A733
S11300701A39685618AEBAAB558C1D3CB7CC5763C9
S1130080BD6DEDFD753EF6177231BF000000803F77
S113009008000000BE922449123EABAAAA2ABECD93
S11300A0CCCC4C3E00000080BEABAAAAAA3E000005
S11300B00000BF000000803F0000000000084178FD
S11300C0D3BB4387D1133D190E3CC3BD4282AD2B34
S11300D03E68EC8276BED98FE1A93E4C80EFFFBE2C
S11300E001C4FF7F3F00000000000E111111111127
S11300F00E1F11110A040A11111F00000000000054
S1130100001F0E15151F15150E0011151F0E1F15B6
S11301101100B471807100000000000000000000B4
S113012000000000000000000000000000000000CB
S113013000000000000000000000000000000000BB
S113014000000000000000000000000000000000AB
S1130150000000000000000000000000000000009B
S1130160000000000000000000000000000000008B
S1130170000000000000000000000000000000007B
S1130180000000000000000000000000000000006B
S1130190000000000000000000000000000000005B
S11301A0000000000000000000000000000000004B
S11301B0000000000000000000000000000000003B
S11301C0000000000000000000000000000000002B
S11301D0000000000000000000000000000000001B
S11301E0000000000000000000000000000000000B
S11301F000000000000000000000000000000000FB
S113020000000000000000000000000000000000EA
S1130210000000004B2D4D60684D68888A4C858035
S1130220654A6888864881806163838063838566C4
S113023086806686884A6C6D4F6F68516F8F8D4FCC
S11302406C684D6C8C8A4C8580654A6888864861E8
S113025080814D6C8C8A686C6D6F316F6D6C6D4FE5
S11302606F8880686C6D6F2D6C6A686A4C6C8580D1
S113027065686A6C4D6A8A8C4D6A8A8C4D6A6D52C7
S1130280726032716F6D6F51718D802D2F6D6C6A3C
S11302906C4D6D8A802A4D6C8C8A48618081284A15
S11302A04C2D6D0000000000000000000000000064
S11302B0000000000000000000000000000000003A
S11302C0000000000000000000000000000000002A
S11302D0000000000000000000000000000000001A
S11302E0000000000000000000000000000000000A
S11302F000000000000000000000000000000000FA
S113030000000000000000000000000000000000E9
S1130310000000000000648D8090809280938092A1
S11303208090808D40808B8F8D0000000000000045
S113033000000000000000000000000000000000B9
S113034000000000000000000000000000000000A9
S11303500000000000000000000000000000000099
S11303600000000000000000000000000000000089
S11303700000000000000000000000000000000079
S11303800000000000000000000000000000000069
S11303900000000000000000000000000000000059
S11303A00000000000000000000000000000000049
S11303B00000000000000000000000000000000039
S11303C00000000000000000000000000000000029
S11303D00000000000000000000000000000000019
S11303E00000000000000000000000000000000009
S11303F000000000000000000000000000000000F9
S113040000000000000000000000000000000000E8
S11304100000000000000000648083888A6B8083F1
S1130420888A6B60808084888A6B8084888A6B80E9
S11304308186886A808186886A608080888A8867E5
S113044000000000000000000000000000000000A8
S11304500000000000000000000000000000000098
S11304600000000000000000000000000000000088
S11304700000000000000000000000000000000078
S11304800000000000000000000000000000000068
S11304900000000000000000000000000000000058
S11304A00000000000000000000000000000000048
S11304B00000000000000000000000000000000038
S11304C00000000000000000000000000000000028
S11304D00000000000000000000000000000000018
S11304E00000000000000000000000000000000008
S11304F000000000000000000000000000000000F8
S113050000000000000000000000000000000000E7
S11305100000000000000000000060606EE06EE07B
S11305206E7273727353606E7273727353606E7211
S113053073727353606E73E0736053726072E0524F
S1130540E072737273606E7273727353606E72735F
S1130550E073E073335340606EE06EE06E6072737C
S1130560727353000000000000000000000000004F
S11305700000000000000000000000000000000077
S11305800000000000000000000000000000000067
S11305900000000000000000000000000000000057
S11305A00000000000000000000000000000000047
S11305B00000000000000000000000000000000037
S11305C00000000000000000000000000000000027
S11305D00000000000000000000000000000000017
S11305E00000000000000000000000000000000007
S11305F000000000000000000000000000000000F7
S113060000000000000000000000000000000000E6
S11306100000000000000000000000003915556EC5
S113062072380C01060011241FBECFEFD8E0DEBFE4
S1130630CDBF11E0A0E0B1E0E6E9F1E202C005902F
S11306400D92A43DB107D9F723E0A4EDB1E001C0B8
S11306501D92AB3CB207E1F70E94F3090C94C91058
S11306600C9400008F3068F46F3058F49FE0899F39
S1130670F0011124E752FE4FE60FF11D908181E055
S1130680941380E008956AE071E081E00E94060B13
S113069062E071E082E00E94060B6AEF70E083E0A2
S11306A00E94060B62EF70E084E00E94060B6AEE83
S11306B070E085E00C94060B97E09093D80190933A
S11306C0D70196E09093D4018093000120E030E0BC
S11306D04FE050E280E090E0489FF001499FF00D28
S11306E01124E752FE4FE20FF31F508301968F301F
S11306F0910591F72F5F3F4F2F30310559F708953A
S11307008091D801811103C081E08093D801809148
S1130710D80181508093D80108958091D8018F5FCA
S11307208093D8018091D8018F3018F08EE08093A7
S1130730D80108958091D701811103C081E080938D
S1130740D7018091D70181508093D7019091D7012F
S11307508091D401981720F48091D7018093D4011B
S113076008958091D7018F5F8093D7018091D7013D
S11307708F3018F08EE08093D7012091D7018091BB
S1130780D40130E090E00296821793072CF4809114
S1130790D70182508093D4010895DC018091000137
S11307A08823D1F1E091D8018091D7019FE09E9FE9
S11307B0F0011124E752FE4FE80FF11D80818032D1
S11307C059F58091D8018093D6018091D701809307
S11307D0D50110920001E091D8018091D7019E9F2C
S11307E0F0011124E752FE4FE80FF11D88E58083E4
S11307F06C9383E311968C9311978091D801805D5B
S113080012968C9312978091D701805D13968C93E6
S1130810139714961C9208951C920895FC0181E08C
S113082080930001928190539093D60183818053E9
S11308308093D5018091D6018093D8018091D50110
S11308408093D701E091D6018091D5019FE0E99F83
S1130850F0011124E752FE4FE80FF11D8FE480836D
S11308609091D5018091D401981720F48091D501FD
S11308708093D4012091D5018091D40130E090E09F
S11308800296821793072CF48091D50182508093AD
S1130890D4010895CF93DF932091D40130E0BFE0D9
S11308A04091D401622F70E050E04E5F5F4F4617D5
S11308B057073CF1432F50E0EC01C40FD51F2930FA
S11308C010F4E1E301C0E8E3E20FE883A1E0A30F41
S11308D040E050E0B49FF001B59FF00D1124E752C1
S11308E0FE4FE60FF71FC081FC01EA0FF11DC08324
S11308F0AF5F4F5F5F4F4F30510561F7305F2F5F40
S1130900CFCF2091D7013091D401E091D801231B9E
S1130910EF5F30E1239FE00D112420910001F0E00E
S1130920E80FF91F222359F020812F3421F02835B4
S113093021F421E00EC022E00CC02AE20AC020818A
S11309402F3421F0283521F424E003C025E001C030
S113095023E02083FC0110AADF91CF910895FF9238
S11309600F931F93CF93DF93E091D6018091D5012C
S11309709FE0E99FF0011124E752FE4FE80FF11DBB
S1130980C0811091D6010091D501D1E04C2F602F88
S1130990812F8D1B0E943203882311F0DF5FF6CF75
S11309A01091D601D11BFD2EF10E1F5F4C2F602F2D
S11309B0812F0E9432038111F6CF84E08F1510F449
S11309C081E069C00091D6011091D501D1E04C2F8E
S11309D0612F6D1B802F0E943203882311F0DF5F8B
S11309E0F6CF1091D501D11BFD2EF10E1F5F4C2FB8
S11309F0612F802F0E9432038111F6CF94E09F155E
S1130A00F8F2D091D6010091D50111E04C2F602F5E
S1130A10611B8D2F811B0E943203882311F01F5FFD
S1130A20F5CF0091D601D091D5011D1B0D1BF12EE0
S1130A30FD0EDF5F4C2F6D2F802F8D0F0E94320330
S1130A408111F5CF84E08F1508F4BACFD091D60187
S1130A500091D50111E04C2F612F600F8D2F811B68
S1130A600E943203882311F01F5FF5CFD091D60185
S1130A700091D5011D1BF12EFD0E0150DF5F4C2F9F
S1130A80602F8D2F0E9432038111F5CF81E094E015
S1130A909F1508F080E0DF91CF911F910F91FF9097
S1130AA0089580E693E00E944A0480E00E94E00AF0
S1130AB080E693E00C94BB0A1092BE021092BD0231
S1130AC021E0209301011092BC020C94560B0F9369
S1130AD01F93CF93DF938091BA028823B9F00E94C9
S1130AE051052FEF8DE399E4215080409040E1F7C8
S1130AF000C000008091BA02813019F083E291E0D5
S1130B0002C08AE191E00E945C056DC04C9923C04B
S1130B1063E381E993E00E94CD03809191038823EC
S1130B2009F461C064E682E90E94CC0B0E94AF0420
S1130B30882349F081E08093BA021092BB0286E1D7
S1130B4093E00E94560C81E993E00E941F0A81E021
S1130B508093010148C064E170E081E00E94620A70
S1130B608C0164E170E082E00E94620AEC018091F1
S1130B701801811133C0809115019091160144969A
S1130B808017910718F40E94B1030AC080911501DF
S1130B90909116010F970817190728F40E949A03D9
S1130BA081E0809301018091130190911401449696
S1130BB08C179D0718F40E9480030AC080911301CA
S1130BC0909114014497C817D90728F40E948D0303
S1130BD081E0809301018DE28093180180910101ED
S1130BE081110E9451058FE59AEE0197F1F700C03B
S1130BF00000DF91CF911F910F91089581E08093C0
S1130C00BE021092BA02809301015D9B05C08DE281
S1130C1091E00E941F0A5D9808950F931F93CF934C
S1130C20DF938091C602843109F07BC0C091150125
S1130C30D091160169E170E081E00E94620AC81B4C
S1130C40D90B009113011091140169E170E082E065
S1130C500E94620A9801281B390B8E01020F131F90
S1130C60C21BD30B003811055CF401383FEF1307A6
S1130C7054F0C8010496099740F400E010E005C060
S1130C800FE710E002C001E81FEFC038D1055CF4A3
S1130C90C1388FEFD80754F0CE010496099740F479
S1130CA0C0E0D0E005C0CFE7D0E002C0C1E8DFEF8C
S1130CB08091C1029091C2028017910739F480910A
S1130CC0BF029091C0028C179D0719F14AE064E0BD
S1130CD071E0C8010E949410E2E0F1E0019000206C
S1130CE0E9F73197E250F140DF01BB27AE5FBE4F19
S1130CF080E28C93EF5F6E2F70E06E5F7E4F4AE070
S1130D00CE010E94941082E091E00E941F0A10928A
S1130D10C6021093C2020093C102D093C002C093D2
S1130D20BF02DF91CF911F910F91089580E00E943F
S1130D30E00A81E391E00E94BB0A80E10E94E00A9C
S1130D4082E491E00C94BB0A1F920F920FB60F92AB
S1130D5011242F933F934F935F936F937F938F93BC
S1130D609F93AF93BF93EF93FF938091C7028F5FDD
S1130D708093C702833318F05F9A1092C702809160
S1130D80C602843128F48091C6028F5F8093C60224
S1130D9080911701882329F0809117018150809355
S1130DA017018091BC02882389F08091C40290913C
S1130DB0C5028838934150F48091C4029091C502D1
S1130DC001969093C5028093C40206C01092BC029F
S1130DD01092C5021092C40280911801882329F050
S1130DE0809118018150809318010E942E0BFF916D
S1130DF0EF91BF91AF919F918F917F916F915F918F
S1130E004F913F912F910F900FBE0F901F90189507
S1130E108DE48093B30082E08093B00097E09093D8
S1130E20B100809370000895CF93DF93EC0180911B
S1130E30BE02813011F58881813430F083E591E080
S1130E40DF91CF910C945C0580910001811130C039
S1130E50CE0102970E940E0464E684E90E94CC0B42
S1130E600E94AF04882339F082E08093BA028AE1B9
S1130E7095E00E94560C81E006C08881803330F4EE
S1130E8081E08093BD028093010112C08881813486
S1130E9078F40E94FE0580E00E945C03CE01029774
S1130EA00E940E0464E684E9DF91CF910C94CC0B8C
S1130EB0DF91CF910895282FCA01213319F02233ED
S1130EC0B9F00895613341F0623379F06033E1F5AC
S1130ED081E691E00C94560BBA018AEA93E00E94F1
S1130EE08D1081E08093C302089582E791E00FC0E2
S1130EF0623379F028F4603341F0613341F00895AE
S1130F006333B9F06433B9F008955F9808950C948D
S1130F10670BFA01208130E020533109C901880FA1
S1130F20991F322F2227820F931F8E5E9E4F0C949F
S1130F30560C0C941407FA018081813311F45E9AE3
S1130F4008955E981092BB0208951F93CF93DF9388
S1130F508FE10E94E00A8091AA03803311F08FE5AB
S1130F6001C082E50E94AC0A8EE10E94E00A8091F1
S1130F70AB03803311F08FE501C08CE40E94AC0A0E
S1130F808FE00E94E00A8091AD03803311F08FE579
S1130F9001C088E50E94AC0A8091AC03803321F43F
S1130FA082E191E00E94560CC5E081E08C0FE82FAD
S1130FB0F0E0E655FC4F9081903211F0C82FF5CF48
S1130FC0CE5F10828C2F91E0980FE92FF0E0E65568
S1130FD0FC4F2081203211F0892FF5CFD2E0D80FB9
S1130FE0108285E00E94E00AC73039F48091AF0393
S1130FF0803319F483E891E013C0EFEAF3E0019041
S11310000020E9F7CF01805B934013E0181B111611
S11310102CF480E20E94AC0A1150F9CF8FEA93E0DD
S11310200E94BB0A84E10E94E00A8D2F90E0D0E088
S11310308C1B9D0B029749F4FE01E655FC4F808101
S1131040803319F483E891E011C0C655DC4FFE01EA
S113105001900020E9F71C2F1E1B1C5F11162CF4B5
S113106080E20E94AC0A1150F9CFCE01DF91CF91FA
S11310701F910C94BB0ACF93DF938091BD02882308
S113108001F180910101882359F00E94D30A80E183
S11310900E94E00A88E991E00E94BB0A10920101D3
S11310A04C999FC00E94FE0581E00E945C032FEFD3
S11310B080E792E0215080409040E1F700C00000BA
S11310C090C080910101882351F080E00E94ED0AD4
S11310D081E00E94ED0A0E949606109201010E948E
S11310E09A0B8091190181110DC080E20E94E00ADF
S11310F00E94BE0BFC012081211102C087E891E00F
S11311000E94BB0A8091C302882321F00E94A50794
S11311101092C3024C9912C08091BB0281110EC07F
S11311205D9909C086EA91E00E941F0A8AEA91E06B
S11311300E941F0A5D9A0E940D060BC05D9B09C0A8
S11311408DE291E00E941F0A8EEA91E00E941F0A3C
S11311505D981E992FC04C9916C023B18091C80286
S113116090E0229526952695237031E0232721705F
S1131170C22FF0E0DF2F8C179D07C1F082EB91E0C6
S11311800E941F0A13C08091BC0281110FC085EB1D
S113119091E00E941F0A89EB91E00E94560B81E0C6
S11311A08093BC021092C5021092C40281E0809325
S11311B0C80202C01092C8021E9913C08091BC02DA
S11311C081110FC085EB91E00E941F0A89EB91E029
S11311D00E94560B81E08093BC021092C5021092CB
S11311E0C4022FE788E391E0215080409040E1F76A
S11311F000C00000DF91CF9108951F920F920FB6A7
S11312000F9211242F933F934F935F936F937F9388
S11312108F939F93AF93BF93EF93FF93E091C90292
S1131220F0E08091C600EA56FC4F8083E091C90249
S1131230F0E0EA56FC4F80818A3089F4E091C902DB
S1131240F0E0EA56FC4F1082609197038091960378
S113125048E953E00E945B071092C90205C08091DF
S1131260C9028F5F8093C902FF91EF91BF91AF9143
S11312709F918F917F916F915F914F913F912F91AA
S11312800F900FBE0F901F9018958AB1837E8AB974
S11312908BB18C618BB926982E9A8AE08093690071
S11312A083E08DBB08951F920F920FB60F92112405
S11312B02F933F934F935F936F937F938F939F935A
S11312C0AF93BF93CF93EF93FF93C091BE02C1300E
S11312D059F483E591E00E945C0589EC91E00E9459
S11312E01F0AC093BB0233C08091BD02882331F032
S11312F01092BD0281E08093010129C04C9B27C05C
S113130080E00E94510A2091110130911201255070
S1131310310928173907D8F469E170E080E00E94A8
S1131320620A909312018093110169E170E081E0F7
S11313300E94620A909316018093150169E170E09E
S113134082E00E94620A9093140180931301FF913A
S1131350EF91CF91BF91AF919F918F917F916F91B9
S11313605F914F913F912F910F900FBE0F901F905F
S113137018951F920F920FB60F9211242F933F933B
S11313804F935F936F937F938F939F93AF93BF9389
S1131390EF93FF938091170181110CC04C9903C006
S11313A08DEC91E002C081ED91E00E941F0A84E17E
S11313B080931701FF91EF91BF91AF919F918F910E
S11313C07F916F915F914F913F912F910F900FBE3D
S11313D00F901F9018958AB1806E8AB98BB18F795E
S11313E08BB95F9A08950E94B70C2FEF80E792E0C3
S11313F0215080409040E1F700C000000E948D0A17
S11314000E9443030E94450A0E943A0A0E94320A3B
S11314100E94EB090E9445090E94C40B0E94080720
S11314200E94960678948091BE02882329F0813028
S1131430D1F70E946705F7CF0E943B08F4CFFC0167
S11314409191992339F08091C00085FFFCCF90934E
S1131450C600F6CF8091C00085FFFCCF8AE0809360
S1131460C60008958091C00087FF03C08091C60024
S1131470F9CF08951092C5001092C40088E98093B2
S1131480C10086E08093C200089587B1887F87B940
S113149086E880937A0088E380937E0010927B0034
S11314A00895806480937C0080917A0080648093A6
S11314B07A0080917A0086FDFCCF8091780090912B
S11314C0790008959B01806480937C0040E060E093
S11314D070E0CB01E42FF0E0E217F30798F45091A9
S11314E07A00506450937A0050917A0056FDFCCFF4
S11314F0E0917800F09179006E0F7F1F811D911D9E
S11315004F5FE8CF40E050E00E944C10C9010895BD
S11315108EBD0DB407FEFDCF0895CF93DF9384B144
S1131520856084B985B18A7F85B9CCE1D6E0FE01B6
S113153084910E94880A87EB9BE00197F1F700C031
S11315400000219696E0C532D90789F71092CA02A5
S11315502A9ADF91CF910895289A2A980E94880A9E
S113156080E58A95F1F728982A9A8091CA028F5FBC
S11315708093CA020895CF93DF93289A2A98EC01A6
S11315808991882359F00E94880A80E58A95F1F7A9
S11315908091CA028F5F8093CA02F2CF28982A9A58
S11315A0DF91CF9108952A9881E00E94880A87EB01
S11315B09BE00197F1F700C000001092CA02089561
S11315C0CF93C82F2A9880680E94880A80E58A955C
S11315D0F1F7C093CA02CF910895CF938295807F8B
S11315E00E94E00A289A2A98C0E180E20E94880AB0
S11315F080E58A95F1F78091CA028F5F8093CA02D1
S1131600C15099F728982A9ACF9108950F931F9360
S1131610CF93DF932A9828E0829FC0011124082FDA
S11316200064EB0110E02898802F812B0E94880A27
S113163080E58A95F1F7289AFE0184910E94880A30
S1131640F0E5FA95F1F71F5F2196183061F72898B5
S11316502A9ADF91CF911F910F9108958091CB0227
S1131660882319F18091580390915903019690931E
S113167059038093580385369105B8F08091570338
S11316808F5F80935703863060F010925703109257
S1131690CB0267E971E08AEB93E00E948D1010920F
S11316A019011092590310925803089521E02093D0
S11316B0CB02109259031092580310925703BC01A5
S11316C08AEB93E00E948D10109219010895CF9334
S11316D0DF93EC018091CC02883081F48091CD02BB
S11316E091E0980F9093CD02877021E1829FC00111
S11316F0112481539D4F0E94560B0AC08091CC0245
S11317008F5F8093CC02893018F088E08093CC02FC
S11317108091CE0291E0980F9093CE02877021E1E0
S1131720829FC0011124BE0181539D4FDF91CF914F
S11317300C948D108091CC028823F9F08091CB0217
S113174081111BC06091CD0281E0860F8093CD0290
S1131750677081E1689FB001112461537D4F8AEB6A
S113176093E00E948D101092190181E08093CB02C6
S11317708091CC0281508093CC02089581E08093C3
S113178019018AEB93E00895219A80E48093800004
S113179088E0809381000895CF92DF92EF92FF92C8
S11317A0CF93DF93C82FD62F80916F0082608093F0
S11317B06F00809181008160809381006C2F70E0C4
S11317C06F71809180006115710521F48F7B809386
S11317D0800021C080648093800061507109072ECD
S11317E0000C880B990B0E94610D9B01AC016DE705
S11317F07CE987E89FE30E94ED0D9B01AC0160E06A
S113180070E680E796E40E94BE0C0E94300D70934F
S113181089006093880020918800309189002F5FAF
S11318203F4F40E050E060E072E18AE790E00E94C0
S11318306E10CA01B9010E94610D6B017C016D2F0C
S113184070E080E090E00E94610D20E030E040E72D
S113185053E40E94BE0C9B01AC01C701B6010E9477
S1131860BE0C6B017C01C295C695C77061E070E047
S113187002C0660F771FCA95E2F7072E000C880B8B
S1131880990B0E94610D9B01AC01C701B6010E9436
S1131890BE0C0E94300D70935F0360935E03DF9172
S11318A0CF91FF90EF90DF90CF90089590935B03DA
S11318B080935A03FC01249120935C0321E020933C
S11318C05D0360915C0320915D03E20FF11D84913F
S11318D00C94CC0B1F920F920FB60F9211242F93DE
S11318E03F934F935F936F937F938F939F93AF93A4
S11318F0BF93EF93FF9380915E0390915F030197F1
S113190090935F0380935E03892B01F5E0915A0362
S1131910F0915B03309779F080915D038F5F809342
S11319205D03E80FF11D8491882329F060915C0325
S11319300E94CC0B0BC010926F00809181008E7FAF
S11319408093810010925B0310925A03FF91EF91F0
S1131950BF91AF919F918F917F916F915F914F91C3
S11319603F912F910F900FBE0F901F90189584B147
S11319708C6284B9249880E58CBD08950E94D20CB1
S11319800C94B30D0E94AC0D58F00E94A50D40F0CC
S113199029F45F3F29F00C949C0D51110C94E70D30
S11319A00C94A20D0E94C40D68F39923B1F355233E
S11319B091F3951B550BBB27AA276217730784075E
S11319C038F09F5F5F4F220F331F441FAA1FA9F3F4
S11319D035D00E2E3AF0E0E832D091505040E695E2
S11319E0001CCAF72BD0FE2F29D0660F771F881F43
S11319F0BB1F261737074807AB07B0E809F0BB0B36
S1131A00802DBF01FF2793585F4F3AF09E3F510549
S1131A1078F00C949C0D0C94E70D5F3FE4F3983E32
S1131A20D4F3869577956795B795F7959F5FC9F732
S1131A30880F911D9695879597F90895E1E0660FB3
S1131A40771F881FBB1F621773078407BA0720F02C
S1131A50621B730B840BBA0BEE1F88F7E095089595
S1131A600E94CC0D88F09F5798F0B92F9927B75151
S1131A70B0F0E1F0660F771F881F991F1AF0BA952E
S1131A80C9F714C0B13091F00E94E60DB1E0089599
S1131A900C94E60D672F782F8827B85F39F0B93F8B
S1131AA0CCF3869577956795B395D9F73EF49095E1
S1131AB08095709561957F4F8F4F9F4F0895E8945F
S1131AC009C097FB3EF490958095709561957F4F82
S1131AD08F4F9F4F9923A9F0F92F96E9BB27939530
S1131AE0F695879577956795B795F111F8CFFAF440
S1131AF0BB0F11F460FF1BC06F5F7F4F8F4F9F4F71
S1131B0016C0882311F096E911C0772321F09EE8CE
S1131B10872F762F05C0662371F096E8862F70E034
S1131B2060E02AF09A95660F771F881FDAF7880F0E
S1131B309695879597F9089597F99F6780E870E0DF
S1131B4060E008959FEF80EC089500240A9416162F
S1131B50170618060906089500240A941216130697
S1131B60140605060895092E0394000C11F4882325
S1131B7052F0BB0F40F4BF2B11F460FF04C06F5F41
S1131B807F4F8F4F9F4F089557FD9058440F551F17
S1131B9059F05F3F71F04795880F97FB991F61F0EB
S1131BA09F3F79F087950895121613061406551F62
S1131BB0F2CF4695F1DF08C0161617061806991FCE
S1131BC0F1CF86957105610508940895E894BB27C3
S1131BD066277727CB0197F90895FA01EE0FFF1FC7
S1131BE0309621053105A1F16115710561F4803844
S1131BF0BFE39B0749F168949038810561F0803810
S1131C00BFEF9B0741F099234AF5FF3FE1053105FA
S1131C10210519F1E8940894E795D901AA2329F438
S1131C20AB2FBE2FF85FD0F310C0FF5F70F4A69502
S1131C30E0F7F73950F019F0FF3A38F49F779F93A3
S1131C400DD00F9007FC9058089546F00C94A20D07
S1131C5060E070E080E89FE308954FE79F775F932B
S1131C604F933F932F930E94E80E2F913F914F91F2
S1131C705F910E94640F0C94450E29F416F00C94A5
S1131C809C0D0C94E60D0C94A20D0E94CC0DA8F3AF
S1131C909638A0F707F80F92E8942BE33AEA48EB5A
S1131CA05FE70E947A0F0F920F920F924DB75EB7C3
S1131CB00F920E94300FE8E6F0E00E94770E4F91F9
S1131CC05F91EF91FF91E595EE1FFF1F49F0FE57DD
S1131CD0E0684427EE0F441FFA95E1F74195550B50
S1131CE00E94AA0E0F9007FE0C949E0E0895DF9397
S1131CF0CF931F930F93FF92EF92DF927B018C019E
S1131D00689406C0DA2EEF010E94770FFE01E89472
S1131D10A5912591359145915591A6F3EF010E9426
S1131D20E90FFE019701A801DA9469F7DF90EF90BB
S1131D30FF900F911F91CF91DF9108959B01AC010A
S1131D4060E070E080E89FE30C94BE0C0C949C0D62
S1131D500C943E100E94CC0DD8F39923C9F3940F30
S1131D60511DA3F39150504094F059F0882332F060
S1131D70660F771F881F91505040C1F79E3F510551
S1131D802CF7880F911D9695879597F908955F3FD5
S1131D90ACF0983E9CF0BB27869577956795B795F0
S1131DA008F4B1609395C1F7BB0F58F711F460FFC5
S1131DB0E8CF6F5F7F4F8F4F9F4FE3CF0C94E70DBA
S1131DC016F00C943E100C94A20D68940C949C0D87
S1131DD00E94CC0DA8F39923C1F3AEF3DF93CF9304
S1131DE01F930F93FF92C92FDD2788232AF0219791
S1131DF0660F771F881FDAF720E030E040E85FEBDA
S1131E009FE3883920F0803E38F021968F770E9436
S1131E10D20FE0E9F0E004C00E94D20FEDEBF0E055
S1131E200E94770E8B01BE01EC01FB2E6F577109E6
S1131E307595771F880B990B0E94610D28E132E795
S1131E4041E35FE30E94770FAF2D9801AE01FF904D
S1131E500F911F91CF91DF910E94E90F0C94B30D64
S1131E60FA01DC01AA0FBB1F9B01AC01BF5728F488
S1131E70222733274427507820C0B75190F4AB2F42
S1131E800024469537952795011CA395D2F300208D
S1131E9071F0220F331F441FB395DAF30ED00C9464
S1131EA0D10F61307105A0E88A07B94630F49B016F
S1131EB0AC016627772788279078309621F0208315
S1131EC031834283538308950E94770F0C94B30D9A
S1131ED00E94A50D38F00E94AC0D20F0952311F05E
S1131EE00C949C0D0C94A20D11240C94E70D0E94EB
S1131EF0C40D70F3959FC1F3950F50E0551F629F79
S1131F00F001729FBB27F00DB11D639FAA27F00D4E
S1131F10B11DAA1F649F6627B00DA11D661F829F75
S1131F202227B00DA11D621F739FB00DA11D621F5A
S1131F30839FA00D611D221F749F3327A00D611D77
S1131F40231F849F600D211D822F762F6A2F112459
S1131F509F5750409AF0F1F088234AF0EE0FFF1F8C
S1131F60BB1F661F771F881F91505040A9F79E3FE3
S1131F70510580F00C949C0D0C94E70D5F3FE4F345
S1131F80983ED4F3869577956795B795F795E79539
S1131F909F5FC1F7FE2B880F911D9695879597F942
S1131FA008955058BB27AA270E94E90F0C94B30D3B
S1131FB00E94A50D38F00E94AC0D20F039F49F3F2B
S1131FC019F426F40C94A20D0EF4E095E7FB0C949E
S1131FD09C0DE92F0E94C40D58F3BA1762077307CA
S1131FE08407950720F079F4A6F50C94E60D0EF419
S1131FF0E0950B2EBA2FA02D0B01B90190010C0115
S1132000CA01A0011124FF27591B99F0593F50F42C
S1132010503E68F11A16F040A22F232F342F442784
S1132020585FF3CF469537952795A795F04053957C
S1132030C9F77EF41F16BA0B620B730B840BBAF04C
S11320409150A1F0FF0FBB1F661F771F881FC2F7B7
S11320500EC0BA0F621F731F841F48F487957795CB
S11320606795B795F7959E3F08F0B0CF9395880F85
S113207008F09927EE0F9795879508959F3F31F0C3
S1132080915020F4879577956795B795880F911DA2
S11320909695879597F90895A1E21A2EAA1BBB1B62
S11320A0FD010DC0AA1FBB1FEE1FFF1FA217B30720
S11320B0E407F50720F0A21BB30BE40BF50B661F36
S11320C0771F881F991F1A9469F7609570958095FA
S11320D090959B01AC01BD01CF010895052E97FB9E
S11320E01EF400940E94851057FD07D00E944C10E6
S11320F007FC03D04EF40C94851050954095309510
S113210021953F4F4F4F5F4F08959095809570955F
S113211061957F4F8F4F9F4F0895FB01DC01019024
S11321200D920020E1F70895BB274A3031F499233A
S113213022F4BDE2909581959F4F0C94A010BB278B
S1132140FB015527AA27880F991FAA1FA41710F06F
S1132150A41B83955051B9F7A05DAA3308F0A95D7B
S1132160A193009779F7B111B1931192CB010C941B
S1132170B910DC01FC01672F71917723E1F73297E5
S113218004C07C916D9370836291AE17BF07C8F34E
S10921900895F894FFCF4E
S113219601013033000000000000000000000000D0
S11321A6007902F5010002142D01596F7520776F2D
S11321B66E2100596F75206C6F73742100303430B2
S11321C6004672616D3A205F5F636D205049523A52
S11321D65F0042616B3A205F5F636D2020433A20C3
S11321E65F5F0047616D652063616E63656C65645E
S11321F60053746F7070212020202020202020207E
S11322062000504F4E472020202020202020202030
S113221620200021212100202020202020202020F1
S1132226202020202020200057616E7420746F2007
S1132236706C61793F00303431003334310033340B
S1132246300030380033332E00496E766974617479
S1132256696F6E2073656E7400333341003032301B
S1072266003332000B
S9030000FC
