S010000052656D6F746520312E7372656357
S11300000C94FA020C94A3030C94AD030C94170300
S11300100C9417030C9417030C9417030C941703F4
S11300200C9417030C9417030C9417030C94F20408
S11300300C9417030C9417030C9417030C941703D4
S11300400C9417030C9417030C9422030C941703B9
S11300500C9417030C9417030C9417030C941703B4
S11300600C9417030C94170307634236B79BD8A765
S11300701A39685618AEBAAB558C1D3CB7CC5763C9
S1130080BD6DEDFD753EF6177231BF000000803F77
S113009008000000BE922449123EABAAAA2ABECD93
S11300A0CCCC4C3E00000080BEABAAAAAA3E000005
S11300B00000BF000000803F0000000000084178FD
S11300C0D3BB4387D1133D190E3CC3BD4282AD2B34
S11300D03E68EC8276BED98FE1A93E4C80EFFFBE2C
S11300E001C4FF7F3F00000000003915556E7238CF
S11300F00C01067180710000000000000000000087
S113010000000000000000000000000000000000EB
S113011000000000000000000000000000000000DB
S113012000000000000000000000000000000000CB
S113013000000000000000000000000000000000BB
S113014000000000000000000000000000000000AB
S1130150000000000000000000000000000000009B
S1130160000000000000000000000000000000008B
S1130170000000000000000000000000000000007B
S1130180000000000000000000000000000000006B
S1130190000000000000000000000000000000005B
S11301A0000000000000000000000000000000004B
S11301B0000000000000000000000000000000003B
S11301C0000000000000000000000000000000002B
S11301D0000000000000000000000000000000001B
S11301E0000000000000000000000000000000000B
S11301F0000000636C6F6C48636C6F6C48636D60E7
S11302006D6A606A48680000000000000000000099
S113021000000000000000000000000000000000DA
S113022000000000000000000000000000000000CA
S113023000000000000000000000000000000000BA
S113024000000000000000000000000000000000AA
S1130250000000000000000000000000000000009A
S1130260000000000000000000000000000000008A
S1130270000000000000000000000000000000007A
S1130280000000000000000000000000000000006A
S1130290000000000000000000000000000000005A
S11302A0000000000000000000000000000000004A
S11302B0000000000000000000000000000000003A
S11302C0000000000000000000000000000000002A
S11302D0000000000000000000000000000000001A
S11302E0000000000000000000000000000000000A
S11302F00000002D4D60684D68888A4C8580654AF1
S1130300688886488180616383806383856686808C
S11303106686884A6C6D4F6F68516F8F8D4F6C681D
S11303204D6C8C8A4C8580654A68888648618081DA
S11303304D6C8C8A686C6D6F316F6D6C6D4F6F880E
S113034080686C6D6F2D6C6A686A4C6C858065681A
S11303506A6C4D6A8A8C4D6A8A8C4D6A6D527260E1
S113036032716F6D6F51718D802D2F6D6C6A6C4D74
S11303706D8A802A4D6C8C8A48618081284A4C2D74
S11303806D000000000000000000000000000000FC
S11303900000000000000000000000000000000059
S11303A00000000000000000000000000000000049
S11303B00000000000000000000000000000000039
S11303C00000000000000000000000000000000029
S11303D00000000000000000000000000000000019
S11303E00000000000000000000000000000000009
S11303F00000004A4C4E4F51536A808A4C6E808EE6
S11304006F8F804F404A4C4E4F51536A808A4C6ED6
S1130410808E6F8F804F4056537696807674315419
S113042051543676968056537696807674314A4C7B
S11304304E2F4F00000000000000000000000000EC
S113044000000000000000000000000000000000A8
S11304500000000000000000000000000000000098
S11304600000000000000000000000000000000088
S11304700000000000000000000000000000000078
S11304800000000000000000000000000000000068
S11304900000000000000000000000000000000058
S11304A00000000000000000000000000000000048
S11304B00000000000000000000000000000000038
S11304C00000000000000000000000000000000028
S11304D00000000000000000000000000000000018
S11304E00000000000000000000000000000000008
S11304F000000061818041688880486A8A804A28B7
S1130500668680466585804563838043216888804C
S11305104866868046658580452368888048668667
S11305208046658580452361818041688880486A6A
S11305308A804A2866868046658580456383804331
S11305402100000000000000000000000000000086
S11305500000000000000000000000000000000097
S11305600000000000000000000000000000000087
S11305700000000000000000000000000000000077
S11305800000000000000000000000000000000067
S11305900000000000000000000000000000000057
S11305A00000000000000000000000000000000047
S11305B00000000000000000000000000000000037
S11305C00000000000000000000000000000000027
S11305D00000000000000000000000000000000017
S11305E00000000000000000000000000000000007
S11305F00000000011241FBECFEFD8E0DEBFCDBF46
S113060011E0A0E0B1E0EAEAF2E102C005900D9247
S1130610A633B107D9F721E0A6E3B1E001C01D92EA
S1130620A939B207E1F70E94DA030C9453090C9438
S113063000009091C00095FFFCCF8093C60080E03D
S113064090E008951F920F920FB60F9211242F93EA
S11306503F934F935F936F937F938F939F93AF9346
S1130660BF93EF93FF93E0913601F0E08091C600D1
S1130670E559FE4F8083E0913601F0E0E559FE4FE5
S113068080818A30F1F5E0913601F0E0E559FE4FC2
S1130690108280E00E944D0480E00E944504809115
S11306A06B01823349F580916D01803319F48EE03A
S11306B091E010C080916D01813379F488E191E07B
S11306C00E942A0482E00E944D0480E20E944504B4
S11306D08FE691E00E942A0411C080916D0182335B
S11306E041F483E291E00E942A0480E00E944805DC
S11306F005C088E291E0EECF80916B011092360143
S113070005C0809136018F5F80933601FF91EF9190
S1130710BF91AF919F918F917F916F915F914F9115
S11307203F912F910F900FBE0F901F9018958AB193
S1130730837E8AB98BB18C618BB98AE0809369001E
S113074083E08DBB08951F920F920FB60F92112470
S11307500F900FBE0F901F9018951F920F920FB617
S11307600F9211242F933F934F935F936F937F9333
S11307708F939F93AF93BF93EF93FF938CE291E09A
S11307800E945E05FF91EF91BF91AF919F918F9170
S11307907F916F915F914F913F912F910F900FBE79
S11307A00F901F9018958AB1806E8AB98BB18F71A2
S11307B08BB908950E9466042FEF80E792E02150E0
S11307C080409040E1F700C000000E940E040E94A7
S11307D002040E9479050E9471050E94D3030E94BD
S11307E097030E944005789480E091E090939601ED
S11307F08093950189B18FE19EE40197F1F700C0E0
S11308000000F8CF87B18C7F87B986E880937A009F
S113081088E380937E0010927B000895CF93DF934A
S113082084B1856084B985B18A7F85B9CAEED0E088
S1130830FE0184910E94600487EB9BE00197F1F72D
S113084000C00000219690E0C33FD90789F7DF91EB
S1130850CF9108951F93CF93DF93EC01289A2A98A0
S113086080E011E0180FFE01E80FF11D808188235C
S113087039F00E94600480E58A95F1F7812FF1CF69
S11308802898DF91CF911F9108952A9880680E943B
S1130890600480E58A95F1F70895CF938295807F6F
S11308A00E944504289A2A98C0E180E20E946004CC
S11308B080E58A95F1F7C150C1F72898CF91089542
S11308C08EBD0DB407FEFDCF8EB5089584B18C6244
S11308D084B9249880E58CBD0895CF92DF92EF927D
S11308E0FF92CF93DF93D82F682F70E06F718091C0
S11308F080006115710521F48F7B8093800021C0F5
S113090080648093800061507109072E000C880B6D
S1130910990B0E9427069B01AC016DE77CE987E8EF
S11309209FE30E94B3069B01AC0160E070E680E7A0
S113093096E40E9484050E94F605709389006093F2
S113094088002091880030918900C09138012F5F80
S11309503F4F40E050E060E072E18AE790E00E949F
S11309603409CA01B9010E9427066B017C01EC2FEE
S1130970F0E0E05DFE4F608170E080E090E00E9476
S1130980270620E030E040E753E40E9484059B0101
S1130990AC01C701B6010E9484056B017C01D295AC
S11309A0D695D77061E070E002C0660F771FDA95C4
S11309B0E2F7072E000C880B990B0E9427069B0177
S11309C0AC01C701B6010E9484050E94F60570932C
S11309D03A0160933901DF91CF91FF90EF90DF905E
S11309E0CF9008951F920F920FB60F9211242F9358
S11309F03F934F935F936F937F938F939F93AF93A3
S1130A00BF93EF93FF938091390190913A0101973D
S1130A1090933A01809339018091390190913A0180
S1130A20892BE9F4809137018F5F80933701E0913E
S1130A30380180913701F0E0FE2FEE27E80FF11D19
S1130A40ED50FF4F8491811108C010926F00809186
S1130A5081008E7F8093810002C00E946D04FF910B
S1130A60EF91BF91AF919F918F917F916F915F9122
S1130A704F913F912F910F900FBE0F901F9018959B
S1130A80219A80E48093800088E080938100089517
S1130A908093380110923701E82FF0E0FE2FEE2703
S1130AA0ED50FF4F84910E946D0482E080936F00AB
S1130AB0E1E8F0E08081816080830895FC019191F8
S1130AC0992339F08091C00085FFFCCF9093C60034
S1130AD0F6CF8091C00085FFFCCF8AE08093C600EA
S1130AE008958091C00087FF03C08091C600F9CFAC
S1130AF008951092C5001092C40088E98093C10043
S1130B0086E08093C20008950E9498050C947906AB
S1130B100E94720658F00E946B0640F029F45F3F71
S1130B2029F00C94620651110C94AD060C946806DD
S1130B300E948A0668F39923B1F3552391F3951B18
S1130B40550BBB27AA2762177307840738F09F5FEA
S1130B505F4F220F331F441FAA1FA9F335D00E2E57
S1130B603AF0E0E832D091505040E695001CCAF7C4
S1130B702BD0FE2F29D0660F771F881FBB1F261787
S1130B8037074807AB07B0E809F0BB0B802DBF015E
S1130B90FF2793585F4F3AF09E3F510578F00C942D
S1130BA062060C94AD065F3FE4F3983ED4F3869559
S1130BB077956795B795F7959F5FC9F7880F911D4E
S1130BC09695879597F90895E1E0660F771F881F3A
S1130BD0BB1F621773078407BA0720F0621B730BED
S1130BE0840BBA0BEE1F88F7E09508950E949206D5
S1130BF088F09F5798F0B92F9927B751B0F0E1F0DA
S1130C00660F771F881F991F1AF0BA95C9F714C089
S1130C10B13091F00E94AC06B1E008950C94AC069A
S1130C20672F782F8827B85F39F0B93FCCF38695C2
S1130C3077956795B395D9F73EF49095809570951F
S1130C4061957F4F8F4F9F4F0895E89409C097FB9C
S1130C503EF490958095709561957F4F8F4F9F4F8F
S1130C609923A9F0F92F96E9BB279395F6958795D3
S1130C7077956795B795F111F8CFFAF4BB0F11F496
S1130C8060FF1BC06F5F7F4F8F4F9F4F16C088233D
S1130C9011F096E911C0772321F09EE8872F762F73
S1130CA005C0662371F096E8862F70E060E02AF0B4
S1130CB09A95660F771F881FDAF7880F96958795A0
S1130CC097F9089597F99F6780E870E060E00895C8
S1130CD09FEF80EC089500240A9416161706180650
S1130CE00906089500240A9412161306140605062C
S1130CF00895092E0394000C11F4882352F0BB0FBD
S1130D0040F4BF2B11F460FF04C06F5F7F4F8F4F1F
S1130D109F4F089557FD9058440F551F59F05F3F5A
S1130D2071F04795880F97FB991F61F09F3F79F009
S1130D3087950895121613061406551FF2CF46958B
S1130D40F1DF08C0161617061806991FF1CF86950D
S1130D507105610508940895E894BB2766277727F1
S1130D60CB0197F90895FA01EE0FFF1F3096210584
S1130D703105A1F16115710561F48038BFE39B076A
S1130D8049F168949038810561F08038BFEF9B0782
S1130D9041F099234AF5FF3FE1053105210519F199
S1130DA0E8940894E795D901AA2329F4AB2FBE2F20
S1130DB0F85FD0F310C0FF5F70F4A695E0F7F73941
S1130DC050F019F0FF3A38F49F779F930DD00F90AD
S1130DD007FC9058089546F00C94680660E070E0B3
S1130DE080E89FE308954FE79F775F934F933F9386
S1130DF02F930E94AE072F913F914F915F910E94D4
S1130E002A080C940B0729F416F00C9462060C942F
S1130E10AC060C9468060E949206A8F39638A0F7D4
S1130E2007F80F92E8942BE33AEA48EB5FE70E9455
S1130E3040080F920F920F924DB75EB70F920E9427
S1130E40F607E8E6F0E00E943D074F915F91EF91CD
S1130E50FF91E595EE1FFF1F49F0FE57E068442718
S1130E60EE0F441FFA95E1F74195550B0E94700768
S1130E700F9007FE0C9464070895DF93CF931F939C
S1130E800F93FF92EF92DF927B018C01689406C06E
S1130E90DA2EEF010E943D08FE01E894A591259108
S1130EA0359145915591A6F3EF010E94AF08FE01DB
S1130EB09701A801DA9469F7DF90EF90FF900F9102
S1130EC01F91CF91DF9108959B01AC0160E070E028
S1130ED080E89FE30C9484050C9462060C94040946
S1130EE00E949206D8F39923C9F3940F511DA3F3DA
S1130EF09150504094F059F0882332F0660F771FD8
S1130F00881F91505040C1F79E3F51052CF7880F20
S1130F10911D9695879597F908955F3FACF0983E9B
S1130F209CF0BB27869577956795B79508F4B160D3
S1130F309395C1F7BB0F58F711F460FFE8CF6F5FCB
S1130F407F4F8F4F9F4FE3CF0C94AD0616F00C9458
S1130F5004090C94680668940C9462060E94920634
S1130F60A8F39923C1F3AEF3DF93CF931F930F93A9
S1130F70FF92C92FDD2788232AF02197660F771F58
S1130F80881FDAF720E030E040E85FEB9FE3883920
S1130F9020F0803E38F021968F770E949808E0E98F
S1130FA0F0E004C00E949808EDEBF0E00E943D07D9
S1130FB08B01BE01EC01FB2E6F5771097595771FEC
S1130FC0880B990B0E94270628E132E741E35FE38F
S1130FD00E943D08AF2D9801AE01FF900F911F9123
S1130FE0CF91DF910E94AF080C947906FA01DC01DD
S1130FF0AA0FBB1F9B01AC01BF5728F4222733273C
S11310004427507820C0B75190F4AB2F0024469564
S113101037952795011CA395D2F3002071F0220F78
S1131020331F441FB395DAF30ED00C949708613044
S11310307105A0E88A07B94630F49B01AC01662724
S1131040772788279078309621F020833183428354
S1131050538308950E943D080C9479060E946B0600
S113106038F00E94720620F0952311F00C94620669
S11310700C94680611240C94AD060E948A0670F341
S1131080959FC1F3950F50E0551F629FF001729F29
S1131090BB27F00DB11D639FAA27F00DB11DAA1F38
S11310A0649F6627B00DA11D661F829F2227B00D85
S11310B0A11D621F739FB00DA11D621F839FA00D10
S11310C0611D221F749F3327A00D611D231F849F60
S11310D0600D211D822F762F6A2F11249F575040B7
S11310E09AF0F1F088234AF0EE0FFF1FBB1F661F32
S11310F0771F881F91505040A9F79E3F510580F0FB
S11311000C9462060C94AD065F3FE4F3983ED4F36E
S1131110869577956795B795F795E7959F5FC1F79E
S1131120FE2B880F911D9695879597F90895505831
S1131130BB27AA270E94AF080C9479060E946B066D
S113114038F00E94720620F039F49F3F19F426F417
S11311500C9468060EF4E095E7FB0C946206E92F04
S11311600E948A0658F3BA17620773078407950723
S113117020F079F4A6F50C94AC060EF4E0950B2E51
S1131180BA2FA02D0B01B90190010C01CA01A001D5
S11311901124FF27591B99F0593F50F4503E68F130
S11311A01A16F040A22F232F342F4427585FF3CF71
S11311B0469537952795A795F0405395C9F77EF442
S11311C01F16BA0B620B730B840BBAF09150A1F08B
S11311D0FF0FBB1F661F771F881FC2F70EC0BA0F11
S11311E0621F731F841F48F4879577956795B79599
S11311F0F7959E3F08F0B0CF9395880F08F0992794
S1131200EE0F9795879508959F3F31F0915020F404
S1131210879577956795B795880F911D96958795CE
S113122097F90895A1E21A2EAA1BBB1BFD010DC05C
S1131230AA1FBB1FEE1FFF1FA217B307E407F50782
S113124020F0A21BB30BE40BF50B661F771F881F5E
S1131250991F1A9469F760957095809590959B01F4
S1131260AC01BD01CF010895052E97FB1EF4009437
S11312700E944B0957FD07D00E94120907FC03D0B6
S11312804EF40C944B0950954095309521953F4F61
S11312904F4F5F4F089590958095709561957F4F5E
S10D12A08F4F9F4F0895F894FFCF7D
S11312AA0000000200000000190300000000486565
S11312BA61727462656174004D656464656C616E23
S11312CA646500486F6E6B00577466003320320001
S10912DAB46E4B806400B9
S9030000FC
