S010000052656D6F746520312E7372656357
S11300000C94FA020C940A040C942F040C94170315
S11300100C9417030C9417030C9417030C941703F4
S11300200C9417030C9417030C9417030C942605D3
S11300300C9417030C9417030C9417030C941703D4
S11300400C9417030C9417030C9492030C94170349
S11300500C9417030C9417030C9417030C941703B4
S11300600C9417030C94170307634236B79BD8A765
S11300701A39685618AEBAAB558C1D3CB7CC5763C9
S1130080BD6DEDFD753EF6177231BF000000803F77
S113009008000000BE922449123EABAAAA2ABECD93
S11300A0CCCC4C3E00000080BEABAAAAAA3E000005
S11300B00000BF000000803F0000000000084178FD
S11300C0D3BB4387D1133D190E3CC3BD4282AD2B34
S11300D03E68EC8276BED98FE1A93E4C80EFFFBE2C
S11300E001C4FF7F3F00000000003915556E7238CF
S11300F00C01067180710000000000000000000087
S113010000000000000000000000000000000000EB
S113011000000000000000000000000000000000DB
S113012000000000000000000000000000000000CB
S113013000000000000000000000000000000000BB
S113014000000000000000000000000000000000AB
S1130150000000000000000000000000000000009B
S1130160000000000000000000000000000000008B
S1130170000000000000000000000000000000007B
S1130180000000000000000000000000000000006B
S1130190000000000000000000000000000000005B
S11301A0000000000000000000000000000000004B
S11301B0000000000000000000000000000000003B
S11301C0000000000000000000000000000000002B
S11301D0000000000000000000000000000000001B
S11301E0000000000000000000000000000000000B
S11301F0000000636C6F6C48636C6F6C48636D60E7
S11302006D6A606A48680000000000000000000099
S113021000000000000000000000000000000000DA
S113022000000000000000000000000000000000CA
S113023000000000000000000000000000000000BA
S113024000000000000000000000000000000000AA
S1130250000000000000000000000000000000009A
S1130260000000000000000000000000000000008A
S1130270000000000000000000000000000000007A
S1130280000000000000000000000000000000006A
S1130290000000000000000000000000000000005A
S11302A0000000000000000000000000000000004A
S11302B0000000000000000000000000000000003A
S11302C0000000000000000000000000000000002A
S11302D0000000000000000000000000000000001A
S11302E0000000000000000000000000000000000A
S11302F00000002D4D60684D68888A4C8580654AF1
S1130300688886488180616383806383856686808C
S11303106686884A6C6D4F6F68516F8F8D4F6C681D
S11303204D6C8C8A4C8580654A68888648618081DA
S11303304D6C8C8A686C6D6F316F6D6C6D4F6F880E
S113034080686C6D6F2D6C6A686A4C6C858065681A
S11303506A6C4D6A8A8C4D6A8A8C4D6A6D527260E1
S113036032716F6D6F51718D802D2F6D6C6A6C4D74
S11303706D8A802A4D6C8C8A48618081284A4C2D74
S11303806D000000000000000000000000000000FC
S11303900000000000000000000000000000000059
S11303A00000000000000000000000000000000049
S11303B00000000000000000000000000000000039
S11303C00000000000000000000000000000000029
S11303D00000000000000000000000000000000019
S11303E00000000000000000000000000000000009
S11303F00000004A4C4E4F51536A808A4C6E808EE6
S11304006F8F804F404A4C4E4F51536A808A4C6ED6
S1130410808E6F8F804F4056537696807674315419
S113042051543676968056537696807674314A4C7B
S11304304E2F4F00000000000000000000000000EC
S113044000000000000000000000000000000000A8
S11304500000000000000000000000000000000098
S11304600000000000000000000000000000000088
S11304700000000000000000000000000000000078
S11304800000000000000000000000000000000068
S11304900000000000000000000000000000000058
S11304A00000000000000000000000000000000048
S11304B00000000000000000000000000000000038
S11304C00000000000000000000000000000000028
S11304D00000000000000000000000000000000018
S11304E00000000000000000000000000000000008
S11304F000000061818041688880486A8A804A28B7
S1130500668680466585804563838043216888804C
S11305104866868046658580452368888048668667
S11305208046658580452361818041688880486A6A
S11305308A804A2866868046658580456383804331
S11305402100000000000000000000000000000086
S11305500000000000000000000000000000000097
S11305600000000000000000000000000000000087
S11305700000000000000000000000000000000077
S11305800000000000000000000000000000000067
S11305900000000000000000000000000000000057
S11305A00000000000000000000000000000000047
S11305B00000000000000000000000000000000037
S11305C00000000000000000000000000000000027
S11305D00000000000000000000000000000000017
S11305E00000000000000000000000000000000007
S11305F00000000011241FBECFEFD8E0DEBFCDBF46
S113060011E0A0E0B1E0EEE1F3E102C005900D924B
S1130610AE31B107D9F721E0AEE1B1E001C01D92DE
S1130620A138B207E1F70E9463040C948D090C947D
S1130630000087B18C7F87B986E880937A0088E3CD
S113064080937E0010927B000895CF93DF9384B152
S1130650856084B985B18A7F85B9C0E0D0E00DC0DA
S1130660FE01E651FF4F84910E948B0487EB9BE0CF
S11306700197F1F700C000002196C930D10584F339
S1130680DF91CF9108950F931F93CF938C0185B180
S1130690816085B985B18B7F85B980E006C00E94F1
S11306A08B0480E58A95F1F78C2FC1E0C80FF8011F
S11306B0E80FF11D80818111F2CF85B18E7F85B95C
S11306C0CF911F910F91089595B19B7F95B9806843
S11306D00E948B0480E58A95F1F70895CF93829563
S11306E0807F0E94640385B1816085B985B18B7F69
S11306F085B9C0E007C080E20E948B0480E58A953A
S1130700F1F7CF5FC031B8F385B18E7F85B9CF9152
S113071008959091C00095FFFCCF8093C60080E0BF
S113072090E008951F920F920FB60F9211242F9309
S11307303F934F935F936F937F938F939F93AF9365
S1130740BF93EF93FF93E0911E01F0E08091C60008
S1130750ED5AFE4F8083E0911E01F0E0ED5AFE4F0A
S113076080818A30A9F5E0911E01F0E0ED5AFE4F38
S1130770108280E00E946E0380E00E94640383E59F
S113078091E00E944303809155018C36A9F4809135
S11307905701813319F0823331F009C09BB180E4F1
S11307A089278BB912C08BB180588BB90EC09BB10D
S11307B080E289278BB909C080915501803729F4DB
S11307C08091570180530E947E0510921E0105C03E
S11307D080911E018F5F80931E01FF91EF91BF9165
S11307E0AF919F918F917F916F915F914F913F91C5
S11307F02F910F900FBE0F901F9018958AB1837E92
S11308008AB98BB18C618BB98AE08093690083E0EB
S11308108DBB08951F920F920FB60F9211242F9340
S11308203F934F935F936F937F938F939F93AF9374
S1130830BF93EF93FF9380E00E947E05FF91EF91B9
S1130840BF91AF919F918F917F916F915F914F91E4
S11308503F912F910F900FBE0F901F9018951F92EC
S11308600F920FB60F9211242F933F934F935F93E0
S11308706F937F938F939F93AF93BF93EF93FF9364
S11308804C9B05C08EE091E00E94940504C084E175
S113089091E00E949405FF91EF91BF91AF919F91D8
S11308A08F917F916F915F914F913F912F910F9015
S11308B00FBE0F901F9018958AB1806E8AB98BB1C4
S11308C08F718BB908950E9491042FEF80E792E015
S11308D0215080409040E1F700C000000E942503B1
S11308E00E9419030E94B3050E94AB050E945C0498
S11308F00E94FE030E947405789480E091E0909336
S11309007E0180937D0189B18FE19EE40197F1F727
S113091000C00000F8CF8EBD0DB407FEFDCF8EB52C
S1130920089584B18C6284B984B18F7E84B980E5E2
S11309308CBD08958F929F92AF92BF92CF92DF9217
S1130940EF92FF92CF93C82F682F70E06F716115FB
S1130950710531F4E0E8F0E080818F7B808323C06F
S1130960E0E8F0E080818064808361507109072EA3
S1130970000C880B990B0E9461069B01AC016DE78A
S11309807CE987E89FE30E94ED069B01AC0160E0EF
S113099070E680E796E40E94BE050E9430067093DC
S11309A089006093880020918800309189002F5F2E
S11309B03F4F40E050E060E072E18AE790E00E943F
S11309C06E0969017A01E0912001F0E0E85EFE4FD2
S11309D0608170E080E090E00E94610620E030E0F9
S11309E040E753E40E94BE054B015C01C701B60118
S11309F00E946106A50194010E94BE056B017C0161
S1130A00C295C695C77061E070E002C0660F771F9B
S1130A10CA95E2F7072E000C880B990B0E94610619
S1130A209B01AC01C701B6010E94BE050E943006BD
S1130A307093220160932101CF91FF90EF90DF909A
S1130A40CF90BF90AF909F908F9008951F920F9278
S1130A500FB60F9211242F933F934F935F936F938D
S1130A607F938F939F93AF93BF93EF93FF93809163
S1130A7021019091220101979093220180932101F9
S1130A808091210190912201892BE9F480911F0129
S1130A908F5F80931F01E0912001F0E080911F019E
S1130AA0FE2FEE27E80FF11DED50FF4F84918111C9
S1130AB008C010926F00E1E8F0E080818E7F8083AF
S1130AC002C00E949A04FF91EF91BF91AF919F9150
S1130AD08F917F916F915F914F913F912F910F90E3
S1130AE00FBE0F901F90189584B1826084B980E482
S1130AF08093800088E08093810008958093200192
S1130B0010921F01E82FF0E0FE2FEE27ED50FF4F6B
S1130B1084910E949A0482E080936F00E1E8F0E0FF
S1130B208081816080830895FC0107C08091C000AA
S1130B3085FFFCCF9093C600F9019F012F5F3F4FC3
S1130B4090819111F3CF8091C00085FFFCCF8AE0A2
S1130B508093C600089502C08091C6008091C000B1
S1130B608823D4F308951092C5001092C40088E934
S1130B708093C10086E08093C20008950E94D2054C
S1130B800C94B3060E94AC0658F00E94A50640F0EF
S1130B9029F45F3F29F00C949C0651110C94E7064C
S1130BA00C94A2060E94C40668F39923B1F355235A
S1130BB091F3951B550BBB27AA276217730784076C
S1130BC038F09F5F5F4F220F331F441FAA1FA9F302
S1130BD035D00E2E3AF0E0E832D091505040E695F0
S1130BE0001CCAF72BD0FE2F29D0660F771F881F51
S1130BF0BB1F261737074807AB07B0E809F0BB0B44
S1130C00802DBF01FF2793585F4F3AF09E3F510557
S1130C1078F00C949C060C94E7065F3FE4F3983E4E
S1130C20D4F3869577956795B795F7959F5FC9F740
S1130C30880F911D9695879597F90895E1E0660FC1
S1130C40771F881FBB1F621773078407BA0720F03A
S1130C50621B730B840BBA0BEE1F88F7E0950895A3
S1130C600E94CC0688F09F5798F0B92F9927B75166
S1130C70B0F0E1F0660F771F881F991F1AF0BA953C
S1130C80C9F714C0B13091F00E94E606B1E00895AE
S1130C900C94E606672F782F8827B85F39F0B93FA0
S1130CA0CCF3869577956795B395D9F73EF49095EF
S1130CB08095709561957F4F8F4F9F4F0895E8946D
S1130CC009C097FB3EF490958095709561957F4F90
S1130CD08F4F9F4F9923A9F0F92F96E9BB2793953E
S1130CE0F695879577956795B795F111F8CFFAF44E
S1130CF0BB0F11F460FF1BC06F5F7F4F8F4F9F4F7F
S1130D0016C0882311F096E911C0772321F09EE8DC
S1130D10872F762F05C0662371F096E8862F70E042
S1130D2060E02AF09A95660F771F881FDAF7880F1C
S1130D309695879597F9089597F99F6780E870E0ED
S1130D4060E008959FEF80EC089500240A9416163D
S1130D50170618060906089500240A9412161306A5
S1130D60140605060895092E0394000C11F4882333
S1130D7052F0BB0F40F4BF2B11F460FF04C06F5F4F
S1130D807F4F8F4F9F4F089557FD9058440F551F25
S1130D9059F05F3F71F04795880F97FB991F61F0F9
S1130DA09F3F79F087950895121613061406551F70
S1130DB0F2CF4695F1DF08C0161617061806991FDC
S1130DC0F1CF86957105610508940895E894BB27D1
S1130DD066277727CB0197F90895FA01EE0FFF1FD5
S1130DE0309621053105A1F16115710561F4803852
S1130DF0BFE39B0749F168949038810561F080381E
S1130E00BFEF9B0741F099234AF5FF3FE105310508
S1130E10210519F1E8940894E795D901AA2329F446
S1130E20AB2FBE2FF85FD0F310C0FF5F70F4A69510
S1130E30E0F7F73950F019F0FF3A38F49F779F93B1
S1130E400DD00F9007FC9058089546F00C94A2061C
S1130E5060E070E080E89FE308954FE79F775F9339
S1130E604F933F932F930E94E8072F913F914F9107
S1130E705F910E9464080C94450729F416F00C94C1
S1130E809C060C94E6060C94A2060E94CC06A8F3D9
S1130E909638A0F707F80F92E8942BE33AEA48EB68
S1130EA05FE70E947A080F920F920F924DB75EB7D8
S1130EB00F920E943008E8E6F0E00E9477074F9115
S1130EC05F91EF91FF91E595EE1FFF1F49F0FE57EB
S1130ED0E0684427EE0F441FFA95E1F74195550B5E
S1130EE00E94AA070F9007FE0C949E070895DF93B3
S1130EF0CF931F930F93FF92EF92DF927B018C01AC
S1130F00689406C0DA2EEF010E947708FE01E89487
S1130F10A5912591359145915591A6F3EF010E9434
S1130F20E908FE019701A801DA9469F7DF90EF90D0
S1130F30FF900F911F91CF91DF9108959B01AC0118
S1130F4060E070E080E89FE30C94BE050C949C067E
S1130F500C943E090E94CC06D8F39923C9F3940F4C
S1130F60511DA3F39150504094F059F0882332F06E
S1130F70660F771F881F91505040C1F79E3F51055F
S1130F802CF7880F911D9695879597F908955F3FE3
S1130F90ACF0983E9CF0BB27869577956795B795FE
S1130FA008F4B1609395C1F7BB0F58F711F460FFD3
S1130FB0E8CF6F5F7F4F8F4F9F4FE3CF0C94E706CF
S1130FC016F00C943E090C94A20668940C949C06AA
S1130FD00E94CC06A8F39923C1F3AEF3DF93CF9319
S1130FE01F930F93FF92C92FDD2788232AF021979F
S1130FF0660F771F881FDAF720E030E040E85FEBE8
S11310009FE3883920F0803E38F021968F770E9444
S1131010D208E0E9F0E004C00E94D208EDEBF0E071
S11310200E9477078B01BE01EC01FB2E6F577109FB
S11310307595771F880B990B0E94610628E132E7AA
S113104041E35FE30E947708AF2D9801AE01FF9062
S11310500F911F91CF91DF910E94E9080C94B30680
S1131060FA01DC01AA0FBB1F9B01AC01BF5728F496
S1131070222733274427507820C0B75190F4AB2F50
S11310800024469537952795011CA395D2F300209B
S113109071F0220F331F441FB395DAF30ED00C9472
S11310A0D10861307105A0E88A07B94630F49B0184
S11310B0AC016627772788279078309621F0208323
S11310C031834283538308950E9477080C94B306B6
S11310D00E94A50638F00E94AC0620F0952311F07A
S11310E00C949C060C94A20611240C94E7060E940E
S11310F0C40670F3959FC1F3950F50E0551F629F8E
S1131100F001729FBB27F00DB11D639FAA27F00D5C
S1131110B11DAA1F649F6627B00DA11D661F829F83
S11311202227B00DA11D621F739FB00DA11D621F68
S1131130839FA00D611D221F749F3327A00D611D85
S1131140231F849F600D211D822F762F6A2F112467
S11311509F5750409AF0F1F088234AF0EE0FFF1F9A
S1131160BB1F661F771F881F91505040A9F79E3FF1
S1131170510580F00C949C060C94E7065F3FE4F361
S1131180983ED4F3869577956795B795F795E79547
S11311909F5FC1F7FE2B880F911D9695879597F950
S11311A008955058BB27AA270E94E9080C94B30657
S11311B00E94A50638F00E94AC0620F039F49F3F47
S11311C019F426F40C94A2060EF4E095E7FB0C94B3
S11311D09C06E92F0E94C40658F3BA1762077307E6
S11311E08407950720F079F4A6F50C94E6060EF42E
S11311F0E0950B2EBA2FA02D0B01B90190010C0123
S1131200CA01A0011124FF27591B99F0593F50F43A
S1131210503E68F11A16F040A22F232F342F442792
S1131220585FF3CF469537952795A795F04053958A
S1131230C9F77EF41F16BA0B620B730B840BBAF05A
S11312409150A1F0FF0FBB1F661F771F881FC2F7C5
S11312500EC0BA0F621F731F841F48F487957795D9
S11312606795B795F7959E3F08F0B0CF9395880F93
S113127008F09927EE0F9795879508959F3F31F0D1
S1131280915020F4879577956795B795880F911DB0
S11312909695879597F90895A1E21A2EAA1BBB1B70
S11312A0FD010DC0AA1FBB1FEE1FFF1FA217B3072E
S11312B0E407F50720F0A21BB30BE40BF50B661F44
S11312C0771F881F991F1A9469F760957095809508
S11312D090959B01AC01BD01CF010895052E97FBAC
S11312E01EF400940E94850957FD07D00E944C0902
S11312F007FC03D04EF40C94850950954095309525
S113130021953F4F4F4F5F4F08959095809570956D
S111131061957F4F8F4F9F4F0895F894FFCF44
S113131E00000002000000008903000000003220DB
S111132E3220680030206D00B46E4B806400E5
S9030000FC
