S010000052656D6F746520312E7372656357
S11300000C9413030C946F090C94EC090C943003B6
S11300100C9430030C9430030C9430030C94E708D4
S11300200C9430030C9430030C9430030C949D0C0A
S11300300C9430030C9430030C9430030C94300370
S11300400C9430030C9430030C9491080C943003FA
S11300500C9430030C9430030C9430030C94300350
S11300600C9430030C94300307634236B79BD8A733
S11300701A39685618AEBAAB558C1D3CB7CC5763C9
S1130080BD6DEDFD753EF6177231BF000000803F77
S113009008000000BE922449123EABAAAA2ABECD93
S11300A0CCCC4C3E00000080BEABAAAAAA3E000005
S11300B00000BF000000803F0000000000084178FD
S11300C0D3BB4387D1133D190E3CC3BD4282AD2B34
S11300D03E68EC8276BED98FE1A93E4C80EFFFBE2C
S11300E001C4FF7F3F00000000000E111111111127
S11300F00E1F11110A040A11111F00000000000054
S1130100001F0E15151F15150E0011151F0E1F15B6
S11301101100B471807100000000000000000000B4
S113012000000000000000000000000000000000CB
S113013000000000000000000000000000000000BB
S113014000000000000000000000000000000000AB
S1130150000000000000000000000000000000009B
S1130160000000000000000000000000000000008B
S1130170000000000000000000000000000000007B
S1130180000000000000000000000000000000006B
S1130190000000000000000000000000000000005B
S11301A0000000000000000000000000000000004B
S11301B0000000000000000000000000000000003B
S11301C0000000000000000000000000000000002B
S11301D0000000000000000000000000000000001B
S11301E0000000000000000000000000000000000B
S11301F000000000000000000000000000000000FB
S113020000000000000000000000000000000000EA
S1130210000000004B2D4D60684D68888A4C858035
S1130220654A6888864881806163838063838566C4
S113023086806686884A6C6D4F6F68516F8F8D4FCC
S11302406C684D6C8C8A4C8580654A6888864861E8
S113025080814D6C8C8A686C6D6F316F6D6C6D4FE5
S11302606F8880686C6D6F2D6C6A686A4C6C8580D1
S113027065686A6C4D6A8A8C4D6A8A8C4D6A6D52C7
S1130280726032716F6D6F51718D802D2F6D6C6A3C
S11302906C4D6D8A802A4D6C8C8A48618081284A15
S11302A04C2D6D0000000000000000000000000064
S11302B0000000000000000000000000000000003A
S11302C0000000000000000000000000000000002A
S11302D0000000000000000000000000000000001A
S11302E0000000000000000000000000000000000A
S11302F000000000000000000000000000000000FA
S113030000000000000000000000000000000000E9
S1130310000000000000648D8090809280938092A1
S11303208090808D40808B8F8D0000000000000045
S113033000000000000000000000000000000000B9
S113034000000000000000000000000000000000A9
S11303500000000000000000000000000000000099
S11303600000000000000000000000000000000089
S11303700000000000000000000000000000000079
S11303800000000000000000000000000000000069
S11303900000000000000000000000000000000059
S11303A00000000000000000000000000000000049
S11303B00000000000000000000000000000000039
S11303C00000000000000000000000000000000029
S11303D00000000000000000000000000000000019
S11303E00000000000000000000000000000000009
S11303F000000000000000000000000000000000F9
S113040000000000000000000000000000000000E8
S11304100000000000000000648083888A6B8083F1
S1130420888A6B60808084888A6B8084888A6B80E9
S11304308186886A808186886A608080888A8867E5
S113044000000000000000000000000000000000A8
S11304500000000000000000000000000000000098
S11304600000000000000000000000000000000088
S11304700000000000000000000000000000000078
S11304800000000000000000000000000000000068
S11304900000000000000000000000000000000058
S11304A00000000000000000000000000000000048
S11304B00000000000000000000000000000000038
S11304C00000000000000000000000000000000028
S11304D00000000000000000000000000000000018
S11304E00000000000000000000000000000000008
S11304F000000000000000000000000000000000F8
S113050000000000000000000000000000000000E7
S11305100000000000000000000060606EE06EE07B
S11305206E7273727353606E7273727353606E7211
S113053073727353606E73E0736053726072E0524F
S1130540E072737273606E7273727353606E72735F
S1130550E073E073335340606EE06EE06E6072737C
S1130560727353000000000000000000000000004F
S11305700000000000000000000000000000000077
S11305800000000000000000000000000000000067
S11305900000000000000000000000000000000057
S11305A00000000000000000000000000000000047
S11305B00000000000000000000000000000000037
S11305C00000000000000000000000000000000027
S11305D00000000000000000000000000000000017
S11305E00000000000000000000000000000000007
S11305F000000000000000000000000000000000F7
S113060000000000000000000000000000000000E6
S11306100000000000000000000000003915556EC5
S113062072380C01060011241FBECFEFD8E0DEBFE4
S1130630CDBF11E0A0E0B1E0ECEFF1E202C0059023
S11306400D92AE3DB107D9F723E0AEEDB1E001C0A4
S11306501D92A53DB207E1F70E94260A0C94FC10F6
S11306600C9400008F3068F46F3058F49FE0899F39
S1130670F0011124ED51FE4FE60FF11D908181E050
S1130680941380E008956AE071E081E00E94390BE0
S113069062E071E082E00E94390B6AEF70E083E06F
S11306A00E94390B62EF70E084E00E94390B6AEE1D
S11306B070E085E00C94390B97E09093E2019093FD
S11306C0E10196E09093DE018093000120E030E0A8
S11306D04FE050E280E090E0489FF001499FF00D28
S11306E01124ED51FE4FE20FF31F508301968F301A
S11306F0910591F72F5F3F4F2F30310559F708953A
S11307008091E201811103C081E08093E201809134
S1130710E20181508093E20108958091E2018F5FAC
S11307208093E2018091E2018F3018F08EE0809393
S1130730E20108958091E101811103C081E0809379
S1130740E1018091E10181508093E1019091E10107
S11307508091DE01981720F48091E1018093DE01FD
S113076008958091E1018F5F8093E1018091E1011F
S11307708F3018F08EE08093E1012091E1018091A7
S1130780DE0130E090E00296821793072CF480910A
S1130790E10182508093DE010895DC018091000123
S11307A08823D1F1E091E2018091E1019FE09E9FD5
S11307B0F0011124ED51FE4FE80FF11D80818032CC
S11307C059F58091E2018093E0018091E1018093E9
S11307D0DF0110920001E091E2018091E1019E9F0E
S11307E0F0011124ED51FE4FE80FF11D88E58083DF
S11307F06C9383E311968C9311978091E201805D51
S113080012968C9312978091E101805D13968C93DC
S1130810139714961C9208951C920895FC0181E08C
S113082080930001928190539093E00183818053DF
S11308308093DF018091E0018093E2018091DF01E8
S11308408093E101E091E0018091DF019FE0E99F65
S1130850F0011124ED51FE4FE80FF11D8FE4808368
S11308609091DF018091DE01981720F48091DF01DF
S11308708093DE012091DF018091DE0130E090E081
S11308800296821793072CF48091DF0182508093A3
S1130890DE010895CF93DF932091DE0130E0BFE0C5
S11308A04091DE01622F70E050E04E5F5F4F4617CB
S11308B057073CF1432F50E0EC01C40FD51F2930FA
S11308C010F4E1E301C0E8E3E20FE883A1E0A30F41
S11308D040E050E0B49FF001B59FF00D1124ED51BC
S11308E0FE4FE60FF71FC081FC01EA0FF11DC08324
S11308F0AF5F4F5F5F4F4F30510561F7305F2F5F40
S1130900CFCF2091E1013091DE01E091E201231B80
S1130910EF5F30E1239FE00D112420910001F0E00E
S1130920E80FF91F222359F020812F3421F02835B4
S113093021F421E00EC022E00CC02AE20AC020818A
S11309402F3421F0283521F424E003C025E001C030
S113095023E02083FC0110AADF91CF910895FF9238
S11309600F931F93CF93DF93E091E0018091DF0118
S11309709FE0E99FF0011124ED51FE4FE80FF11DB6
S1130980C0811091E0010091DF01D1E04C2F602F74
S1130990812F8D1B0E943203882311F0DF5FF6CF75
S11309A01091E001D11BFD2EF10E1F5F4C2F602F23
S11309B0812F0E9432038111F6CF84E08F1510F449
S11309C081E069C00091E0011091DF01D1E04C2F7A
S11309D0612F6D1B802F0E943203882311F0DF5F8B
S11309E0F6CF1091DF01D11BFD2EF10E1F5F4C2FAE
S11309F0612F802F0E9432038111F6CF94E09F155E
S1130A00F8F2D091E0010091DF0111E04C2F602F4A
S1130A10611B8D2F811B0E943203882311F01F5FFD
S1130A20F5CF0091E001D091DF011D1B0D1BF12ECC
S1130A30FD0EDF5F4C2F6D2F802F8D0F0E94320330
S1130A408111F5CF84E08F1508F4BACFD091E0017D
S1130A500091DF0111E04C2F612F600F8D2F811B5E
S1130A600E943203882311F01F5FF5CFD091E0017B
S1130A700091DF011D1BF12EFD0E0150DF5F4C2F95
S1130A80602F8D2F0E9432038111F5CF81E094E015
S1130A909F1508F080E0DF91CF911F910F91FF9097
S1130AA008958AE693E00E944A0480E00E94130BB2
S1130AB08AE693E00C94EE0A1092C8021092C702E0
S1130AC021E0209301011092C6020C94890B0F932C
S1130AD01F93CF93DF938091C4028823B9F00E94BF
S1130AE051052FEF8DE399E4215080409040E1F7C8
S1130AF000C000008091C402813019F087E291E0C7
S1130B0002C08EE191E00E945C056DC04C9923C047
S1130B1063E38BE993E00E94CD0380919B038823D8
S1130B2009F461C064E682E90E94FF0B0E94AF04ED
S1130B30882349F081E08093C4021092C50286E1C3
S1130B4093E00E94890C8BE993E00E94520A81E0B1
S1130B508093010148C064E170E081E00E94950A3D
S1130B608C0164E170E082E00E94950AEC018091BE
S1130B701C01811133C08091150190911601449696
S1130B808017910718F40E94B1030AC080911501DF
S1130B90909116010F970817190728F40E949A03D9
S1130BA081E0809301018091130190911401449696
S1130BB08C179D0718F40E9480030AC080911301CA
S1130BC0909114014497C817D90728F40E948D0303
S1130BD081E0809301018DE280931C0180910101E9
S1130BE081110E9451058FE59AEE0197F1F700C03B
S1130BF00000DF91CF911F910F91089581E08093C0
S1130C00C8021092C402809301015D9B05C081E378
S1130C1091E00E94520A5D9808950F931F93CF9319
S1130C20DF93C0911501D091160169E170E081E074
S1130C300E94950AC81BD90B00911301109114014D
S1130C4069E170E082E00E94950A9801281B390B43
S1130C508E01020F131FC21BD30B003811055CF465
S1130C6001383FEF130754F0C8010496099740F484
S1130C7000E010E005C00FE710E002C001E81FEF3C
S1130C80C038D1055CF4C1388FEFD80754F0CE01D9
S1130C900496099740F4C0E0D0E005C0CFE7D0E067
S1130CA002C0C1E8DFEF8091CB029091CC0208171B
S1130CB0190739F48091C9029091CA02C817D9075B
S1130CC019F14AE064E071E0C8010E94C710E2E053
S1130CD0F1E001900020E9F73197E250F140DF01A3
S1130CE0BB27AE5FBE4F80E28C93EF5F6E2F70E048
S1130CF06E5F7E4F4AE0CE010E94C71082E091E011
S1130D000E94520A1092D0021093CC020093CB029C
S1130D10D093CA02C093C902DF91CF911F910F9162
S1130D20089580E00E94130B85E391E00E94EE0A8F
S1130D3080E10E94130B86E491E00C94EE0A8DE4AA
S1130D408093B30082E08093B00097E09093B10069
S1130D508093700008951F93CF93DF93EC0110915B
S1130D60C8028881113069F5813438F087E591E053
S1130D70DF91CF911F910C945C058091000181114A
S1130D803BC0CE0102970E940E0464E684E90E94EF
S1130D90FF0B0E94AF04882391F082E08093C40289
S1130DA01093C50284E68093190188E592E090933C
S1130DB01801809317018AE195E00E94890C81E073
S1130DC005C0803330F481E08093C7028093010131
S1130DD013C08881813480F40E94FE0580E00E9463
S1130DE05C03CE0102970E940E0464E684E9DF915D
S1130DF0CF911F910C94FF0BDF91CF911F91089518
S1130E00282FCA01213319F02233B9F00895613330
S1130E1041F0623379F06033E1F585E691E00C94BA
S1130E20890BBA0184EB93E00E94C01081E08093A7
S1130E30CD02089586E791E00FC0623379F028F47B
S1130E40603341F0613341F008956333B9F06433A2
S1130E50B9F008955F9808950C949A0BFA012081D3
S1130E6030E020533109C901880F991F322F2227FE
S1130E70820F931F8E5E9E4F0C94890C0C94AB06CC
S1130E80FA018081813311F45E9A08955E9810927C
S1130E90C50208951F93CF93DF938FE10E94130B34
S1130EA08091B403803311F08FE501C082E50E9484
S1130EB0DF0A8EE10E94130B8091B503803311F099
S1130EC08FE501C08CE40E94DF0A8FE00E94130BBF
S1130ED08091B703803311F08FE501C088E50E944B
S1130EE0DF0A8091B603803321F482E191E00E940D
S1130EF0890CC5E081E08C0FE82FF0E0EC54FC4F46
S1130F009081903211F0C82FF5CFCE5F10828C2FD4
S1130F1091E0980FE92FF0E0EC54FC4F208120324F
S1130F2011F0892FF5CFD2E0D80F108285E00E940E
S1130F30130BC73039F48091B903803319F487E86F
S1130F4091E013C0E9EBF3E001900020E9F7CF0151
S1130F508A5B934013E0181B11162CF480E20E9464
S1130F60DF0A1150F9CF89EB93E00E94EE0A84E185
S1130F700E94130B8D2F90E0D0E08C1B9D0B0297E9
S1130F8049F4FE01EC54FC4F8081803319F487E866
S1130F9091E011C0CC54DC4FFE0101900020E9F730
S1130FA01C2F1E1B1C5F11162CF480E20E94DF0A0A
S1130FB01150F9CFCE01DF91CF911F910C94EE0A1D
S1130FC0CF93DF938091C702882301F180910101BF
S1130FD0882359F00E94060B80E10E94130B8CE9D0
S1130FE091E00E94EE0A109201014C998EC00E9479
S1130FF0FE0581E00E945C032FEF80E792E0215020
S113100080409040E1F700C000007FC08091010162
S1131010882351F080E00E94200B81E00E94200B85
S11310200E949106109201010E94CD0B80911D0136
S113103081110DC080E20E94130B0E94F10BFC0190
S11310402081211102C08BE891E00E94EE0A809178
S1131050CD02882321F00E944A071092CD024C99B8
S113106016C08091C502811112C05D9909C08AEA37
S113107091E00E94520A8EEA91E00E94520A5D9A1F
S11310808091D002843171F40E940D060BC05D9BE7
S113109009C081E391E00E94520A82EB91E00E9430
S11310A0520A5D981E992FC04C9916C023B18091A5
S11310B0D20290E0229526952695237031E02327CD
S11310C02170C22FF0E0DF2F8C179D07C1F086EB53
S11310D091E00E94520A13C08091C60281110FC090
S11310E08AEB91E00E94520A8EEB91E00E94890BF8
S11310F081E08093C6021092CF021092CE0281E06A
S11311008093D20202C01092D2022FE788E391E0CA
S1131110215080409040E1F700C00000DF91CF9162
S113112008951F920F920FB60F9211242F933F939D
S11311304F935F936F937F938F939F93AF93BF93DB
S1131140EF93FF93E091D302F0E08091C600E05664
S1131150FC4F8083E091D302F0E0E056FC4F8081A5
S11311608A3089F4E091D302F0E0E056FC4F10821B
S11311706091A1038091A00342EA53E00E9400071A
S11311801092D30205C08091D3028F5F8093D30263
S1131190FF91EF91BF91AF919F918F917F916F914B
S11311A05F914F913F912F910F900FBE0F901F9021
S11311B018958AB1837E8AB98BB18C618BB92698D4
S11311C02E9A8AE08093690083E08DBB08951F9274
S11311D00F920FB60F9211242F933F934F935F9367
S11311E06F937F938F939F93AF93BF93EF93FF93EB
S11311F08091D1028F5F8093D102833318F05F9A7C
S11312001092D1028091D002843128F48091D002CE
S11312108F5F8093D00280911B01882329F08091F5
S11312201B01815080931B0180911A01882329F0AE
S113123080911A01815080931A018091C6028823FB
S113124089F08091CE029091CF028838934150F476
S11312508091CE029091CF0201969093CF02809319
S1131260CE0206C01092C6021092CF021092CE0295
S11312708091C5028823B9F080911901815080932F
S11312801901811110C084E680931901809117011E
S11312909091180101979093180180931701892B5D
S11312A011F41092C50280911C01882329F08091C9
S11312B01C01815080931C010E94610BFF91EF91EE
S11312C0BF91AF919F918F917F916F915F914F915A
S11312D03F912F910F900FBE0F901F9018951F9262
S11312E00F920FB60F9211242F933F934F935F9356
S11312F06F937F938F939F93AF93BF93CF93EF930A
S1131300FF9380911A01811155C0C091C802C13068
S1131310A1F487E591E00E945C058EEC91E00E94C7
S1131320520AC093C50284E68093190188E592E0CD
S113133090931801809317013AC04C9905C082ED2F
S113134091E00E94520A33C08091C702882331F091
S11313501092C70281E08093010129C04C9B27C0F1
S113136080E00E94840A20911101309112012550DD
S1131370310928173907D8F469E170E080E00E9448
S1131380950A909312018093110169E170E081E064
S11313900E94950A909316018093150169E170E00B
S11313A082E00E94950A909314018093130184E1D2
S11313B080931A01FF91EF91CF91BF91AF919F91CB
S11313C08F917F916F915F914F913F912F910F90EA
S11313D00FBE0F901F9018951F920F920FB60F9289
S11313E011242F933F934F935F936F937F938F9326
S11313F09F93AF93BF93EF93FF9380911B01811150
S11314000CC04C9903C086ED91E002C08AED91E0D6
S11314100E94520A84E180931B01FF91EF91BF91D6
S1131420AF919F918F917F916F915F914F913F9178
S11314302F910F900FBE0F901F9018958AB1806E58
S11314408AB98BB18F798BB95F9A08950E94EA0C9F
S11314502FEF80E792E0215080409040E1F700C0F8
S113146000000E94C00A0E9443030E94780A0E945E
S11314706D0A0E94650A0E941E0A0E94D9080E94F1
S1131480F70B0E949F060E94910678948091C802EF
S1131490882329F08130D1F70E946705F7CF0E9495
S11314A0E007F4CFFC019191992339F08091C000B9
S11314B085FFFCCF9093C600F6CF8091C00085FFD6
S11314C0FCCF8AE08093C60008958091C00087FF16
S11314D003C08091C600F9CF08951092C500109200
S11314E0C40088E98093C10086E08093C200089517
S11314F087B1887F87B986E880937A0088E38093F0
S11315007E0010927B000895806480937C0080911B
S11315107A00806480937A0080917A0086FDFCCF03
S1131520809178009091790008959B018064809364
S11315307C0040E060E070E0CB01E42FF0E0E217D3
S1131540F30798F450917A00506450937A005091C4
S11315507A0056FDFCCFE0917800F09179006E0F8F
S11315607F1F811D911D4F5FE8CF40E050E00E9436
S11315707F10C90108958EBD0DB407FEFDCF0895F7
S1131580CF93DF9384B1856084B985B18A7F85B9AF
S1131590CCE1D6E0FE0184910E94BB0A87EB9BE07C
S11315A00197F1F700C00000219696E0C532D907F3
S11315B089F71092D4022A9ADF91CF910895289A3C
S11315C02A980E94BB0A80E58A95F1F728982A9AFE
S11315D08091D4028F5F8093D4020895CF93DF93D8
S11315E0289A2A98EC018991882359F00E94BB0A11
S11315F080E58A95F1F78091D4028F5F8093D402BD
S1131600F2CF28982A9ADF91CF9108952A9881E001
S11316100E94BB0A87EB9BE00197F1F700C0000032
S11316201092D4020895CF93C82F2A9880680E94FC
S1131630BB0A80E58A95F1F7C093D402CF9108954F
S1131640CF938295807F0E94130B289A2A98C0E139
S113165080E20E94BB0A80E58A95F1F78091D4026A
S11316608F5F8093D402C15099F728982A9ACF911A
S113167008950F931F93CF93DF932A9828E0829FB6
S1131680C0011124082F0064EB0110E02898802F7A
S1131690812B0E94BB0A80E58A95F1F7289AFE0106
S11316A084910E94BB0AF0E5FA95F1F71F5F219639
S11316B0183061F728982A9ADF91CF911F910F91E2
S11316C008958091D502882319F180916203909145
S11316D063030196909363038093620385369105B7
S11316E0B8F0809161038F5F80936103863060F06E
S11316F0109261031092D5026BE971E084EC93E0DF
S11317000E94C01010921D01109263031092620394
S1131710089521E02093D50210926303109262038E
S113172010926103BC0184EC93E00E94C0101092FB
S11317301D010895CF93DF93EC018091D602883088
S113174081F48091D70291E0980F9093D70287702B
S113175021E1829FC001112487529D4F0E94890B71
S11317600AC08091D6028F5F8093D602893018F028
S113177088E08093D6028091D80291E0980F9093EC
S1131780D802877021E1829FC0011124BE018752D3
S11317909D4FDF91CF910C94C0108091D602882385
S11317A0F9F08091D50281111BC06091D70281E0CC
S11317B0860F8093D702677081E1689FB00111247E
S11317C067527D4F84EC93E00E94C01010921D017B
S11317D081E08093D5028091D60281508093D60215
S11317E0089581E080931D0184EC93E00895219A8B
S11317F080E48093800088E0809381000895CF92F4
S1131800DF92EF92FF92CF93DF93C82FD62F809170
S11318106F00826080936F0080918100816080936B
S113182081006C2F70E06F718091800061157105EB
S113183021F48F7B8093800021C08064809380009A
S113184061507109072E000C880B990B0E94940DAE
S11318509B01AC016DE77CE987E89FE30E94200EC1
S11318609B01AC0160E070E680E796E40E94F10C15
S11318700E94630D70938900609388002091880012
S1131880309189002F5F3F4F40E050E060E072E10B
S11318908AE790E00E94A110CA01B9010E94940D48
S11318A06B017C016D2F70E080E090E00E94940D4C
S11318B020E030E040E753E40E94F10C9B01AC01CE
S11318C0C701B6010E94F10C6B017C01C295C6955B
S11318D0C77061E070E002C0660F771FCA95E2F737
S11318E0072E000C880B990B0E94940D9B01AC01F0
S11318F0C701B6010E94F10C0E94630D7093690345
S113190060936803DF91CF91FF90EF90DF90CF90C9
S113191008959093650380936403FC0124912093BC
S1131920660321E0209367036091660320916703B7
S1131930E20FF11D84910C94FF0B1F920F920FB6CE
S11319400F9211242F933F934F935F936F937F9341
S11319508F939F93AF93BF93EF93FF93809168030B
S11319609091690301979093690380936803892B8D
S113197001F5E0916403F0916503309779F080916B
S113198067038F5F80936703E80FF11D84918823B9
S113199029F0609166030E94FF0B0BC010926F0048
S11319A0809181008E7F8093810010926503109254
S11319B06403FF91EF91BF91AF919F918F917F91BC
S11319C06F915F914F913F912F910F900FBE0F90A8
S11319D01F90189584B18C6284B9249880E58CBDDD
S11319E008950E94050D0C94E60D0E94DF0D58F039
S11319F00E94D80D40F029F45F3F29F00C94CF0DDC
S1131A0051110C941A0E0C94D50D0E94F70D68F325
S1131A109923B1F3552391F3951B550BBB27AA27A3
S1131A2062177307840738F09F5F5F4F220F331FDD
S1131A30441FAA1FA9F335D00E2E3AF0E0E832D0A5
S1131A4091505040E695001CCAF72BD0FE2F29D0A8
S1131A50660F771F881FBB1F261737074807AB077A
S1131A60B0E809F0BB0B802DBF01FF2793585F4FEF
S1131A703AF09E3F510578F00C94CF0D0C941A0E59
S1131A805F3FE4F3983ED4F3869577956795B795D1
S1131A90F7959F5FC9F7880F911D9695879597F9DC
S1131AA00895E1E0660F771F881FBB1F6217730755
S1131AB08407BA0720F0621B730B840BBA0BEE1F6A
S1131AC088F7E09508950E94FF0D88F09F5798F0DD
S1131AD0B92F9927B751B0F0E1F0660F771F881F2F
S1131AE0991F1AF0BA95C9F714C0B13091F00E9449
S1131AF0190EB1E008950C94190E672F782F8827DA
S1131B00B85F39F0B93FCCF3869577956795B3956F
S1131B10D9F73EF490958095709561957F4F8F4FDE
S1131B209F4F0895E89409C097FB3EF490958095E3
S1131B30709561957F4F8F4F9F4F9923A9F0F92F8F
S1131B4096E9BB279395F695879577956795B7950D
S1131B50F111F8CFFAF4BB0F11F460FF1BC06F5FF3
S1131B607F4F8F4F9F4F16C0882311F096E911C005
S1131B70772321F09EE8872F762F05C0662371F026
S1131B8096E8862F70E060E02AF09A95660F771F3A
S1131B90881FDAF7880F9695879597F9089597F92E
S1131BA09F6780E870E060E008959FEF80EC0895FF
S1131BB000240A9416161706180609060895002428
S1131BC00A9412161306140605060895092E0394A2
S1131BD0000C11F4882352F0BB0F40F4BF2B11F416
S1131BE060FF04C06F5F7F4F8F4F9F4F089557FD75
S1131BF09058440F551F59F05F3F71F04795880F77
S1131C0097FB991F61F09F3F79F08795089512160D
S1131C1013061406551FF2CF4695F1DF08C01616B9
S1131C2017061806991FF1CF86957105610508946A
S1131C300895E894BB2766277727CB0197F9089581
S1131C40FA01EE0FFF1F309621053105A1F1611550
S1131C50710561F48038BFE39B0749F168949038BB
S1131C60810561F08038BFEF9B0741F099234AF565
S1131C70FF3FE1053105210519F1E8940894E79542
S1131C80D901AA2329F4AB2FBE2FF85FD0F310C0DB
S1131C90FF5F70F4A695E0F7F73950F019F0FF3ABA
S1131CA038F49F779F930DD00F9007FC90580895B8
S1131CB046F00C94D50D60E070E080E89FE3089551
S1131CC04FE79F775F934F933F932F930E941B0F90
S1131CD02F913F914F915F910E94970F0C94780E32
S1131CE029F416F00C94CF0D0C94190E0C94D50D08
S1131CF00E94FF0DA8F39638A0F707F80F92E89416
S1131D002BE33AEA48EB5FE70E94AD0F0F920F9284
S1131D100F924DB75EB70F920E94630FE8E6F0E0B2
S1131D200E94AA0E4F915F91EF91FF91E595EE1FEE
S1131D30FF1F49F0FE57E0684427EE0F441FFA9551
S1131D40E1F74195550B0E94DD0E0F9007FE0C94B0
S1131D50D10E0895DF93CF931F930F93FF92EF92C9
S1131D60DF927B018C01689406C0DA2EEF010E9499
S1131D70AA0FFE01E894A5912591359145915591BD
S1131D80A6F3EF010E941C10FE019701A801DA944A
S1131D9069F7DF90EF90FF900F911F91CF91DF9142
S1131DA008959B01AC0160E070E080E89FE30C942F
S1131DB0F10C0C94CF0D0C9471100E94FF0DD8F30C
S1131DC09923C9F3940F511DA3F39150504094F0FB
S1131DD059F0882332F0660F771F881F91505040C6
S1131DE0C1F79E3F51052CF7880F911D9695879555
S1131DF097F908955F3FACF0983E9CF0BB27869519
S1131E0077956795B79508F4B1609395C1F7BB0FC3
S1131E1058F711F460FFE8CF6F5F7F4F8F4F9F4FEC
S1131E20E3CF0C941A0E16F00C9471100C94D50D8B
S1131E3068940C94CF0D0E94FF0DA8F39923C1F36D
S1131E40AEF3DF93CF931F930F93FF92C92FDD2738
S1131E5088232AF02197660F771F881FDAF720E07E
S1131E6030E040E85FEB9FE3883920F0803E38F0B3
S1131E7021968F770E940510E0E9F0E004C00E94EB
S1131E800510EDEBF0E00E94AA0E8B01BE01EC01FF
S1131E90FB2E6F5771097595771F880B990B0E945C
S1131EA0940D28E132E741E35FE30E94AA0FAF2DCE
S1131EB09801AE01FF900F911F91CF91DF910E9485
S1131EC01C100C94E60DFA01DC01AA0FBB1F9B0148
S1131ED0AC01BF5728F4222733274427507820C069
S1131EE0B75190F4AB2F0024469537952795011CE4
S1131EF0A395D2F3002071F0220F331F441FB39532
S1131F00DAF30ED00C94041061307105A0E88A074E
S1131F10B94630F49B01AC0166277727882790786F
S1131F20309621F0208331834283538308950E94A5
S1131F30AA0F0C94E60D0E94D80D38F00E94DF0D14
S1131F4020F0952311F00C94CF0D0C94D50D112491
S1131F500C941A0E0E94F70D70F3959FC1F3950F20
S1131F6050E0551F629FF001729FBB27F00DB11D19
S1131F70639FAA27F00DB11DAA1F649F6627B00DA9
S1131F80A11D661F829F2227B00DA11D621F739F92
S1131F90B00DA11D621F839FA00D611D221F749FA0
S1131FA03327A00D611D231F849F600D211D822FE7
S1131FB0762F6A2F11249F5750409AF0F1F088230E
S1131FC04AF0EE0FFF1FBB1F661F771F881F91503B
S1131FD05040A9F79E3F510580F00C94CF0D0C940E
S1131FE01A0E5F3FE4F3983ED4F386957795679590
S1131FF0B795F795E7959F5FC1F7FE2B880F911D65
S11320009695879597F908955058BB27AA270E945B
S11320101C100C94E60D0E94D80D38F00E94DF0DC0
S113202020F039F49F3F19F426F40C94D50D0EF4E6
S1132030E095E7FB0C94CF0DE92F0E94F70D58F3C0
S1132040BA17620773078407950720F079F4A6F599
S11320500C94190E0EF4E0950B2EBA2FA02D0B0143
S1132060B90190010C01CA01A0011124FF27591BD9
S113207099F0593F50F4503E68F11A16F040A22FDF
S1132080232F342F4427585FF3CF46953795279550
S1132090A795F0405395C9F77EF41F16BA0B620B4F
S11320A0730B840BBAF09150A1F0FF0FBB1F661F96
S11320B0771F881FC2F70EC0BA0F621F731F841FD9
S11320C048F4879577956795B795F7959E3F08F0FF
S11320D0B0CF9395880F08F09927EE0F97958795C1
S11320E008959F3F31F0915020F487957795679537
S11320F0B795880F911D9695879597F90895A1E254
S11321001A2EAA1BBB1BFD010DC0AA1FBB1FEE1F6D
S1132110FF1FA217B307E407F50720F0A21BB30BB8
S1132120E40BF50B661F771F881F991F1A9469F734
S113213060957095809590959B01AC01BD01CF0190
S11321400895052E97FB1EF400940E94B81057FDC5
S113215007D00E947F1007FC03D04EF40C94B810F3
S113216050954095309521953F4F4F4F5F4F0895BF
S113217090958095709561957F4F8F4F9F4F0895EF
S1132180FB01DC0101900D920020E1F70895BB27CB
S11321904A3031F4992322F4BDE2909581959F4F02
S11321A00C94D310BB27FB015527AA27880F991F2E
S11321B0AA1FA41710F0A41B83955051B9F7A05D72
S11321C0AA3308F0A95DA193009779F7B111B193EF
S11321D01192CB010C94EC10DC01FC01672F71917E
S11321E07723E1F7329704C07C916D9370836291F9
S10F21F0AE17BF07C8F30895F894FFCFA2
S11321FC010130330000000000000000000000006A
S113220C007902F501000258026414142D01596F6F
S113221C7520776F6E2100596F75206C6F73742164
S113222C00303430004672616D3A203F3F636D20BC
S113223C5049523A3F0042616B3A203F3F636D2054
S113224C20433A203F3F0047616D652063616E6314
S113225C656C65640053746F7070212020202020FD
S113226C202020202000504F4E47202020202020CA
S113227C202020202020002121210020202020208B
S113228C20202020202020202020200057616E7444
S113229C20746F20706C61793F003034310033341A
S11322AC3100333430003038300033332E00496E73
S11322BC7669746174696F6E2073656E7400333360
S11122CC41003038310030323000333200002F
S9030000FC
