S010000052656D6F746520312E7372656357
S11300000C94FA020C941B050C9459050C941703D8
S11300100C9417030C9417030C9417030C94B50356
S11300200C9417030C9417030C9417030C94CE0729
S11300300C9417030C9417030C9417030C941703D4
S11300400C9417030C9417030C94C7040C94170313
S11300500C9417030C9417030C9417030C941703B4
S11300600C9417030C94170307634236B79BD8A765
S11300701A39685618AEBAAB558C1D3CB7CC5763C9
S1130080BD6DEDFD753EF6177231BF000000803F77
S113009008000000BE922449123EABAAAA2ABECD93
S11300A0CCCC4C3E00000080BEABAAAAAA3E000005
S11300B00000BF000000803F0000000000084178FD
S11300C0D3BB4387D1133D190E3CC3BD4282AD2B34
S11300D03E68EC8276BED98FE1A93E4C80EFFFBE2C
S11300E001C4FF7F3F00000000003915556E7238CF
S11300F00C01067180710000000000000000000087
S113010000000000000000000000000000000000EB
S113011000000000000000000000000000000000DB
S113012000000000000000000000000000000000CB
S113013000000000000000000000000000000000BB
S113014000000000000000000000000000000000AB
S1130150000000000000000000000000000000009B
S1130160000000000000000000000000000000008B
S1130170000000000000000000000000000000007B
S1130180000000000000000000000000000000006B
S1130190000000000000000000000000000000005B
S11301A0000000000000000000000000000000004B
S11301B0000000000000000000000000000000003B
S11301C0000000000000000000000000000000002B
S11301D0000000000000000000000000000000001B
S11301E0000000000000000000000000000000000B
S11301F0000000636C6F6C48636C6F6C48636D60E7
S11302006D6A606A48680000000000000000000099
S113021000000000000000000000000000000000DA
S113022000000000000000000000000000000000CA
S113023000000000000000000000000000000000BA
S113024000000000000000000000000000000000AA
S1130250000000000000000000000000000000009A
S1130260000000000000000000000000000000008A
S1130270000000000000000000000000000000007A
S1130280000000000000000000000000000000006A
S1130290000000000000000000000000000000005A
S11302A0000000000000000000000000000000004A
S11302B0000000000000000000000000000000003A
S11302C0000000000000000000000000000000002A
S11302D0000000000000000000000000000000001A
S11302E0000000000000000000000000000000000A
S11302F00000002D4D60684D68888A4C8580654AF1
S1130300688886488180616383806383856686808C
S11303106686884A6C6D4F6F68516F8F8D4F6C681D
S11303204D6C8C8A4C8580654A68888648618081DA
S11303304D6C8C8A686C6D6F316F6D6C6D4F6F880E
S113034080686C6D6F2D6C6A686A4C6C858065681A
S11303506A6C4D6A8A8C4D6A8A8C4D6A6D527260E1
S113036032716F6D6F51718D802D2F6D6C6A6C4D74
S11303706D8A802A4D6C8C8A48618081284A4C2D74
S11303806D000000000000000000000000000000FC
S11303900000000000000000000000000000000059
S11303A00000000000000000000000000000000049
S11303B00000000000000000000000000000000039
S11303C00000000000000000000000000000000029
S11303D00000000000000000000000000000000019
S11303E00000000000000000000000000000000009
S11303F00000004A4C4E4F51536A808A4C6E808EE6
S11304006F8F804F404A4C4E4F51536A808A4C6ED6
S1130410808E6F8F804F4056537696807674315419
S113042051543676968056537696807674314A4C7B
S11304304E2F4F00000000000000000000000000EC
S113044000000000000000000000000000000000A8
S11304500000000000000000000000000000000098
S11304600000000000000000000000000000000088
S11304700000000000000000000000000000000078
S11304800000000000000000000000000000000068
S11304900000000000000000000000000000000058
S11304A00000000000000000000000000000000048
S11304B00000000000000000000000000000000038
S11304C00000000000000000000000000000000028
S11304D00000000000000000000000000000000018
S11304E00000000000000000000000000000000008
S11304F000000061818041688880486A8A804A28B7
S1130500668680466585804563838043216888804C
S11305104866868046658580452368888048668667
S11305208046658580452361818041688880486A6A
S11305308A804A2866868046658580456383804331
S11305402100000000000000000000000000000086
S11305500000000000000000000000000000000097
S11305600000000000000000000000000000000087
S11305700000000000000000000000000000000077
S11305800000000000000000000000000000000067
S11305900000000000000000000000000000000057
S11305A00000000000000000000000000000000047
S11305B00000000000000000000000000000000037
S11305C00000000000000000000000000000000027
S11305D00000000000000000000000000000000017
S11305E00000000000000000000000000000000007
S11305F00000000011241FBECFEFD8E0DEBFCDBF46
S113060011E0A0E0B1E0EEE8F8E102C005900D923F
S1130610A039B107D9F722E0A0E9B1E001C01D92E9
S1130620A836B207E1F70E9493050C94450C0C948C
S113063000000E94EF0580E090E008950F931F935F
S1130640CF93DF9380919601843109F07BC010929F
S11306509601C0911101D091120169E170E081E02D
S11306600E942806C81BD90B00910F01109110019C
S113067069E170E082E00E9428069801281B390B8A
S11306808E01020F131FC21BD30B003811055CF43B
S113069001383FEF130754F0C8010496099740F45A
S11306A000E010E005C00FE710E002C001E81FEF12
S11306B0C038D1055CF4C1388FEFD80754F0CE01AF
S11306C00496099740F4C0E0D0E005C0CFE7D0E03D
S11306D002C0C1E8DFEF80919201909193018017ED
S11306E0910739F480919001909191018C179D07A5
S11306F009F14AE062E071E0C8010E94100CE0E0F8
S1130700F1E001900020E9F73197E050F140DF017A
S1130710BB27A050BF4F80E28C93EF5F6E2F70E039
S113072060507F4F4AE0CE010E94100C80E091E0BF
S11307300E94F6051093930100939201D0939101C6
S1130740C0939001DF91CF911F910F91089580E0A4
S11307500E949F0682E291E00E947F0680E10E944F
S11307609F0683E391E00C947F061F920F920FB6CD
S11307700F9211242F933F934F935F936F937F9323
S11307808F939F93AF93BF93EF93FF9380919701C0
S11307908F5F80939701833318F05F9A10929701CB
S11307A080919601843128F4809196018F5F809323
S11307B0960180919501882329F0809195018150BB
S11307C0809395010E94AC06FF91EF91BF91AF9188
S11307D09F918F917F916F915F914F913F912F9155
S11307E00F900FBE0F901F9018958DE48093B30067
S11307F082E08093B00097E09093B1008093700002
S11308000895813319F08233B9F00895613341F0CA
S1130810623379F0603301F584E491E00C94D406FA
S1130820BA0181E492E00E94090C81E08093940172
S1130830089585E591E009C0613331F0623339F000
S1130840603351F45F980895CA010C94E506FA01E7
S1130850808180530C94240808951F93CF93DF93D1
S11308608FE10E949F0680914102803311F08FE551
S113087001C082E50E9471068EE10E949F0680916C
S11308804202803311F08FE501C08CE40E947106AE
S11308908FE00E949F0680914402803311F08FE51F
S11308A001C088E50E94710680914302803339F4C7
S11308B05E9906C080E00E9424085E9A01C05E989A
S11308C0C5E081E08C0FE82FF0E0EF5BFD4F9081F5
S11308D0903211F0C82FF5CFCE5F10828C2F91E0AB
S11308E0980FE92FF0E0EF5BFD4F2081203211F0EB
S11308F0892FF5CFD2E0D80F108285E00E949F06A1
S1130900C73039F480914102803319F486E691E0CE
S113091013C0E6E4F2E001900020E9F7CF01875428
S1130920924013E0181B11162CF480E20E94710609
S11309301150F9CF86E492E00E947F0684E10E9480
S11309409F068D2F90E0D0E08C1B9D0B029749F4FD
S1130950FE01EF5BFD4F8081803319F486E691E060
S113096011C0CF5BDD4FFE0101900020E9F71C2F81
S11309701E1B1C5F11162CF480E20E94710611509C
S1130980F9CFCE01DF91CF911F910C947F061F9276
S11309900F920FB60F9211242F933F934F935F93AF
S11309A06F937F938F939F93AF93BF93EF93FF9333
S11309B0E0919801F0E08091C600E35DFD4F8083F3
S11309C0E0919801F0E0E35DFD4F80818A3089F485
S11309D0E0919801F0E0E35DFD4F108260912E02FA
S11309E080912D024FE252E00E940104109298017E
S11309F005C0809198018F5F80939801FF91EF91DA
S1130A00BF91AF919F918F917F916F915F914F9122
S1130A103F912F910F900FBE0F901F9018958AB1A0
S1130A20837E8AB98BB18C618BB98AE0809369002B
S1130A3083E08DBB08951F920F920FB60F9211247D
S1130A402F933F934F935F936F937F938F939F93D2
S1130A50AF93BF93EF93FF934C9B1AC065E070E094
S1130A6080E00E9428068737924090F069E170E0A8
S1130A7081E00E942806909312018093110169E19C
S1130A8070E082E00E9428069093100180930F0189
S1130A90FF91EF91BF91AF919F918F917F916F9152
S1130AA05F914F913F912F910F900FBE0F901F9028
S1130AB018951F920F920FB60F9211242F933F9304
S1130AC04F935F936F937F938F939F93AF93BF9352
S1130AD0EF93FF938091950181110CC04C9903C051
S1130AE08AE691E002C08EE691E00E94F60584E178
S1130AF080939501FF91EF91BF91AF919F918F9159
S1130B007F916F915F914F913F912F910F900FBE05
S1130B100F901F9018958AB1806E8AB98BB18F7926
S1130B208BB95F9A08950E9442072FEF80E792E005
S1130B30215080409040E1F700C000000E9453061D
S1130B400E941C060E9411060E9409060E948B0541
S1130B500E940F050E941C080E94F5030E94A7032F
S1130B6083E191E0909365028093640278940E94FB
S1130B7018078091210181110DC080E20E949F0617
S1130B800E943C07FC012081211102C081E791E011
S1130B900E947F0680919401882321F00E942D04F5
S1130BA0109294014C990AC05D9905C082E891E0C5
S1130BB00E94F6055D9A0E941E0307C05D9B05C056
S1130BC086E891E00E94F6055D98FFEF20E782E059
S1130BD0F15020408040E1F700C00000C8CF909160
S1130BE0C00095FFFCCF8093C6000895FC0191914D
S1130BF0992339F08091C00085FFFCCF9093C60003
S1130C00F6CF8091C00085FFFCCF8AE08093C600B8
S1130C1008958091C00087FF03C08091C600F9CF7A
S1130C2008951092C5001092C40088E98093C10011
S1130C3086E08093C200089587B1887F87B986E8EB
S1130C4080937A0088E380937E0010927B0008955D
S1130C509B01806480937C0040E060E070E0CB0105
S1130C60E42FF0E0E217F30798F450917A0050640F
S1130C7050937A0050917A0056FDFCCFE0917800B1
S1130C80F09179006E0F7F1F811D911D4F5FE8CF9A
S1130C9040E050E00E94C80BC90108958EBD0DB418
S1130CA007FEFDCF0895CF93DF9384B1856084B9A7
S1130CB085B18A7F85B9CAEED0E0FE0184910E9495
S1130CC04E0687EB9BE00197F1F700C000002196E8
S1130CD090E0C33FD90789F710929901DF91CF9132
S1130CE00895289A2A980E944E0680E58A95F1F77D
S1130CF02898809199018F5F8093990108951F939B
S1130D00CF93DF93EC01289A2A9880E011E0180F22
S1130D10FE01E80FF11D8081882361F00E944E06D8
S1130D2080E58A95F1F7809199018F5F809399010D
S1130D30812FECCF2898DF91CF911F910895CF9305
S1130D40C82F2A9880680E944E0680E58A95F1F79C
S1130D50C0939901CF91089580919A01882319F144
S1130D608091270290912802019690932802809303
S1130D70270285369105B8F0809126028F5F809313
S1130D802602863060F01092260210929A0161E8E1
S1130D9071E081E592E00E94090C10922101109209
S1130DA0280210922702089521E020939A011092BC
S1130DB028021092270210922602BC0181E592E0DB
S1130DC00E94090C109221010895CF93DF93EC0146
S1130DD080919B01883081F480919C0191E0980F6F
S1130DE090939C01877021E1829FC0011124825657
S1130DF09E4F0E94D4060AC080919B018F5F80930E
S1130E009B01893018F088E080939B0180919D01BB
S1130E1091E0980F90939D01877021E1829FC0011A
S1130E201124BE0182569E4FDF91CF910C94090C80
S1130E3080919B018823F9F080919A0181111BC054
S1130E4060919C0181E0860F80939C01677081E131
S1130E50689FB001112462567E4F81E592E00E94A2
S1130E60090C1092210181E080939A0180919B01E9
S1130E70815080939B01089581E08093210181E555
S1130E8092E0089584B18C6284B9249880E58CBD85
S1130E900895CF92DF92EF92FF92CF93DF93D82FF2
S1130EA0682F70E06F71809180006115710521F4E5
S1130EB08F7B8093800021C0806480938000615088
S1130EC07109072E000C880B990B0E94DD089B0109
S1130ED0AC016DE77CE987E89FE30E9469099B0107
S1130EE0AC0160E070E680E796E40E943A080E9454
S1130EF0AC08709389006093880020918800309139
S1130F008900C0912A022F5F3F4F40E050E060E02B
S1130F1072E18AE790E00E94EA0BCA01B9010E94DB
S1130F20DD086B017C01EC2FF0E0E657FE4F608199
S1130F3070E080E090E00E94DD0820E030E040E7CF
S1130F4053E40E943A089B01AC01C701B6010E9418
S1130F503A086B017C01D295D695D77061E070E0B8
S1130F6002C0660F771FDA95E2F7072E000C880B94
S1130F70990B0E94DD089B01AC01C701B6010E94D8
S1130F803A080E94AC0870932C0260932B02DF9104
S1130F90CF91FF90EF90DF90CF9008951F920F9222
S1130FA00FB60F9211242F933F934F935F936F9338
S1130FB07F938F939F93AF93BF93EF93FF9380910E
S1130FC02B0290912C02019790932C0280932B0278
S1130FD080912B0290912C02892BE9F480912902B3
S1130FE08F5F80932902E0912A0280912902F0E028
S1130FF0FE2FEE27E80FF11DED50FF4F8491811174
S113100008C010926F00809181008E7F80938100D0
S113101002C00E944907FF91EF91BF91AF919F9148
S11310208F917F916F915F914F913F912F910F908D
S11310300FBE0F901F901895219A80E48093800032
S113104088E080938100089580932A0210922902F7
S1131050E82FF0E0FE2FEE27ED50FF4F84910E9421
S1131060490782E080936F00E1E8F0E080818160CD
S1131070808308950E944E080C942F090E94280929
S113108058F00E94210940F029F45F3F29F00C94A4
S1131090180951110C9463090C941E090E9440090B
S11310A068F39923B1F3552391F3951B550BBB2793
S11310B0AA2762177307840738F09F5F5F4F220FD8
S11310C0331F441FAA1FA9F335D00E2E3AF0E0E8CF
S11310D032D091505040E695001CCAF72BD0FE2F19
S11310E029D0660F771F881FBB1F261737074807AD
S11310F0AB07B0E809F0BB0B802DBF01FF27935865
S11311005F4F3AF09E3F510578F00C9418090C9407
S113111063095F3FE4F3983ED4F38695779567952A
S1131120B795F7959F5FC9F7880F911D9695879599
S113113097F90895E1E0660F771F881FBB1F6217B8
S113114073078407BA0720F0621B730B840BBA0B76
S1131150EE1F88F7E09508950E94480988F09F578C
S113116098F0B92F9927B751B0F0E1F0660F771FC7
S1131170881F991F1AF0BA95C9F714C0B13091F0BD
S11311800E946209B1E008950C946209672F782FD8
S11311908827B85F39F0B93FCCF386957795679582
S11311A0B395D9F73EF490958095709561957F4FEE
S11311B08F4F9F4F0895E89409C097FB3EF4909594
S11311C08095709561957F4F8F4F9F4F9923A9F01C
S11311D0F92F96E9BB279395F695879577956795AB
S11311E0B795F111F8CFFAF4BB0F11F460FF1BC0EF
S11311F06F5F7F4F8F4F9F4F16C0882311F096E982
S113120011C0772321F09EE8872F762F05C066232F
S113121071F096E8862F70E060E02AF09A95660FE8
S1131220771F881FDAF7880F9695879597F90895A1
S113123097F99F6780E870E060E008959FEF80EC85
S1131240089500240A941616170618060906089528
S113125000240A9412161306140605060895092E8E
S11312600394000C11F4882352F0BB0F40F4BF2BFD
S113127011F460FF04C06F5F7F4F8F4F9F4F08953D
S113128057FD9058440F551F59F05F3F71F0479533
S1131290880F97FB991F61F09F3F79F08795089518
S11312A0121613061406551FF2CF4695F1DF08C037
S11312B0161617061806991FF1CF86957105610554
S11312C008940895E894BB2766277727CB0197F9FC
S11312D00895FA01EE0FFF1F309621053105A1F1A3
S11312E06115710561F48038BFE39B0749F1689487
S11312F09038810561F08038BFEF9B0741F0992356
S11313004AF5FF3FE1053105210519F1E8940894F8
S1131310E795D901AA2329F4AB2FBE2FF85FD0F3A8
S113132010C0FF5F70F4A695E0F7F73950F019F09C
S1131330FF3A38F49F779F930DD00F9007FC905895
S1131340089546F00C941E0960E070E080E89FE385
S113135008954FE79F775F934F933F932F930E9496
S1131360640A2F913F914F915F910E94E00A0C947F
S1131370C10929F416F00C9418090C9462090C9410
S11313801E090E944809A8F39638A0F707F80F929F
S1131390E8942BE33AEA48EB5FE70E94F60A0F92DF
S11313A00F920F924DB75EB70F920E94AC0AE8E617
S11313B0F0E00E94F3094F915F91EF91FF91E59561
S11313C0EE1FFF1F49F0FE57E0684427EE0F441F4D
S11313D0FA95E1F74195550B0E94260A0F9007FEF6
S11313E00C941A0A0895DF93CF931F930F93FF92DF
S11313F0EF92DF927B018C01689406C0DA2EEF0134
S11314000E94F30AFE01E894A59125913591459136
S11314105591A6F3EF010E94650BFE019701A80107
S1131420DA9469F7DF90EF90FF900F911F91CF91BD
S1131430DF9108959B01AC0160E070E080E89FE3D8
S11314400C943A080C9418090C94BA0B0E9448099D
S1131450D8F39923C9F3940F511DA3F3915050402D
S113146094F059F0882332F0660F771F881F91504B
S11314705040C1F79E3F51052CF7880F911D96955A
S1131480879597F908955F3FACF0983E9CF0BB2791
S1131490869577956795B79508F4B1609395C1F7EC
S11314A0BB0F58F711F460FFE8CF6F5F7F4F8F4F8A
S11314B09F4FE3CF0C94630916F00C94BA0B0C9471
S11314C01E0968940C9418090E944809A8F39923EA
S11314D0C1F3AEF3DF93CF931F930F93FF92C92F02
S11314E0DD2788232AF02197660F771F881FDAF7F4
S11314F020E030E040E85FEB9FE3883920F0803E55
S113150038F021968F770E944E0BE0E9F0E004C09A
S11315100E944E0BEDEBF0E00E94F3098B01BE013B
S1131520EC01FB2E6F5771097595771F880B990B8A
S11315300E94DD0828E132E741E35FE30E94F30AF9
S1131540AF2D9801AE01FF900F911F91CF91DF91C4
S11315500E94650B0C942F09FA01DC01AA0FBB1F32
S11315609B01AC01BF5728F4222733274427507826
S113157020C0B75190F4AB2F00244695379527959A
S1131580011CA395D2F3002071F0220F331F441FD6
S1131590B395DAF30ED00C944D0B61307105A0E8CD
S11315A08A07B94630F49B01AC0166277727882760
S11315B09078309621F020833183428353830895B9
S11315C00E94F30A0C942F090E94210938F00E940A
S11315D0280920F0952311F00C9418090C941E0985
S11315E011240C9463090E94400970F3959FC1F380
S11315F0950F50E0551F629FF001729FBB27F00DBD
S1131600B11D639FAA27F00DB11DAA1F649F662711
S1131610B00DA11D661F829F2227B00DA11D621F60
S1131620739FB00DA11D621F839FA00D611D221F1A
S1131630749F3327A00D611D231F849F600D211DFE
S1131640822F762F6A2F11249F5750409AF0F1F081
S113165088234AF0EE0FFF1FBB1F661F771F881FEA
S113166091505040A9F79E3F510580F00C94180901
S11316700C9463095F3FE4F3983ED4F38695779521
S11316806795B795F795E7959F5FC1F7FE2B880F90
S1131690911D9695879597F908955058BB27AA27C9
S11316A00E94650B0C942F090E94210938F00E94B6
S11316B0280920F039F49F3F19F426F40C941E09EC
S11316C00EF4E095E7FB0C941809E92F0E944009F9
S11316D058F3BA17620773078407950720F079F463
S11316E0A6F50C9462090EF4E0950B2EBA2FA02DEA
S11316F00B01B90190010C01CA01A0011124FF27BB
S1131700591B99F0593F50F4503E68F11A16F040B5
S1131710A22F232F342F4427585FF3CF46953795B4
S11317202795A795F0405395C9F77EF41F16BA0B79
S1131730620B730B840BBAF09150A1F0FF0FBB1F27
S1131740661F771F881FC2F70EC0BA0F621F731F70
S1131750841F48F4879577956795B795F7959E3FCD
S113176008F0B0CF9395880F08F09927EE0F97955E
S1131770879508959F3F31F0915020F48795779590
S11317806795B795880F911D9695879597F9089554
S1131790A1E21A2EAA1BBB1BFD010DC0AA1FBB1F71
S11317A0EE1FFF1FA217B307E407F50720F0A21BE3
S11317B0B30BE40BF50B661F771F881F991F1A9450
S11317C069F760957095809590959B01AC01BD017A
S11317D0CF010895052E97FB1EF400940E94010C7E
S11317E057FD07D00E94C80B07FC03D04EF40C949D
S11317F0010C50954095309521953F4F4F4F5F4FC9
S1131800089590958095709561957F4F8F4F9F4F68
S11318100895FB01DC0101900D920020E1F7089589
S1131820BB274A3031F4992322F4BDE29095819587
S11318309F4F0C941C0CBB27FB015527AA27880F2C
S1131840991FAA1FA41710F0A41B83955051B9F730
S1131850A05DAA3308F0A95DA193009779F7B111AF
S1131860B1931192CB010C94350CDC01FC01672F70
S113187071917723E1F7329704C07C916D93708363
S11118806291AE17BF07C8F30895F894FFCF26
S113188E303300000000000000000000000000FBE8
S113189E01FF010000000000000000190300000019
S11318AE00014672616D3A205F5F636D20504952AC
S11318BE3A5F0042616B3A205F5F636D2020433ACA
S11318CE205F5F0053746F70702120202020202031
S11318DE2020202000504F4E472020202020202062
S11318EE20202020200021212100303230003332EC
S11318FE00202020202020202020202020202020F6
S113190E20003034310030343000B46E4B8064002B
S9030000FC
