S00E00004C6F676765722E73726563B6
S11300000C9409040C9426040C9426040C942604E1
S11300100C9426040C9426040C9426040C942604B4
S11300200C9426040C9426040C9426040C94BA17FD
S11300300C9426040C9426040C9496170C94260411
S11300400C9426040C9426040C94F9160C9426049F
S11300500C9426040C9426040C9426040C94260474
S11300600C9426040C9426044B226C226E227922D2
S11300707B227F2288220000250028002B0000001C
S1130080240027002A00FFE0FFD1AFFF32FFD0FF9A
S1130090FEFFE0FFD1AEFFD0FFFEFFE0FFD1100076
S11300A0FFFEFFD0FFE0FFC1FFD1AED580A83FD354
S11300B000408D142000A1C8DA1281CFD9F1DB40B1
S11300C02EA4A6AFFFD0FFFE01060A00FE070136EC
S11300D0026820FFFE08FE07FE0A00602217678000
S11300E0808080800080163363A0A0A002576750F0
S11300F050F850F850500257672070A070287020B4
S113010002576748A8502050A89002576740A0A003
S113011040A890682613638080801237672040804F
S11301208080402012376780402020204080035583
S1130130658850F850880355652020F82020113335
S113014063604080055161F811336340E040025719
S113015067080810204080800257672050888888EC
S113016050200257672060A0202020F802576770B3
S11301708808304080F8025767F808103008887003
S113018002576710305090F81010025767F880B08B
S1130190C8088870025767304080B0C8887002571A
S11301A067F80810102040400257677088887088EC
S11301B08870025767708898680810601137674024
S11301C0E0400040E04011376740E040006040807C
S11301D012476710204080402010045363F800F851
S11301E012476780402010204080025767708810B3
S11301F020200020025767708898A8B080700257AA
S11302006720508888F88888025767F04848704803
S113021048F002576770888080808870025767F0C2
S11302204848484848F0025767F88080F08080F8D2
S1130230025767F88080F08080800257677088805A
S113024080988870025767888888F8888888123769
S113025067E04040404040E00257673810101010FB
S113026090600257678890A0C0A09088025767806A
S11302708080808080F80257678888D8A88888881A
S11302800257678888C8A898888802576770888842
S113029088888870025767F08888F08080800158C9
S11302A0687088888888A87008025767F08888F082
S11302B0A09088025767708880700888700257671A
S11302C0F820202020202002576788888888888882
S11302D07002576788888850505020025767888872
S11302E088A8A8D888025767888850205088880230
S11302F0576788885020202020025767F80810206C
S11303004080F8123767E08080808080E002576781
S113031080804020100808123767E0202020202029
S1130320E0065363205088015161F828226280401E
S113033002556570087888780257678080B0C8884D
S1130340C8B00255657088808870025767080868CD
S1130350988898680255657088F8807002576730ED
S11303604840F04040400057677888887808887093
S11303700257678080B0C88888881237674000C0F9
S1130380404040E010496910003010101090906017
S113039002576780808890E09088123767C0404099
S11303A0404040E0025565D0A8A8A888025565B031
S11303B0C88888880255657088888870005767B037
S11303C0C888C8B08080005767689888986808080B
S11303D0025565B0C880808002556570807008F051
S11303E00257674040F0404048300255658888888D
S11303F0986802556588885050200255658888A8F9
S1130400A8500255658850205088005767888898FE
S113041068088870025565F8102040F81247673064
S11304204020C020403022176780808080808080F8
S1130430124767C02040304020C006536348A8904C
S1130440FFFFFFFFFFFFFFFFFFFFFFFFFFFFFFFFB8
S1130450FFFFFFFFFFFFFFFFFFFFFFFFFFFFFFFFA8
S1130460FF0A006022176780008080808080015727
S1130470672078A0A0A07820025767304840E04069
S113048048B0025565887050708801586888885053
S113049020F820202022176780808000808080013F
S11304A058687080E09048380870193161A002578C
S11304B0677088A8C8A888701346667090B050000A
S11304C0F00265652448904824144262F0101541F6
S11304D061F00257677088E8C8C88870095161F8EC
S11304E016336340A0400256662020F82020F815F9
S11304F0456560902040F0154565E0106010E028E7
S113050022624080015666888888C8B08002576796
S113051078E8E86828282825116180202262408034
S113052015356540C04040E0134666609090600019
S1130530F0026565904824489001696940C04040D4
S1130540E40C143C0401696940C04040E814040808
S11305501C015969C0204020C81828780802576730
S1130560200020204088700258684020708888F855
S113057088880258681020708888F888880258682B
S11305802050708888F8888802586848B070888835
S1130590F888880258685000708888F8888802585B
S11305A0682050708888F888880267673C50909C5F
S11305B0F0909C0059697088808080887020400287
S11305C0586840F88080F08080F802586810F880FD
S11305D080F08080F802586820F88080F08080F8ED
S11305E002586850F88080F08080F81238688040A3
S11305F0E040404040E01238682040E04040404045
S1130600E012386840A0E040404040E0123868A062
S113061000E040404040E0025767F04848E848485E
S1130620F0025868285088C8A898888802586840FA
S1130630207088888888700258681020708888889C
S113064088700258682050708888888870025868BA
S1130650285070888888887002586850007088888C
S113066088887002556588502050880257677098B2
S113067098A8C8C8700258684020888888888870FC
S1130680025868102088888888887002586820502A
S1130690008888888870025868500088888888880C
S11306A070025868102088885020202002576780E4
S11306B0F088F0808080025767708890A09088B09E
S11306C00258684020007008788878025868102022
S11306D0007008788878025868205000700878887C
S11306E07802586828500070087888780257675054
S11306F0007008788878025868205020700878883C
S11307007802656578147C907C00576770888088CF
S11307107020400258684020007088F880700258A9
S1130720681020007088F8807002586820500070AB
S113073088F8807002576750007088F8807012380B
S113074068804000C0404040E0123868408000C0EB
S1130750404040E012386840A000C0404040E012F1
S11307603767A000C0404040E0025767C03070883F
S1130770888870025868285000B0C8888888025851
S113078068402000708888887002586810200070C3
S113079088888870025868205000708888887002A1
S11307A05868285000708888887002576750007015
S11307B0888888700355652000F800200255657804
S11307C098A8C8F002586840200088888898680271
S11307D0586810200088888898680258682050005B
S11307E088888898680257675000888888986800C5
S11307F0596910208888986808887000586880F0C3
S1130800888888F080800059695000888898680832
S1130810887011241FBECFEFD8E0DEBFCDBF12E039
S1130820A0E0B1E0E6E8F3E502C005900D92AE3732
S1130830B107D9F727E0AEE7B2E001C01D92A034BA
S1130840B207E1F70E94B2190C94C1290C9400007C
S1130850FC0162817381CB01A0E0B0E0BA2FA92F23
S1130860982F88272181822BBA2FA92F982F882788
S11308702081BC01CD01622B0895FC01408351838A
S11308806283738308950F931F93FC019A01AB0154
S113089022503109410951098789908DA18DB28D6A
S11308A00297A109B109281739074A075B0768F4B9
S11308B0A185B2850E94762803A514A525A536A591
S11308C0600F711F821F931F03C060E070E0CB01B3
S11308D01F910F910895CF93DF93DC01ED91FC916B
S11308E011973097F9F09F012F5F3F4FE90121974E
S11308F08881813218F08A33B9F704C080917E026E
S113090090E012C0908180ED890F8A3058F43296BD
S11309102E173F0739F4903329F42D933C9380E04C
S113092090E002C08FEF9FEFDF91CF9108950F9376
S11309301F93CF93DF93EC018B01892BF1F0E881B6
S1130940F9813097D1F080818823B9F02A813B81E5
S1130950858196812817390781F481810E94951D2C
S113096080FD0BC02881398180E0F8013183208328
S1130970DF91CF911F910F91089589E020E030E03D
S1130980F4CFFB01428D538D60E070E0833059F465
S113099084899589A0E0B0E0DC0199278827482B59
S11309A0592B6A2B7B2BCB01BA010895FB01228FB3
S11309B0338FDC018C91833029F4CA01AA27BB2729
S11309C0848B958B08958F929F92AF92BF92EF92F2
S11309D0FF920F931F93CF93DF93FC012381222374
S11309E0C1F1EC017C01F3E3EF0EF11C2FA538A952
S11309F049A95AA901E010E0B70189810E94E71DC5
S1130A00811129C01B820FA518A929A93AA98B8D88
S1130A109C8DAD8DBE8D8BA09CA0ADA0BEA0B90158
S1130A20A801481959096A097B09481759076A072F
S1130A307B0778F46A81623061F4A9019801280F78
S1130A40391F4A1F5B1F01E010E0B70189810E9432
S1130A50E71D80E001C081E0DF91CF911F910F91EC
S1130A60FF90EF90BF90AF909F908F900895EF927A
S1130A70FF920F931F93CF93DF93EC010E94E30443
S1130A80982F81115DC08881833009F04FC08C811B
S1130A90813009F04BC080E092E07E0123E3E20E56
S1130AA0F11CF7019C01119221503040E1F785E5DA
S1130AB0FE01EF5CFD4F80838AEA3196808382E5F4
S1130AC08BAB8CAB81E68DAB91E49EAB22E77B973D
S1130AD020833196208331969083319680834F858D
S1130AE0588969897A89CE01855E9D4F0E943D04AB
S1130AF04B855C856D857E85CE01815E9D4F0E9410
S1130B003D048F8D98A1A9A1BAA19C01AD012F5FCD
S1130B103F4F4F4F5F4F2FA738AB49AB5AAB01E064
S1130B2010E0B70189810E94E71D1C8240E050E07B
S1130B3060E089810E94531E91E0811101C090E020
S1130B40892FCDB7DEB7E6E00C9408298F929F92E7
S1130B50AF92BF92FF920F931F93CF93DF93EC0159
S1130B604A015B010E94E304F82E811116C001E0E2
S1130B7010E0A5019401BE016D5C7F4F89810E9444
S1130B809C1D882331F0FF24F39488248A94982CA4
S1130B9054018FA698AAA9AABAAA8F2DDF91CF9142
S1130BA01F910F91FF90BF90AF909F908F900895E9
S1130BB00F931F93FC0107A510A921A932A90417BB
S1130BC015072607370719F00E94A60501C080E023
S1130BD01F910F910895EF92FF920F931F93CF935C
S1130BE0DF93EC01FC01EF5CFD4FE080F1809BA9F9
S1130BF09B3E21F0985E923008F052C025E5E21643
S1130C002AEAF20661F448E050E063E471E0CE01C0
S1130C108B579F4F0E946229892B09F449C08EADDE
S1130C209FAD8C01015011090823192301151105E9
S1130C30B9F581159240A1F5FE01E05CFF4F80817A
S1130C40882371F190E09C01215031098223932380
S1130C50892B31F5319680819181892B09F1329666
S1130C60808190E001970297D8F431968081918138
S1130C70892BB1F03296808191818038910550F4AE
S1130C80CE018D5A9F4F0E94280461157105814041
S1130C90910530F0C75BDF4F88819981892B69F416
S1130CA085E5E8168AEAF80631F003E010E005C0AD
S1130CB000E010E002C002E010E0C801CDB7DEB7EA
S1130CC0E6E00C940829A4E0B0E0E9E6F6E00C9430
S1130CD0E028423051056105710508F4E7C0FC01C4
S1130CE0C788D08CE18CF28C4C155D056E057F05B0
S1130CF008F0DCC0280139016A017B019C838B83E5
S1130D008081823009F472C0833009F491C081304B
S1130D1009F0CCC05A01B694A794A40EB51EC5011F
S1130D20892F9927869543A154A165A176A1480FDF
S1130D30591F611D711DCF010E94D805182F811103
S1130D40B6C02B813C812D5C3F4F3A83298315012A
S1130D503FEF231A330A81E0B822E981FA81EA0DD0
S1130D60FB1D4601570191E089229924AA24BB2442
S1130D70C0FE09C08081282F2F7030E1439EC0013E
S1130D801124822B01C0842D808381E0EB81FC81BE
S1130D90838343A154A165A176A1C101892F992719
S1130DA08695480F591F611D711DCF010E94D805FA
S1130DB0182F81117CC0F1E03F22E981FA81E20D14
S1130DC0F31D81149104A104B10441F054E076941C
S1130DD06794579447945A95D1F706C00081007FD1
S1130DE0852D8F70402E482A40825BC077276F2D57
S1130DF05E2D4D2DEB81FC8183A194A1A5A1B6A10B
S1130E00480F591F6A1F7B1FCF010E94D805182F56
S1130E1081114DC0EB81FC81F396CC0CDD1CE89470
S1130E20C0F821E0D222EC0DFD1D4082518239C070
S1130E30EB81FC8183A194A1A5A1B6A127E07695BD
S1130E406795579547952A95D1F7480F591F6A1FFB
S1130E507B1FCF010E94D805182F811128C04B8118
S1130E605C814D5C5F4FCC0CDD1CCC0CDD1CFCEFBD
S1130E70CF22F1E0DF22C40ED51EC6010E94280451
S1130E802FE07222DC01CB0188279927AA27B07FA3
S1130E90B301A201482B592B6A2B7B2BC6010E945C
S1130EA03D0481E0EB81FC81838301C012E0812F4A
S1130EB02496E2E10C94FC28A0E0B0E0E2E6F7E03E
S1130EC00C94E828423051056105710508F4A1C06D
S1130ED0FC010789108D218D328D4017510762075F
S1130EE0730708F096C06A017B018C01808182300F
S1130EF009F44DC0833009F469C0813009F089C018
S1130F00EA01D695C795CC0DDD1DCE01892F992711
S1130F10869543A154A165A176A1480F591F611D6F
S1130F20711DCF010E94D805882321F06FEF7FEF58
S1130F30CB0173C05E01FFEFAF1ABF0AD170C00FBF
S1130F40D11FCBA9C501892F99278695F80143A103
S1130F5054A165A176A1480F591F611D711DC801D7
S1130F600E94D8058111E2CFF1E0BF22F801EA0D19
S1130F70FB1D83A96C2F70E0782BC0FE06C054E0E3
S1130F80769567955A95E1F71EC07F701CC0772748
S1130F906F2D5E2D4D2D83A194A1A5A1B6A1480F5F
S1130FA0591F6A1F7B1FCF010E94D8058111BECF34
S1130FB0CC0CDD1CE894C0F8F1E0DF22F801EC0D64
S1130FC0FD1D63A974A980E090E027C083A194A1CA
S1130FD0A5A1B6A127E076956795579547952A95DB
S1130FE0D1F7480F591F6A1F7B1FCF010E94D805F4
S1130FF081119CCF0D5C1F4FCC0CDD1CCC0CDD1C77
S1131000C6018C7F9170800F911F0E9428049F70ED
S113101004C061E070E080E090E0CDB7DEB7EAE0C4
S11310200C940429A0E0B0E0E8E1F8E00C94E22894
S1131030EC016A017B014115510580E268077105E5
S113104010F082E0A9C0DB01CA018F719927AA2799
S1131050BB27892B8A2B8B2BA1F7088119814E87FB
S11310605F87688B798B8E809F80A884B984811474
S11310709104A104B10451F5F8018081833040F05A
S113108087A190A5A1A5B2A50097A105B105E1F49A
S1131090F80187819085A0E0B0E0B701A60125E0C2
S11310A076956795579547952A95D1F74817590727
S11310B06A077B0730F687A190A5A1A5B2A58E8B00
S11310C09F8BA88FB98F3FC04C015D01F80141840B
S11310D05284612C712C39E0440C551C661C771C1D
S11310E03A95D1F7B501A401C414D504E604F70474
S11310F018F1888199810E945C074B015C016F3F64
S11311007F4F8F4F9F4F09F446C082E088169104A9
S1131110A104B10408F495CFF8018789908DA18DBD
S1131120B28D88169906AA06BB0608F08ACFC418A1
S1131130D508E608F708D6CFC8010E9443046E8B91
S11311407F8B888F998F8A8A9B8AAC8ABD8A8E8985
S11311509F89A88DB98D0097A105B10509F471CFB8
S1131160B701A60129E076956795579547952A9585
S1131170D1F7840F951FA61FB71F8E8B9F8BA88F47
S1131180B98F0D5C1F4FF1E0DF22C00ED11EDB8E44
S1131190CA8E80E001C081E0CDB7DEB7E0E10C94F7
S11311A0FE28A0E0B0E0E7EDF8E00C94E2288C0122
S11311B02A013B01FC01C081D18141155105610522
S11311C0710599F48B849C84AD84BE84811491044C
S11311D0A104B10459F18F89988DA98DBA8D88160F
S11311E09906AA06BB0630F121C0CE010E945C0715
S11311F0623071058105910508F4EEC06F3FFFEF81
S11312007F078F079F0729F44FEF3FEF2FEF9FEFE3
S1131210EBC0CF88D88CE98CFA8C6C157D058E05D3
S11312209F0508F4DEC05301420104C0812C912CB7
S1131230540183948F859889A989BA89892B8A2B2B
S11312408B2B11F440E0C9C084149504A604B704A0
S113125009F047C0750164012FEFC21AD20AE20AED
S1131260F20A8F89988DA98DBA8DC816D906EA0617
S1131270FB0628F092E0C92ED12CE12CF12CB70109
S1131280A601F801808191810E945C07613071059B
S11312908105910509F4A0C06F3FFFEF7F078F0719
S11312A09F0709F4B1CF672B682B692BA9F08B85B5
S11312B09C85AD85BE8582309105A105B10588F078
S11312C04F89588D698D7A8D84179507A607B707BE
S11312D040F44C015D0105C0C114D104E104F104E2
S11312E0D1F5750164012FEFC21AD20AE20AF20A9B
S11312F08F89988DA98DBA8DC816D906EA06FB0682
S113130060F082E088169104A104B10408F49ACF35
S113131082E0C82ED12CE12CF12CB701A601F801F2
S1131320808191810E945C07611571058105910599
S113133091F0613071058105910509F44DC06F3F4D
S11313407F4F8F4F9F4F09F45FCFC814D904EA042D
S1131350FB0449F677CF0FEF1FEF9801B701A60101
S1131360CE010E946306811134C04114510461040A
S11313707104E9F4CB86DC86ED86FE868F85988938
S1131380A989BA894F89588D698D7A8D425051093E
S113139061097109481759076A077B0790F001979B
S11313A0A109B1098F87988BA98BBA8B0AC09701C1
S11313B08601B301A201CE010E9463068823D1F203
S11313C008C08C8181608C834C2D3D2D2E2D9F2D4A
S11313D00BC0813009F418CF41E030E020E090E008
S11313E003C0462F372F282F642F732F822FCDB79A
S11313F0DEB7E0E10C94FE284F925F926F927F92E9
S11314008F929F92AF92BF92EF92FF920F931F938E
S1131410CF93DF937C014A015B01B901A80122E06B
S113142082169104A104B10410F482E065C0FC01A9
S1131430C081D1818F89988DA98DBA8D881699061E
S1131440AA06BB0690F7411551056105710541F0E7
S11314500FEF1FEF9801CE010E94630681114CC06B
S1131460B501A401F701808191810E945C072B01E1
S11314703C01611571058105910511F480E03CC0C2
S1131480613071058105910581F26F3F7F4F8F4F68
S11314909F4F89F100E010E09801B501A401CE014D
S11314A00E946306811128C08F859889A989BA8909
S11314B04F89588D698D7A8D4A015B01E2E08E1A5D
S11314C09108A108B10888159905AA05BB0550F42F
S11314D00196A11DB11D8F87988BA98BBA8B8C8126
S11314E081608C83530142014416550666067706D3
S11314F008F4B6CFC3CF81E0DF91CF911F910F9154
S1131500FF90EF90BF90AF909F908F907F906F90DF
S11315105F904F900895A0E0B0E0E1E9FAE00C9408
S1131520E628EC016A017B010E94E304811138C0C2
S1131530B701A601CE010E9443044B015C016FA7D1
S113154078AB89AB9AAB6E0123E3C20ED11C80E069
S113155092E0F6019C01119221503040E1F7E12C18
S1131560F12C89859A85E816F90640F081E02985F1
S11315703A852E153F05A9F480E013C001E010E080
S1131580A50194012E0D3F1D411D511DB6018981F8
S11315900E94E71D8111EACF3FEFE31AF30AE1CF7E
S11315A081E0CDB7DEB7ECE00C9402294F925F9254
S11315B06F927F92AF92BF92CF92DF92EF92FF929F
S11315C00F931F93CF93DF93EC0108811981CE848D
S11315D0DF84E888F98880E2C80ED11CE11CF11C84
S11315E0C114D104E0E2EE06F10420F01E8A1F8A41
S11315F0188E198E8E899F89A88DB98D0097A105A3
S1131600B10509F4A6C05B01B701A60151706627B4
S11316107727452B462B472B09F08DC00196A11D3A
S1131620B11D8E8B9F8BA88FB98F4A895B896C897A
S11316307D89F8014115510561057105C1F4878162
S11316409085A0E0B0E0B701A60135E076956795F6
S1131650579547953A95D1F7481759076A077B0775
S113166008F469C01E8A1F8A188E198E72C081857B
S113167092850197A0E0B0E02601370129E0769435
S11316806794579447942A95D1F784219521A621EC
S1131690B721892B8A2B8B2B09F04DC0C8010E94DE
S11316A05C072B013C01623071058105910510F442
S11316B082E052C08FEF481658066806780611F487
S11316C081E04AC0F8018789908DA18DB28D4816BA
S11316D059066A067B0610F1AB2821F24A895B8918
S11316E06C897D89CE010E94D1082B013C016115D2
S11316F071058105910579F16130710581059105C7
S1131700B9F28FEF4816580668067806C9F2B30195
S1131710A201C8010E948B0A8111D2CF4A8A5B8A36
S11317206C8A7D8AB301A201C8010E9443046E8BB6
S11317307F8B888F998FCE86DF86E88AF98A0D5C45
S11317401F4FE1E0DE22C00ED11EDB8ECA8E80E088
S113175003C084E001C087E0DF91CF911F910F9116
S1131760FF90EF90DF90CF90BF90AF907F906F90FD
S11317705F904F900895A4E0B0E0E1ECFBE00C949E
S1131780E0289C838B838B01DC01AD90BC90FB0132
S113179080818F3211F08C3511F498010CC0F50161
S11317A083899489A589B689EB81FC818683978393
S11317B0A087B1870FC08901D9018C912F5F3F4F5A
S11317C08F32C9F38C35B9F3EB81FC811682178211
S11317D010861186D8018C91803260F0CB80DC8039
S11317E0BCE1CB0ED11C65E0262EF501F396FA83FD
S11317F0E9835DC080E8AB81BC8197968C93979711
S113180040E050E0BA01CD010E941208982E17C1A1
S1131810D801F60120E030E02F5F3F4F8D918E32EA
S113182009F45AC08F3209F05DC0020F131F8132D0
S113183008F05FC084E2AB81BC8197968C93AB8146
S1131840BC81ED90FC90119740E050E0BA01CD01CD
S11318500E941208982E81110DC0EB81FC814689EB
S11318605789608D718DC7010E94D805982E8823F1
S113187009F49EC0EB81FC8187A19110BCC082FD5C
S1131880DEC0EB81FC81848184FFC8C066857785D6
S1131890717089819A81680F791FD5018C910E949A
S11318A0C104EB81FC8166837783808791874BE059
S11318B050E060E270E0C6010E947829F80180815E
S11318C08E3209F4A5CF2801E12CF12C812C912C26
S11318D058E0652E712C3BC02330310509F4A1C0BA
S11318E081939ACF8C3509F4A0CF813208F49DCF2F
S11318F098C080E2A0CF8FE2381699F19CE53916A2
S113190081F1AEE23A1609F48FC0E614F70408F048
S113191088C037FE06C0E32DEF77F0E0E05AFE4FB3
S11319203080632D70E08DE191E00E947F29892B46
S113193009F077C08FE9830D8A3110F4B0EE3B0EC5
S1131940F601EE0DFF1D3082F70131967F01BFEFE6
S11319508B1A9B0AF20131902F01F0E2F31558F231
S11319600DC0F801E80DF91D02C08C3539F44F01A2
S1131970801A910A81918F32C1F7F9CFE114F104F1
S113198009F44FC0AB81BC815C968C915C97853E19
S113199011F45C962C92080D191DB0E2B31520F4D5
S11319A0F8018081813210F484E045CF80E043CF98
S11319B0AB81BC815A96ED91FC915B978081882321
S11319C0B9F083858F7314968C93838583FD09C046
S11319D04BE050E0B601CF010E946229892B09F443
S11319E049CF60E070E08B819C810E94D60A32CF9F
S11319F044E0942E3FCFF4E09F1221C0982F9470BE
S1131A0085FF0AC0992309F452CF80E8AB81BC81D9
S1131A1097968C93912C13C0911111C035E0932E9D
S1131A200EC026E0922E0BC0BBE06B167104C9F306
S1131A3088E0E82EF12C9BE0692E712C88CF892D4B
S1131A402496E2E10C94FC280F931F93CF93DF9329
S1131A50EC010881198140E050E0BA010E941208AB
S1131A60811133C04E895F89688D798DC8010E94C8
S1131A70D80581112AC0EA8DFB8D8081853EE9F469
S1131A804E895F89688D798DC8010E94D8058111BE
S1131A901FC0EA8DFB8D90E2DF011D929A95E9F754
S1131AA0AA8DBB8DFE017C969BE001900D929A95C8
S1131AB0E1F791E0F80193830BC0882309F361E017
S1131AC070E0CE010E94D60ACBCF843009F487E0BF
S1131AD0DF91CF911F910F910895A0E2B0E0E3E769
S1131AE0FDE00C94E2285B01F42EDB011D921C92B4
S1131AF00E946B046C0197FD6BC2FC01EE0FFF1F8B
S1131B00EF57FD4F008111810115110509F462C2DF
S1131B10F50111830083FF2DFE7FFF2ED8018C91E8
S1131B20882369F011968C910E94951D80FD07C051
S1131B30FF2009F451C282FF4FC28AE059C2F80162
S1131B401082C1828C2D0E94D61C80FD47C2FF20CA
S1131B5011F082FDF2CFD80113961C928FEF9FEF04
S1131B60DC01F80187A790ABA1ABB2AB40E050E039
S1131B70BA01C8010E94A60581114EC0C8010E9485
S1131B80EB058230910509F049C06801F7E0CF1AEE
S1131B90FEEFDF0A9E012F5F3F4F7901480137ECCA
S1131BA0831A3DEF930A5701C6010E942804D50108
S1131BB06D937D938D939D935D01B0E1CB0ED11C0C
S1131BC0C814D90489F76E01E1E1CE0ED11C882432
S1131BD08A94982C5401D7014D915D916D917D911A
S1131BE07D01411551056105710509F4FBC1F80139
S1131BF0138287A690AAA1AAB2AAC8010E94D805F6
S1131C008111F3C1C8010E94EB058230910530F0C7
S1131C10CE14DF0401F702C084E090E08430910523
S1131C2009F4DEC1029710F08DE0E2C1F80186AD3F
S1131C3097AD81159240C1F7F801E75BFF4F4080F3
S1131C4051804114510419F0612C712C07C0C80152
S1131C50895A9F4F0E9428042B013C01D8019F966A
S1131C602D913D914D915C91D297298B3A8B4B8B61
S1131C705C8BF801438E548E658E768EED5BFF4F40
S1131C80A0801296AC9212978FEF8A0D823060F684
S1131C903397B0808B2D90E0F8019287818700976D
S1131CA019F29C012150310982239323892B09F0D5
S1131CB0BBCFEC5BFF4F8080918018969C928E92F4
S1131CC01797C4018F709927892B09F0ADCF3296ED
S1131CD0808191816C01E12CF12C892B39F4C801AC
S1131CE08D5A9F4F0E9428046B017C01F801EF5B21
S1131CF0FF4F0190F081E02D309709F495CFAA2D84
S1131D00B0E0A30192010E947628698F7A8F8B8FAD
S1131D109C8F9F0140E050E02D8F3E8F4F8F58A342
S1131D20C401F4E096958795FA95E1F7280F391FD9
S1131D30411D511DDA01C901298D3A8D4B8D5C8DF0
S1131D40280F391F4A1F5B1F2D8B3E8B4F8B588FDB
S1131D50C216D306E406F50608F466CFC701B60139
S1131D60621B730B840B950B2B2D30E040E050E08D
S1131D700E944E28DA01C9010197A109B109853FE2
S1131D809F4FAF4FBF4008F04FCF263F8FEF38072C
S1131D904105510550F4263F9FE03907410551059F
S1131DA040F4AA24A394B12C07C073E0A72EB12C4D
S1131DB003C062E0A62EB12C69017A01A2E0CA0E2A
S1131DC0D11CE11CF11CF801C78AD08EE18EF28E81
S1131DD029893A894B895C89278F30A341A352A36F
S1131DE08D8D9E8DAF8DB8A1280F391F4A1F5B1FA3
S1131DF02D8F3E8F4F8F58A323A334A345A356A3FF
S1131E0049895A896B897C898D899E89AF89B88D66
S1131E10480F591F6A1F7B1F43A754A765A776A7BE
S1131E20B3E0AB16B104E9F4E35AFF4F808191812A
S1131E30892B09F0F9CE8114910409F0F5CEC8017B
S1131E40815A9F4F0E942804F80167A370A781A7B5
S1131E5092A742E0CC0CDD1CEE1CFF1C4A95D1F786
S1131E6033C08114910409F4DFCE8D8D9E8DAF8D26
S1131E70B8A1298D3A8D4B8D5C8D820F931FA41FC1
S1131E80B51FF80187A390A7A1A7B2A7F2E0AF16E8
S1131E90B10429F4CC0CDD1CEE1CFF1C15C0A3E01E
S1131EA0B0E0A70196010E947628DC01CB01B6952B
S1131EB0A7959795879521E0C222DD24EE24FF247F
S1131EC0C80ED91EEA1EFB1E3FEFC30E31E0D31E1F
S1131ED0E11CF11C89E0F694E794D794C7948A95A1
S1131EE0D1F74C145D046E047F0408F49DCE8FEF8B
S1131EF09FEFDC01F8018787908BA18BB28B8387DE
S1131F009487A587B68780E88483F3E0AF16B1048D
S1131F1009F049C0F801ED59FF4F80819181019783
S1131F2009F041C049895A896B897C894F5F5F4FA9
S1131F306F4F7F4FC8010E94D805811134C0D8016A
S1131F4014961C92F801EF5CFD4F808191818535D8
S1131F509A4A49F5C801C3960E942804623572451D
S1131F608146914401F5C801895E9D4F0E94280471
S1131F706237724781449146B1F4C801855E9D4F32
S1131F800E942804D8011F966D937D938D939C9392
S1131F905297C801815E9D4F0E942804F80163870F
S1131FA0748785879687D801AC9280917F0290913F
S1131FB0800201969093800280937F0216969C93F0
S1131FC08E931597F801138A148A158A168A04C009
S1131FD08BE00EC08CE00CC080E00AC083E008C037
S1131FE081E006C083E090E013CE84E090E010CE60
S1131FF0A096E0E10C94FE28A6E0B0E0E2E0F0E177
S11320000C94EF289C838B837E836D83142F7A83B7
S11320106983CE0101960E946B0497FD20C0880F4E
S1132020991FFC01EF57FD4F0190F081E02D30978F
S113203009F01082EB81FC81309709F01082DC01F9
S1132040AF57BD4FED93FC93112359F040E0BE010F
S11320506D5F7F4FCE0105960E946D0D03C08BE02E
S113206001C080E02696E3E00C940B29A0E3B0E0E5
S1132070ECE3F0E10C94E2287CA76BA7009709F449
S11320805BC1142F7C01242F2F73C22E422FBE015B
S1132090675D7F4FCE018B960E946D0DD82E811106
S11320A058C189A59AA59A8389836BA57CA5CE017D
S11320B001960E94BB0B811103C098A597FD86E091
S11320C0912F9C7109F46DC0882361F0843021F450
S11320D0CE0101960E94240D3C2D3860C32E882326
S11320E039F031C18D81817109F02CC112FD26C1F5
S11320F0C3FE65C0EB8DFC8D1686178691E2908B2E
S113210080E5818BEB8DFC8D168A178A908F818FE9
S1132110AB8CBC8C09A51AA5B501D8018C910E9481
S1132120C1042B013C0180E2F5018387EB8DFC8D1A
S1132130128E138ED8018C91833011F4148A158A6F
S1132140EB8DFC8D148E158E168E178E81E0F801A2
S11321508383411451046104710471F187A490A82C
S1132160A1A8B2A800E010E09801B301A201CE0139
S113217001960E94FC098111E6C0B501A40189A55C
S11321809AA50E94D805E9A5FAA521E0421A5108AA
S1132190610871084386548665867686882351F0E3
S11321A0D2C08111D0C08D8184FDCAC011FF02C08C
S11321B080FDC8C0C3FE03C03C2D3064C32E09A5F6
S11321C01AA5F80187A590A9A1A9B2A9F701848F3E
S11321D0958FA68FB78FAB8CBC8CB1A2A0A2B50192
S11321E0D8018C910E94C1042B013C01F701668344
S11321F0778380879187C5014C960E9428044B0100
S11322005C01D7011A966D937D938D939C931D97D2
S113221011961C930E93F8018581968113969C93D5
S11322208E9312971E96CC921E971F961C921F9700
S113223058961D921D921D921C925B97F701108A6D
S1132240118A128A138AC5FE80C081149104A104E4
S1132250B10409F47AC050968D929D92AD92BC92CD
S11322605397F80181859285A0E0B0E09C01AD010F
S113227069E0220F331F441F551F6A95D1F72DA71C
S11322803EA74FA758AB8DA59EA5AFA5B8A98815A5
S11322909905AA05BB0500F5B301A201D7018D91EB
S11322A09C910E945C072B013C012DA53EA54FA5E6
S11322B058A9821A930AA40AB50A623071058105E5
S11322C0910540F06F3F7F4F8F4F9F4FE1F6DD2424
S11322D0D39402C082E0D82ED70154964D925D92D9
S11322E06D927C925797D11034C0D501C40191707E
S11322F0AA27BB27892B8A2B8B2B39F1B301A20187
S113230089A59AA50E94430461157105810591056B
S1132310F1F029E0B694A794979487942A95D1F77D
S1132320DC01CB01880D991DAA1DBB1DF701808F0F
S1132330918FA28FB38F09C089E00FC088E003C0DA
S113234084E001C087E0D82E04C080E006C092E09B
S1132350D92ED7011D921C928D2DE096E0E10C94AC
S1132360FE28A4E0B0E0E7EBF1E10C94E0287C0166
S11323704B015A013C832B83F90111821082BE0167
S11323806F5F7F4F0E949704811172C1F7018785A7
S113239081116EC1868581FF6AC180899189A28974
S11323A0B389AC01BD014A0D5B1D611D711D481748
S11323B059076A077B0708F0BEC05C01A094B0947B
S11323C0BAC0F70180899189A289B389AC01BD01A2
S11323D0517066277727452B462B472B09F01CC1E4
S11323E0E981FA810185128501501109AC01BD0111
S11323F0E9E07695679557954795EA95D1F70423D3
S113240015230115110509F49BC089819A81FC01EA
S113241047A450A861A872A8F701408D518D628D20
S1132420738D441655066606770609F4D1C0698093
S11324307A80F7014489558966897789C3010E94A6
S11324404304611571058105910509F4A2C01B01BE
S11324502C01200E311E411C511C6501CD2CDD24A4
S1132460C694C114D10409F4B9C0F30181859285DD
S113247098012C0D3D1D8217930718F46C01C01AA6
S1132480D10A8601A2019101B401F30181810E9464
S1132490E71D811186C089819A81FC0147A550A955
S11324A061A972A94219530964097509860120E0DA
S11324B030E0401751076207730788F4DC01D396B4
S11324C0FA01FE2FEE27FF0FE80DF91D20E032E0A0
S11324D001900D9221503040D9F7FC011382DC2C7D
S11324E0CC24DD0CAC18BD08EB81FC81808191818A
S11324F08C0D9D1D918380838C0C9D1CF70180891C
S11325009189A289B3898C0D9D1DA11DB11D808B5C
S1132510918BA28BB38B428553856485758548174F
S113252059076A077B0710F4AC01BD01F701428724
S1132530538764877587A114B10409F042CF1EC084
S1132540F701892B8A2B8B2B69F46681778180852F
S113255091856115710581059105B1F440E050E064
S1132560BA0104C04489558966897789C7010E94E4
S1132570D108611571058105910531F4F70186854E
S11325808064868780E074C061307105810591059F
S113259011F482E007C06F3FFFEF7F078F079F07AB
S11325A021F481E0F701878763C0F701648B758BA1
S11325B0868B978B46805780608471844528462893
S11325C0472809F022CF66837783808791871DCFC0
S11325D00E94E304882309F42ACFE3CFF70140895A
S11325E051896289738982859385A485B585481745
S11325F059076A077B0758F0C3010E94E30481115D
S1132600D0CFE981FA8127A630AA41AA52AAF701BC
S1132610208E318E428E538EF7018089918991707C
S113262020E032E0281B390B65012A153B0508F42C
S11326306901F701408D518D628D738D89819A8175
S11326400E94D8058111ADCF29813A812D5C3F4F7D
S1132650F701808991899170A601B401820F931FBB
S11326600E946F29E981FA8121E023833BCF87E02F
S11326702496E2E10C94FC28A2E0B0E0E2E4F3E169
S11326800C94E9288C01B62E2AE0621303C06DE095
S11326900E943C13F8018281938197FD30C0C4806D
S11326A0D5807C01FFEFEF1AFF0AF801E80FF91F4C
S11326B0B6822CE3E216F104CCF09E012F5F3F4F6B
S11326C0A701B8016A5F7F4FF801808191810E9460
S11326D0B11181E090E029813A812E153F0511F472
S11326E080E090E0EE24FF24E81AF90AF801F3826E
S11326F0E282FFEFCF1ADF0AF801D582C482229664
S1132700E9E00C940529A2E0B0E0E9E8F3E10C94D7
S1132710EE28FC014281538157FF03C08FEF9FEFE6
S113272018C08C01BC016A5F7F4F9E012F5F3F4F31
S1132730FC01808191810E94B1118111EFCFF801D8
S11327402281338189819A812817390739F7848155
S113275095812296E4E00C940A29A2E0B0E0E3EB30
S1132760F3E10C94EC287C01BE016F5F7F4F0E9463
S1132770970481113CC0F701968596FF38C0448DBB
S1132780558D668D778D89819A810E94D805811136
S11327902EC0F70100A111A1F8018385806283870F
S11327A0F7012681378140855185B8018081918167
S11327B00E94D604F7014285538564857585C80156
S11327C04C960E943D04F801168A178A81E2808F94
S11327D080E5818F128A138A89819A8121E0FC0124
S11327E023830E943705F70196859F7B968722965F
S11327F0E6E00C940829A2E0B0E0E1E0F4E10C94F6
S1132800EE288C010E94AD1381110BC0BE016F5FD5
S11328107F4FC8010E949704811103C0F8011182FF
S113282010822296E4E00C940A29A3E7B0E0EBE1DD
S1132830F4E10C94E028C657DF4F08811981CA5887
S1132840D040A8961FAEA897CE0101963C0186E41D
S1132850D3011D928A95E9F7C857DF4F8881998182
S1132860C858D0409A8389837E01BCE8EB0EF11CE2
S1132870FE01E95BFF4FAA96FFAFEEAFAA97D8011E
S11328806C91662309F4D5C1653219F00F5F1F4FAF
S1132890EEC0F8016181603349F43396D801129691
S11328A06C91B0E3AF96BFAFAF9708C0F8016D323B
S11328B041F0329680E2AF968FAFAF97A12CB12C46
S11328C00BC03396D80112966C91B0E2AF96BFAFAD
S11328D0AF9722E0A22EB12C6A3221F0212C312CA8
S11328E04AE00BC0D7012D903C908F010F5F1F4F22
S11328F06081F70132967F0112C08F0190ED960F2F
S11329009A3068F4429D9001439D300D11241901C1
S1132910260E311C80E3281A31086191EECF6E3205
S113292039F5D8016C916A3231F0F8013196C12C35
S1132930D12C4AE00BC0F701C080D180D801119698
S11329406C9132967F010E5F1F4F15C08F0190ED81
S1132950960F9A3080F44C9D90014D9D300D1124BA
S11329606901C60ED11C80E3C81AD1086191EECF6B
S1132970CC24CA94DC2C6C3631F46894A2F8D801C7
S11329806C910F5F1F4F662309F453C16436A1F0A5
S113299038F4623609F470C0A8F4683581F067C071
S11329A06337D9F020F46F3609F469C060C0653725
S11329B019F0683721F05BC02AE030E062C020E102
S11329C030E05FC02701B2E04B0E511CF70160817B
S11329D0C3010E943C13720152CF2701F2E04F0E53
S11329E0511CD7018D919C91009719F4CE018959FE
S11329F09F4F4C01FC017F01E81AF90A2191211132
S1132A00FACFD7FC04C0CE14DF0408F47601B2E098
S1132A10AB22BB24A114B10419F0A12CB12C16C013
S1132A20E214F304D0F7AF966FADAF97C3010E94E1
S1132A303C13EFEFEE1AFE0AEDCFAC14BD0459F0CF
S1132A40C3010E943C13FFEFAF1ABF0AD4016D917A
S1132A504D016111F2CFE214F30408F0BCCF60E23F
S1132A60C3010E943C13BFEFEB1AFB0AF4CFC3016E
S1132A700E943C132701AFCF22E030E002C028E0DF
S1132A8030E0A2FE13C02701E4E04E0E511CD70132
S1132A908D919D910D90BC91A02DAE968CAF9DAF64
S1132AA0AEAFBFAFAE976436D1F521C0A7014E5F7C
S1132AB05F4F2A01643671F4F70140815181CA01E4
S1132AC0550FAA0BBB0BAE968CAF9DAFAEAFBFAF8D
S1132AD0AE970DC0D7014D915C91CA01A0E0B0E062
S1132AE0AE968CAF9DAFAEAFBFAFAE9718C0AE96EB
S1132AF08CAD9DADAEADBFADAE97B7FF17C0B09571
S1132B00A095909581959F4FAF4FBF4FAE968CAFD8
S1132B109DAFAEAFBFAFAE976894A0F807C068375B
S1132B2029F497E2E0969FAFE09704C0A7E0E0960F
S1132B30AFAFE097FE01E95BFF4F6F01812C912C51
S1132B40C901A0E0B0E0E4968CAF9DAFAEAFBFAFDB
S1132B50E497AE966CAD7DAD8EAD9FADAE97E49629
S1132B602CAD3DAD4EAD5FADE4970E944E28862F4F
S1132B70AE962CAF3DAF4EAF5FAFAE976A3020F04C
S1132B80E0968FADE097860F74019FEFE91AF90A7A
S1132B90805DD6018D936D01232B242B252B49F0C9
S1132BA0B0E2EB16F10411F04701D3CF8FE1882E88
S1132BB0912CA0FE0BC0E7E4F0E0EC0FFD1FEE0D3E
S1132BC0FF1D8DE28083D40112967D016701B2E07E
S1132BD0AB22BB24A114B10469F4C214D30450F48D
S1132BE0AF966FADAF97C3010E943C13EFEFCE1ABF
S1132BF0DE0AF0CF87E490E08C0F9D1FE80EF91EEB
S1132C00D7016E917D01C3010E943C13AA96EEADDB
S1132C10FFADAA97EE16FF0699F7C214D30408F085
S1132C20DACE60E2C3010E943C13FFEFCF1ADF0A41
S1132C30F4CFCE0101960E948313CD58DF4FE2E119
S1132C400C94FC2887B18C6387B9539A8AB18B782A
S1132C508AB98BB184678BB9E1EBF0E08081836042
S1132C608083E0EBF0E0808182618083089548B145
S1132C7021E030E0662349F0B90102C0660F771FF6
S1132C808A95E2F7CB01842B09C0B90102C0660F13
S1132C90771F8A95E2F7CB018095842388B908953C
S1132CA08F929F92AF92BF92CF92DF92EF92FF9258
S1132CB039B1232F247032FD26C03091CA0432303A
S1132CC001F5C090CB04D090CC04E090CD04F090FA
S1132CD0CE044B015C018C189D08AE08BF083CE291
S1132CE0831631E09306A104B10408F46EC0609326
S1132CF0CB047093CC048093CD049093CE0422E053
S1132D0064C032E02AC039B1232F207134FD30C0B1
S1132D103091CA04343001F5C090CB04D090CC0477
S1132D20E090CD04F090CE044B015C018C189D081A
S1132D30AE08BF0838EB83163BE09306A104B10448
S1132D4008F443C06093CB047093CC048093CD0407
S1132D509093CE0424E039C034E03093CA046093E5
S1132D60CB047093CC048093CD049093CE042DC0F7
S1132D7039B1232F207235FD25C03091CA04353076
S1132D80F9F4C090CB04D090CC04E090CD04F09042
S1132D90CE044B015C018C189D08AE08BF083CE2D0
S1132DA0831631E09306A104B10478F06093CB0458
S1132DB07093CC048093CD049093CE0425E005C099
S1132DC035E0CBCF1092CA0420E0822FFF90EF9021
S1132DD0DF90CF90BF90AF909F908F900895809395
S1132DE0B300089589B186FB882780F991E089278B
S1132DF008951F920F920FB60F921124AF92BF92B3
S1132E00CF92DF92EF92FF920F931F932F933F93F2
S1132E104F935F936F937F938F939F93AF93EF93AE
S1132E20FF939091C600809132038F5F209131030C
S1132E30821709F463C0809332039A3009F058C0B2
S1132E40A0913203AF5F80913103A81709F450C0F9
S1132E50E0913203F0E020913E0430913F04409130
S1132E604004509141046091420470914304809164
S1132E70440490914504A0903604B0903704C09067
S1132E803804D0903904E0903A04F0903B04009167
S1132E903C0410913D040E94352919F120913E040F
S1132EA030913F04409140045091410460914204A8
S1132EB0709143048091440490914504A090360499
S1132EC0B0903704C0903804D0903904E0903A04AC
S1132ED0F0903B0400913C0410913D040E942C2985
S1132EE001C021E0ED5CFC4F2083A093320390E00D
S1132EF0E0913203F0E0ED5CFC4F9083FF91EF91A1
S1132F00AF919F918F917F916F915F914F913F917D
S1132F102F911F910F91FF90EF90DF90CF90BF9072
S1132F20AF900F900FBE0F901F9018951F920F92A5
S1132F300FB60F9211242F933F934F935F936F9388
S1132F407F938F939F93AF93BF93EF93FF930E94CD
S1132F50AB20FF91EF91BF91AF919F918F917F91A2
S1132F606F915F914F913F912F910F900FBE0F90F2
S1132F701F9018951F920F920FB60F9211247F92F3
S1132F808F929F92AF92BF92CF92DF92EF92FF9275
S1132F900F931F932F933F934F935F936F937F935D
S1132FA08F939F93AF93BF93CF93DF93EF93FF934D
S1132FB070903E0480903F0490904004D09141046E
S1132FC0C0914204B0914304F0914404E09145045B
S1132FD0272D382D492D5D2F6C2F7B2F8F2F9E2F62
S1132FE0A1E00E94202920933E0430933F044093A3
S1132FF040045093410460934204709343048093CB
S113300044049093450488EEA82E93E0B92EC12C75
S1133010D12CE12CF12C00E010E0272D382D492D86
S11330205D2F6C2F7B2F8F2F9E2F0E948128A0E075
S11330300E943E29C1F480EE91E00E9491296091A2
S1133040340485E00E9437168091340492E3899F0A
S1133050802D112488530E94EF169091340481E04E
S1133060892780933404FF91EF91DF91CF91BF9131
S1133070AF919F918F917F916F915F914F913F910C
S11330802F911F910F91FF90EF90DF90CF90BF9001
S1133090AF909F908F907F900F900FBE0F901F90D6
S11330A01895A5E0B0E0E7E5F8E10C94E72868ECB2
S11330B070E08FEC94E00E94352561E08FEC94E0A1
S11330C00E9403270E94F216882309F44DC023EEC0
S11330D031E04AE060E08FEC94E00E94C0242DEEE1
S11330E031E046E160E08FEC94E00E94C02427EFD9
S11330F031E042E260E08FEC94E00E94C02421E0E1
S113310032E04EE260E08FEC94E00E94C0242BE0B9
S113311032E04CE360E08FEC94E00E94C02420EDA8
S113312032E04AE066E38FEC94E00E94C02423EE90
S113313032E046E166E38FEC94E00E94C02426EF7F
S113314032E042E266E38FEC94E00E94C02429E07E
S113315033E04EE266E38FEC94E00E94C0242DEB52
S113316032E04CE36EE1F6C0809183026FE00E948E
S11331704228933038F0F92E2BE0291728F45BE02D
S1133180F52E02C043E0F42E809183026FE00E948A
S11331904228833028F0182F8C3018F01BE001C02F
S11331A013E08DEF810F2F2D9FE0899F200D1124B7
S11331B0822FA12C9BE0E92E2DEF922E980E33E066
S11331C0C32ED12CB92CBA0C0FE1EB2DE695E69564
S11331D0F0E0EC57FD4F90812B2D237030E0220F4F
S11331E0331FA601022E02C0440F551F0A94E2F7B2
S11331F0892F90E08423952302C0959587952A957D
S1133200E2F7813019F424E132E004C0823041F461
S113321029E132E04E2D602F8FEC94E00E94C0240F
S1133220B394065F053689F688E0E80E9FE0A90EA0
S113323023E4E212C7CF0CE021E64CE06DE18FEC11
S113324094E00E94492504E121E644E16DE18FEC1C
S113325094E00E9449250CE121E64CE16DE18FECFC
S113326094E00E94492504E221E644E26DE18FECFA
S113327094E00E9449250CE221E64CE26DE18FECDA
S113328094E00E94492504E321E644E36DE18FECD8
S113329094E00E9449250BE326E245E066E28FECC8
S11332A094E00E94492520E345E060E38FEC94E03C
S11332B00E9449252AE345E06AE38FEC94E00E94EA
S11332C0492524E445E064E48FEC94E00E94492518
S11332D02EE445E06EE48FEC94E00E94492528E555
S11332E045E068E58FEC94E00E94492521E132E055
S11332F04AE060E08FEC94E00E94C02426E132E0D2
S113330044E160E08FEC94E00E94C02488E5898366
S113331089E08F1510F487E001C080E090E39F0DF1
S1133320980F9A8389E58B831A3010F087E001C0E7
S113333080E0105D180F1C831D822BE132E042E314
S113334060E08FEC94E00E94C0249E012F5F3F4F09
S11333504CE360E08FEC94E00E94C0242596EBE0FF
S11333600C940329A0E0B0E0E8EBF9E10C94E22826
S113337010923E0410923F041092400410924104B3
S11333801092420410924304109244041092450493
S113339010923604109237041092380410923904B3
S11333A010923A0410923B0410923C0410923D0493
S11333B01092CB041092CC041092CD041092CE043F
S11333C01092CA04109235041092340410923304FB
S11333D01092830210921C0380E091E0E3E3F3E097
S11333E0DF019C011D9221503040E1F783E1EDE1C2
S11333F0F3E0DF011D928A95E9F70E944A210E94B9
S1133400CE200E9428280E94221688EE93E09093F2
S11334108900809388008091810088608093810076
S113342080916F00826080936F007894D3E1BFE055
S11334307B2E662463945524539490913103809198
S11334403203981349C0F89470913E0460913F048C
S1133450509140044091410430914204209143042E
S1133460909144048091450470933604609337042A
S1133470509338044093390430933A0420933B0426
S113348090933C0480933D04789450913E04409181
S11334903F04309140042091410480914204809182
S11334A043048091440480914504652F742F832F35
S11334B0922F0E945016843009F466C0853009F4B6
S11334C06EC0823009F071C0F8948BE292E00E94E1
S11334D09129789461E05FC020913E0430913F04CB
S11334E0409140045091410460914204709143041E
S11334F08091440490914504A0E00E943E2929F45F
S113350080918100826080938100809131038F5F7C
S113351080933103E0913103F0E0ED5CFC4F808156
S1133520E0911C03811115C0E150E0931C03F0E00D
S1133530E35EFC4F4080E0911C03F0E0E35EFC4F4F
S1133540108210911D03C0EDC10FC43008F4A2C055
S113355076C081E08E0F80931C03F0E0A0913103CC
S1133560B0E0AD5CBC4F8C91E35EFC4F8083E09196
S11335703103F0E0ED5CFC4F1082909131038091B7
S113358032039813C2CF5FCFF8948EE292E00E9488
S11335909129789460E083E00E94371606C0F8947D
S11335A081E392E00E949129789420913E04309125
S11335B03F04409140045091410460914204709151
S11335C043048091440490914504A0E00E943E2964
S11335D031F44D9904C081E392E00E9491298091D5
S11335E0350481110DC00E94D920882349F00E941E
S11335F0DE2061E082E00E943716509235040EC04E
S113360080913504882351F00E94D920811106C08D
S113361060E082E00E943716109235048FEC94E04B
S11336200E94D2260E9451188FEC94E00E94D82662
S11336308111F8CF84E690E00E940E23FECE8091A3
S11336403504882321F1A0903604B0903704C0904B
S11336503804D0903904E0903A04F0903B0400918F
S11336603C0410913D04242D30E040E050E060E043
S113367070E080E090E00E94172979018A019B01A3
S1133680AC016DE173E080E292E00E94E6201092CA
S11336901C0373CFC1110EC080911E03803351F4FB
S11336A06091330484E00E943716809133048625A8
S11336B08093330412531230B8F580911E03833380
S11336C099F580911F03803358F480E090E0FC0169
S11336D0EC57FD4F1082019689339105C1F724C040
S11336E0813410F59091200390538053979D800D61
S11336F0112480938302C23019F081E090E002C06B
S113370082E090E0209183022370E0918302E695A9
S1133710E695F0E0EC57FD4F3081220F01C0880F91
S11337202A95EAF7832B8083809135048C2E912C83
S1133730882349F1A0903604B0903704C09038042F
S1133740D0903904E0903A04F0903B0400913C049A
S113375010913D04242D30E040E050E060E070E042
S113376080E090E00E941729F401EE0FFF1FEC594E
S1133770FD4F79018A019B01AC016EE173E0808108
S113378091810E94E620D89DC001D99D900D1124FD
S11337906DE173E080539D4F0E948A29C11177CF58
S11337A080911E03813309F072CF6FE173E08DEBDA
S11337B092E00E948A296BCF8EBD0DB407FEFDCF27
S11337C08EB50895289A8FEF0E94DC1B08950F93FD
S11337D01F93CF93DF938C01EB0184E18093490421
S11337E08FEF0E94DC1B8F3F29F4809149048111E3
S11337F0F7CF1DC08E3FD9F4F8018FEF8EBD0DB405
S113380007FEFDCF9EB590838EBD0DB407FEFDCFA0
S11338109EB5918322973296209781F78FEF0E946D
S1133820DC1B8FEF0E94DC1B81E090E002C080E093
S113383090E0DF91CF911F910F910895F89482E366
S113384090E0909348048093470478948FEF0E940B
S1133850DC1B282FF89480914704909148047894B5
S11338602F3F11F0892B91F781E090E02F3F11F069
S113387080E090E00895CF93DF9328988FEF0E9423
S1133880DC1B0E941E1CEC01892B19F40E94E21B14
S113389002C0C1E0D0E0CE01DF91CF910895FF9244
S11338A00F931F93CF93DF93C82FD42F152F062F79
S11338B0F72E87FF09C040E050E0BA0187E30E9479
S11338C04F1C8230A8F5CF77CC3099F48C2F8064CC
S11338D00E94DC1B8F2D0E94DC1B802F0E94DC1BAE
S11338E0812F0E94DC1B8D2F0E94DC1BCC23F1F066
S11338F008C00E94E21B0E943B1C892B39F78FEF02
S113390017C0C83011F487E801C081E00E94DC1BB5
S1133910CC3019F48FEF0E94DC1BCAE08FEF0E94B9
S1133920DC1B87FF05C0C150C9F702C085E9F3CF8E
S1133930CDB7DEB7E5E00C9409291F93CF93DF934D
S1133940182FD92FC62F0E941E1C009759F18C2FB7
S11339500E94DC1BCD3F21F1E12FFD2FCF019E5FA3
S113396020812EBD0DB407FEFDCF21812EBD0DB4E7
S113397007FEFDCF3296E817F90791F78FEF0E9403
S1133980DC1B8FEF0E94DC1B8FEF0E94DC1B8F710E
S113399031E020E0853009F030E0832F922F02C01F
S11339A081E090E0DF91CF911F910895A4E0B0E011
S11339B0ECEDFCE10C94EA288111B2C08AE080931A
S11339C04904809149048111FCCF8091000181FD5B
S11339D0A4C08CB58E7F8CBD8CB582608CBD8DB53A
S11339E081608DBD1AE08FEF0E94DC1B1150D9F766
S11339F040E050E0BA0180E00E944F1C813009F0A1
S1133A0078C084E6809349044AEA51E060E070E0BB
S1133A1088E00E944F1C813009F043C08E010F5F83
S1133A201F4F6E0185E0C80ED11C78018FEF0E94F4
S1133A30DC1BF70181937F01CE16DF06B9F78B817A
S1133A40813009F056C08C818A3A09F052C08091C5
S1133A504904811106C080914904882309F449C0AE
S1133A600AC040E050E060E070E489EA0E944F1C24
S1133A708111EDCFF0CF40E050E0BA018AE30E941B
S1133A804F1C811136C08FEF0E94DC1BF80181931B
S1133A908F01CE16DF06B9F7898186FD2CC018E0A8
S1133AA02BC040E050E0BA0189EA0E944F1C8230EA
S1133AB018F011E001E002C014E009EA8091490421
S1133AC0811105C080914904882399F009C040E020
S1133AD050E0BA01802F0E944F1C8111EFCFF2CF2A
S1133AE040E052E060E070E080E10E944F1C8823D7
S1133AF019F010E001C018E1109346040E94E21B83
S1133B00112359F0809100018E7F809300018CB5C0
S1133B108C7F8CBD8CB582608CBD8091000101C00E
S1133B2081E02496E8E00C940629811103C0809179
S1133B300001089581E00895EF92FF920F931F937F
S1133B40CF937B01BA01A901811138C00115110578
S1133B50A9F18091000180FD33C08091460484FD69
S1133B6007C089E0440F551F661F771F8A95D1F758
S1133B700230110510F4C1E101C0C2E18C2F0E9492
S1133B804F1C811114C060E072E0C7010E94E71B62
S1133B90892B29F08EEFF81A01501109A1F7C231CF
S1133BA031F440E050E0BA018CE00E944F1C0E94C6
S1133BB0E21B81E0012B29F480E003C084E001C012
S1133BC083E0CF911F910F91FF90EF900895A0E0B3
S1133BD0B0E0EDEEFDE10C94EA28EB0169017A0115
S1133BE0811157C00115110509F453C080910001DA
S1133BF080FD51C08091000182FD4FC08091460438
S1133C0084FD07C099E0CC0CDD1CEE1CFF1C9A95CA
S1133C10D1F70130110599F4B701A60188E10E949A
S1133C204F1C81112CC06EEFCE010E949D1C31E00F
S1133C3020E0892B09F030E0032F122F22C08C7072
S1133C4031F0A80160E070E087E90E944F1CB701E1
S1133C50A60189E10E944F1C811113C06CEFCE01B3
S1133C600E949D1C892B21F0DE5F01501109B1F7E0
S1133C706DEF80E090E00E949D1C892B11F401E01F
S1133C8010E00E94E21B81E00115110539F480E087
S1133C9005C084E003C083E001C082E0CDB7DEB795
S1133CA0E8E00C940629A0E1B0E0E9E5FEE10C941B
S1133CB0EA2881114AC28091000180FD44C28A0130
S1133CC0633309F408C1A0F4633009F48EC028F406
S1133CD0662311F1613019F138C2673009F436C135
S1133CE0623309F032C280914604FA01808333C101
S1133CF0663309F416C138F4643309F4F1C065334A
S1133D0009F4F9C022C2683309F484C108F425C156
S1133D10693309F4D1C119C20E943B1C12C140E0AD
S1133D2050E0BA0189E00E944F1C811108C260E191
S1133D3070E0CE0101960E94E71B892B09F4FFC1B4
S1133D409981929596959695937029854A8588854B
S1133D509130D9F430E0322F2227240F311D8F7394
S1133D6090E0A0E0B0E0DC01992788270196A11D2E
S1133D70B11D820F931FA11DB11DFAE0880F991F79
S1133D80AA1FBB1FFA95D1F729C02295269526951F
S1133D902370F4E08F9FC0011124820F911D0196BE
S1133DA02F81237030E0322F2227330F330F820FFD
S1133DB0931FA0E0B0E02E81322F3F702B85221F8D
S1133DC02227221F230F4370440F420F475004C081
S1133DD0880F991FAA1FBB1F4A95D2F7F801808349
S1133DE09183A283B38310E0ABC1F090460440E01A
S1133DF050E0BA01F3FE28C08DE80E944F1C8111E7
S1133E009EC18FEF0E94DC1B60E170E0CE01019641
S1133E100E94E71B892B09F492C150E3F52E8FEF22
S1133E200E94DC1BFA94F110FACF2B8522952F7097
S1133E3080E190E0A0E0B0E004C0880F991FAA1FC1
S1133E40BB1F2A95D2F7CACF89E00E944F1C81116B
S1133E5076C160E170E0CE0101960E94E71B892BD8
S1133E6009F46DC12B858C85F2FE16C02F73881F53
S1133E708827881F90E00196820F911D820F911D63
S1133E802E852295269526952370215002C0880FF1
S1133E90991F2A95E2F71CC0382F337082958695B6
S1133EA0877090E0F8E03F9F800D911D11240196EA
S1133EB02C7730E035952795359527952F5F3F4F23
S1133EC0829FA001839F500D929F500D1124CA011F
S1133ED0A0E0B0E083CF40E050E0BA0189E004C044
S1133EE040E050E0BA018AE00E944F1C811127C1D2
S1133EF060E170E023C040E050E0BA018AE30E9430
S1133F004F1C81111CC17801F4E0EF0EF11C8FEFFE
S1133F100E94DC1BF80181938F01EE15FF05B9F7B0
S1133F2062CF40E050E0BA018DE80E944F1C81113D
S1133F3006C18FEF0E94DC1B60E470E0C8010E94A0
S1133F40E71B11E0892B09F4FBC04DCF80910001E0
S1133F5081608093000110E0F9C0FA01438154812B
S1133F606581768139E0440F551F661F771F3A95A6
S1133F70D1F77068808190E0A0E0B0E02CE1880F78
S1133F80991FAA1FBB1F2A95D1F7482B592B6A2BBF
S1133F907B2B8181928101979170A0E0B0E0482B46
S1133FA0592B6A2B7B2B80E30E944F1C8111C7C0C5
S1133FB084E6809349048FEF0E94DC1B8F3F29F431
S1133FC0809149048111F7CFBAC08E3F09F0B7C080
S1133FD0F801E780F084C180D280CE0CDF1CCE14BF
S1133FE0DF0439F08FEF0E94DC1BF70181937F011E
S1133FF0F6CFF8018181928102E012E0081B190BCF
S11340000115110509F4EFCE8FEF0E94DC1B01505E
S11340101109F6CFFA01438154816581768139E033
S1134020440F551F661F771F3A95D1F7706880813A
S113403090E0A0E0B0E02CE1880F991FAA1FBB1FFD
S11340402A95D1F7482B592B6A2B7B2B818192819E
S113405001979170A0E0B0E0482B592B6A2B7B2B81
S113406081E30E944F1C81116AC08FEF0E94DC1B08
S11340708EEF0E94DC1BF801E780F084C180D280BF
S1134080CE0CDF1CEC14FD0431F0F70181917F01AB
S11340900E94DC1BF7CFF8018181928102E012E0DB
S11340A0081B190B8FEF0115110509F441C00E947B
S11340B0DC1B01501109F6CFFA014381548165815B
S11340C0768189E0440F551F661F771F8A95D1F7C3
S11340D07468808190E0A0E0B0E02CE1880F991F23
S11340E0AA1FBB1F2A95D1F7482B592B6A2B7B2B70
S11340F0828190E0A0E0B0E0482B592B6A2B7B2B07
S113410081E30E944F1C81111AC08FEF0E94DC1BB7
S11341108EEF0E94DC1BF80181810E94DC1B01E010
S113412012E08FEF0E94DC1B01501109D1F78FEFD1
S11341300E94DC1B8F7111E0853011F454CE11E024
S11341400E94E21B03C013E001C014E0812F6096BB
S1134150E8E00C94062980914904882319F08150E1
S1134160809349048091470490914804009729F072
S113417001979093480480934704809100019091A3
S11341800001943011F4846001C08B7F1F9B02C036
S11341908D7F01C0836080930001089527982F9A32
S11341A08DE487BD82E084BD95E095BD80936E006B
S11341B0089583B1881F8827881F089541E06DE71B
S11341C072E086E095E00E94FC0F0895A6E2B0E05C
S11341D0ECEEF0E20C94E0286DA37EA31701280115
S11341E039014BA35CA342E3BC01CE0101964C010F
S11341F00E94361088EEA82E93E0B92EC12CD12C43
S1134200E12CF12C00E010E09101A201B3018BA19B
S11342109CA10E948328822F6CE30E9442281F9253
S11342209F9320E6A22E3AEEB32E9101A201B30190
S11342308BA19CA10E948328ECE3AE2EB12C0E949A
S113424081283F932F93F0E8AF2EAEEEBA2EB6E35B
S1134250CB2E9101A201B3018BA19CA10E948328C2
S11342603F932F939EA19F938DA18F938CE692E011
S11342709F938F939F928F920E941514C4010E9462
S1134280FB130FB6F894DEBF0FBECDBFA696E2E1D6
S11342900C94FC280F93CF9384B18F6284B98CB5AE
S11342A080658CBD8CB5837F8CBDE1E6F0E080E851
S11342B08083108261E081E00E94B122C82F62E015
S11342C081E00E94B1220FEF2C2F482F61E071E0B2
S11342D08FEC94E00E94B526CF910F9108950F932F
S11342E0FC010150040F84A996A9941718F008172B
S11342F028F402C0081750F0041740F42150260F88
S113430083A995A9961720F4281720F480E007C004
S1134310281720F481E0261710F0F8CF81E00F91E0
S11343200895DB011496ED91FC91159720E030E09F
S113433061E009950895DB011496ED91FC911597C0
S113434020E030E063E009950895DB011496ED91D7
S1134350FC91159720E030E040E064E00995089571
S1134360DB011496ED91FC91159720E030E041E0DB
S113437064E009950895DB011496ED91FC9115977D
S113438020E030E062E009950895DB011496ED9198
S1134390FC91159720E030E065E009950895DB0174
S11343A01496ED91FC91159766E009950895A0E0A7
S11343B0B0E0EDEDF1E20C94EA288C016B017A0196
S11343C080E0F701C49181110AC0CF3FE9F14C2F7D
S11343D0B601C8010E94C52181112FC03AC0CF3F48
S11343E011F44FEFF5CFCE3FB1F1C03F30F5C03EF1
S11343F038F04C2F4F70B601C8010E94BB211DC07C
S1134400C03D38F04C2F4F70B601C8010E949B216B
S113441014C0C03CA0F0B601C8010E94A521C295F9
S1134420C07FCE5FD0E0CE010E940E23B601C8014A
S11344300E94B021CE010E940E2380E006C0C7FD79
S1134440FCCF8C2F90E0F7CF81E0FFEFEF1AFF0A4B
S1134450B8CF80E001C081E0CDB7DEB7E8E00C94CE
S113446006298EBD0DB407FEFDCF8EB50895EF92DB
S1134470FF920F931F93CF938C01C42F7901862F42
S113448090E0FC013197E730F10508F04CC0EC5C9A
S1134490FF4F0C94702862E0C8010E94FB2261E087
S11344A0C8010E94FB2260E0C8010E94FB228FB772
S11344B080933907F894239A259A229A2B982D9859
S11344C0809139078FBF41E062E0C8010E94042354
S11344D01CBC80E58CBD27C061E004C0411106C04E
S11344E041E062E0C8010E9404231DC02D9840E011
S11344F0F8CF60E0F7CF842F0E94312214C0CC2380
S113450091F0F70181917F010E943122C150F7CFD0
S1134510CC2349F0F70184910E943122FFEFEF1A76
S1134520FF0AC150F5CF81E0CF911F910F91FF9009
S1134530EF900895A2E0B0E0E0EAF2E20C94F028F3
S1134540860F911D860F911D42E050E0BC01CE0103
S113455001960E94592989819A812296E2E00C945D
S11345600C2998E0899F600D1124862F0895CF931C
S1134570C82F682F6695669566958EE790E00E9431
S11345809A22FC014081C77021E030E001C0220F73
S1134590CA95EAF7242B2083CF910895CF93DF9314
S11345A0C82FD62F682F66956695669586E790E0A6
S11345B00E949A22FC01C770D1110EC09FB7F894D3
S11345C0808121E030E001C0220FCA95EAF72095EE
S11345D0282320839FBF0CC08FB7F894908121E0DB
S11345E030E001C0220FCA95EAF7292B20838FBF40
S11345F0DF91CF910895860F911DFC0183A18F3F18
S113460011F00E94B7220895860F911DFC0183A129
S11346108F3F19F0642F0E94CE2208952EEC37E0CC
S1134620009729F0F9013197F1F70197F9CF08952F
S1134630AF92BF92CF92DF92FF920F931F93CF93CB
S1134640DF938C01EB01F42E690180E14817B1F18D
S1134650841770F0EAE04E133CC042E0C8010E94A7
S1134660912142EA50E0BE01C8010E94D72131C025
S1134670F1E14F1731F185E148132BC0AA80BB80CB
S11346804AE950E0C8010E94D721F5014481406BFA
S1134690BE01C8010E94C52141E0BE01C8010E94BB
S11346A0BB21AE01B801C5010E946B278823B9F074
S11346B040E0BE01C8010E949B210BC041E950E0CB
S11346C002C046E850E0BE01C8010E94D72181E043
S11346D006C096014F2DBE01C8010E94D727DF9165
S11346E0CF911F910F91FF90DF90CF90BF90AF902B
S11346F00895FC01E60FF11D849190E0982F88271E
S11347003196E4918E0F911D0895FC0184910895D2
S11347100E948523882321F0823011F083E00895DC
S113472086E0089580E0089566E00E947923089564
S113473068E00E94792308950A96FC018491089503
S11347400B96FC0184910895A0E0B0E0EAEAF3E25C
S11347500C94E9288C01E62EDC011496CD91DC91B1
S11347601597CE010E948523F82EF8018481958146
S11347700E948823C82EF1E0FF1203C02FE0B22E5E
S113478002C0BB24BA94D80114968D919C911597BC
S11347900E949C23F82EF801848195810E94A02315
S11347A0D82ED80114968D919C9115970E94982328
S11347B0B0E6BE1538F4009729F0C80FD91F91E66A
S11347C0F92E10C0F801848195810E949423F0E4AD
S11347D0FE1538F4009729F0C80FD91F81E4F82E8C
S11347E001C06196DE1490F4D80150961C92509743
S11347F053961C92539754961C92549751961C921C
S1134800519752961C9280E090E067C0DF1460F3E9
S11348108C2D90E0FE0124912F3F11F4219658C075
S1134820FE104DC0D80114968D919C9115970E944D
S113483085239E012F5F3F4FFE01882311F08230B4
S1134840E1F48491D80153968C935397F901249100
S113485054962C935497FE013396E4915096EC931E
S11348605097FE013496E4915196EC935197FE01D2
S11348703596E4915296EC9320C08491982F9F70C2
S11348809250D80152969C93529782958F7051966C
S11348908C935197F9012491822F8F7054968C93A5
S11348A0549722952F7053962C935397FE0132966A
S11348B0E491E295EF705096EC93CE010EC0FE01A8
S11348C03296E491EB219C012E0F311DC20FD31FB0
S11348D0FD1409F489CFF3949DCFCDB7DEB7E9E099
S11348E00C940529A0E0B0E0E8E7F4E20C94E42895
S11348F0EC01C62E742E622F0E94A4237C01892B06
S1134900C9F18C819D810E948823B82E1B890C8952
S11349108989C80E8A89781AD72CD01A212F4D2D4F
S11349206C2DCE010E946F21882311F1EB0CF11C38
S1134930195F169516951695812E912C7D14C1F04C
S11349406C2C57018A2D8E19811770F4F50104918E
S113495020E04D2D662DCE010E94F126FFEFAF1A07
S1134960BF0A88E0680EEECFE80CF91CD394E6CFBA
S1134970888901C080E0CDB7DEB7EEE00C94002951
S1134980A0E0B0E0E6ECF4E20C94EA287C01D62E38
S1134990042FC22E132FDC015596ED91FC915697EE
S11349A00995080FCC2DD12F10E02991222341F035
S11349B0402F6D2DC7010E947224D80E180FF5CF19
S11349C0812FCDB7DEB7E8E00C940629DC011496FC
S11349D02D913C9115972115310509F43FC0579647
S11349E08C915797F901811108C03596E491589636
S11349F0EC935897F9013C9611C0813041F43F96ED
S1134A00E4915896EC935897F901709607C03D9637
S1134A10E4915896EC935897F9013E96E49159968F
S1134A20EC93599758968C915897082E000C990B33
S1134A3059962C915997821B910927FD93955A9663
S1134A402C915A97203441F0829FC001112426E012
S1134A50969587952A95E1F75B968C93089522E9BC
S1134A6033E2FC01368B258B0895CF93DF93FC0151
S1134A70248135812617370749F0EC017583648357
S1134A800E94E62482E993E29E8B8D8BDF91CF9185
S1134A900895A0E0B0E0EFE4F5E20C94E8285C01AE
S1134AA0C62F142FD22F261718F4F62EF21A02C08E
S1134AB0F22EF61A011770F4E12EE01AFE14F0F447
S1134AC08F2DFE2CE82E812F1D2FD82F8C2FC02F39
S1134AD0082F0DC0E02EE11AFE1488F58F2DFE2C50
S1134AE0E82E8D2FD02F082F8C2FC12F182FCC24D8
S1134AF0C394DF2CD694101750F02AC0DC1750F55D
S1134B00DF2CD694102F8C2FCD2FD82FC12C01E061
S1134B10DF3F79F4DEEF0DC0C1100EC0412F6C2FC2
S1134B20C5010E94E826DE18D7FE02C0100FDF0C74
S1134B30CF5FDC1788F710C04C2F612FF1CFDC1743
S1134B4048F4DF2CD694102F8C2FCD2FD82FC12CC6
S1134B500FEFDECFC12CCDCFCDB7DEB7EAE00C949A
S1134B6004291F93CF93DF93EC011D821C821F82C3
S1134B701E82198681E0888782E28A871F861E86C4
S1134B80FE01B396CE01C1962FEF2193E817F907E2
S1134B90E1F711E018A3CE010E942F251F8B188E78
S1134BA0198E80E48A8F1B8E8EE198E29AAB89ABD2
S1134BB0DF91CF911F910895DB01ED91FC9109954F
S1134BC008950F931F93CF93DF93EC018B01E9A911
S1134BD0FAA982E0099520E030E04AE0B801CE016C
S1134BE00E94DC25182FE9A9FAA983E00995E9A90F
S1134BF0FAA980E00995812FDF91CF911F910F9140
S1134C0008950F931F93CF93DF93EC018B01E9A9D0
S1134C10FAA982E00995E9A9FAA981E0099520E0B9
S1134C2030E044E1B801CE010E94DC259E012D5CF8
S1134C303F4F47E1B801CE010E94DC25E9A9FAA95A
S1134C4080E00995DF91CF911F910F910895EF9224
S1134C50FF921F93CF93DF93EC017B01E9A9FAA99B
S1134C6082E00995E9A9FAA981E0099520E030E0FC
S1134C7045E1B701CE010E94DC25182F882341F0BD
S1134C809E012D5C3F4F47E1B701CE010E94DC2518
S1134C90E9A9FAA980E00995812FDF91CF911F91AD
S1134CA0FF90EF900895FC01448F258F9C01245EB2
S1134CB03F4F42E30E94DC250895A1E0B0E0E3E623
S1134CC0F6E20C94F0289E012F5F3F4F46E40E94C9
S1134CD0DC2589812196E2E00C940C29A1E0B0E066
S1134CE0E4E7F6E20C94F0289E012F5F3F4F47E47F
S1134CF00E94DC2589812196E2E00C940C2920E0B5
S1134D0030E048E40E94DC250895CF93DF93EC0162
S1134D106A817B810E945D2688836A817B81CE01C2
S1134D200E946E2689836A817B81CE010E947F2640
S1134D308B879E012D5C3F4F6A817B8147E1CE01C9
S1134D400E94DC25DF91CF910895CF93DF93EC018E
S1134D506A817B810E94E125882321F0CE010E9493
S1134D60852681E0DF91CF910895CF92DF92FF9263
S1134D700F931F93CF93DF93EC016B01F42E122F4B
S1134D800E94B125DB82CA82FDA21CA30BA3CE0123
S1134D900E94A526DF91CF911F910F91FF90DF9084
S1134DA0CF900895FC01628173810E9401260895C9
S1134DB0CF93DF93EC01EE85FF85309709F00995D9
S1134DC06A817B81CE010E942726DF91CF910895CD
S1134DD0362F242FFC0162817381432F0E945326B6
S1134DE008950F93FC0182819381648F458F278FEF
S1134DF0068F9F01245E3F4F4BE3BC01CF010E940D
S1134E00DC250F910895FC0160A30895FC01128232
S1134E1080818150838314820895FC0130819281C2
S1134E20930F92832181921760F494819F5F9483FE
S1134E308381830F821710F08FEF820F838381E0C9
S1134E40089580E00895DC011696ED91FC91179782
S1134E5015968C919F01280F311DC9011192E817F5
S1134E60F907E1F7089531E0FC012381261708F4DE
S1134E7030E021E0FC018281481708F420E091E051
S1134E80461708F090E0892F832B2823832F89234A
S1134E90822B0895DC01FB01108212968C911297EB
S1134EA0818315968C9115978150828313968C91EA
S1134EB083830895FB0141812381213029F023302C
S1134EC031F468EF640F04C0642F485F01C0642F9D
S1134ED00E9433270895FC01CB01BA012681378152
S1134EE045810E94CF210895DC011696ED91FC9135
S1134EF0179712968C91481B477081E090E001C08F
S1134F00880F4A95EAF7E60FF11D3081222311F04C
S1134F10832B02C08095832380830895FC01DB01E9
S1134F2011964C9111978281481760F08381841700
S1134F3048F06C918581681728F4CF0114962C9160
S1134F400E9474270895CF92DF92FF920F931F93CC
S1134F50CF93DF936C01EB01FA808B81813051F0A8
S1134F6030F0823049F0833051F41FEF09C010E073
S1134F7001E007C011E004C010E00FEF02C010E030
S1134F8000E0F7FE04C0BE01C6010E948E2788819E
S1134F90800F88838981810F8983FF0C91F7DF91CA
S1134FA0CF911F910F91FF90DF90CF9008950F93B1
S1134FB01F93CF93DF938901FB01C281D3814233D5
S1134FC0F9F068F4453109F1473141F1443181F593
S1134FD0CE010E942327CE010E94062729C0463411
S1134FE011F1473411F14B3319F5B901CE010E9487
S1134FF05A278823E9F0B801CE010E94A32718C0DC
S1135000B901CE010E948E2713C0CE010E940D2744
S1135010882379F0CE010E9423270AC0B901CE016A
S11350200E944A2705C08D8101C08981F8018083CF
S113503081E0DF91CF911F910F9108950895909190
S1135040C00095FFFCCF8093C60080E090E00895F7
S11350508CE090E09093C5008093C400E1ECF0E014
S1135060808188698083E2ECF0E0808186608083BF
S11350708081877F80838FE091E090933D078093C8
S11350803C070895991B79E004C0991F961708F00E
S1135090961B881F7A95C9F780950895A1E21A2E68
S11350A0AA1BBB1BFD010DC0AA1FBB1FEE1FFF1FC8
S11350B0A217B307E407F50720F0A21BB30BE40B18
S11350C0F50B661F771F881F991F1A9469F760955F
S11350D07095809590959B01AC01BD01CF01089519
S11350E0EE0FFF1F0590F491E02D09940E944A29C8
S11350F0A59F900DB49F900DA49F800D911D112428
S11351000895689401C0E8948F929F92CF93DF939F
S11351100E948F28DF91CF919F908F9008958824CB
S11351209924F401E401B0E49F93AA279A158B040F
S11351309C04ED05FE05CF05D007A10798F4AD2F1B
S1135140DC2FCF2FFE2FE92D982C892E982F872F17
S1135150762F652F542F432F322F2227B85031F743
S1135160BF9127C01B2EBF91BB27220F331F441FA3
S1135170551F661F771F881F991F881C991CEE1FD7
S1135180FF1FCC1FDD1FAA1FBB1F8A149B04EC0545
S1135190FD05CE05DF05A007B10748F08A189B0876
S11351A0EC09FD09CE09DF09A00BB10B21601A94AB
S11351B0E1F62EF49401AF01BE01CD01000C089577
S11351C02F923F924F925F926F927F928F929F9213
S11351D0AF92BF92CF92DF92EF92FF920F931F9301
S11351E0CF93DF93CDB7DEB7CA1BDB0B0FB6F894B2
S11351F0DEBF0FBECDBF09942A88398848885F84F2
S11352006E847D848C849B84AA84B984C884DF8062
S1135210EE80FD800C811B81AA81B981CE0FD11D46
S11352200FB6F894DEBF0FBECDBFED0108952A0D71
S11352303B1D4C1D5D1D6E1D7F1D801F911F08951C
S11352400024A7FD00942A0F301D401D501D601D31
S1135250701D801D901D08952A193B094C095D0994
S11352606E097F09800B910B08952A153B054C05A7
S11352705D056E057F058007910708950024A7FD4D
S113528000942A1730054005500560057005800517
S113529090050895A29FB001B39FC001A39F700D14
S11352A0811D1124911DB29F700D811D1124911D2A
S11352B00895FB01DC0102C005900D92415050405D
S11352C0D8F70895FB01DC0104C08D910190801989
S11352D021F441505040C8F7881B990B0895FB01F5
S11352E0DC0102C001900D9241505040D8F708955E
S11352F0DC0101C06D9341505040E0F70895FC017A
S11353008191861721F08823D9F799270895319739
S1135310CF010895FB01DC0101900D920020E1F71B
S113532008950F931F93CF93DF93E0913C07F0917F
S11353303D07238121FF1BC08C01D0E0C0E0F801B0
S113534081918F0160913C0770913D07DB011896B4
S1135350ED91FC911997882331F00995892B79F304
S1135360DFEFCFEFECCF8AE00995892B19F08FEFAF
S11353709FEF02C08D2F9C2FDF91CF911F910F9132
S10953800895F894FFCF2C
S1135386011823070137220840000000804A040060
S1135396000002000000001F28000000002A2B2C39
S11353A63A3B3C3D3E5B5D7C223F7F00EBFE904DED
S11353B653444F53352E30004E4F204E414D452019
S11353C62020204641543332202020004E4F204EC8
S11353D6414D4520202020464154202020202000F5
S11353E6809A45418E418F804545454949498E8F6E
S11353F69092924F994F555559999A9B9C9D9E9F71
S113540641494F55A5A5A6A7A8A9AAABACADAEAF71
S1135416B0B1B2B3B4B5B6B7B8B9BABBBCBDBEBF0A
S1135426C0C1C2C3C4C5C6C7C8C9CACBCCCDCECFFA
S1135436D0D1D2D3D4D5D6D7D8D9DADBDCDDDEDFEA
S1135446E0E1E2E3E4E5E6E7E8E9EAEBECEDEEEFDA
S1135456F0F1F2F3F4F5F6F7F8F9FAFBFCFDFEFFCA
S1135466393000746F5F63617220203A0066726F90
S11354766D5F6361723A00746F5F72656D31203AD5
S113548600746F5F72656D32203A00746578743A01
S11354960072313D780072323D6F004D69643A0006
S11354A64E4F5F544F502E4353560039350039360C
S11354B600303700544F5F4341522E435356004643
S11354C6524F4D5F4341522E43535600544F5F5241
S11354D6454D312E43535600544F5F52454D322E9F
S11354E64353560034023F024C02580225733B20B4
S11154F625643A253032643A253032640A00C7
S9030000FC
