S012000072696B7469675F62696C2E73726563F2
S11300000C942C060C9449060C9449060C9449064D
S11300100C9449060C9449060C9449060C946709FF
S11300200C9449060C9449060C9449060C94490610
S11300300C9449060C9449060C9449060C94490600
S11300400C9449060C9449060C94D4090C94490662
S11300500C9449060C9449060C9449060C944906E0
S11300600C9449060C94490698089F08A508DA08D8
S1130070FE08310938093F094409B208B508B8082F
S1130080BB08BE08C108C408C708CA08CD0851097E
S1130090510951095109510951095109D008D3088D
S11300A0CD0CC60CBF0CB80CB10CA70C9D0C960C57
S11300B08F0C7B14E94304080100000000000801D0
S11300C0A4D08243050801000000000008017BD48D
S11300D09243051003A4909B43051003719DAE4306
S11300E0051002A4909B43051003000000000010BB
S11300F001A4909B43051001719DAE43051001A41A
S1130100909B430508017BD4924305100300000033
S1130110000010017BD49243051001A4909B430579
S113012010017BD49243050801A4D0824305020147
S113013000000000000801719DAE4305080166A699
S1130140CF43050801719DAE43050801719DAE437F
S113015005100300000000001001719DAE4305105E
S1130160010000C44305100166A6CF43050801A49D
S1130170D0824305100300000000001001A4D082C7
S1130180430510017BD49243051001A4909B4305C1
S113019008017BD49243050803A4D08243050801D7
S11301A07B14E9430402010000C44305100300006A
S11301B000000010010000C44305100166A6CF43EF
S11301C00510010000C443050801719DAE430510EC
S11301D00300000000001001719DAE4305100100F2
S11301E000C443051001719DAE43050801A4909B12
S11301F043050201000000000008017B14E94304E8
S11302000801A4909B430508017B14E943050801F8
S113021066A6CF430510030000000000100166A687
S1130220CF430510017B14E94305100166A6CF43B3
S11302300508010000C4430510030000000000107D
S1130240010000C44305100166A6CF430510010058
S113025000C4430508010A978A43050803A4909B38
S113026043050801719DAE430504010000C4430425
S1130270080166A6CF430408017B14E9430408017E
S1130280000000000008047B14E943040801A4D022
S113029082430508010A978A43050801A4D08243D2
S11302A0050801000000000008040000C44304081D
S11302B001A4D082430508010000C4430408016678
S11302C0A6CF430408010000000000080466A6CF7E
S11302D0430408010000C44304080166A6CF430494
S11302E008017B14E9430408010000000000080130
S11302F066A6CF43040801000000000008010000C6
S1130300C443040801719DAE43040401A4909B43BB
S1130310040801A4D0824306020100000000000882
S113032001A4D082430608017BD49243060801A4A9
S1130330909B430608017BD492430602010000000F
S1130340000008010000C4430508017B14E94305CB
S11303500801A4D0824306080166A6CF4305020122
S11303600000000000080166A6CF43050801719D46
S1130370AE4305080166A6CF43050801719DAE434F
S11303800504010000C44305040166A6CF4305101B
S1130390030000C443051003719DAE43051002A47D
S11303A0909B430501017BD492430508010000DCC6
S11303B0430408017BD492430508010000DC430593
S11303C004010000C443050401B8FEB84305080154
S11303D0A4D0A4430508010A978A43050803000032
S11303E000000002010A978A430508010000DC436B
S11303F00408010A978A43050801B8FEB8430504B6
S113040001A4D0A4430504010A978A430508017B8B
S1130410D49243050801B8FEB84305080300000060
S1130420000002017BD492430508010000DC430470
S113043008017BD492430508010000DC4305040154
S11304400000C443050401B8FEB843050801A4D064
S1130450A4430508010A978A430508030000000025
S11304600002010A978A430508010000DC430408DE
S1130470010A978A43050801B8FEB843050401A49C
S1130480D0A4430504010A978A430508017BD4924A
S11304904305020100000000000201B8FEB8430554
S11304A002010000DC430502010000C44305080109
S11304B00000DC430508010000C443050801B8FE40
S11304C0B843050801A4D0A4430502010A978A434E
S11304D0050201A4D0A443050201B8FEB8430508EF
S11304E0010000C443050801B8FEB843050801A48F
S11304F0D0A4430508017BD49243050201B8FEB899
S1130500430502010000DC430502010000C4430569
S11305100801B8FEB8430508010000C443050801FA
S11305200000DC43050801A4F0F6430502010000C5
S1130530DC430504010000C443050801B8FEB843C8
S11305400508010000C443050201B8FEB8430508CC
S1130550010000C443050801B8FEB843050801A41E
S1130560D0A4430508017BD49243050201719DAEDA
S113057043050805A4D0A4430508010000C44305AD
S11305800801719DAE43050801A4D0824305080506
S11305900000DC430408017B14E943040801A4D0EF
S11305A08243050801A4D082430508037B14E94370
S11305B0040805000000000001010000C443050810
S11305C005B8FEB8430508010000DC430508010036
S11305D000C443050801719DAE43050803A4D0A4DB
S11305E0430504017BD49243050401A4D0A443052C
S11305F008017BD49243050803A4D082430508056F
S113060000000000000101A4D08243060805A4F004
S1130610F6430508017BD49243060801A4D0824323
S11306200608017B14E9430508030000DC430508C0
S1130630057B14E9430508050000DC43050801A413
S1130640D082430608017B14E9430508010000DC5D
S1130650430508030000C4430508050000DC430506
S1130660080566A6CF430508017B14E94305080184
S11306700000DC430508010000C443050803719D24
S1130680AE430508020000DC430504010000C44336
S1130690050801719DAE43050803A4D0A4430508D1
S11306A005719DAE430508030000C4430508050019
S11306B00000000000000000000000000000000036
S11306C00000000000000000000000000000000026
S11306D00000000000000000000000000000000016
S11306E00000000000000000000000000000000006
S11306F000000000000000000000000000000000F6
S113070000000000000000000000000000000000E5
S113071000000000000000000000DC430404017B32
S1130720D492430504010000DC430404017BD49209
S1130730430504010000DC430404017BD492430517
S113074004010000DC4304080166A6CF4304080149
S11307500000DC430404010000DC4304080166A635
S1130760CF430408010000DC430408010000C44333
S113077004080100000000000801B8FEB8430408A2
S1130780010000C443040801B8FEB8430408017121
S11307909DAE430402017BD4924304040100000093
S11307A0000004010000DC430404017BD4924305EF
S11307B004010000DC430404017BD49243050401DA
S11307C00000DC430404017BD492430504010000CF
S11307D0DC4304080166A6CF430408010000DC439F
S11307E00404010000C4430404010000C4430404DD
S11307F001B8FEB8430404010000C443040401A486
S1130800D082430504017B14E9430404010000DCA5
S1130810430404010000C4430404010000DC430455
S113082004017BD492430504010000DC4304040169
S11308307BD492430504010000DC430404017BD40F
S113084092430504010000DC4304080166A6CF437B
S11308500408010000DC43040401A4D0824305041D
S113086001A4D082430504010000DC430404010018
S113087000C443040401719DAE430402017BD4927D
S1130880430402017BD49243040201719DAE4304EC
S113089002010000DC43040201A4D08243050201EA
S11308A0A4909B430504017BD4924305040166A6EE
S11308B0CF430408010000DC43040401719DAE43EE
S11308C00408010000DC43040801000000000008E3
S11308D0010000DC43040801A4D0824305040300A2
S11308E00000000008010000C443040801A4D082F1
S11308F0430504010000C4430410030000DC430466
S11309001001A4F0F643040401A4D0A44304080194
S1130910A4D0A4430408010000DC43040401000043
S1130920C443041003719DAE430410010000C4438A
S1130930040401A4D08243040801A4D0824304081F
S1130940017BD492430404017BD49243041003A496
S1130950D0A443041001719DAE43040401719DAE03
S1130960430410030000C4430410010000DC4304EA
S11309700401A4F0F643040801A4D082430508014D
S11309807BD492430508030000C44304080100001B
S1130990C4430404010000C4430404010000C4432C
S11309A0040401A4909B430410037B14E943041042
S11309B0010000C443040401A4909B430410037B7E
S11309C014E9430410010000C4430402017BD492DF
S11309D0430504017BD492430504017BD49243056F
S11309E00401A4909B430510037B14E94304100104
S11309F0B8FEB843040401A4909B430410037B1481
S1130A00E9430410010000C443040401A4D0A44336
S1130A100402010000C443040401B8FEB843040402
S1130A20010000DC430404010000C443040401B8D1
S1130A30FEB843040201A4D0A44304010100000051
S1130A4000000201A4F0F6430404010A978A430556
S1130A5004017BD492430502010A978A43050401E9
S1130A600000DC430404010A978A43050401A4F04E
S1130A70F64304040300000000000401A4F0F6435C
S1130A800304017BD49243040401A4D0A4430404CA
S1130A90010000C4430404010000DC43040401B861
S1130AA0FEB843040201A4D0A4430404010000C41A
S1130AB043040401B8FEB843040401A4D0A44304CD
S1130AC00401B8FEB8430404017BD4924304040334
S1130AD0A4D0A443040201B8FEB8430404010A9755
S1130AE08A430508017B14E9430408017B14E943A4
S1130AF004040166A6CF43040801B8FEB843040801
S1130B0001B8FEB843040801A4F0F6430404017BD1
S1130B1014E9430408017B14E94304080166A6CFE1
S1130B204304080166A6CF43040801B8FEB8430491
S1130B300401B8FEB843040801B8FEB84304040134
S1130B400000DC430408010A978A430508010000F9
S1130B5000000008010000DC43040801000000005C
S1130B60000801B8FEB8430408017BD49243042072
S1130B7003000000000020017BD492430420030002
S1130B800000000020017BD49243042003000000F5
S1130B900000200100000000000801000000000027
S1130BA0080100000000000401000000000008012A
S1130BB00A978A430408017BD49243040801B8FECF
S1130BC0B8430408010000DC430408010A978A437F
S1130BD0050801000000000008010000DC430408CF
S1130BE00100000000000801B8FEB843040801A495
S1130BF0D0A443050803A4909B430508017BD49229
S1130C0043050401A4D0A443050801A4D0A44305CA
S1130C10080100000000000801A4D0A44305080155
S1130C2000000000000801A4D08243050801A4D0FC
S1130C30A443050801000000000008010000C443AB
S1130C400508010000000000040100000000000885
S1130C50010000C44304080111241FBECFEFD8E0F3
S1130C60DEBFCDBF11E0A0E0B1E0ECE2F9E202C0EA
S1130C7005900D92AC35B107D9F727E0ACE5B1E0AA
S1130C8001C01D92AA3EB207E1F70E94A3070C948B
S1130C9094140C940000CF9381E70E94F5060E94FF
S1130CA04107C82F0E941E078C2FCF910895809171
S1130CB05C01882359F080E70E94F50680915E016B
S1130CC00E9426070E941E0710925C01089521E0ED
S1130CD030E001C0220F8A95EAF780915E01282B4B
S1130CE020935E0181E080935C01089521E030E06F
S1130CF001C0220F8A95EAF7209580915E0128238E
S1130D0020935E0181E080935C01089580935E01ED
S1130D1081E080935C0108950E94F50680E00E94C2
S1130D20260781E50E9426070C941E07CF93DF93C4
S1130D30C82F0E94F50682E00E94260781E08C0FEE
S1130D400E941C070E943707C82FD0E0DC2FCC2755
S1130D500E944107C82B0E941E07CE01DF91CF914C
S1130D60089580915F0190916001009729F00197A7
S1130D709093600180935F01089581E020915F0169
S1130D8030916001232B09F080E0089586E490E01F
S1130D909093600180935F0108951092B90080E2FE
S1130DA08093B800089594EA9093BC009091BC009D
S1130DB097FFFCCF9091B900987F983021F0903143
S1130DC011F081E008958093BB0084E88093BC0017
S1130DD08091BC0087FFFCCF8091B900887F883167
S1130DE011F0803471F780E0089524EA34E844E98E
S1130DF02093BC009091BC0097FFFCCF9091B90068
S1130E00987F983011F0903199F78093BB0030931C
S1130E10BC009091BC0097FFFCCF9091B900987FE3
S1130E20903211F0983539F44093BC009091BC0095
S1130E3094FDFCCFDDCF08950C94D30684E9809310
S1130E40BC008091BC0084FDFCCF08958093BB005E
S1130E5084E88093BC008091BC0087FFFCCF909114
S1130E60B900987F81E0983209F480E0089584EC19
S1130E708093BC008091BC0087FFFCCF8091BB00B5
S1130E80089584E88093BC008091BC0087FFFCCF68
S1130E908091BB000895CF93DF93CDB7DEB7E99778
S1130EA00FB6F894DEBF0FBECDBF1B8219828FEF41
S1130EB08A831E828C838D8319868F8388871C8600
S1130EC01A868B871F861D868E871A8A888B898B44
S1130ED01D8A8B8B8C8B188E1E8A8F8BFE0131960C
S1130EE028E030E0CF014FEF20FF04C0128E408F86
S1130EF0418F03C0428F108E118E2F5F3F4F339668
S1130F002331310589F763E170E00E94B00EE99660
S1130F100FB6F894DEBF0FBECDBFDF91CF91089519
S1130F208DE78093B300E0EBF0E080818260808302
S1130F30E1EBF0E0808184608083E0E7F0E0808191
S1130F40826080830895CF93DF93CDB7DEB7619736
S1130F500FB6F894DEBF0FBECDBF1092930110926E
S1130F609201109295011092940110926101809166
S1130F70610182608093610180E091E09093E707D2
S1130F808093E6070E94AF0D0E94510E2FEF84E379
S1130F909CE0215080409040E1F700C000000E9496
S1130FA0B30D0E94760E0E94160B0E94410C0E9403
S1130FB0CD060E9490078FEF0E9486060E941C0AAD
S1130FC04098389A0E944B07789483E0EEE0F1E071
S1130FD08E010F5F1F4FD80101900D928A95E1F7A2
S1130FE0FE0134968EE0DF011D928A95E9F780EECA
S1130FF00E948C068AEE0E948C060E94C606C12CB2
S1131000D12CE12CF12CAA24A394B12C90E2792EBA
S11310102AEF822E912C0E9457060E94BD06882337
S113102081F080EE0E9496067C018AEE0E9496066C
S11310306C0180EE0E948C068AEE0E948C060E944F
S1131040C606C70101974B9710F481E001C080E008
S11310500E94110CC60101974B9710F481E001C066
S113106080E00E94210C0E944B0620919401309153
S11310709501232B09F049C0FE01339622E030E0AC
S113108090E0A501022E02C0440F551F0A94E2F716
S113109048235923452B11F440E301C041E3419314
S11310A02F5F3F4F2630310561F77F824AE0BE0152
S11310B0685F7F4FC7010E947911F80101900020F9
S11310C0E9F73197E01BF10BD801AE0FB11D7C920B
S11310D0EF5FB8016E0F711DFB0110824AE0C6017B
S11310E00E947911F80101900020E9F73197E01B83
S11310F0F10BC8018E0F911DFC011082C8010E94E2
S1131100630E90929501809294010E942C0E83CFDD
S11311101F93CF93DF93EA01862F90E0FC01F097B1
S1131120E930F10508F0BDC0EC5CFF4F0C944611AA
S113113088EB9BE09093930180939201B2C040E2CC
S113114060E1CE010E94430EACC0E8818E2F90E096
S1131150FC01F097E331F10508F0A3C0E35CFF4F15
S11311600C9446110E94A00D20C00E94010D99C04C
S11311700E94A30D1AC00E949A0D17C00E949D0DD3
S113118014C00E94940D11C00E94910D0EC00E94C3
S1131190970D0BC00E948E0D08C00E94A60D05C0BD
S11311A00E94A90D02C00E94AC0D0E94E40C0E9492
S11311B0F10C77C08881882309F485C00E940F0B45
S11311C0882309F46EC080E091E0980FFE01E90FD6
S11311D0F11D2081203211F0892FF6CF10828E5F0D
S11311E09E01280F311DC9010E944C11182FCE01F8
S11311F00E944C11612F0E94700B53C0888181336F
S113120079F030F48033A9F48091BE018E7F0FC051
S1131210823351F0833369F48091BE01826007C048
S11312208091BE01816003C08091BE018D7F809357
S1131230BE018091BE01882311F0833049F480916E
S1131240610182608093610181E00E94670629C088
S1131250809161018D7F8093610181E00E94760617
S113126020C080916101816080936101409A19C01E
S1131270809161018E7F80936101409812C08FE15B
S113128091E00E94630E0DC08881803329F0813380
S113129041F40E941C0A05C00E940F0B81110E9498
S11312A0120B80916101882341F081E00E94310C8E
S11312B0DF91CF911F910C941C0A80E0DF91CF91B4
S11312C01F910C94310CDF91CF911F9108951F92BF
S11312D00F920FB60F9211242F933F934F935F9366
S11312E06F937F938F939F93AF93BF93EF93FF93EA
S11312F08091920190919301892B31F48091610145
S11313008460809361010EC0809161018B7F809322
S113131061018091920190919301019790939301BF
S11313208093920180916101882331F081E00E94D1
S1131330310C0E941C0A03C080E00E94310C0E9400
S1131340090D81110E940C0D8091940190919501D9
S1131350892B49F080919401909195010197909384
S11313609501809394010E94B1060E94BC0A0E94D8
S11313700F0B811103C00E94760603C080E00E9417
S113138067060E94340BFF91EF91BF91AF919F913B
S11313908F917F916F915F914F913F912F910F901A
S11313A00FBE0F901F9018951F920F920FB60F92B9
S11313B011242F933F934F935F936F937F938F9356
S11313C09F93AF93BF93EF93FF93E0915D01F0E0A0
S11313D08091C600EA56FE4F8083E0915D01F0E003
S11313E0EA56FE4F80818A3089F4E0915D01F0E095
S11313F0EA56FE4F1082609197018091960148E968
S113140051E00E94880810925D0105C080915D0141
S11314108F5F80935D01FF91EF91BF91AF919F9199
S11314208F917F916F915F914F913F912F910F9089
S11314300FBE0F901F90189581E08093A207109221
S1131440C10110929F071092A4071092A307109253
S1131450A1071092A0071092C0011092BF018093BF
S1131460C2010895811102C0662381F0E091A007B2
S1131470F091A1079F01220F331FE20FF31FED53D9
S1131480FE4F8083618381E08093C1010895809140
S1131490C101882309F445C08091A0079091A10758
S11314A0FC01EE0FFF1FE80FF91FED53FE4F2091D3
S11314B09F0722839093C0018093BF014091A307AB
S11314C05091A407833F21E0920769F4452B31F43E
S11314D081E090E09093A4078093A3071092A10762
S11314E01092A00718C09C012F5F3F4F24173507A7
S11314F071F4233F41E0340729F41092A4071092B9
S1131500A30705C002969093A4078093A307309382
S1131510A1072093A00710929F071092C101109277
S1131520C2010895E091A007F091A107CF01880FAF
S1131530991FE80FF91FED53FE4F6181619580817A
S113154081950E94700B8091A0079091A107FC01E6
S1131550EE0FFF1FE80FF91FED53FE4F228120937A
S11315609F07009719F483EF91E001C001979093CE
S1131570A1078093A00708958091A207882301F111
S11315808091C1018823C9F080919F078F5F809368
S11315909F078F3F09F042C00E94470AE091BF01B4
S11315A0F091C001CF01880F991FE80FF91FED5387
S11315B0FE4F618180810C94320A10929F07089536
S11315C080919F07882319F0815080939F07809111
S11315D09F07811123C08091C201811110C0209105
S11315E0A0073091A1078091A3079091A407281721
S11315F0390719F481E08093C2010C94920A0E9485
S11316001C0A60E080E00E94700B80E00E94310CB4
S113161080E00E94110C80E00C94210C08958091CC
S1131620A20708951092A2070C94470A8AB1806613
S11316308AB9269A279A2E9A2F9A209A579A289AE4
S11316405F9A84B5836A84BD85B5816085BD17BC06
S113165018BC1092AA071092A7071092A50710921F
S1131660A6071092A90708958091A807882391F0EE
S11316708091AC0781110EC08091AA07082E000C3E
S1131680990B97FF03C0919581959109880F88BDA7
S11316901092A8078091AB07882391F08091AC0742
S11316A081110EC08091A707082E000C990B97FF9B
S11316B003C0919581959109880F87BD1092AB075E
S11316C08091A807811104C08091AB07882339F069
S11316D08091AC07882319F081508093AC0708955A
S11316E0CF93DF93D82FC62F0E940F0B882371F15D
S11316F0D7FF03C08091A60704C0DD2321F08091A9
S1131700A507811103C08091A9078111D0E0C7FF0B
S113171003C08091A60704C0CC2321F08091A507C3
S1131720811103C08091A9078111C0E089E08D0F68
S1131730833108F4D0E089E08C0F833108F4C0E0F1
S11317400E94470A6C2F8D2F0E94320A1D161CF42A
S11317502E9A2F9808C0DD2319F02E982F9A03C0D3
S11317602E9A2F9ADFE71C161CF4289A5F9808C05B
S1131770CC2319F028985F9A03C0289A5F9ACFE780
S113178028B58D2F0D2E000C990B211119C0D35E95
S1131790DB33B0F49C0197FF04C022273327281BB6
S11317A0390B2115310561F08FEF88BD220F20938D
S11317B0AA0781E08093A80784E18093AC0707C05F
S11317C097FF03C0919581959109880F88BD27B52E
S11317D08C2F0C2E000C990B211119C0C35ECB3336
S11317E0B0F49C0197FF04C022273327281B390B30
S11317F02115310561F08FEF87BD220F2093A707D4
S113180081E08093AB0784E18093AC0707C097FF26
S113181003C0919581959109880F87BDDF91CF9180
S113182008959091A507911109C0882339F081E0AA
S11318308093A50760E080E00C94700B8093A5076B
S113184008959091A607911109C0882339F081E089
S11318508093A60760E080E00C94700B8093A60749
S113186008959091A907911109C0882339F081E066
S11318708093A90760E080E00C94700B8093A90723
S1131880089580E480938000E1E8F0E0808188603E
S113189080832198089521980895CF92DF92EF9242
S11318A0FF92CF93C42F20E030E040E853E40E943D
S11318B078109B01AC0160E074E284EF9AE40E942A
S11318C0250F6B017C016C2F70E080E090E00E949A
S11318D0C80F9B01AC01C701B6010E94781020E03B
S11318E030E040E85FE30E94B30E0E94E5100E94DE
S11318F0970FCB01CF91FF90EF90DF90CF90089599
S11319000F931F93042F10E00930110508F059C0FC
S1131910F801E05BFF4F209181000C944611226096
S113192020938100209181002A7F17C02260209398
S11319308100209181002A7F36C02260209381009B
S1131940209181002A7F2093810044E02FC02360EE
S113195020938100209181002B7F2093810041E01E
S113196025C0236020938100209181002B7F1BC020
S1131970246020938100209181002C7FEECF24608D
S113198020938100209181002C7F0DC0256020933D
S11319908100209181002D7FE0CF2560209381007C
S11319A0209181002D7F2093810042E00E944D0C04
S11319B0909389008093880010928500109284008F
S11319C0219A1F910F9108959093B1078093B007C6
S11319D01092AD071092AC071092AE071092AF07A9
S11319E008958091B0079091B107892B49F0109226
S11319F0AE0781E08093AF071092AD071092AC0759
S1131A0008951092AF071092B1071092B0070C948A
S1131A104B0C8091AF070895CF92DF92EF92FF9223
S1131A201F93CF93DF938091AF07882309F46EC08F
S1131A308091AC079091AD07009729F0019790939E
S1131A40AD078093AC07E091B007F091B107209106
S1131A50AE0732818091AC079091AD0732130BC071
S1131A60009749F4DF91CF911F91FF90EF90DF90A1
S1131A70CF900C94010D8530910549F4DF91CF91FD
S1131A801F91FF90EF90DF90CF900C944B0C892B1B
S1131A9009F03CC08381948137E0239F800D911D20
S1131AA01124FC01C590D590E590F490FC01349686
S1131AB014913196D4913196C49120E030E0A9017B
S1131AC0C701B6010E94200F882331F0412FC701BE
S1131AD0B6010E94800C02C00E944B0CE091B0073A
S1131AE0F091B1076D2F70E0808191810E943211D5
S1131AF0C69FC001C79F900D11249093AD0780939A
S1131B00AC078091AE078F5F8093AE07DF91CF91D2
S1131B101F91FF90EF90DF90CF90089584E591E0BE
S1131B2008958FE491E008958AE491E0089585E4AE
S1131B3091E0089580E491E008958BE391E00895A5
S1131B4086E391E0089581E391E008958CE291E0C9
S1131B50089587E291E0089582E291E00895229A3F
S1131B60399A2A9A08958CB581608CBD8CB58D7F85
S1131B708CBD2A9889E30E945E0E80E58A95F1F770
S1131B808DE10E945E0E90E59A95F1F780E50E9442
S1131B905E0E80E58A95F1F78CE60E945E0E90E574
S1131BA09A95F1F78CE70E945E0E80E58A95F1F72D
S1131BB088E30E945E0E90E59A95F1F78CE00E940E
S1131BC05E0E80E58A95F1F781E00E945E0E8FEC4F
S1131BD097E00197F1F700C0000086E00E945E0ED6
S1131BE08FE39FE10197F1F700C00000419A2A9A20
S1131BF080E090E020E2FC01EE54F84F208301964F
S1131C0080339105C1F71092E2071092E30708951B
S1131C109CB591609CBD9CB59D7F9CBD2A980E94FB
S1131C205E0E80E58A95F1F72A9A80E090E00895A7
S1131C308CB581608CBD8CB58D7F8CBD41982A9804
S1131C4081E00E945E0E8FE39FE10197F1F700C0EF
S1131C500000419A2A9A08958091E307882391F01D
S1131C600E94180E82EB97E09F938F9389E591E091
S1131C709F938F930E94A6111092E3070F900F90E9
S1131C800F900F900895242F462F50E030E0BC01B0
S1131C90C9018E54984F0E946A1181E08093E30732
S1131CA0089584B1886284B98CB580658CBD8DB586
S1131CB081608DBD8CB5837F8CBD08958EBD0DB4C0
S1131CC007FEFDCF0895FC019191992339F080918D
S1131CD0C00085FFFCCF9093C600F6CF8091C00072
S1131CE085FFFCCF8AE08093C600089583E390E0EB
S1131CF09093C5008093C40088E98093C10086E076
S1131D008093C20008952AB1242B2AB92BB1342F11
S1131D10309523233BB1432B3FB7F894FC01680F64
S1131D20791FE617F70761F0819198E04BB987FFB7
S1131D302BB9880F000007F42BB99A95B9F7F1CFA6
S1131D403FBF08959B01220F331F620F731F0E9430
S1131D50830E87E592E00197F1F700C00000089533
S1131D6040E10C94A20E5058BB27AA270E94CB0E28
S1131D700C943E100E94301038F00E94371020F06E
S1131D8039F49F3F19F426F40C942D100EF4E095C9
S1131D90E7FB0C942710E92F0E944F1058F3BA1751
S1131DA0620773078407950720F079F4A6F50C946D
S1131DB071100EF4E0950B2EBA2FA02D0B01B90172
S1131DC090010C01CA01A0011124FF27591B99F0AD
S1131DD0593F50F4503E68F11A16F040A22F232FB9
S1131DE0342F4427585FF3CF469537952795A79509
S1131DF0F0405395C9F77EF41F16BA0B620B730BB0
S1131E00840BBAF09150A1F0FF0FBB1F661F771F20
S1131E10881FC2F70EC0BA0F621F731F841F48F4D5
S1131E20879577956795B795F7959E3F08F0B0CF5E
S1131E309395880F08F09927EE0F97958795089545
S1131E400E94031008F481E008950E94390F0C9455
S1131E503E100E94371058F00E94301040F029F4D0
S1131E605F3F29F00C94271051110C9472100C94BC
S1131E702D100E944F1068F39923B1F3552391F369
S1131E80951B550BBB27AA2762177307840738F0E5
S1131E909F5F5F4F220F331F441FAA1FA9F335D042
S1131EA00E2E3AF0E0E832D091505040E695001CF6
S1131EB0CAF72BD0FE2F29D0660F771F881FBB1FB0
S1131EC0261737074807AB07B0E809F0BB0B802D8E
S1131ED0BF01FF2793585F4F3AF09E3F510578F0BA
S1131EE00C9427100C9472105F3FE4F3983ED4F3E3
S1131EF0869577956795B795F7959F5FC9F7880F8E
S1131F00911D9695879597F90895E1E0660F771FDF
S1131F10881FBB1F621773078407BA0720F0621B70
S1131F20730B840BBA0BEE1F88F7E09508950E949B
S1131F30571088F09F5798F0B92F9927B751B0F0F0
S1131F40E1F0660F771F881F991F1AF0BA95C9F739
S1131F5014C0B13091F00E947110B1E008950C9456
S1131F607110672F782F8827B85F39F0B93FCCF309
S1131F70869577956795B395D9F73EF490958095B6
S1131F80709561957F4F8F4F9F4F0895E89409C0D6
S1131F9097FB3EF490958095709561957F4F8F4F98
S1131FA09F4F9923A9F0F92F96E9BB279395F695AE
S1131FB0879577956795B795F111F8CFFAF4BB0F2C
S1131FC011F460FF1BC06F5F7F4F8F4F9F4F16C090
S1131FD0882311F096E911C0772321F09EE8872F1A
S1131FE0762F05C0662371F096E8862F70E060E0D6
S1131FF02AF09A95660F771F881FDAF7880F96954F
S1132000879597F90895990F0008550FAA0BE0E8F2
S1132010FEEF16161706E807F907C0F012161306A6
S1132020E407F50798F0621B730B840B950B39F4E6
S11320300A2661F0232B242B252B21F408950A264C
S113204009F4A140A6958FEF811D811D089597F98C
S11320509F6780E870E060E008959FEF80EC08954A
S113206000240A9416161706180609060895002473
S11320700A9412161306140605060895092E0394ED
S1132080000C11F4882352F0BB0F40F4BF2B11F461
S113209060FF04C06F5F7F4F8F4F9F4F089557FDC0
S11320A09058440F551F59F05F3F71F04795880FC2
S11320B097FB991F61F09F3F79F087950895121659
S11320C013061406551FF2CF4695F1DF08C0161605
S11320D017061806991FF1CF8695710561050894B6
S11320E00895E894BB2766277727CB0197F90895CD
S11320F00E948B100C943E100E94301038F00E9405
S1132100371020F0952311F00C9427100C942D1007
S113211011240C9472100E944F1070F3959FC1F318
S1132120950F50E0551F629FF001729FBB27F00D81
S1132130B11D639FAA27F00DB11DAA1F649F6627D6
S1132140B00DA11D661F829F2227B00DA11D621F25
S1132150739FB00DA11D621F839FA00D611D221FDF
S1132160749F3327A00D611D231F849F600D211DC3
S1132170822F762F6A2F11249F5750409AF0F1F046
S113218088234AF0EE0FFF1FBB1F661F771F881FAF
S113219091505040A9F79E3F510580F00C942710B0
S11321A00C9472105F3FE4F3983ED4F386957795D0
S11321B06795B795F795E7959F5FC1F7FE2B880F55
S11321C0911D9695879597F908950E945710E8F008
S11321D09E37E8F09639B8F49E3848F4672F782F84
S11321E08827985FF9CF8695779567959395953964
S11321F0D0F3B62FB1706B0F711D811D20F487953C
S11322007795679593950C9409110C9424110C946B
S11322107210882371F4772321F09850872B762F3E
S113222007C0662311F499270DC09051862B70E0E6
S113223060E02AF09A95660F771F881FDAF7880FF7
S11322409695879597F908959F3F31F0915020F422
S1132250879577956795B795880F911D969587957E
S113226097F90895AA1BBB1B51E107C0AA1FBB1F06
S1132270A617B70710F0A61BB70B881F991F5A950E
S1132280A9F780959095BC01CD010895EE0FFF1F2D
S11322900590F491E02D0994FC0188279927E8948E
S11322A021912032E9F3293010F02E30C8F32B327B
S11322B041F02D3239F4689404C00E948411820FD5
S11322C0911D219120532A30C0F31EF490958195DD
S11322D09F4F0895FB01DC014150504048F00190AC
S11322E00D920020C9F701C01D9241505040E0F703
S11322F00895BB274A3031F4992322F4BDE2909526
S113230081959F4F0C948D117AE0979F902D879F14
S1132310802D910D11240895BB27FB015527AA2771
S1132320880F991FAA1FA41710F0A41B839550515E
S1132330B9F7A05DAA3308F0A95DA193009779F7D6
S1132340B111B1931192CB010C94B313A0E0B0E09E
S1132350ECEAF1E10C946D14AE014B5F5F4FFA01AE
S113236061917191AF018091E6079091E7070E9416
S1132370BC11E2E00C948914ABE0B0E0E2ECF1E1D2
S11323800C945D146C017B018A01FC011782168296
S1132390838181FFCCC1CE0101963C01F60193817A
S11323A0F70193FD859193FF81917F01882309F4BF
S11323B0BAC1853239F493FD859193FF81917F01F0
S11323C0853229F4B60190E00E94C313E7CF912C23
S11323D0212C312CFFE1F315D8F08B3279F038F44D
S11323E0803279F08332A1F4232D20611DC08D3217
S11323F061F0803369F4232D216016C0832D82603F
S1132400382EE32DE4603E2E2AC0F32DF8601DC063
S113241037FC2DC020ED280F2A3040F08E32B9F45D
S113242036FC81C1232D2064322E19C036FE06C02D
S11324308AE0989E200D1124922E11C0EAE02E9E6F
S1132440200D1124222EF32DF0623F2E08C08C366D
S113245021F4832D8068382E02C0883641F4F701B8
S113246093FD859193FF81917F018111B3CF982FC3
S11324709F7D9554933028F40C5F1F4F9FE39983FD
S11324800DC0833631F0833771F0833509F059C0BC
S113249021C0F801808189830E5F1F4F88248394B3
S11324A0912C530113C02801F2E04F0E511CF80186
S11324B0A080B18036FE03C0692D70E002C06FEFCA
S11324C07FEFC5010E94A8134C018201F32DFF7711
S11324D03F2E16C0280122E0420E511CF801A080B4
S11324E0B18036FE03C0692D70E002C06FEF7FEF4C
S11324F0C5010E949D134C01F32DF0683F2E82010B
S113250033FC1BC0822D90E088169906B0F4B60106
S113251080E290E00E94C3132A94F4CFF50137FCC3
S1132520859137FE81915F01B60190E00E94C3134B
S113253021102A9421E0821A91088114910471F7E0
S1132540E8C0843611F0893641F5F80137FE07C03A
S113255060817181828193810C5F1F4F08C060810B
S11325607181072E000C880B990B0E5F1F4FF32D02
S1132570FF763F2E97FF09C09095809570956195E1
S11325807F4F8F4F9F4FF0683F2E2AE030E0A3012A
S11325900E94FF13882E861845C0853731F4232DF9
S11325A02F7EB22E2AE030E025C0932D997FB92EDC
S11325B08F36C1F018F4883579F0B5C0803719F03A
S11325C0883721F0B0C0E92FE061BE2EB4FE0DC003
S11325D0FB2DF460BF2E09C034FE0AC0292F2660EB
S11325E0B22E06C028E030E005C020E130E002C091
S11325F020E132E0F801B7FE07C060817181828179
S113260093810C5F1F4F06C06081718180E090E070
S11326100E5F1F4FA3010E94FF13882E8618FB2D07
S1132620FF773F2E36FE0DC0232D2E7FA22E891458
S113263058F434FE0BC032FC09C0832D8E7EA82EC4
S113264005C0B82CA32C03C0B82C01C0B92CA4FE1F
S11326500FC0FE01E80DF11D8081803321F49A2D15
S1132660997EA92E09C0A2FE06C0B394B39404C0F7
S11326708A2D867809F0B394A3FC11C0A0FE06C08D
S1132680B21488F4280C922C9B180EC0B21460F477
S1132690B60180E290E00E94C313B394F7CFB21462
S11326A018F42B1802C0982C212CA4FE10C0B601DB
S11326B080E390E00E94C313A2FE17C0A1FC03C0F4
S11326C088E790E002C088E590E0B6010CC08A2D4E
S11326D0867859F0A1FE02C08BE201C080E2A7FC1B
S11326E08DE2B60190E00E94C313891438F4B60158
S11326F080E390E00E94C3139A94F7CF8A94F30185
S1132700E80DF11D8081B60190E00E94C313811091
S1132710F5CF222009F442CEB60180E290E00E9477
S1132720C3132A94F6CFF6018681978102C08FEFF6
S11327309FEF2B96E2E10C947914FC010590615013
S113274070400110D8F7809590958E0F9F1F0895C3
S1132750FC016150704001900110D8F7809590956C
S11327608E0F9F1F0895DC01FC01672F7191772361
S1132770E1F7329704C07C916D9370836291AE1738
S1132780BF07C8F308950F931F93CF93DF93FB0103
S1132790238121FD03C08FEF9FEF2CC022FF16C0C1
S11327A046815781248135814217530744F4A0811F
S11327B0B1819D012F5F3F4F318320838C9326810C
S11327C037812F5F3F4F3783268314C08B01EC0181
S11327D0FB010084F185E02D0995892BE1F6D801F0
S11327E016968D919C911797019617969C938E93AC
S11327F01697CE01DF91CF911F910F910895FA01A1
S1132800AA27283051F1203181F1E8946F936E7F2B
S11328106E5F7F4F8F4F9F4FAF4FB1E03ED0B4E01C
S11328203CD0670F781F891F9A1FA11D680F791F5D
S11328308A1F911DA11D6A0F711D811D911DA11D6E
S113284020D009F468943F912AE0269F112430197E
S1132850305D3193DEF6CF010895462F4770405D19
S11328604193B3E00FD0C9F7F6CF462F4F70405DC8
S11328704A3318F0495D31FD4052419302D0A9F723
S1132880EACFB4E0A6959795879577956795BA951D
S1132890C9F700976105710508959B01AC010A2EE3
S11328A006945795479537952795BA95C9F7620FBA
S11328B0731F841F951FA01D08952F923F924F925E
S11328C05F926F927F928F929F92AF92BF92CF92BC
S11328D0DF92EF92FF920F931F93CF93DF93CDB7C5
S11328E0DEB7CA1BDB0B0FB6F894DEBF0FBECDBF3D
S11328F009942A88398848885F846E847D848C840E
S11329009B84AA84B984C884DF80EE80FD800C8116
S11329101B81AA81B981CE0FD11D0FB6F894DEBFF9
S10F29200FBECDBFED010895F894FFCF69
S113292C0000000200000000080E0000000031311D
S113293C0000000000000000000000000000003156
S113294C32001A076CB2001A0741A6032A063D6D21
S113295C05C7033D1807C70303C308C90D1AD808D4
S113296CAE08128E0914081D0C0A60090ED70A5EF3
S10F297C081D390BB0040C040C2573007A
S9030000FC
