S012000072696B7469675F62696C2E73726563F2
S11300000C94E4070C9401080C9401080C94010866
S11300100C9401080C9401080C9401080C94C40A73
S11300200C9401080C9401080C9401080C94010828
S11300300C9401080C9401080C9401080C94010818
S11300400C9401080C9401080C94310B0C940108D5
S11300500C9401080C9401080C9401080C940108F8
S11300600C9401080C940108EF09F609FC09370AFD
S11300705B0A8E0A950A9C0AA10A090A0C0A0F0A4D
S1130080120A150A180A1B0A1E0A210A240AAE0AB1
S1130090AE0AAE0AAE0AAE0AAE0AAE0A270A2A0AA7
S11300A02D0A300A2A0E230E1C0E150E0E0E040EF7
S11300B0FA0DF30DEC0DA4D082430004010A978AD3
S11300C0430004017BD49243000401A4909B4300A9
S11300D00401A4D0A443000401719DAE43000401B3
S11300E0B8FEB8430004010000C44300040166A63E
S11300F0CF430004010000DC430004017B14E94306
S1130100000401A4F0F64300040100000000000113
S113011001A4D082430104010A978A430104017BAC
S1130120D49243010401A4909B43010401A4D0A4EC
S113013043010401719DAE43010401B8FEB84301BB
S113014004010000C44301040166A6CF4301040175
S11301500000DC430104017B14E943010401A4F021
S1130160F64301040100000000000101A4D0824311
S11301700204010A978A430204017BD492430204D5
S113018001A4909B43020401A4D0A443020401717E
S11301909DAE43020401B8FEB8430204010000C44A
S11301A04302040166A6CF430204010000DC4302BB
S11301B004017B14E943020401A4F0F643020401A0
S11301C000000000000101A4D082430304010A9747
S11301D08A430304017BD49243030401A4909B4308
S11301E0030401A4D0A443030401719DAE4303049A
S11301F001B8FEB8430304010000C44303040166CC
S1130200A6CF430304010000DC430304017B14E98B
S113021043030401A4F0F6430304010000000000BA
S11302200101A4D082430404010A978A430404010F
S11302307BD49243040401A4909B43040401A4D0FE
S1130240A443040401719DAE43040401B8FEB84301
S11302500404010000C44304040166A6CF4304045B
S1130260010000DC430404017B14E943040401A4F9
S1130270F0F64304040100000000000101A4D08250
S1130280430504010A978A430504017BD49243057C
S11302900401A4909B43050401A4D0A443050401D4
S11302A0719DAE43050401B8FEB843050401000086
S11302B0C44305040166A6CF430504010000DC43E2
S11302C00504017B14E943050401A4F0F643050485
S11302D00100000000000101A4D082430604010AC9
S11302E0978A430604017BD49243060401A4909B9D
S11302F043060401A4D0A443060401719DAE430641
S11303000401B8FEB8430604010000C44306040116
S113031066A6CF430604010000DC430604017B14F7
S1130320E943060401A4F0F64306040100000000BA
S1130330000101A4D082430704010A978A430704F9
S1130340017BD49243070401A4909B43070401A4B6
S1130350D0A443070401719DAE43070401B8FEB85D
S1130360430704010000C44307040166A6CF430702
S113037004010000DC430704017B14E94307040182
S1130380A4F0F64307040100000000000101A4D01A
S113039082430804010A978A430804017BD49243E8
S11303A0080401A4909B43080401A4D0A4430804B6
S11303B001719DAE43080401B8FEB843080401006E
S11303C000C44308040166A6CF430804010000DC0E
S11303D0430804017B14E943080401A4F0F643082C
S11303E004017B14E9430408010000000000080133
S11303F0A4D08243050801000000000008017BD45A
S11304009243051003A4909B43051003719DAE43D2
S1130410051002A4909B4305100300000000001087
S113042001A4909B43051001719DAE43051001A4E6
S1130430909B430508017BD4924305100300000000
S1130440000010017BD49243051001A4909B430546
S113045010017BD49243050801A4D0824305020114
S113046000000000000801719DAE4305080166A666
S1130470CF43050801719DAE43050801719DAE434C
S113048005100300000000001001719DAE4305102B
S1130490010000C44305100166A6CF43050801A46A
S11304A0D0824305100300000000001001A4D08294
S11304B0430510017BD49243051001A4909B43058E
S11304C008017BD49243050803A4D08243050801A4
S11304D07B14E9430402010000C443051003000037
S11304E000000010010000C44305100166A6CF43BC
S11304F00510010000C443050801719DAE430510B9
S11305000300000000001001719DAE4305100100BE
S113051000C443051001719DAE43050801A4909BDE
S113052043050201000000000008017B14E94304B4
S11305300801A4909B430508017B14E943050801C5
S113054066A6CF430510030000000000100166A654
S1130550CF430510017B14E94305100166A6CF4380
S11305600508010000C4430510030000000000104A
S1130570010000C44305100166A6CF430510010025
S113058000C4430508010A978A43050803A4909B05
S113059043050801719DAE430504010000C44304F2
S11305A0080166A6CF430408017B14E9430408014B
S11305B0000000000008047B14E943040801A4D0EF
S11305C082430408010A978A43040801A4D08243A1
S11305D0040801000000000008040000C4430408EB
S11305E001A4D082430408010000C4430408016646
S11305F0A6CF430408010000000000080466A6CF4B
S1130600430408010000C44304080166A6CF430460
S113061008010000C4430410037B14E943041001DF
S113062000000000000801A4909B4305080100009D
S1130630C4430402010000000000000000000000A8
S113064000000000000000000000000000000000A6
S11306500000000000000000000000000000000096
S11306600000000000000000000000000000000086
S11306700000000000000000000000000000000076
S11306800000000000000000000000000000000066
S11306900000000000000000000000000000000056
S11306A00000000000000000000000000000000046
S11306B00000000000000000000000000000000036
S11306C00000000000000000000000000000000026
S11306D00000000000000000000000000000000016
S11306E00000000000000000000000000000000006
S11306F000000000000000000000000000000000F6
S113070000000000000000000000000000007BD496
S113071092430508010000DC430408017BD49243A2
S11307200508010000DC430504010000C44305047E
S113073001B8FEB843050801A4D0A4430508010A82
S1130740978A43050803000000000002010A978A03
S1130750430508010000DC430408010A978A4305A5
S11307600801B8FEB843050401A4D0A4430504015C
S11307700A978A430508017BD49243050801B8FE11
S1130780B843050803000000000002017BD4924333
S11307900508010000DC430408017BD492430508EA
S11307A0010000DC430504010000C443050401B852
S11307B0FEB843050801A4D0A4430508010A978A9A
S11307C043050803000000000002010A978A43055C
S11307D008010000DC430408010A978A4305080164
S11307E0B8FEB843050401A4D0A4430504010A9744
S11307F08A430508017BD4924305020100000000EE
S1130800000201B8FEB8430502010000DC43050202
S1130810010000C4430508010000DC430508010091
S113082000C443050801B8FEB843050801A4D0A4D8
S1130830430502010A978A43050201A4D0A4430593
S11308400201B8FEB8430508010000C443050801CD
S1130850B8FEB843050801A4D0A4430508017BD41D
S11308609243050201B8FEB8430502010000DC43CF
S11308700502010000C443050801B8FEB843050899
S1130880010000C4430508010000DC43050801A47D
S1130890F0F6430502010000DC430504010000C436
S11308A043050801B8FEB8430508010000C4430528
S11308B00201B8FEB8430508010000C4430508015D
S11308C0B8FEB843050801A4D0A4430508017BD4AD
S11308D09243050201719DAE43050805A4D0A443CB
S11308E00508010000C443050801719DAE430508D5
S11308F001A4D082430508050000DC430408017B01
S113090014E943040801A4D08243050801A4D08259
S1130910430508037B14E9430408050000000000B4
S113092001010000C443050805B8FEB843050801E9
S11309300000DC430508010000C443050801719D63
S1130940AE43050803A4D0A4430504017BD4924319
S1130950050401A4D0A4430508017BD492430508EF
S113096003A4D0824305080500000000000101A48F
S1130970D08243060805A4F0F6430508017BD4920F
S113098043060801A4D082430608017B14E9430509
S113099008030000DC430508057B14E9430508054A
S11309A00000DC43050801A4D082430608017B143F
S11309B0E9430508010000DC430508030000C443C3
S11309C00508050000DC4305080566A6CF430508B5
S11309D0017B14E9430508010000DC43050801001C
S11309E000C443050803719DAE430508020000DC02
S11309F0430504010000C443050801719DAE43058D
S1130A000803A4D0A443050805719DAE430508035B
S1130A100000C443050805000000000000000000B9
S1130A2000000000000000000000000000000000C2
S1130A3000000000000000000000000000000000B2
S1130A4000000000000000000000000000000000A2
S1130A500000000000000000000000000000000092
S1130A600000000000000000000000000000000082
S1130A700000000000000000000000000000000072
S1130A800000DC430404017BD4924305040100000C
S1130A90DC430404017BD492430504010000DC43DD
S1130AA00404017BD492430504010000DC430408E0
S1130AB00166A6CF430408010000DC4304040100DE
S1130AC000DC4304080166A6CF430408010000DCEF
S1130AD0430408010000C4430408010000000000AE
S1130AE00801B8FEB8430408010000C44304080127
S1130AF0B8FEB843040801719DAE430402017BD4DF
S1130B009243040401000000000004010000DC43DF
S1130B100404017BD492430504010000DC43040473
S1130B20017BD492430504010000DC430404017BEF
S1130B30D492430504010000DC4304080166A6CFF7
S1130B40430408010000DC430404010000C443041E
S1130B5004010000C443040401B8FEB843040401C2
S1130B600000C443040401A4D082430504017B149F
S1130B70E9430404010000DC430404010000C4430D
S1130B800404010000DC430404017BD49243050403
S1130B90010000DC430404017BD4924305040100FA
S1130BA000DC430404017BD492430504010000DC0F
S1130BB04304080166A6CF430408010000DC430493
S1130BC00401A4D08243050401A4D0824305040196
S1130BD00000DC430404010000C443040401719DCB
S1130BE0AE430402017BD492430402017BD49243BA
S1130BF0040201719DAE430402010000DC430402BF
S1130C0001A4D08243050201A4909B430504017B07
S1130C10D4924305040166A6CF430408010000DC16
S1130C2043040401719DAE430408010000DC430445
S1130C300801000000000008010000DC4304080172
S1130C40A4D0824305040300000000000801000052
S1130C50C443040801A4D082430504010000C44332
S1130C600410030000DC43041001A4F0F643040460
S1130C7001A4D0A443040801A4D0A443040801009F
S1130C8000DC430404010000C443041003719DAE5E
S1130C90430410010000C443040401A4D0824304AB
S1130CA00801A4D082430408017BD49243040401C4
S1130CB07BD49243041003A4D0A443041001719D77
S1130CC0AE43040401719DAE430410030000C44309
S1130CD00410010000DC43040401A4F0F6430408FA
S1130CE001A4D082430508017BD492430508030084
S1130CF000C4430408010000C4430404010000C408
S1130D00430404010000C443040401A4909B43046D
S1130D1010037B14E9430410010000C443040401DC
S1130D20A4909B430410037B14E9430410010000C6
S1130D30C4430402017BD492430504017BD492434F
S1130D400504017BD49243050401A4909B43051040
S1130D50037B14E943041001B8FEB843040401A45E
S1130D60909B430410037B14E9430410010000C466
S1130D7043040401A4D0A4430402010000C44304B6
S1130D800401B8FEB8430404010000DC4304040178
S1130D900000C443040401B8FEB843040201A4D013
S1130DA0A44304010100000000000201A4F0F64382
S1130DB00404010A978A430504017BD49243050283
S1130DC0010A978A430504010000DC430404010A74
S1130DD0978A43050401A4F0F643040403000000C9
S1130DE000000401A4F0F6430304017BD4924304FD
S1130DF00401A4D0A4430404010000C44304040176
S1130E000000DC43040401B8FEB843040201A4D08A
S1130E10A4430404010000C443040401B8FEB8431D
S1130E20040401A4D0A443040401B8FEB843040498
S1130E30017BD49243040403A4D0A443040201B864
S1130E40FEB8430404010A978A430508017B14E9A8
S1130E50430408017B14E94304040166A6CF430458
S1130E600801B8FEB843040801B8FEB843040801F9
S1130E70A4F0F6430404017B14E9430408017B1441
S1130E80E94304080166A6CF4304080166A6CF43DC
S1130E90040801B8FEB843040401B8FEB8430408CA
S1130EA001B8FEB8430404010000DC430408010A4D
S1130EB0978A43050801000000000008010000DCD7
S1130EC04304080100000000000801B8FEB8430410
S1130ED008017BD492430420030000000000200199
S1130EE07BD49243042003000000000020017BD443
S1130EF092430420030000000000200100000000D1
S1130F0000080100000000000801000000000004C7
S1130F1001000000000008010A978A430408017BCD
S1130F20D49243040801B8FEB8430408010000DC6D
S1130F30430408010A978A430508010000000000E1
S1130F4008010000DC43040801000000000008015F
S1130F50B8FEB843040801A4D0A443050803A49030
S1130F609B430508017BD49243050401A4D082432A
S1130F70050801A4D0A443050801A4D0A44305088E
S1130F800100000000000801A4D0A44305080100EA
S1130F90000000000801A4D08243050801A4D0A4E5
S1130FA043050801000000000008010000C44305D7
S1130FB00801000000000004010000000000080116
S1130FC00000C4430408010011241FBECFEFD8E081
S1130FD0DEBFCDBF11E0A0E0B1E0E2EFFBE202C072
S1130FE005900D92A636B107D9F727E0A6E6B1E041
S1130FF001C01D92A43FB207E1F70E9408090C94B6
S1131000F7150C940000CF9381E70E9466080E94B4
S1131010A608C82F0E948D088C2FCF910895809127
S11310206601882359F080E70E9466088091680170
S11310300E9495080E948D0810926601089521E08F
S113104030E001C0220F8A95EAF780916801282BCD
S11310502093680181E080936601089521E030E0E7
S113106001C0220F8A95EAF7209580916801282310
S11310702093680181E0809366010895809368015C
S113108081E08093660108958091690190916A01DD
S1131090009729F0019790936A018093690108955C
S11310A081E02091690130916A01232B09F080E0ED
S11310B0089586E490E090936A018093690108950D
S11310C01092B90080E28093B800089524EA34E8CD
S11310D044E92093BC009091BC0097FFFCCF909111
S11310E0B900987F983011F0903199F78093BB0044
S11310F03093BC009091BC0097FFFCCF9091B90055
S1131100987F903211F0983539F44093BC00909157
S1131110BC0094FDFCCFDDCF089584E98093BC002E
S11311208091BC0084FDFCCF08958093BB0084E8CB
S11311308093BC008091BC0087FFFCCF9091B900E4
S1131140987F81E0983209F480E0089584E88093E0
S1131150BC008091BC0087FFFCCF8091BB00089548
S1131160CF93DF93CDB7DEB7E9970FB6F894DEBF20
S11311700FBECDBF1B8219828FEF8A831E828C83A0
S11311808D8319868F8388871C861A868B871F8692
S11311901D868E871A8A888B898B1D8A8B8B8C8BF4
S11311A0188E1E8A8F8BFE01319628E030E0CF0125
S11311B04FEF20FF04C0128E408F418F03C0428F37
S11311C0108E118E2F5F3F4F33962331310589F7EF
S11311D063E170E00E941310E9960FB6F894DEBF45
S11311E00FBECDBFDF91CF9108958DE78093B300FB
S11311F0E0EBF0E0808182608083E1EBF0E08081CD
S113120084608083E0E7F0E08081826080830895D9
S1131210CF93DF93CDB7DEB761970FB6F894DEBFF7
S11312200FBECDBF10929D0110929C0110929F01A0
S113123010929E0110926B0180916B0182608093E9
S11312406B0180E091E09093F1078093F0070E9496
S1131250120F0E94B40F2FEF84E39CE021508040D2
S11312609040E1F700C000000E94160F0E94D90FC1
S11312700E94730C0E949E0D0E9460080E94F50853
S11312808FEF0E943E080E94790B4098389A0E9482
S1131290B008789483E0EEE0F1E08E010F5F1F4F19
S11312A0D80101900D928A95E1F7FE0134968EE003
S11312B0DF011D928A95E9F70E945908C12CD12CAF
S11312C0E12CF12CAA24A394B12C30E2732E4AEF22
S11312D0842E912C0E940F080E945008882341F00C
S11312E00E94590888E2C82ED12C98E2E92EF12CEC
S11312F0C70101974B9710F481E001C080E00E9480
S11313006E0DC60101974B9710F481E001C080E097
S11313100E947E0D0E94030820919E0130919F013E
S1131320232B09F049C0FE01339622E030E090E01F
S1131330A501022E02C0440F551F0A94E2F7482368
S11313405923452B11F440E301C041E341932F5F3E
S11313503F4F2630310561F77F824AE0BE01685F66
S11313607F4FC7010E94DC12F80101900020E9F7C9
S11313703197E01BF10BD801AE0FB11D7C92EF5FEA
S1131380B8016E0F711DFB0110824AE0C6010E9474
S1131390DC12F80101900020E9F73197E01BF10B12
S11313A0C8018E0F911DFC011082C8010E94C60F56
S11313B090929F0180929E010E948F0F8BCF1F936A
S11313C0CF93DF93EA01862F90E0FC01F097E93098
S11313D0F10508F0C3C0EC5CFF4F0C94A91288EB34
S11313E09BE090939D0180939C01B8C040E260E132
S11313F0CE010E94A60FB2C0E8818E2F90E0FC01BE
S1131400F097E531F10508F0A9C0E35CFF4F0C94B7
S1131410A9120E94000F26C00E945E0E9FC00E9467
S1131420030F20C00E94FA0E1DC00E94FD0E1AC0B8
S11314300E94F40E17C00E94F10E14C00E94F70E11
S113144011C00E94EB0E0EC00E94060F0BC00E943A
S1131450090F08C00E940C0F05C00E94EE0E02C0C6
S11314600E940F0F0E94410E0E944E0E77C0888189
S1131470882309F485C00E946C0C882309F46EC08B
S113148080E091E0980FFE01E90FF11D20812032E8
S113149011F0892FF6CF10828E5F9E01280F311D27
S11314A0C9010E94AF12182FCE010E94AF12612F02
S11314B00E94CD0C53C08881813379F030F480339D
S11314C0A9F48091C8018E7F0FC0823351F0833319
S11314D069F48091C801826007C08091C80181606D
S11314E003C08091C8018D7F8093C8018091C80199
S11314F0882311F0833049F480916B0182608093DA
S11315006B0181E00E941F0829C080916B018D7FCF
S113151080936B0181E00E942E0820C080916B01B2
S1131520816080936B01409A19C080916B018E7F1A
S113153080936B01409812C08FE191E00E94C60F26
S11315400DC08881803329F0813341F40E94790BE6
S113155005C00E946C0C81110E946F0C80916B017C
S1131560882341F081E00E948E0DDF91CF911F917D
S11315700C94790B80E0DF91CF911F910C948E0D28
S1131580DF91CF911F9108951F920F920FB60F9282
S113159011242F933F934F935F936F937F938F9374
S11315A09F93AF93BF93EF93FF9380919C0190918E
S11315B09D01892B31F480916B01846080936B01D0
S11315C00EC080916B018B7F80936B0180919C0195
S11315D090919D01019790939D0180939C0180912E
S11315E06B01882331F081E00E948E0D0E94790BFB
S11315F003C080E00E948E0D0E94660E81110E943D
S1131600690E80919E0190919F01892B49F08091F0
S11316109E0190919F01019790939F0180939E0159
S11316200E9444080E94190C0E946C0C811103C092
S11316300E942E0803C080E00E941F080E94910CA3
S1131640FF91EF91BF91AF919F918F917F916F9196
S11316505F914F913F912F910F900FBE0F901F906C
S113166018951F920F920FB60F9211242F933F9348
S11316704F935F936F937F938F939F93AF93BF9396
S1131680EF93FF93E0916701F0E08091C600E0568C
S1131690FE4F8083E0916701F0E0E056FE4F8081C9
S11316A08A3089F4E0916701F0E0E056FE4F108241
S11316B06091A1018091A00142EA51E00E94DF09FA
S11316C01092670105C0809167018F5F8093670165
S11316D0FF91EF91BF91AF919F918F917F916F9106
S11316E05F914F913F912F910F900FBE0F901F90DC
S11316F0189581E08093AC071092CB011092A90752
S11317001092AE071092AD071092AB071092AA0781
S11317101092CA011092C9018093CC0108958111DD
S113172002C0662381F0E091AA07F091AB079F0104
S1131730220F331FE20FF31FE353FE4F80836183B5
S113174081E08093CB0108958091CB01882309F433
S113175045C08091AA079091AB07FC01EE0FFF1FD3
S1131760E80FF91FE353FE4F2091A90722839093BA
S1131770CA018093C9014091AD075091AE07833FE0
S113178021E0920769F4452B31F481E090E09093D5
S1131790AE078093AD071092AB071092AA0718C04A
S11317A09C012F5F3F4F2417350771F4233F41E01D
S11317B0340729F41092AE071092AD0705C00296C3
S11317C09093AE078093AD073093AB072093AA079D
S11317D01092A9071092CB011092CC010895E091C8
S11317E0AA07F091AB07CF01880F991FE80FF91FE3
S11317F0E353FE4F61816195808181950E94CD0CF8
S11318008091AA079091AB07FC01EE0FFF1FE80F30
S1131810F91FE353FE4F22812093A907009719F47F
S113182083EF91E001C001979093AB078093AA07DF
S113183008958091AC07882301F18091CB0188231E
S1131840C9F08091A9078F5F8093A9078F3F09F0A2
S113185042C00E94A40BE091C901F091CA01CF01DA
S1131860880F991FE80FF91FE353FE4F61818081B0
S11318700C948F0B1092A90708958091A9078823CF
S113188019F081508093A9078091A907811123C081
S11318908091CC01811110C02091AA073091AB072F
S11318A08091AD079091AE072817390719F481E0AC
S11318B08093CC010C94EF0B0E94790B60E080E0E4
S11318C00E94CD0C80E00E948E0D80E00E946E0D7F
S11318D080E00C947E0D08958091AC0708951092D9
S11318E0AC070C94A40B8AB180668AB9269A279A0D
S11318F02E9A2F9A209A579A289A5F9A84B5836AC7
S113190084BD85B5816085BD17BC18BC1092B40731
S11319101092B1071092AF071092B0071092B3075C
S113192008958091B207882391F08091B6078111C0
S11319300EC08091B407082E000C990B97FF03C0CA
S1131940919581959109880F88BD1092B207809175
S1131950B507882391F08091B60781110EC080915C
S1131960B107082E000C990B97FF03C09195819540
S11319709109880F87BD1092B5078091B207811134
S113198004C08091B507882339F08091B607882375
S113199019F081508093B6070895CF93DF93D82F21
S11319A0C62F0E946C0C882371F1D7FF03C080916D
S11319B0B00704C0DD2321F08091AF07811103C07B
S11319C08091B3078111D0E0C7FF03C08091B007B5
S11319D004C0CC2321F08091AF07811103C0809112
S11319E0B3078111C0E089E08D0F833108F4D0E0A2
S11319F089E08C0F833108F4C0E00E94A40B6C2FA3
S1131A008D2F0E948F0B1D161CF42E9A2F9808C040
S1131A10DD2319F02E982F9A03C02E9A2F9ADFE710
S1131A201C161CF4289A5F9808C0CC2319F0289837
S1131A305F9A03C0289A5F9ACFE728B58D2F0D2EA1
S1131A40000C990B211119C0D35EDB33B0F49C0157
S1131A5097FF04C022273327281B390B2115310592
S1131A6061F08FEF88BD220F2093B40781E080934B
S1131A70B20784E18093B60707C097FF03C091952E
S1131A8081959109880F88BD27B58C2F0C2E000CE9
S1131A90990B211119C0C35ECB33B0F49C0197FF9D
S1131AA004C022273327281B390B2115310561F087
S1131AB08FEF87BD220F2093B10781E08093B50794
S1131AC084E18093B60707C097FF03C09195819581
S1131AD09109880F87BDDF91CF9108959091AF0749
S1131AE0911109C0882339F081E08093AF0760E049
S1131AF080E00C94CD0C8093AF0708959091B007CB
S1131B00911109C0882339F081E08093B00760E027
S1131B1080E00C94CD0C8093B00708959091B307A6
S1131B20911109C0882339F081E08093B30760E004
S1131B3080E00C94CD0C8093B307089580E48093E7
S1131B408000E1E8F0E08081886080832198089536
S1131B5021980895CF92DF92EF92FF92CF93C42FF2
S1131B6020E030E040E853E40E94DB119B01AC012B
S1131B7060E074E284EF9AE40E9488106B017C01B7
S1131B806C2F70E080E090E00E942B119B01AC016F
S1131B90C701B6010E94DB1120E030E040E85FE3BA
S1131BA00E9416100E9448120E94FA10CB01CF9195
S1131BB0FF90EF90DF90CF9008950F931F93042F21
S1131BC010E00930110508F059C0F801EE5AFF4F32
S1131BD0209181000C94A91222602093810020910D
S1131BE081002A7F17C02260209381002091810008
S1131BF02A7F36C0226020938100209181002A7FB1
S1131C002093810044E02FC0236020938100209121
S1131C1081002B7F2093810041E025C02360209325
S1131C208100209181002B7F1BC0246020938100C0
S1131C30209181002C7FEECF24602093810020919D
S1131C4081002C7F0DC025602093810020918100AC
S1131C502D7FE0CF256020938100209181002D7F8E
S1131C602093810042E00E94AA0D90938900809302
S1131C7088001092850010928400219A1F910F9180
S1131C8008959093BB078093BA071092B7071092F8
S1131C90B6071092B8071092B90708958091BA0751
S1131CA09091BB07892B49F01092B80781E080938B
S1131CB0B9071092B7071092B60708951092B907A2
S1131CC01092BB071092BA070C94A80D8091B90723
S1131CD00895CF92DF92EF92FF921F93CF93DF93F9
S1131CE08091B907882309F46EC08091B60790915A
S1131CF0B707009729F001979093B7078093B60729
S1131D00E091BA07F091BB072091B8073281809126
S1131D10B6079091B70732130BC0009749F4DF91CF
S1131D20CF911F91FF90EF90DF90CF900C945E0EB7
S1131D308530910549F4DF91CF911F91FF90EF9089
S1131D40DF90CF900C94A80D892B09F03CC08381BF
S1131D50948137E0239F800D911D1124FC01C590CF
S1131D60D590E590F490FC01349614913196D49179
S1131D703196C49120E030E0A901C701B6010E9468
S1131D808310882331F0412FC701B6010E94DD0D75
S1131D9002C00E94A80DE091BA07F091BB076D2F15
S1131DA070E0808191810E949512C69FC001C79FF7
S1131DB0900D11249093B7078093B6078091B807CC
S1131DC08F5F8093B807DF91CF911F91FF90EF90C1
S1131DD0DF90CF9008958EE591E0089589E591E034
S1131DE0089584E591E008958FE491E008958AE4EC
S1131DF091E0089585E491E0089580E491E00895E8
S1131E008BE391E0089586E391E0089581E391E006
S1131E1008958CE291E0089587E291E0089582E2CA
S1131E2091E00895229A399A2A9A08958CB581608E
S1131E308CBD8CB58D7F8CBD2A9889E30E94C10F1F
S1131E4080E58A95F1F78DE10E94C10F90E59A959E
S1131E50F1F780E50E94C10F80E58A95F1F78CE6E1
S1131E600E94C10F90E59A95F1F78CE70E94C10F8B
S1131E7080E58A95F1F788E30E94C10F90E59A9571
S1131E80F1F78CE00E94C10F80E58A95F1F781E0BB
S1131E900E94C10F8FEC97E00197F1F700C000009A
S1131EA086E00E94C10F8FE39FE10197F1F700C024
S1131EB00000419A2A9A80E090E020E2FC01E45478
S1131EC0F84F2083019680339105C1F71092EC07F7
S1131ED01092ED0708959CB591609CBD9CB59D7FC3
S1131EE09CBD2A980E94C10F80E58A95F1F72A9A31
S1131EF080E090E008958CB581608CBD8CB58D7FB9
S1131F008CBD41982A9881E00E94C10F8FE39FE124
S1131F100197F1F700C00000419A2A9A0895809130
S1131F20ED07882391F00E947B0F8CEB97E09F9341
S1131F308F9383E691E09F938F930E9409131092ED
S1131F40ED070F900F900F900F900895242F462FB8
S1131F5050E030E0BC01C9018454984F0E94CD1276
S1131F6081E08093ED07089584B1886284B98CB5CB
S1131F7080658CBD8DB581608DBD8CB5837F8CBD36
S1131F8008958EBD0DB407FEFDCF0895FC01919117
S1131F90992339F08091C00085FFFCCF9093C6004F
S1131FA0F6CF8091C00085FFFCCF8AE08093C60005
S1131FB0089583E390E09093C5008093C40088E97A
S1131FC08093C10086E08093C20008952AB1242B37
S1131FD02AB92BB1342F309523233BB1432B3FB780
S1131FE0F894FC01680F791FE617F70761F08191F7
S1131FF098E04BB987FF2BB9880F000007F42BB981
S11320009A95B9F7F1CF3FBF08959B01220F331F73
S1132010620F731F0E94E60F87E592E00197F1F7C4
S113202000C00000089540E10C9405105058BB27EF
S1132030AA270E942E100C94A1110E94931138F02B
S11320400E949A1120F039F49F3F19F426F40C945D
S113205090110EF4E095E7FB0C948A11E92F0E948D
S1132060B21158F3BA17620773078407950720F073
S113207079F4A6F50C94D4110EF4E0950B2EBA2F36
S1132080A02D0B01B90190010C01CA01A00111247A
S1132090FF27591B99F0593F50F4503E68F11A1626
S11320A0F040A22F232F342F4427585FF3CF4695B7
S11320B037952795A795F0405395C9F77EF41F16D9
S11320C0BA0B620B730B840BBAF09150A1F0FF0FA3
S11320D0BB1F661F771F881FC2F70EC0BA0F621F8F
S11320E0731F841F48F4879577956795B795F7957F
S11320F09E3F08F0B0CF9395880F08F09927EE0F14
S11321009795879508950E94661108F481E00895D3
S11321100E949C100C94A1110E949A1158F00E94E4
S1132120931140F029F45F3F29F00C948A11511166
S11321300C94D5110C9490110E94B21168F3992358
S1132140B1F3552391F3951B550BBB27AA276217AF
S11321507307840738F09F5F5F4F220F331F441FBC
S1132160AA1FA9F335D00E2E3AF0E0E832D09150F0
S11321705040E695001CCAF72BD0FE2F29D0660FDD
S1132180771F881FBB1F261737074807AB07B0E820
S113219009F0BB0B802DBF01FF2793585F4F3AF026
S11321A09E3F510578F00C948A110C94D5115F3F31
S11321B0E4F3983ED4F3869577956795B795F795AC
S11321C09F5FC9F7880F911D9695879597F9089594
S11321D0E1E0660F771F881FBB1F62177307840730
S11321E0BA0720F0621B730B840BBA0BEE1F88F73F
S11321F0E09508950E94BA1188F09F5798F0B92F7E
S11322009927B751B0F0E1F0660F771F881F991F27
S11322101AF0BA95C9F714C0B13091F00E94D411E4
S1132220B1E008950C94D411672F782F8827B85FF4
S113223039F0B93FCCF3869577956795B395D9F77F
S11322403EF490958095709561957F4F8F4F9F4F89
S11322500895E89409C097FB3EF490958095709595
S113226061957F4F8F4F9F4F9923A9F0F92F96E9DE
S1132270BB279395F695879577956795B795F11153
S1132280F8CFFAF4BB0F11F460FF1BC06F5F7F4FF0
S11322908F4F9F4F16C0882311F096E911C0772302
S11322A021F09EE8872F762F05C0662371F096E80B
S11322B0862F70E060E02AF09A95660F771F881FDA
S11322C0DAF7880F9695879597F90895990F00087E
S11322D0550FAA0BE0E8FEEF16161706E807F907F4
S11322E0C0F012161306E407F50798F0621B730B8F
S11322F0840B950B39F40A2661F0232B242B252B10
S113230021F408950A2609F4A140A6958FEF811DB2
S1132310811D089597F99F6780E870E060E0089553
S11323209FEF80EC089500240A94161617061806E9
S11323300906089500240A941216130614060506C5
S11323400895092E0394000C11F4882352F0BB0F56
S113235040F4BF2B11F460FF04C06F5F7F4F8F4FB9
S11323609F4F089557FD9058440F551F59F05F3FF4
S113237071F04795880F97FB991F61F09F3F79F0A3
S113238087950895121613061406551FF2CF469525
S1132390F1DF08C0161617061806991FF1CF8695A7
S11323A07105610508940895E894BB27662777278B
S11323B0CB0197F908950E94EE110C94A1110E948B
S11323C0931138F00E949A1120F0952311F00C9487
S11323D08A110C94901111240C94D5110E94B211FD
S11323E070F3959FC1F3950F50E0551F629FF00164
S11323F0729FBB27F00DB11D639FAA27F00DB11D7D
S1132400AA1F649F6627B00DA11D661F829F222705
S1132410B00DA11D621F739FB00DA11D621F839F8C
S1132420A00D611D221F749F3327A00D611D231F62
S1132430849F600D211D822F762F6A2F11249F57B0
S113244050409AF0F1F088234AF0EE0FFF1FBB1FB3
S1132450661F771F881F91505040A9F79E3F510572
S113246080F00C948A110C94D5115F3FE4F3983EEC
S1132470D4F3869577956795B795F795E7959F5F1C
S1132480C1F7FE2B880F911D9695879597F90895AE
S11324900E94BA11E8F09E37E8F09639B8F49E38F5
S11324A048F4672F782F8827985FF9CF869577951A
S11324B0679593959539D0F3B62FB1706B0F711D55
S11324C0811D20F487957795679593950C946C12EC
S11324D00C9487120C94D511882371F4772321F07E
S11324E09850872B762F07C0662311F499270DC0C7
S11324F09051862B70E060E02AF09A95660F771F62
S1132500881FDAF7880F9695879597F908959F3F66
S113251031F0915020F4879577956795B795880F9A
S1132520911D9695879597F90895AA1BBB1B51E1B8
S113253007C0AA1FBB1FA617B70710F0A61BB70B2F
S1132540881F991F5A95A9F780959095BC01CD01D4
S11325500895EE0FFF1F0590F491E02D0994FC01FE
S113256088279927E89421912032E9F3293010F043
S11325702E30C8F32B3241F02D3239F4689404C064
S11325800E94E712820F911D219120532A30C0F33B
S11325901EF4909581959F4F0895FB01DC014150F5
S11325A0504048F001900D920020C9F701C01D92DF
S11325B041505040E0F70895BB274A3031F4992345
S11325C022F4BDE2909581959F4F0C94F0127AE02D
S11325D0979F902D879F802D910D11240895BB27DF
S11325E0FB015527AA27880F991FAA1FA41710F0CB
S11325F0A41B83955051B9F7A05DAA3308F0A95DD7
S1132600A193009779F7B111B1931192CB010C9476
S11326101615A0E0B0E0EFE0F3E10C94D015AE01A4
S11326204B5F5F4FFA0161917191AF018091F007A7
S11326309091F1070E941F13E2E00C94EC15ABE0BB
S1132640B0E0E5E2F3E10C94C0156C017B018A0172
S1132650FC0117821682838181FFCCC1CE010196D1
S11326603C01F6019381F70193FD859193FF8191DC
S11326707F01882309F4BAC1853239F493FD859129
S113268093FF81917F01853229F4B60190E00E9485
S11326902615E7CF912C212C312CFFE1F315D8F02E
S11326A08B3279F038F4803279F08332A1F4232D1F
S11326B020611DC08D3261F0803369F4232D2160C7
S11326C016C0832D8260382EE32DE4603E2E2AC08E
S11326D0F32DF8601DC037FC2DC020ED280F2A30E3
S11326E040F08E32B9F436FC81C1232D2064322EA1
S11326F019C036FE06C08AE0989E200D1124922E41
S113270011C0EAE02E9E200D1124222EF32DF0623A
S11327103F2E08C08C3621F4832D8068382E02C0E9
S1132720883641F4F70193FD859193FF81917F01F0
S11327308111B3CF982F9F7D9554933028F40C5F6B
S11327401F4F9FE399830DC0833631F0833771F0B7
S1132750833509F059C021C0F801808189830E5F57
S11327601F4F88248394912C530113C02801F2E055
S11327704F0E511CF801A080B18036FE03C0692DB4
S113278070E002C06FEF7FEFC5010E940B154C0192
S11327908201F32DFF773F2E16C0280122E0420E5E
S11327A0511CF801A080B18036FE03C0692D70E091
S11327B002C06FEF7FEFC5010E9400154C01F32D9D
S11327C0F0683F2E820133FC1BC0822D90E08816F6
S11327D09906B0F4B60180E290E00E9426152A948E
S11327E0F4CFF50137FC859137FE81915F01B60185
S11327F090E00E94261521102A9421E0821A910863
S11328008114910471F7E8C0843611F0893641F5DA
S1132810F80137FE07C060817181828193810C5F6A
S11328201F4F08C060817181072E000C880B990B23
S11328300E5F1F4FF32DFF763F2E97FF09C0909533
S11328408095709561957F4F8F4F9F4FF0683F2E15
S11328502AE030E0A3010E946215882E861845C044
S1132860853731F4232D2F7EB22E2AE030E025C0A7
S1132870932D997FB92E8F36C1F018F4883579F0ED
S1132880B5C0803719F0883721F0B0C0E92FE06176
S1132890BE2EB4FE0DC0FB2DF460BF2E09C034FE65
S11328A00AC0292F2660B22E06C028E030E005C0F9
S11328B020E130E002C020E132E0F801B7FE07C0B9
S11328C060817181828193810C5F1F4F06C060819A
S11328D0718180E090E00E5F1F4FA3010E9462159A
S11328E0882E8618FB2DFF773F2E36FE0DC0232D34
S11328F02E7FA22E891458F434FE0BC032FC09C07A
S1132900832D8E7EA82E05C0B82CA32C03C0B82C12
S113291001C0B92CA4FE0FC0FE01E80DF11D808199
S1132920803321F49A2D997EA92E09C0A2FE06C0F7
S1132930B394B39404C08A2D867809F0B394A3FCAD
S113294011C0A0FE06C0B21488F4280C922C9B1867
S11329500EC0B21460F4B60180E290E00E94261525
S1132960B394F7CFB21418F42B1802C0982C212C6E
S1132970A4FE10C0B60180E390E00E942615A2FEDA
S113298017C0A1FC03C088E790E002C088E590E08E
S1132990B6010CC08A2D867859F0A1FE02C08BE2E4
S11329A001C080E2A7FC8DE2B60190E00E942615EA
S11329B0891438F4B60180E390E00E9426159A94B5
S11329C0F7CF8A94F301E80DF11D8081B60190E000
S11329D00E9426158110F5CF222009F442CEB601BB
S11329E080E290E00E9426152A94F6CFF6018681B3
S11329F0978102C08FEF9FEF2B96E2E10C94DC15D8
S1132A00FC010590615070400110D8F780959095B5
S1132A108E0F9F1F0895FC016150704001900110BA
S1132A20D8F7809590958E0F9F1F0895DC01FC01C7
S1132A30672F71917723E1F7329704C07C916D93EE
S1132A4070836291AE17BF07C8F308950F931F9365
S1132A50CF93DF93FB01238121FD03C08FEF9FEF11
S1132A602CC022FF16C0468157812481358142172C
S1132A70530744F4A081B1819D012F5F3F4F3183FF
S1132A8020838C93268137812F5F3F4F37832683A2
S1132A9014C08B01EC01FB010084F185E02D099544
S1132AA0892BE1F6D80116968D919C911797019682
S1132AB017969C938E931697CE01DF91CF911F9119
S1132AC00F910895FA01AA27283051F1203181F19C
S1132AD0E8946F936E7F6E5F7F4F8F4F9F4FAF4F22
S1132AE0B1E03ED0B4E03CD0670F781F891F9A1F35
S1132AF0A11D680F791F8A1F911DA11D6A0F711DE9
S1132B00811D911DA11D20D009F468943F912AE0F4
S1132B10269F11243019305D3193DEF6CF010895DC
S1132B20462F4770405D4193B3E00FD0C9F7F6CF0D
S1132B30462F4F70405D4A3318F0495D31FD4052D5
S1132B40419302D0A9F7EACFB4E0A695979587956B
S1132B5077956795BA95C9F700976105710508954A
S1132B609B01AC010A2E06945795479537952795F6
S1132B70BA95C9F7620F731F841F951FA01D08958E
S1132B802F923F924F925F926F927F928F929F9279
S1132B90AF92BF92CF92DF92EF92FF920F931F9367
S1132BA0CF93DF93CDB7DEB7CA1BDB0B0FB6F89418
S1132BB0DEBF0FBECDBF09942A88398848885F8458
S1132BC06E847D848C849B84AA84B984C884DF80C9
S1132BD0EE80FD800C811B81AA81B981CE0FD11DAD
S1132BE00FB6F894DEBF0FBECDBFED010895F89483
S1052BF0FFCF11
S1132BF200000002000000006B0F000000003131F1
S1132C02000000000000000000000000000000318D
S1132C123200DC0574B6001A0774E2031A07410E87
S1132C22072A063DD508C7033D800AC703032B0CB8
S1132C32C90D1A400CAE0812F60C14081D740D606E
S1132C42090E3F0E5E081DA10EC703016C0FB004EE
S1092C520C730F25730052
S9030000FC
