S012000072696B7469675F62696C2E73726563F2
S11300000C944D000C9452030C945C030C946A0001
S11300100C946A000C946A000C946A000C946603B5
S11300200C946A000C946A000C946A000C946A00A4
S11300300C946A000C946A000C946A000C946A0094
S11300400C946A000C946A000C94C1030C946A002A
S11300500C946A000C946A000C946A000C946A0074
S11300600C946A000C946A001F0126012C015F01A4
S11300707E01CC01D501DE0139013E014301480175
S11300804D01520157015C0174056A05600556056E
S11300904C05420538052E05240511241FBECFEF5B
S11300A0D8E0DEBFCDBF11E0A0E0B1E0E8EAFAE2BB
S11300B002C005900D92AA31B107D9F722E0AAE156
S11300C0B1E001C01D92A430B207E1F70E94FA0129
S11300D00C9452150C940000CF9381E70E94C30046
S11300E00E940401C82F0E94EA008C2FCF9108952A
S11300F0CF93C82F80E70E94C300C0931C018C2FAC
S11301000E94F2000E94EA00CF91089521E030E0BD
S113011002C0220F331F8A95E2F780911C01822BC3
S11301200E947800089521E030E002C0220F331FBE
S11301308A95E2F7209580911C0182230E94780021
S1130140089580911D0190911E01009729F0019757
S113015090931E0180931D01089520911D013091FB
S11301601E0181E0232B09F080E008958CEB92E0DE
S113017090931E0180931D0108951092B90080E2AE
S11301808093B800089594EA9093BC009091BC00C9
S11301909923E4F79091B900987F983011F0903149
S11301A091F78093BB0094E89093BC009091BC00BD
S11301B09923E4F79091B900987F903211F0983523
S11301C041F494E99093BC009091BC0094FDFCCF61
S11301D0DACF089584E98093BC008091BC0084FD4B
S11301E0FCCF08958093BB0084E88093BC00809189
S11301F0BC008823E4F78091B900887F883211F02D
S113020081E0089580E0089584E88093BC008091A3
S1130210BC008823E4F78091BB0008950F931F93DB
S1130220CF93DF93062F10E0F801F097E830F10543
S113023008F0C8C0EA01EC5CFF4F0C949E1080E308
S113024095E79093510180935001BCC040E260E176
S1130250CE010E94B10DB6C0E8818E2F90E0FC0162
S1130260F097E830F10508F0ADC0E45CFF4F0C9462
S11302709E100E947B090E94ED05A4C00E941E0AE4
S11302800E94ED059FC00E9493080E94ED059AC04C
S11302900E94190B0E94ED0595C00E948B0B0E94D1
S11302A0ED0590C00E94060C0E94ED058BC00E94D3
S11302B09C060E94ED0586C00E94FD0583C08881CE
S11302C0882309F47FC090E001C0982F81E0890F52
S11302D0FE01E80FF11D20812032B9F79E5F1082E4
S11302E09E01290F311DC9010E940312182FCE014E
S11302F00E940312612F0E94410464C088818133EB
S113030079F018F4803331F01CC0823379F08333F0
S113031099F017C08091B7018E7F8093B70111C007
S11303208091B70181608093B7010BC08091B701C0
S11303308D7F8093B70105C08091B701826080935F
S1130340B7018091B701882319F0833069F018C090
S113035080911F01826080931F0181E00E948600CA
S113036080E00E9486002EC080911F0182608093ED
S11303701F0181E00E94860080E00E94930022C059
S113038080911F018D7F80931F0181E00E94930063
S113039080E00E94860016C080911F0181608093D6
S11303A01F0188B1816088B90DC080911F018E7FC3
S11303B080931F0188B18E7F88B904C084E191E0E5
S11303C00E94D10DDF91CF911F910F91089584E682
S11303D08093B300E0EBF0E0808182608083E1EB06
S11303E0F0E0808182608083E0E7F0E080818260D9
S11303F080830895CF93DF93CDB7DEB761970FB6AF
S1130400F894DEBF0FBECDBF10928D011092510142
S113041010925001109253011092520110921F0138
S113042080911F01826080931F0186E091E0909388
S11304300102809300020E94040D0E94BF0D2FEF61
S113044044E35CE0215040405040E1F700C000002C
S11304500E940E0D0E94F00D0E94E80D0E940B04F4
S11304600E94D6040E94BD000E94E7018FEF0E9403
S1130470780088B18E7F88B987B1816087B9E4E557
S1130480F1E0128210828FEF81831582838384834B
S11304901086868387831386118682871686148640
S11304A08587118A8787808B148A828B838B178A2E
S11304B0158A868B88E090E026C09C0121703078F4
S11304C0332334F4215031092E6F3F6F2F5F3F4F98
S11304D02130310561F4FC01EE0FFF1FE80FF91F15
S11304E0EC5AFE4F12822FEF208321830BC0FC01B4
S11304F0EE0FFF1FE80FF91FEC5AFE4F2FEF228378
S113050010821182019683319105BCF263E170E09F
S113051084E591E00E94FD0D789481E391E39A8350
S113052089831C821B82FE0135968DE0DF011D92BA
S11305308A95E9F70E94B6000E94AD0081110E94DD
S1130540B6008091B60181608093B601E4E5F1E0E4
S11305508FEF8283108211828583138214828087B5
S1130560168217828387118612869091B601926053
S11305709093B601868714861586818B1786108A18
S1130580848B128A138A878B158A168A63E170E03A
S1130590CF010E94FD0D0E946C0020915201309108
S11305A05301232BF1F05AC0E92FF0E021E030E0B1
S11305B0092E02C0220F331F0A94E2F7482F50E09D
S11305C0242335231216130614F421E301C020E377
S11305D041E050E04C0F5D1FE40FF51F20839F5F47
S11305E001C092E0963000F36894FF24F5F8FF828E
S11305F04AE0BE01685F7F4F81E190E00E943712BC
S11306008E010F5F1F4FF80101900020E9F7319729
S1130610E01BF10BD801AE0FB11DFC92EF5FB801E6
S11306206E0F711DDB011C924AE081E190E00E9493
S11306303712F80101900020E9F73197E01BF10B24
S1130640A8014E0F511DFA011082C8010E94D10D5C
S113065084EC99E0909353018093520180911F019F
S1130660882321F081E00E94C60403C080E00E9438
S1130670C6048091B60180FF04C081E00E94A604F4
S113068003C080E00E94A6048091B60181FF04C0EB
S113069081E00E94B60403C080E00E94B6040E9478
S11306A09A0D4ACF1F920F920FB60F9211240F90FA
S11306B00FBE0F901F9018951F920F920FB60F92B6
S11306C011240F900FBE0F901F9018951F920F9238
S11306D00FB60F9211242F933F934F935F936F9311
S11306E07F938F939F93AF93BF93EF93FF938091E7
S11306F0500190915101892B71F080911F018B7FE2
S113070080931F0180915001909151010197909322
S11307105101809350010E940C06882331F080918E
S11307208D018F5F80938D0102C010928D018091A5
S11307308D018A3021F40E940F0610928D01809160
S1130740520190915301892B49F08091520190916B
S11307505301019790935301809352010E94A10089
S1130760FF91EF91BF91AF919F918F917F916F9185
S11307705F914F913F912F910F900FBE0F901F905B
S113078018951F920F920FB60F9211242F933F9337
S11307904F935F936F937F938F939F93AF93BF9385
S11307A0EF93FF93E0911A01F0E08091C600E257C5
S11307B0FE4F8083E0911A01F0E0E257FE4F808102
S11307C08A3099F4E0911A01F0E0AEE8B1E0E25722
S11307D0FE4F108211966C9111978C9140E951E073
S11307E00E940E0110921A0105C080911A018F5FB8
S11307F080931A01FF91EF91BF91AF919F918F91D7
S11308007F916F915F914F913F912F910F900FBE08
S11308100F901F9018958AB180668AB984B180645C
S113082084B984B1806884B985B1806485B985B19F
S1130830806885B984B1816084B98AB180688AB9D5
S113084085B1816085B98BB180688BB984B5836AC1
S113085084BD85B5816085BD17BC18BC1092BC01F0
S11308601092BA018DB383608DBBE9E6F0E080811C
S11308708A6080831092B8011092B9011092BB0172
S1130880089518167CF49091B80191110BC09091C1
S1130890BB01911107C095B1906495B995B19F774B
S11308A095B917C088237CF49091B90191110BC0BC
S11308B09091BB01911107C095B19F7B95B995B1FA
S11308C0906895B906C095B19F7B95B995B19F770E
S11308D095B916167CF49091B80191110BC09091C2
S11308E0BB01911107C095B1916095B99BB19F77F8
S11308F09BB917C066237CF49091B90191110BC088
S11309009091BB01911107C095B19E7F95B99BB1A0
S113091090689BB906C095B19E7F95B99BB19F77AE
S11309209BB9082E000C990B99231CF49195819581
S11309309109880F88BD062E000C770B77231CF4D1
S1130940719561957109660F67BD08959091B8011D
S1130950911109C0882339F08093B80160E080E0E8
S11309600E94410408958093B80108959091B901BB
S1130970911109C0882339F08093B90160E080E0C7
S11309800E94410408958093B90108959091BB0198
S1130990911109C0882339F08093BB0160E080E0A5
S11309A00E94410408958093BB01089580E48093DC
S11309B08000E1E8F0E080818860808384B18D7FED
S11309C084B9089584B18D7F84B90895CF92DF925C
S11309D0EF92FF92CF93C42F20E030E040E853E43D
S11309E00E94C50F9B01AC0160E074E284EF9AE4BD
S11309F00E94960E6B017C016C2F70E080E090E009
S1130A000E94390FA70196010E94C50F20E030E033
S1130A1040E85FE30E94290E0E9432100E94080FF2
S1130A20862FCF91FF90EF90DF90CF9008950F9392
S1130A301F93042F10E00930110508F06CC0F80171
S1130A40EC5BFF4F0C949E10E1E8F0E02081226003
S1130A50208320812A7F208341E04FC0E1E8F0E039
S1130A6020812260208320812A7F208342E045C0A8
S1130A70E1E8F0E020812260208320812A7F208326
S1130A8044E03BC0E1E8F0E0208123602083208142
S1130A902B7F208341E031C0E1E8F0E02081236036
S1130AA0208320812B7F208342E027C0E1E8F0E00F
S1130AB020812460208320812C7F208341E01DC07D
S1130AC0E1E8F0E020812460208320812C7F2083D2
S1130AD042E013C0E1E8F0E020812560208320811A
S1130AE02D7F208341E009C0E1E8F0E0208125600A
S1130AF0208320812D7F208342E00E94E60490E041
S1130B00909389008093880010928500109284004D
S1130B1084B1826084B91F910F910895CF93DF93BC
S1130B20D82FC62F68E070E090E00E94C610909322
S1130B30C5018093C4012C2F30E040E050E060E612
S1130B407AEE80E090E00E947F10CA01B9010E9411
S1130B50390F6093BD017093BE018093BF019093E0
S1130B60C0011092C2011092C101D093C70110922A
S1130B70C3011092C601DF91CF910895EF920F93B4
S1130B80E091C301F0E0EE0FFF1FEE0FFF1FEE0F29
S1130B90FF1FA091C401B091C501EA0FFB1F608340
S1130BA07183828393838091C301E82FF0E0EE0F79
S1130BB0FF1FEE0FFF1FEE0FFF1F6091C401709126
S1130BC0C501E60FF71F448325830683E7828F5F01
S1130BD08093C3010F91EF9008958091C401909187
S1130BE0C501892B49F01092C30181E08093C601AD
S1130BF01092C2011092C10108951092C601809111
S1130C00C4019091C5010E947A111092C5011092FD
S1130C10C4010E94E20408958091C6010895CF9210
S1130C20DF92EF92FF92CF93DF938091C6018823E6
S1130C3009F47BC08091C1019091C201009729F011
S1130C4001979093C2018093C101E091C301809107
S1130C50C701E8130BC08091C1019091C201892B97
S1130C6029F40E94E2040E94FD055FC08091C10145
S1130C709091C2018130910519F40E94E20455C09B
S1130C80892B09F052C0F0E0EE0FFF1FEE0FFF1F9B
S1130C90EE0FFF1F8091C4019091C501E80FF91F69
S1130CA08781811108C0608171818281938144812F
S1130CB00E94170502C00E94E204C091C301EC2FF8
S1130CC0F0E0EE0FFF1FEE0FFF1FEE0FFF1F8091EE
S1130CD0C4019091C501E80FF91FD681658170E0C8
S1130CE080E090E00E94390F9B01AC016091BD014E
S1130CF07091BE018091BF019091C0010E94960E37
S1130D006B017C016D2F70E080E090E00E94390F50
S1130D10A70196010E94C50F0E94080F7093C2019B
S1130D206093C101CF5FC093C301DF91CF91FF9066
S1130D30EF90DF90CF900895EF920F936EE38DE3E1
S1130D400E948E05E12C01E024E044E060E070E0C4
S1130D508CED93E40E94BE0524E045E06BE774ED5E
S1130D6082E993E40E94BE0524E044E060E070E080
S1130D708CED93E40E94BE0524E045E06BE774ED3E
S1130D8082E993E40E94BE0524E044E060E070E060
S1130D908CED93E40E94BE0524E045E06BE774ED1E
S1130DA082E993E40E94BE0528E044E060E070E03C
S1130DB08CED93E40E94BE0528E044E066E676EA02
S1130DC08FEC93E40E94BE0524E044E060E070E010
S1130DD08CED93E40E94BE0528E044E060E070E0FE
S1130DE08CED93E40E94BE0528E044E066E676EAD2
S1130DF08FEC93E40E94BE0528E044E060E070E0DC
S1130E008CED93E40E94BE0528E044E060E070E0CD
S1130E1084EC93E40E94BE05EE24E39428E040E0D1
S1130E2060E070E0CB010E94BE05E12C28E044E0C4
S1130E3068EB7EEF88EB93E40E94BE0528E044E073
S1130E4060E070E084EC93E40E94BE0528E044E096
S1130E5068EB7EEF88EB93E40E94BE0522E044E059
S1130E6061E77DE98EEA93E40E94BE0524E044E054
S1130E706BE774ED82E993E40E94BE05EE24E394EB
S1130E8024E040E060E070E0CB010E94BE05E12C6C
S1130E9024E044E060E070E08CED93E40E94BE0541
S1130EA024E045E06BE774ED82E993E40E94BE051B
S1130EB024E044E060E070E08CED93E40E94BE0521
S1130EC024E045E06BE774ED82E993E40E94BE05FB
S1130ED024E044E060E070E08CED93E40E94BE0501
S1130EE024E045E06BE774ED82E993E40E94BE05DB
S1130EF028E044E060E070E08CED93E40E94BE05DD
S1130F0028E044E066E676EA8FEC93E40E94BE05AE
S1130F1024E044E060E070E08CED93E40E94BE05C0
S1130F2024E044E060E070E084EC93E40E94BE05B9
S1130F3024E044E060E070E084EC93E40E94BE05A9
S1130F4024E044E068EB7EEF88EB93E40E94BE0566
S1130F5024E044E060E070E084EC93E40E94BE0589
S1130F6024E045E064EA70ED82E893E40E94BE0563
S1130F7024E044E06BE774E189EE93E40E94BE054B
S1130F8024E044E060E070E08CED93E40E94BE0550
S1130F9024E044E060E070E084EC93E40E94BE0549
S1130FA024E044E060E070E08CED93E40E94BE0530
S1130FB024E045E06BE774ED82E993E40E94BE050A
S1130FC024E044E060E070E08CED93E40E94BE0510
S1130FD024E045E06BE774ED82E993E40E94BE05EA
S1130FE024E044E060E070E08CED93E40E94BE05F0
S1130FF024E045E06BE774ED82E993E40E94BE05CA
S113100028E044E060E070E08CED93E40E94BE05CB
S113101028E044E066E676EA8FEC93E40E94BE059D
S113102024E044E060E070E08CED93E40E94BE05AF
S113103024E045E064EA70ED82E893E40E94BE0592
S113104024E045E064EA70ED82E893E40E94BE0582
S113105024E044E060E070E08CED93E40E94BE057F
S113106024E044E060E070E084EC93E40E94BE0578
S113107022E044E061E77DE98EEA93E40E94BE0544
S113108022E044E06BE774ED82E993E40E94BE053C
S113109022E044E06BE774ED82E993E40E94BE052C
S11310A022E044E061E77DE98EEA93E40E94BE0514
S11310B022E044E060E070E08CED93E40E94BE0521
S11310C022E045E064EA70ED82E893E40E94BE0504
S11310D024E045E064EA70E98BE993E40E94BE05EC
S11310E024E045E06BE774ED82E993E40E94BE05D9
S11310F028E044E066E676EA8FEC93E40E94BE05BD
S113110024E044E060E070E08CED93E40E94BE05CE
S113111028E044E061E77DE98EEA93E40E94BE059D
S11311200F91EF900895EF920F9361E189E10E948E
S11311308E05E12C03E024E045E064EA70ED82E8EA
S113114093E40E94BE05EE24E39401E028E040E02D
S113115060E070E0CB010E94BE05E12C28E044E091
S113116060E070E084EC93E40E94BE0524E045E076
S113117064EA70ED82E893E40E94BE0503E020E196
S113118044E060E070E084EC93E40E94BE0501E07A
S113119020E144E060E070E08CED93E40E94BE0541
S11311A024E044E064EA70EF86EF93E40E94BE0515
S11311B028E044E064EA70ED84EA93E40E94BE050A
S11311C028E044E064EA70ED84EA93E40E94BE05FA
S11311D024E044E060E070E08CED93E40E94BE05FE
S11311E003E020E144E060E070E084EC93E40E94DA
S11311F0BE0501E020E144E061E77DE98EEA93E485
S11312000E94BE0524E044E060E070E084EC93E4D6
S11312100E94BE0528E044E064EA70ED82E893E4AD
S11312200E94BE0528E044E064EA70ED82E893E49D
S11312300E94BE0524E044E06BE774ED82E993E488
S11312400E94BE0503E020E144E06BE774ED82E90F
S113125093E40E94BE0501E020E144E064EA70EDFD
S113126084EA93E40E94BE0524E044E061E77DE95A
S11312708EEA93E40E94BE0503E020E144E061E7C6
S11312807DE98EEA93E40E94BE0501E020E144E09A
S113129060E070E084EC93E40E94BE0524E044E046
S11312A060E070E08CED93E40E94BE0528E044E029
S11312B064EA70EF86EF93E40E94BE0528E045E0FF
S11312C064EA70ED82E893E40E94BE0503E028E03E
S11312D045E06BE774ED82E993E40E94BE0501E00A
S11312E028E044E060E070E084EC93E40E94BE05F2
S11312F00F91EF900895EF920F936BE181E10E94BB
S11313008E05E12C01E024E044E060E070E084EC30
S113131093E40E94BE0524E044E060E070E084ECC5
S113132093E40E94BE0524E044E060E070E084ECB5
S113133093E40E94BE0503E020E144E064EA70E91E
S11313408BE993E40E94BE0501E020E144E06BE7F1
S113135074E189EE93E40E94BE0524E044E060E079
S113136070E084EC93E40E94BE0503E020E144E0D5
S113137064EA70E98BE993E40E94BE0501E020E190
S113138044E06BE774E189EE93E40E94BE0522E039
S113139044E060E070E084EC93E40E94BE0524E045
S11313A045E06BE774ED82E993E40E94BE0524E016
S11313B045E06BE774ED82E993E40E94BE0524E006
S11313C045E06BE774ED82E993E40E94BE0503E017
S11313D020E145E064EA70E98BE993E40E94BE05EC
S11313E001E020E144E06BE774E189EE93E40E94BC
S11313F0BE0524E044E068EB7EEF88EB93E40E94B2
S1131400BE0503E020E144E064EA70E98BE993E47B
S11314100E94BE0501E020E144E06BE774E189EE3F
S113142093E40E94BE0524E044E060E070E084ECB4
S113143093E40E94BE050F91EF900895EF920F93ED
S113144069E18CE10E948E05E12C01E022E044E098
S113145064EA70ED84EA93E40E94BE0524E044E06B
S113146060E070E084EC93E40E94BE0524E044E074
S113147068EB7EEF88EB93E40E94BE0524E044E031
S113148060E070E08CED93E40E94BE0524E044E04B
S113149060E070E084EC93E40E94BE0522E044E046
S11314A068EB7EEF88EB93E40E94BE0521E044E004
S11314B064EA70ED84EA93E40E94BE05EE24E394AA
S11314C022E040E060E070E0CB010E94BE05E12C28
S11314D024E044E064EA70EF86EF93E40E94BE05E2
S11314E024E045E06AE077E98AE893E40E94BE05D7
S11314F022E045E06BE774ED82E993E40E94BE05C7
S113150024E045E06AE077E98AE893E40E94BE05B6
S113151024E044E060E070E08CED93E40E94BE05BA
S113152024E045E06AE077E98AE893E40E94BE0596
S113153003E024E044E064EA70EF86EF93E40E9461
S1131540BE05EE24E39401E024E040E060E070E0B6
S1131550CB010E94BE05E12C24E043E064EA70EF75
S113156086EF93E40E94BE0524E044E06BE774ED4B
S113157082E993E40E94BE0524E044E064EA70ED4D
S113158084EA93E40E94BE0524E044E060E070E055
S113159084EC93E40E94BE0524E044E060E070E043
S11315A08CED93E40E94BE0522E044E068EB7EEFFC
S11315B088EB93E40E94BE0524E044E064EA70ED05
S11315C084EA93E40E94BE0524E044E060E070E015
S11315D084EC93E40E94BE0524E044E068EB7EEFD3
S11315E088EB93E40E94BE0524E044E064EA70EDD5
S11315F084EA93E40E94BE0524E044E068EB7EEFB5
S113160088EB93E40E94BE0503E024E044E06BE72A
S113161074ED82E993E40E94BE0501E022E044E017
S113162064EA70ED84EA93E40E94BE050F91EF90A2
S11316300895EF920F9362E38CE00E948E05E12CF3
S113164001E028E045E064EA70ED84EA93E40E9456
S1131650BE0528E045E064EA70ED84EA93E40E9464
S1131660BE05EE24E39428E040E060E070E0CB01A6
S11316700E94BE05E12C28E045E064EA70ED84EAAE
S113168093E40E94BE05EE24E39428E040E060E089
S113169070E0CB010E94BE05E12C28E045E064EA3D
S11316A070ED82E893E40E94BE0528E045E064EA18
S11316B070ED84EA93E40E94BE05EE24E39428E0EE
S11316C040E060E070E0CB010E94BE05E12C28E020
S11316D045E060E070E084EC93E40E94BE05EE24F3
S11316E0E39424E040E060E070E0CB010E94BE059A
S11316F028E040E060E070E0CB010E94BE05E12CF0
S113170028E044E060E070E084EC93E40E94BE05CD
S11317100F91EF900895EF920F9369E18EE00E948C
S11317208E05E12C01E024E044E068EB7EEF88EBD9
S113173093E40E94BE0528E045E06AE077E98AE880
S113174093E40E94BE0528E044E06BE774E189EE6F
S113175093E40E94BE0524E044E06BE774E189EE63
S113176093E40E94BE0528E044E066E676EA8FEC46
S113177093E40E94BE0528E044E068EB7EEF88EB2A
S113178093E40E94BE0528E044E068EB7EEF88EB1A
S113179093E40E94BE0524E044E064EA70EF86EF1F
S11317A093E40E94BE0528E044E06BE774E189EE0F
S11317B093E40E94BE0528E044E06BE774E189EEFF
S11317C093E40E94BE0528E044E066E676EA8FECE6
S11317D093E40E94BE0528E044E066E676EA8FECD6
S11317E093E40E94BE0524E044E068EB7EEF88EBBE
S11317F093E40E94BE0528E044E068EB7EEF88EBAA
S113180093E40E94BE050F91EF900895EF920F9319
S11318106DE18CE10E948E05E12C01E024E044E0BE
S113182068EB7EEF88EB93E40E94BE0528E044E079
S113183060E070E08CED93E40E94BE0528E045E092
S11318406AE077E98AE893E40E94BE05EE24E39413
S113185028E040E060E070E0CB010E94BE05E12C8E
S113186028E044E060E070E08CED93E40E94BE0563
S1131870EE24E39428E040E060E070E0CB010E94B5
S1131880BE05E12C28E044E068EB7EEF88EB93E4AE
S11318900E94BE0503E020E244E06BE774ED82E9B8
S11318A093E40E94BE05EE24E39401E020E240E0CC
S11318B060E070E0CB010E94BE05E12C03E020E271
S11318C044E06BE774ED82E993E40E94BE05EE24E4
S11318D0E39401E020E240E060E070E0CB010E948C
S11318E0BE05E12C03E020E244E06BE774ED82E9FD
S11318F093E40E94BE05EE24E39401E028E040E076
S113190060E070E0CB010E94BE0528E040E060E0AA
S113191070E0CB010E94BE0524E040E060E070E08E
S1131920CB010E94BE0528E040E060E070E0CB01FE
S11319300E94BE05E12C28E044E06AE077E98AE8E9
S113194093E40E94BE0528E044E06BE774ED82E96D
S113195093E40E94BE0528E044E068EB7EEF88EB48
S113196093E40E94BE0528E044E060E070E08CED62
S113197093E40E94BE0528E045E06AE077E98AE83E
S113198093E40E94BE05EE24E39428E040E060E086
S113199070E0CB010E94BE05E12C28E044E060E049
S11319A070E08CED93E40E94BE05EE24E39428E0FD
S11319B040E060E070E0CB010E94BE05E12C28E02D
S11319C044E068EB7EEF88EB93E40E94BE0503E0FD
S11319D028E045E064EA70ED84EA93E40E94BE05E1
S11319E001E028E045E064EA70E98BE993E40E94B1
S11319F0BE0524E045E06BE774ED82E993E40E94C0
S1131A00BE050F91EF90089584B1846084B987B1C5
S1131A10826087B985B1846085B908958CB5816089
S1131A208CBD8CB58D7F8CBD85B18B7F85B989E3E9
S1131A300E94CC0D80E58A95F1F78DE10E94CC0DD2
S1131A4090E59A95F1F780E50E94CC0D80E58A95A2
S1131A50F1F78CE60E94CC0D90E59A95F1F78CE7AE
S1131A600E94CC0D80E58A95F1F788E30E94CC0DA5
S1131A7090E59A95F1F78FE00E94CC0D80E58A9568
S1131A80F1F781E00E94CC0D8FEC97E00197F1F71C
S1131A9000C0000086E00E94CC0D8FE39FE1019717
S1131AA0F1F700C0000088B1826088B985B1846014
S1131AB085B980E090E006C0FC01E853FE4F20E2C7
S1131AC02083019680339105BCF31092F8011092A3
S1131AD0F90108959CB591609CBD9CB59D7F9CBD0A
S1131AE095B19B7F95B90E94CC0D80E58A95F1F75D
S1131AF085B1846085B980E090E008958CB58160FB
S1131B008CBD8CB58D7F8CBD88B18D7F88B985B136
S1131B108B7F85B981E00E94CC0D8FE39FE1019713
S1131B20F1F700C0000088B1826088B985B1846093
S1131B3085B908958091F901882391F00E947E0D62
S1131B4088EC91E09F938F9387E191E09F938F932B
S1131B500E9464121092F9010F900F900F900F9051
S1131B600895242F462F50E030E0BC01C90188536A
S1131B709E4F0E94281281E08093F901089584B158
S1131B80886284B98CB580658CBD8DB581608DBD4E
S1131B908CB5837F8CBD08958EBD0DB407FEFDCF3B
S1131BA00895FC0107C08091C00085FFFCCF90938D
S1131BB0C600F9019F012F5F3F4F90819111F3CF30
S1131BC08091C00085FFFCCF8AE08093C600089511
S1131BD002C08091C6008091C0008823D4F3089588
S1131BE083E390E09093C5008093C40088E98093D8
S1131BF0C10086E08093C2000895FC019B01220F7E
S1131C00331F620F731F8AB180618AB9ABB1AF7E93
S1131C105BB15061BFB711C09F012F5F3F4F40813F
S1131C2068E0E8945BB947FFABB9440F000006F4E1
S1131C30ABB96A95B9F7BC01F901CB010197672BE0
S1131C4059F7BFBF87E592E00197F1F700C00000A4
S1131C5008955058BB27AA270E94410E0C948B0F5D
S1131C600E947D0F38F00E94840F20F039F49F3FCA
S1131C7019F426F40C947A0F0EF4E095E7FB0C9417
S1131C80740FE92F0E949C0F58F3BA176207730769
S1131C908407950720F079F4A6F50C94BE0F0EF492
S1131CA0E0950B2EBA2FA02D0B01B90190010C0168
S1131CB0CA01A0011124FF27591B99F0593F50F480
S1131CC0503E68F11A16F040A22F232F342F4427D8
S1131CD0585FF3CF469537952795A795F0405395D0
S1131CE0C9F77EF41F16BA0B620B730B840BBAF0A0
S1131CF09150A1F0FF0FBB1F661F771F881FC2F70B
S1131D000EC0BA0F621F731F841F48F4879577951E
S1131D106795B795F7959E3F08F0B0CF9395880FD8
S1131D2008F09927EE0F9795879508950E94AA0EBB
S1131D300C948B0F0E94840F58F00E947D0F40F08A
S1131D4029F45F3F29F00C94740F51110C94BF0FC8
S1131D500C947A0F0E949C0F68F39923B1F35523D6
S1131D6091F3951B550BBB27AA27621773078407AA
S1131D7038F09F5F5F4F220F331F441FAA1FA9F340
S1131D8035D00E2E3AF0E0E832D091505040E6952E
S1131D90001CCAF72BD0FE2F29D0660F771F881F8F
S1131DA0BB1F261737074807AB07B0E809F0BB0B82
S1131DB0802DBF01FF2793585F4F3AF09E3F510596
S1131DC078F00C94740F0C94BF0F5F3FE4F3983ECB
S1131DD0D4F3869577956795B795F7959F5FC9F77F
S1131DE0880F911D9695879597F90895E1E0660F00
S1131DF0771F881FBB1F621773078407BA0720F079
S1131E00621B730B840BBA0BEE1F88F7E0950895E1
S1131E100E94A40F88F09F5798F0B92F9927B751C3
S1131E20B0F0E1F0660F771F881F991F1AF0BA957A
S1131E30C9F714C0B13091F00E94BE0FB1E008950B
S1131E400C94BE0F672F782F8827B85F39F0B93FFD
S1131E50CCF3869577956795B395D9F73EF490952D
S1131E608095709561957F4F8F4F9F4F0895E894AB
S1131E7009C097FB3EF490958095709561957F4FCE
S1131E808F4F9F4F9923A9F0F92F96E9BB2793957C
S1131E90F695879577956795B795F111F8CFFAF48C
S1131EA0BB0F11F460FF1BC06F5F7F4F8F4F9F4FBD
S1131EB016C0882311F096E911C0772321F09EE81B
S1131EC0872F762F05C0662371F096E8862F70E081
S1131ED060E02AF09A95660F771F881FDAF7880F5B
S1131EE09695879597F9089597F99F6780E870E02C
S1131EF060E008959FEF80EC089500240A9416167C
S1131F00170618060906089500240A9412161306E3
S1131F10140605060895092E0394000C11F4882371
S1131F2052F0BB0F40F4BF2B11F460FF04C06F5F8D
S1131F307F4F8F4F9F4F089557FD9058440F551F63
S1131F4059F05F3F71F04795880F97FB991F61F037
S1131F509F3F79F087950895121613061406551FAE
S1131F60F2CF4695F1DF08C0161617061806991F1A
S1131F70F1CF86957105610508940895E894BB270F
S1131F8066277727CB0197F908950E94D80F0C9400
S1131F908B0F0E947D0F38F00E94840F20F0952350
S1131FA011F00C94740F0C947A0F11240C94BF0F3D
S1131FB00E949C0F70F3959FC1F3950F50E0551F3D
S1131FC0629FF001729FBB27F00DB11D639FAA278A
S1131FD0F00DB11DAA1F649F6627B00DA11D661FD9
S1131FE0829F2227B00DA11D621F739FB00DA11DFA
S1131FF0621F839FA00D611D221F749F3327A00DB4
S1132000611D231F849F600D211D822F762F6A2F4F
S113201011249F5750409AF0F1F088234AF0EE0FB4
S1132020FF1FBB1F661F771F881F91505040A9F7E1
S11320309E3F510580F00C94740F0C94BF0F5F3FCA
S1132040E4F3983ED4F3869577956795B795F7951D
S1132050E7959F5FC1F7FE2B880F911D9695879595
S113206097F908950E94A40FE8F09E37E8F0963996
S1132070B8F49E3848F4672F782F8827985FF9CFF3
S113208086957795679593959539D0F3B62FB1706A
S11320906B0F711D811D20F4879577956795939536
S11320A00C9456100C9471100C94BF0F882371F487
S11320B0772321F09850872B762F07C0662311F4DD
S11320C099270DC09051862B70E060E02AF09A9514
S11320D0660F771F881FDAF7880F9695879597F90B
S11320E008959F3F31F0915020F487957795679537
S11320F0B795880F911D9695879597F90895052EA4
S113210097FB1EF400940E94961057FD07D00E947E
S1132110A41007FC03D04EF40C94961050954095EF
S1132120309521953F4F4F4F5F4F0895909580957F
S1132130709561957F4F8F4F9F4F0895EE0FFF1F4E
S11321400590F491E02D0994A1E21A2EAA1BBB1B61
S1132150FD010DC0AA1FBB1FEE1FFF1FA217B3076F
S1132160E407F50720F0A21BB30BE40BF50B661F85
S1132170771F881F991F1A9469F760957095809549
S113218090959B01AC01BD01CF0108950F931F935E
S1132190CF93DF93869F8001879F100D969F100D2C
S11321A01124C8010E94E210EC01009729F0A80153
S11321B060E070E00E942112CE01DF91CF911F9167
S11321C00F9108950F931F93CF93DF93823091055E
S11321D010F482E090E0E091FC01F091FD0120E038
S11321E030E0A0E0B0E0309719F1408151810281E4
S11321F0138148175907C8F08417950769F4109795
S113220031F012960C93129713961C9327C00093E7
S1132210FC011093FD0122C02115310519F042176C
S1132220530718F49A01BD01EF01DF01F801DBCF78
S113223021153105F9F0281B390B2430310580F4C0
S11322408A819B816115710521F0FB01938382834F
S113225004C09093FD018093FC01FE01329644C0BA
S1132260FE01E20FF31F81939193225031093983C8
S113227028833AC02091FA013091FB01232B41F4C9
S113228020910201309103013093FB012093FA0164
S113229020910001309101012115310541F42DB740
S11322A03EB74091040150910501241B350BE09188
S11322B0FA01F091FB01E217F307A0F42E1B3F0B88
S11322C02817390778F0AC014E5F5F4F24173507A4
S11322D048F04E0F5F1F5093FB014093FA01819326
S11322E0919302C0E0E0F0E0CF01DF91CF911F9124
S11322F00F910895CF93DF93009709F481C0FC01F7
S1132300329713821282A091FC01B091FD011097C3
S113231081F420813181820F931F2091FA01309141
S1132320FB012817390751F5F093FB01E093FA01FB
S113233067C0ED0120E030E0CE17DF0740F44A81AA
S11323405B819E0141155105F1F0EA01F5CFD3837C
S1132350C28340815181840F951FC817D90759F44E
S113236088819981840F951F0296918380838A8145
S11323709B81938382832115310529F4F093FD0118
S1132380E093FC013DC0E901FB83EA834991599143
S1132390C40FD51FEC17FD0761F480819181840F70
S11323A0951F0296E90199838883828193819B8397
S11323B08A83E0E0F0E012968D919C911397009748
S11323C019F0FD01DC01F7CF8D919C9111979D01CE
S11323D02E5F3F4F820F931F2091FA013091FB0132
S11323E02817390769F4309729F41092FD011092E7
S11323F0FC0102C013821282B093FB01A093FA0184
S1132400DF91CF910895FC0188279927E8942191C1
S11324102032E9F3293010F02E30C8F32B3241F08A
S11324202D3239F4689404C00E944212820F911D27
S1132430219120532A30C0F31EF4909581959F4F2B
S11324400895DC0101C06D9341505040E0F70895B8
S1132450FB01DC014150504048F001900D920020F6
S1132460C9F701C01D9241505040E0F70895BB27C1
S11324704A3031F4992322F4BDE2909581959F4F1F
S11324800C944B127AE0979F902D879F802D910D8D
S113249011240895BB27FB015527AA27880F991FEC
S11324A0AA1FA41710F0A41B83955051B9F7A05D7F
S11324B0AA3308F0A95DA193009779F7B111B193FC
S11324C01192CB010C947114A0E0B0E0EAE6F2E1C1
S11324D00C942B15AE014B5F5F4FFA016191719122
S11324E0AF0180910002909101020E947A12E2E011
S11324F00C944715ABE0B0E0E0E8F2E10C941B1556
S11325006C017B018A01FC0117821682838181FFA1
S1132510CCC1CE0101963C01F6019381F70193FDF4
S1132520859193FF81917F01882309F4BAC1853293
S113253039F493FD859193FF81917F01853229F4CC
S1132540B60190E00E948114E7CF912C212C312C0C
S1132550FFE1F315D8F08B3279F038F4803279F05A
S11325608332A1F4232D20611DC08D3261F08033AC
S113257069F4232D216016C0832D8260382EE32D4B
S1132580E4603E2E2AC0F32DF8601DC037FC2DC038
S113259020ED280F2A3040F08E32B9F436FC81C188
S11325A0232D2064322E19C036FE06C08AE0989E80
S11325B0200D1124922E11C0EAE02E9E200D11242C
S11325C0222EF32DF0623F2E08C08C3621F4832D89
S11325D08068382E02C0883641F4F70193FD859156
S11325E093FF81917F018111B3CF982F9F7D9554E3
S11325F0933028F40C5F1F4F9FE399830DC08336FB
S113260031F0833771F0833509F059C021C0F801E6
S1132610808189830E5F1F4F88248394912C5301FA
S113262013C02801F2E04F0E511CF801A080B180C4
S113263036FE03C0692D70E002C06FEF7FEFC50165
S11326400E9466144C018201F32DFF773F2E16C0C1
S1132650280122E0420E511CF801A080B18036FE10
S113266003C0692D70E002C06FEF7FEFC5010E94C7
S11326705B144C01F32DF0683F2E820133FC1BC028
S1132680822D90E088169906B0F4B60180E290E0BD
S11326900E9481142A94F4CFF50137FC859137FE0A
S11326A081915F01B60190E00E94811421102A9467
S11326B021E0821A91088114910471F7E8C08436EC
S11326C011F0893641F5F80137FE07C06081718148
S11326D0828193810C5F1F4F08C060817181072E36
S11326E0000C880B990B0E5F1F4FF32DFF763F2EC6
S11326F097FF09C090958095709561957F4F8F4F96
S11327009F4FF0683F2E2AE030E0A3010E94BD14E1
S1132710882E861845C0853731F4232D2F7EB22E9E
S11327202AE030E025C0932D997FB92E8F36C1F071
S113273018F4883579F0B5C0803719F0883721F05E
S1132740B0C0E92FE061BE2EB4FE0DC0FB2DF460D5
S1132750BF2E09C034FE0AC0292F2660B22E06C03F
S113276028E030E005C020E130E002C020E132E0A2
S1132770F801B7FE07C060817181828193810C5F8B
S11327801F4F06C06081718180E090E00E5F1F4F93
S1132790A3010E94BD14882E8618FB2DFF773F2EBF
S11327A036FE0DC0232D2E7FA22E891458F434FE3C
S11327B00BC032FC09C0832D8E7EA82E05C0B82C18
S11327C0A32C03C0B82C01C0B92CA4FE0FC0FE0179
S11327D0E80DF11D8081803321F49A2D997EA92E74
S11327E009C0A2FE06C0B394B39404C08A2D8678AF
S11327F009F0B394A3FC11C0A0FE06C0B21488F47F
S1132800280C922C9B180EC0B21460F4B60180E21E
S113281090E00E948114B394F7CFB21418F42B18EB
S113282002C0982C212CA4FE10C0B60180E390E0D5
S11328300E948114A2FE17C0A1FC03C088E790E0A7
S113284002C088E590E0B6010CC08A2D867859F064
S1132850A1FE02C08BE201C080E2A7FC8DE2B601BA
S113286090E00E948114891438F4B60180E390E06A
S11328700E9481149A94F7CF8A94F301E80DF11D14
S11328808081B60190E00E9481148110F5CF22204E
S113289009F442CEB60180E290E00E9481142A94A9
S11328A0F6CFF6018681978102C08FEF9FEF2B96BA
S11328B0E2E10C943715FC01059061507040011061
S11328C0D8F7809590958E0F9F1F0895FC01615055
S11328D0704001900110D8F7809590958E0F9F1F3E
S11328E00895DC01FC01672F71917723E1F732979A
S11328F004C07C916D9370836291AE17BF07C8F3D7
S113290008950F931F93CF93DF93FB01238121FD40
S113291003C08FEF9FEF2CC022FF16C04681578162
S1132920248135814217530744F4A081B1819D016C
S11329302F5F3F4F318320838C93268137812F5F14
S11329403F4F3783268314C08B01EC01FB010084C5
S1132950F185E02D0995892BE1F6D80116968D9124
S11329609C911797019617969C938E931697CE0178
S1132970DF91CF911F910F910895FA01AA27283072
S113298051F1203181F1E8946F936E7F6E5F7F4F38
S11329908F4F9F4FAF4FB1E03ED0B4E03CD0670FB4
S11329A0781F891F9A1FA11D680F791F8A1F911D07
S11329B0A11D6A0F711D811D911DA11D20D009F457
S11329C068943F912AE0269F11243019305D319399
S11329D0DEF6CF010895462F4770405D4193B3E082
S11329E00FD0C9F7F6CF462F4F70405D4A3318F029
S11329F0495D31FD4052419302D0A9F7EACFB4E0DA
S1132A00A6959795879577956795BA95C9F7009791
S1132A106105710508959B01AC010A2E0694579532
S1132A20479537952795BA95C9F7620F731F841F89
S1132A30951FA01D08952F923F924F925F926F921F
S1132A407F928F929F92AF92BF92CF92DF92EF923A
S1132A50FF920F931F93CF93DF93CDB7DEB7CA1BBB
S1132A60DB0B0FB6F894DEBF0FBECDBF09942A88E6
S1132A70398848885F846E847D848C849B84AA848E
S1132A80B984C884DF80EE80FD800C811B81AA811B
S1132A90B981CE0FD11D0FB6F894DEBF0FBECDBFE6
S10B2AA0ED010895F894FFCF45
S1132AA800000402200000000002000000006A0D7B
S10D2AB80000000031320025730015
S9030000FC
