S012000072696B7469675F62696C2E73726563F2
S11300000C943C000C9482020C948C020C945900C5
S11300100C9459000C9459000C9459000C949602B9
S11300200C9459000C9459000C9459000C945900E8
S11300300C9459000C9459000C9459000C945900D8
S11300400C9459000C9459000C94E1020C9459003E
S11300500C9459000C9459000C9459000C945900B8
S11300600C9459000C945900E500F0006C01010156
S113007020015C016201680111241FBECFEFD8E0AA
S1130080DEBFCDBF11E0A0E0B1E0E0E6F0E102C0E8
S113009005900D92A831B107D9F721E0A8E1B1E0AC
S11300A001C01D92A73BB207E1F70E9484010C94A2
S11300B02E080C940000CF9381E70E9489000E94CF
S11300C0CA00C82F0E94B0008C2FCF910895CF93FF
S11300D0C82F80E70E948900C0931A018C2F0E94C8
S11300E0B8000E94B000CF91089521E030E002C032
S11300F0220F331F8A95E2F7209580911A018223FB
S11301000E94670008951092B90080E28093B800BD
S1130110089594EA9093BC009091BC009923E4F76D
S11301209091B900987F983011F0903191F78093B5
S1130130BB0094E89093BC009091BC009923E4F731
S11301409091B900987F903211F0983541F494E978
S11301509093BC009091BC0094FDFCCFDACF08953D
S113016084E98093BC008091BC0084FDFCCF089599
S11301708093BB0084E88093BC008091BC008823FA
S1130180E4F78091B900887F883211F081E0089506
S113019080E0089584E88093BC008091BC008823AB
S11301A0E4F78091BB0008950F931F93CF93DF93DF
S11301B0062F10E0F801F097E830F10508F08CC044
S11301C0EA01EC5CFF4F0C94DB0498B181E08927D1
S11301D088B980E395E790934D0180934C017CC0EE
S11301E080E290E00E941204DF93CF938EE091E0CE
S11301F09F938F930E9440050F900F900F900F9044
S11302006BC08881882309F467C090E001C0982FEF
S113021081E0890FFE01E80FF11D20812032B9F73A
S11302209E5F10829E01290F311DC9010E94F504B1
S1130230182FCE010E94F504612F0E9457034CC071
S11302408881813379F018F4803331F01CC0823313
S113025079F0833399F017C08091B0018E7F809339
S1130260B00111C08091B00181608093B0010BC0D6
S11302708091B0018D7F8093B00105C08091B00161
S113028082608093B0018091B001882319F083309B
S113029039F00CC080911B01826080931B011CC04B
S11302A080911B01826080931B0116C080911B0109
S11302B08D7F80931B0110C080911B01816080930E
S11302C01B010AC080911B018E7F80931B0104C017
S11302D081E191E00E946F04DF91CF911F910F9112
S11302E0089584E68093B300E0EBF0E080818260BF
S11302F08083E1EBF0E0808182608083E0E7F0E0DE
S11303008081826080830895CF93DF93CDB7DEB779
S113031061970FB6F894DEBF0FBECDBF80E091E0C9
S11303209093B4018093B3010E94A8030E945D04DA
S11303308FE39FE10197F1F700C000000E94B20330
S11303400E948E040E9486040E942B030E949C0338
S11303500E9483000E9471018FEF0E94670088B1A0
S1130360816088B987B1816087B9EEE4F1E01282D7
S113037010828FEF81831582838384831086868322
S11303808783138611868287168614868587118A49
S11303908787808B148A828B838B178A158A868B36
S11303A088E090E026C09C0121703078332334F437
S11303B0215031092E6F3F6F2F5F3F4F21303105A0
S11303C061F4FC01EE0FFF1FE80FF91FE25BFE4F23
S11303D012822FEF208321830BC0FC01EE0FFF1F3D
S11303E0E80FF91FE25BFE4F2FEF22831082118288
S11303F0019683319105BCF263E170E08EE491E0F3
S11304000E949B04789480E00E94750081E00E9421
S1130410750081E391E39A8389831C821B82FE0128
S113042035968DE0DF011D928A95E9F70E945B0005
S1130430182F4AE0BE016D5F7F4F84E190E00E9477
S11304401305FE0131967F0101900020E9F73197F1
S1130450EE19FF09D701AE0FB11D00E20C93EF5F57
S1130460B7016E0F711DDB011C924AE084E190E03C
S11304700E941305F70101900020E9F73197EE1966
S1130480FF09D701AE0FB11D0C93EF5FD701AE0F7B
S1130490B11D1C9222E01EC031E03E0FF0E081E06D
S11304A090E0022E02C0880F991F0A94E2F7412FB0
S11304B050E0842395231816190614F481E301C02F
S11304C080E341E050E04C0F5D1FE40FF51F808393
S11304D02F5FE32F263000F381E090E08C0F9D1F07
S11304E08E0F911DFC011082CE0101960E946F04B3
S11304F09FEFA9E6B8E19150A040B040E1F700C0F9
S1130500000094CF1F920F920FB60F9211240F90F8
S11305100FBE0F901F9018951F920F920FB60F9257
S113052011240F900FBE0F901F9018951F920F92D9
S11305300FB60F9211242F933F934F935F936F93B2
S11305407F938F939F93AF93BF93EF93FF93809188
S11305504C0190914D01019790934D0180934C0172
S113056080914C0190914D0164E670E00E94C704B3
S1130570892BB1F40E94410480914C0190914D016A
S113058068EE73E00E94C7047F936F9384E191E067
S11305909F938F930E9440050F900F900F900F90A0
S11305A0FF91EF91BF91AF919F918F917F916F9147
S11305B05F914F913F912F910F900FBE0F901F901D
S11305C018951F920F920FB60F9211242F933F93F9
S11305D04F935F936F937F938F939F93AF93BF9347
S11305E0EF93FF93E0911801F0E08091C600E95782
S11305F0FE4F8083E0911801F0E0E957FE4F8081BF
S11306008A3099F4E0911801F0E0A7E8B1E0E957E5
S1130610FE4F108211966C9111978C9149E851E02C
S11306200E94D4001092180105C0809118018F5FB8
S113063080931801FF91EF91BF91AF919F918F919A
S11306407F916F915F914F913F912F910F900FBECA
S11306500F901F9018958AB180668AB984B180641E
S113066084B984B1806884B985B1806485B985B161
S1130670806885B984B1816084B98AB180688AB997
S113068085B1816085B98BB180688BB984B5836A83
S113069084BD85B5816085BD17BC18BC8DB38360EE
S11306A08DBBE9E6F0E080818A6080830895811142
S11306B007C095B19F7B95B995B19F7795B90FC048
S11306C018163CF495B1906495B995B19F7795B996
S11306D006C095B19F7B95B995B1906895B96111A4
S11306E007C095B19E7F95B99BB19F779BB90FC009
S11306F016163CF495B1916095B99BB19F779BB95F
S113070006C095B19E7F95B99BB190689BB9082EA0
S1130710000C990B99231CF4919581959109880FEC
S113072088BD062E000C770B77231CF47195619518
S11307307109660F67BD089580E480938000E1E845
S1130740F0E080818860808384B18D7F84B90895CE
S113075084B1846084B987B1826087B985B18460CB
S113076085B908958CB581608CBD8CB58D7F8CBDA9
S113077085B18B7F85B989E30E946A0480E58A95F7
S1130780F1F78DE10E946A0490E59A95F1F780E50E
S11307900E946A0480E58A95F1F78CE60E946A0457
S11307A090E59A95F1F78CE70E946A0480E58A95B2
S11307B0F1F788E30E946A0490E59A95F1F78FE0D7
S11307C00E946A0480E58A95F1F781E00E946A0438
S11307D08FEC97E00197F1F700C0000086E00E94DB
S11307E06A048FE39FE10197F1F700C0000088B12C
S11307F0826088B985B1846085B908959CB591609B
S11308009CBD9CB59D7F9CBD95B19B7F95B90E9475
S11308106A0480E58A95F1F785B1846085B980E042
S113082090E008950F931F93CF93DF938C018CB5C1
S113083081608CBD8CB58D7F8CBD88B18D7F88B96E
S113084085B18B7F85B982E00E946A0480E58A9530
S1130850F1F7C0E0D0E007C084E10E946A0480E5BB
S11308608A95F1F72196C017D107B4F388B1826055
S113087088B985B1846085B9DF91CF911F910F91BB
S113088008958CB581608CBD8CB58D7F8CBD88B18D
S11308908D7F88B985B18B7F85B981E00E946A0418
S11308A08FE39FE10197F1F700C0000088B18260F7
S11308B088B985B1846085B9089584B1886284B9A2
S11308C08CB580658CBD8DB581608DBD8CB5837F05
S11308D08CBD08958EBD0DB407FEFDCF0895FC01B7
S11308E007C08091C00085FFFCCF9093C600F9013A
S11308F09F012F5F3F4F90819111F3CF8091C000F2
S113090085FFFCCF8AE08093C600089502C08091E1
S1130910C6008091C0008823D4F3089583E390E057
S11309209093C5008093C40088E98093C10086E059
S11309308093C2000895FC019B01220F331F620FB4
S1130940731F8AB180618AB9ABB1AF7E5BB150616C
S1130950BFB7F89410C09F012F5F3F4F408168E0FC
S11309605BB947FFABB9440F000007F4ABB96A9514
S1130970B9F7BC01F901CB010197672B61F7BFBF40
S113098087E592E00197F1F700C00000089597FB16
S1130990072E16F4009407D077FD09D00E94E104D5
S11309A007FC05D03EF4909581959F4F089570956E
S11309B061957F4F0895EE0FFF1F0590F491E02D90
S11309C00994AA1BBB1B51E107C0AA1FBB1FA61792
S11309D0B70710F0A61BB70B881F991F5A95A9F7E4
S11309E080959095BC01CD010895FC018827992735
S11309F0E89421912032E9F3293010F02E30C8F325
S1130A002B3241F02D3239F4689404C00E941E0543
S1130A10820F911D219120532A30C0F31EF490952A
S1130A2081959F4F0895BB274A3031F4992322F4CE
S1130A30BDE2909581959F4F0C9427057AE0979F8E
S1130A40902D879F802D910D11240895BB27FB01C4
S1130A505527AA27880F991FAA1FA41710F0A41BB3
S1130A6083955051B9F7A05DAA3308F0A95DA1930D
S1130A70009779F7B111B1931192CB010C944D0702
S1130A80A0E0B0E0E6E4F5E00C940708AE014B5FAB
S1130A905F4FFA0161917191AF018091B30190911F
S1130AA0B4010E945605E2E00C942308ABE0B0E0E8
S1130AB0ECE5F5E00C94F7076C017B018A01FC017D
S1130AC017821682838181FFCCC1CE0101963C013D
S1130AD0F6019381F70193FD859193FF81917F0145
S1130AE0882309F4BAC1853239F493FD859193FFC3
S1130AF081917F01853229F4B60190E00E945D075F
S1130B00E7CF912C212C312CFFE1F315D8F08B3257
S1130B1079F038F4803279F08332A1F4232D206106
S1130B201DC08D3261F0803369F4232D216016C01D
S1130B30832D8260382EE32DE4603E2E2AC0F32DEF
S1130B40F8601DC037FC2DC020ED280F2A3040F07E
S1130B508E32B9F436FC81C1232D2064322E19C0A3
S1130B6036FE06C08AE0989E200D1124922E11C0F4
S1130B70EAE02E9E200D1124222EF32DF0623F2E4A
S1130B8008C08C3621F4832D8068382E02C0883644
S1130B9041F4F70193FD859193FF81917F018111C8
S1130BA0B3CF982F9F7D9554933028F40C5F1F4F3B
S1130BB09FE399830DC0833631F0833771F0833519
S1130BC009F059C021C0F801808189830E5F1F4F4D
S1130BD088248394912C530113C02801F2E04F0E12
S1130BE0511CF801A080B18036FE03C0692D70E06D
S1130BF002C06FEF7FEFC5010E9442074C018201E2
S1130C00F32DFF773F2E16C0280122E0420E511C1F
S1130C10F801A080B18036FE03C0692D70E002C0E7
S1130C206FEF7FEFC5010E9437074C01F32DF06889
S1130C303F2E820133FC1BC0822D90E0881699065A
S1130C40B0F4B60180E290E00E945D072A94F4CFEC
S1130C50F50137FC859137FE81915F01B60190E083
S1130C600E945D0721102A9421E0821A91088114C0
S1130C70910471F7E8C0843611F0893641F5F80122
S1130C8037FE07C060817181828193810C5F1F4FA1
S1130C9008C060817181072E000C880B990B0E5FD0
S1130CA01F4FF32DFF763F2E97FF09C09095809537
S1130CB0709561957F4F8F4F9F4FF0683F2E2AE0CC
S1130CC030E0A3010E949907882E861845C0853715
S1130CD031F4232D2F7EB22E2AE030E025C0932D4F
S1130CE0997FB92E8F36C1F018F4883579F0B5C0E4
S1130CF0803719F0883721F0B0C0E92FE061BE2EAB
S1130D00B4FE0DC0FB2DF460BF2E09C034FE0AC032
S1130D10292F2660B22E06C028E030E005C020E16D
S1130D2030E002C020E132E0F801B7FE07C0608184
S1130D307181828193810C5F1F4F06C06081718134
S1130D4080E090E00E5F1F4FA3010E949907882E58
S1130D508618FB2DFF773F2E36FE0DC0232D2E7FE8
S1130D60A22E891458F434FE0BC032FC09C0832D22
S1130D708E7EA82E05C0B82CA32C03C0B82C01C0AD
S1130D80B92CA4FE0FC0FE01E80DF11D8081803353
S1130D9021F49A2D997EA92E09C0A2FE06C0B3940F
S1130DA0B39404C08A2D867809F0B394A3FC11C0CF
S1130DB0A0FE06C0B21488F4280C922C9B180EC016
S1130DC0B21460F4B60180E290E00E945D07B3942F
S1130DD0F7CFB21418F42B1802C0982C212CA4FEBF
S1130DE010C0B60180E390E00E945D07A2FE17C028
S1130DF0A1FC03C088E790E002C088E590E0B6015A
S1130E000CC08A2D867859F0A1FE02C08BE201C085
S1130E1080E2A7FC8DE2B60190E00E945D07891490
S1130E2038F4B60180E390E00E945D079A94F7CF0E
S1130E308A94F301E80DF11D8081B60190E00E94CF
S1130E405D078110F5CF222009F442CEB60180E27D
S1130E5090E00E945D072A94F6CFF601868197817F
S1130E6002C08FEF9FEF2B96E2E10C941308FC0174
S1130E700590615070400110D8F7809590958E0FC1
S1130E809F1F0895FC016150704001900110D8F734
S1130E90809590958E0F9F1F0895DC01FC01672FAC
S1130EA071917723E1F7329704C07C916D9370833D
S1130EB06291AE17BF07C8F308950F931F93CF93A2
S1130EC0DF93FB01238121FD03C08FEF9FEF2CC033
S1130ED022FF16C04681578124813581421753076A
S1130EE044F4A081B1819D012F5F3F4F3183208362
S1130EF08C93268137812F5F3F4F3783268314C01D
S1130F008B01EC01FB010084F185E02D0995892B0F
S1130F10E1F6D80116968D919C9117970196179634
S1130F209C938E931697CE01DF91CF911F910F91D1
S1130F300895FA01AA27283051F1203181F1E8946B
S1130F406F936E7F6E5F7F4F8F4F9F4FAF4FB1E0B8
S1130F503ED0B4E03CD0670F781F891F9A1FA11DB3
S1130F60680F791F8A1F911DA11D6A0F711D811DB4
S1130F70911DA11D20D009F468943F912AE0269F79
S1130F8011243019305D3193DEF6CF010895462FD8
S1130F904770405D4193B3E00FD0C9F7F6CF462FB9
S1130FA04F70405D4A3318F0495D31FD4052419322
S1130FB002D0A9F7EACFB4E0A695979587957795DF
S1130FC06795BA95C9F700976105710508959B0166
S1130FD0AC010A2E06945795479537952795BA95EF
S1130FE0C9F7620F731F841F951FA01D08952F92C8
S1130FF03F924F925F926F927F928F929F92AF92A5
S1131000BF92CF92DF92EF92FF920F931F93CF93F1
S1131010DF93CDB7DEB7CA1BDB0B0FB6F894DEBF88
S11310200FBECDBF09942A88398848885F846E84AE
S11310307D848C849B84AA84B984C884DF80EE80F8
S1131040FD800C811B81AA81B981CE0FD11D0FB601
S1131050F894DEBF0FBECDBFED010895F894FFCF25
S11310600000000200000000FE03000000002573E1
S10B1070003132002564000088
S9030000FC
