S012000072696B7469675F62696C2E73726563F2
S11300000C9434000C94A2010C94AC010C94510097
S11300100C9451000C9451000C9451000C94B601B2
S11300200C9451000C9451000C9451000C94510008
S11300300C9451000C9451000C9451000C945100F8
S11300400C9451000C9451000C94C0010C94510078
S11300500C9451000C9451000C9451000C945100D8
S11300600C9451000C94510011241FBECFEFD8E022
S1130070DEBFCDBF11E0A0E0B1E0E4EDF8E002C0E6
S113008005900D92A432B107D9F721E0A4E2B1E0C2
S113009001C01D92A13CB207E1F70E94BE000C947E
S11300A068040C940000CF9381E70E9473000E94BF
S11300B0B400C82F0E949A008C2FCF910895CF933B
S11300C0C82F80E70E947300C09326018C2F0E94E2
S11300D0A2000E949A00CF9108951092B90080E284
S11300E08093B800089594EA9093BC009091BC006A
S11300F09923E4F79091B900987F983011F09031EA
S113010091F78093BB0094E89093BC009091BC005D
S11301109923E4F79091B900987F903211F09835C3
S113012041F494E99093BC009091BC0094FDFCCF01
S1130130DACF089584E98093BC008091BC0084FDEB
S1130140FCCF08958093BB0084E88093BC00809129
S1130150BC008823E4F78091B900887F883211F0CD
S113016081E0089580E0089584E88093BC00809144
S1130170BC008823E4F78091BB000895CF93DF93FC
S1130180CDB7DEB761970FB6F894DEBF0FBECDBF13
S113019080E091E09093BE018093BD010E94200312
S11301A00E94CB038FE39FE10197F1F700C00000A9
S11301B00E942A030E94FC030E94F4030E94AC02E2
S11301C00E9414030E946D008FEF0E945F0088B1AB
S11301D0816088B987B1816087B980E090E02CC0E4
S11301E0FC01EE0FFF1FE80FF91FE85AFE4F1182C2
S11301F09C0121703078332334F4215031092E6F5F
S11302003F6F2F5F3F4F2130310559F4FC01EE0F52
S1130210FF1FE80FF91FE85AFE4F2FEF22831082C9
S11302200AC0FC01EE0FFF1FE80FF91FE85AFE4F4A
S113023012822FEF20830196833191058CF263E1C2
S113024070E088E591E00E940704789485E0EEE090
S1130250F1E0DE01119601900D928A95E1F7FE011D
S113026036968CE0DF011D928A95E9F70E945300CF
S1130270182F4AE0BE016B5F7F4F84E190E00E943B
S11302803304FE0131967F0101900020E9F7319794
S1130290EE19FF09D701AE0FB11D00E20C93EF5F19
S11302A0B7016E0F711DDB011C924AE084E190E0FE
S11302B00E943304F70101900020E9F73197EE1909
S11302C0FF09D701AE0FB11D0C93EF5FD701AE0F3D
S11302D0B11D1C9222E01EC031E03E0FF0E081E02F
S11302E090E0022E02C0880F991F0A94E2F7412F72
S11302F050E0842395231816190614F481E301C0F1
S113030080E341E050E04C0F5D1FE40FF51F808354
S11303102F5FE32F263000F381E090E08C0F9D1FC8
S11303208E0F911DFC011082CE0101960E94DD0307
S11303309FEFA9E6B8E19150A040B040E1F700C0BA
S1130340000094CF1F920F920FB60F9211240F90BA
S11303500FBE0F901F9018951F920F920FB60F9219
S113036011240F900FBE0F901F9018951F920F929B
S11303700FB60F9211240F900FBE0F901F90189577
S11303801F920F920FB60F9211242F933F934F9306
S11303905F936F937F938F939F93AF93BF93CF9309
S11303A0DF93EF93FF93E0912401F0E08091C60086
S11303B0EE56FE4F8083E0912401F0E0EE56FE4FAE
S11303C080818A3009F0B0C0E0912401F0E0EE565B
S11303D0FE4F108280919401803309F4A2C0809171
S11303E094018133E9F480E290E00E949C03C3E02D
S11303F0D0E007C0FE01EE56FE4F80810E948A03C2
S11304002196FE01EE56FE4F80818111F3CF04C088
S113041080E20E948A032196CF30D105CCF381C0BB
S113042080919401823309F47CC0809194018333D8
S113043059F498B181E0892788B9E2E9F1E065814E
S113044084810E94D8026DC080919401843309F0A4
S11304504CC08091960181FF10C08091960180FF6D
S113046006C08091BA0181608093BA0115C0809161
S1130470BA018E7F8093BA010FC08091960180FFEC
S113048006C08091BA0182608093BA0105C0809150
S1130490BA018D7F8093BA018091BA01833059F4F7
S11304A080912701846080932701809127018D7FAB
S11304B08093270136C08091BA0181110BC08091CD
S11304C027018B7F8093270180912701826080938D
S11304D0270127C0809127018B7F8093270180917A
S11304E027018D7F809327011CC08091940185335F
S11304F031F48091270181608093270112C080919B
S11305009401863331F4809127018E7F80932701F3
S113051008C080919401873321F48FE191E00E9417
S1130520DD031092240105C0809124018F5F809324
S11305302401FF91EF91DF91CF91BF91AF919F91F2
S11305408F917F916F915F914F913F912F910F9078
S11305500FBE0F901F9018958AB180668AB984B136
S1130560806884B984B1806484B985B1806885B9B0
S113057085B1806485B984B1806884B98AB18160A9
S11305808AB98BB180688BB985B1816085B984B52E
S1130590836A84BD85B5816085BD17BC18BC8DB3E5
S11305A083608DBBE9E6F0E080818A6080830895F2
S11305B0611107C095B19F7795B995B19F7B95B9A6
S11305C00FC016163CF495B1906895B995B19F7B10
S11305D095B906C095B19F7795B995B1906495B9D1
S11305E0811107C09BB19F779BB995B19E7F95B947
S11305F00FC018163CF49BB190689BB995B19E7FCF
S113060095B906C09BB19F779BB995B1916095B997
S1130610082E000C990B99231CF49195819591094E
S1130620880F87BD87BD089580E480938000E1E84A
S1130630F0E080818860808384B18D7F84B90895DF
S113064084B1846084B987B1826087B985B18460DC
S113065085B908958CB581608CBD8CB58D7F8CBDBA
S113066085B18B7F85B989E30E94D80380E58A959B
S1130670F1F78DE10E94D80390E59A95F1F780E5B2
S11306800E94D80380E58A95F1F78CE60E94D8038E
S113069090E59A95F1F78CE70E94D80380E58A9556
S11306A0F1F788E30E94D80390E59A95F1F78FE07B
S11306B00E94D80380E58A95F1F781E00E94D8036F
S11306C08FEC97E00197F1F700C0000086E00E94EC
S11306D0D8038FE39FE10197F1F700C0000088B1D0
S11306E0826088B985B1846085B908959CB59160AC
S11306F09CBD9CB59D7F9CBD95B19B7F95B90E9487
S1130700D80380E58A95F1F785B1846085B980E0E6
S113071090E008959CB591609CBD9CB59D7F9CBD67
S113072095B19B7F95B90E94D80380E58A95F1F72E
S113073085B1846085B908950F931F93CF93DF9398
S11307408C018CB581608CBD8CB58D7F8CBD88B1DE
S11307508D7F88B985B18B7F85B982E00E94D803EB
S113076080E58A95F1F7C0E0D0E007C084E10E94FB
S1130770D80380E58A95F1F72196C017D107B4F321
S113078088B1826088B985B1846085B9DF91CF91E1
S11307901F910F91089584B1886284B98CB58065E6
S11307A08CBD8DB581608DBD8CB5837F8CBD089566
S11307B08EBD0DB407FEFDCF0895FC0107C08091E6
S11307C0C00085FFFCCF9093C600F9019F012F5F05
S11307D03F4F90819111F3CF8091C00085FFFCCFF2
S11307E08AE08093C600089502C08091C60080917B
S11307F0C0008823D4F308951092C5001092C40059
S113080088E98093C10086E08093C2000895FC01CA
S11308109B01220F331F620F731F84B1846084B95C
S1130820A5B1AB7F55B15460BFB7F89410C09F0118
S11308302F5F3F4F408168E055B947FFA5B9440F8A
S1130840000007F4A5B96A95B9F7BC01F901CB0119
S11308500197672B61F7BFBF87E592E00197F1F736
S113086000C000000895BB274A3031F4992322F4D4
S1130870BDE2909581959F4F0C943F04BB27FB01EB
S11308805527AA27880F991FAA1FA41710F0A41B85
S113089083955051B9F7A05DAA3308F0A95DA193DF
S11308A0009779F7B111B1931192CB010C945804CC
S11308B0DC01FC01672F71917723E1F7329704C0C3
S11308C07C916D9370836291AE17BF07C8F308954E
S10708D0F894FFCFC6
S11308D40000000200000000760300000000312044
S11308E4312000000000000000000000000000317E
S10708F420320000AA
S9030000FC
