S01100004D6F746F72546573742E7372656362
S11300000C943D000C94A1040C945A000C945A00D6
S11300100C945A000C945A000C945A000C94CE047C
S11300200C945A000C945A000C945A000C945A00E4
S11300300C945A000C945A000C945A000C945A00D4
S11300400C945A000C945A000C940E050C945A000B
S11300500C945A000C945A000C945A000C945A00B4
S11300600C945A000C945A0069065F0655064B0618
S1130070410637062D062306190611241FBECFEFAD
S1130080D8E0DEBFCDBF11E0A0E0B1E0E4EBFCE1DD
S113009002C005900D92A632B107D9F721E0A6E27D
S11300A0B1E001C01D92AD39B207E1F70E945401DD
S11300B00C94580E0C9400001092B90080E28093C6
S11300C0B800089594EA9093BC009091BC009923E1
S11300D0E4F79091B900987F983011F0903191F73E
S11300E08093BB0094E89093BC009091BC0099234A
S11300F0E4F79091B900987F903211F0983541F46B
S113010094E99093BC009091BC0094FDFCCFDACFAD
S1130110089584E98093BC008091BC0084FDFCCFE9
S113012008958093BB0084E88093BC008091BC0058
S11301308823E4F78091B900887F883211F081E048
S1130140089580E0089584E88093BC008091BC0009
S11301508823E4F78091BB00089584B18C6284B94C
S113016087B1826087B98CB580658CBD8DB581609F
S11301708DBD85B1846085B98CB5837F8CBD0895B0
S11301808EBD0DB407FEFDCF08959CB591609CBD56
S11301909CB59D7F9CBD95B19B7F95B90E94C00085
S11301A080E58A95F1F785B1846085B980E090E0B7
S11301B008958CB581608CBD8CB58D7F8CBD85B167
S11301C08B7F85B989E30E94C00080E58A95F1F7A9
S11301D08DE10E94C00090E59A95F1F780E50E94B8
S11301E0C00080E58A95F1F78CE60E94C00090E596
S11301F09A95F1F78CE70E94C00080E58A95F1F7A3
S113020088E30E94C00090E59A95F1F78FE00E9480
S1130210C00080E58A95F1F781E00E94C0008FEC70
S113022097E00197F1F700C0000086E00E94C0004B
S11302308FE39FE10197F1F700C0000088B182606D
S113024088B985B1846085B908950F931F93CF93BE
S1130250DF938C018CB581608CBD8CB58D7F8CBD9A
S113026088B18D7F88B985B18B7F85B982E00E9482
S1130270C00080E58A95F1F7C0E0D0E007C084E1D2
S11302800E94C00080E58A95F1F72196C017D10736
S1130290B4F388B1826088B985B1846085B9DF918F
S11302A0CF911F910F91089586E091E090939A0168
S11302B0809399010E94AD008FE39FE10197F1F7CC
S11302C000C000000E94D9000E9466070E94CB056E
S11302D00E945C0082E390E00E9483069093620196
S11302E08093610189E190E00E94830690938E01DE
S11302F080938D018DE190E00E94830690938C01A0
S113030080938B01C12CEE24E39408E025E044EAB9
S113031050ED64EA73E480916101909162010E945E
S1130320B00625E044EA50ED64EA73E4809161018B
S1130330909162010E94B006CC24C39420E040E076
S113034050E0BA0180916101909162010E94B0066F
S1130350C12C25E044EA50ED64EA73E48091610124
S1130360909162010E94B006CC24C39420E040E046
S113037050E0BA0180916101909162010E94B0063F
S1130380C12C25E044EA50ED62E873E480916101F8
S1130390909162010E94B00625E044EA50ED64EABF
S11303A073E480916101909162010E94B006CC24B3
S11303B0C39420E040E050E0BA0180916101909143
S11303C062010E94B006C12C25E040E050E064ECDC
S11303D073E480916101909162010E94B006CC2483
S11303E0C39404E020E040E050E0BA018091610150
S11303F0909162010E94B00608E020E040E050E0E5
S1130400BA0180916101909162010E94B006C12CF1
S113041024E040E050E064EC73E480916101909149
S113042062010E94B00604E024E048EB5EEF68EB52
S113043073E480918D0190918E010E94B00608E0D2
S113044025E04AE057E96AE873E480918D019091D0
S11304508E010E94B00624E04BE754E169EE73E498
S113046080918D0190918E010E94B00604E024E0F9
S11304704BE754E169EE73E480918D0190918E0114
S11304800E94B00608E024E046E656EA6FEC73E406
S113049080918D0190918E010E94B00624E048EB7A
S11304A05EEF68EB73E480918D0190918E010E9460
S11304B0B00624E048EB5EEF68EB73E480918D01B5
S11304C090918E010E94B00604E024E044EA50EFCB
S11304D066EF73E480918D0190918E010E94B006C5
S11304E008E024E04BE754E169EE73E480918D0168
S11304F090918E010E94B00624E04BE754E169EE2E
S113050073E480918D0190918E010E94B00624E0E5
S113051046E656EA6FEC73E480918D0190918E016A
S11305200E94B00624E046E656EA6FEC73E480913C
S11305308D0190918E010E94B00604E024E048EB06
S11305405EEF68EB73E480918D0190918E010E94BF
S1130550B00608E024E048EB5EEF68EB73E48091BA
S11305608D0190918E010E94B00604E024E048EBD6
S11305705EEF68EB73E480918B0190918C010E9493
S1130580B00608E024E040E050E06CED73E48091B4
S11305908B0190918C010E94B00625E04AE057E956
S11305A06AE873E480918B0190918C010E94B006FB
S11305B0CC24C39420E040E050E0BA0180918B0148
S11305C090918C010E94B006C12C24E040E050E0E0
S11305D06CED73E480918B0190918C010E94B006C4
S11305E0CC24C39420E040E050E0BA0180918B0118
S11305F090918C010E94B006C12C24E048EB5EEF80
S113060068EB73E480918B0190918C010E94B00699
S11306100F2EF3E0EF2EF02D00E224E04BE754ED33
S113062062E973E480918B0190918C010E94B00681
S1130630CC24C394EE24E39420E040E050E0BA01DB
S113064080918B0190918C010E94B006C12C0F2ED9
S1130650F3E0EF2EF02D24E04BE754ED62E973E470
S113066080918B0190918C010E94B006CC24C3949C
S1130670EE24E39420E040E050E0BA0180918B0145
S113068090918C010E94B006C12C0F2EF3E0EF2E46
S1130690F02D24E04BE754ED62E973E480918B0183
S11306A090918C010E94B006CC24C394EE24E39470
S11306B008E020E040E050E0BA0180918B01909185
S11306C08C010E94B00620E040E050E0BA01809125
S11306D08B0190918C010E94B00604E020E040E080
S11306E050E0BA0180918B0190918C010E94B00678
S11306F008E020E040E050E0BA0180918B01909145
S11307008C010E94B006C12C24E04AE057E96AE853
S113071073E480918B0190918C010E94B00624E0D7
S11307204BE754ED62E973E480918B0190918C0165
S11307300E94B00624E048EB5EEF68EB73E480911E
S11307408B0190918C010E94B00624E040E050E0BF
S11307506CED73E480918B0190918C010E94B00642
S113076025E04AE057E96AE873E480918B019091AF
S11307708C010E94B006CC24C39420E040E050E0F9
S1130780BA0180918B0190918C010E94B006C12C1A
S113079024E040E050E06CED73E480918B01909193
S11307A08C010E94B006CC24C39420E040E050E0C9
S11307B0BA0180918B0190918C010E94B006C12CEA
S11307C024E048EB5EEF68EB73E480918B01909139
S11307D08C010E94B0060F2EF3E0EF2EF02D25E0E1
S11307E044EA50ED64EA73E480918B0190918C01AA
S11307F00E94B006EE24E39425E044EA50E96BE954
S113080073E480918B0190918C010E94B00604E006
S113081025E04BE754ED62E973E480918B019091FC
S11308208C010E94B0061092600110925F01109238
S1130830900110928F0110925C0110925B01109252
S11308405A01109259011092920110929101109242
S11308505E0110925D018BB186608BB988B18160B5
S113086088B98AB180668AB987B1816087B984B151
S1130870806C84B985B1806485B985B18F7785B979
S113088084B58E7584BD84B5836A84BD85B58A7349
S113089085BD85B5816085BD8FE587BD88BD8DB378
S11308A081608DBBE9E6F0E080818360808384E62B
S11308B08093B300E0EBF0E0808182608083E1EB21
S11308C0F0E0808182608083E0E7F0E080818260F4
S11308D08083789480E70E9462008FEF0E949100E9
S11308E00E948900DFEF81E70E9462000E94A3005A
S11308F0C82F0E948900C2FD06C0D2FF04C084E153
S113090091E00E944F07C3FD06C0D3FF04C08AE1F3
S113091091E00E944F0780918F01909190019F93E5
S11309208F938EE191E09F938F930E947A0B80E0E6
S113093090E00E9425010F900F900F900F90DC2FF4
S1130940D2CF1F920F920FB60F9211248F939F93C1
S113095080915F0190916001019690936001809372
S11309605F0180915F0190916001C39781F41092BF
S1130970600110925F0180915B0190915C01909302
S1130980900180938F0110925C0110925B019F9102
S11309908F910F900FBE0F901F9018951F920F927A
S11309A00FB60F9211242F933F934F935F936F933E
S11309B07F938F939F93AF93BF93EF93FF93809114
S11309C05B0190915C01019690935C0180935B01C3
S11309D080915D0190915E01019690935E018093F8
S11309E05D0180915D0190915E010A9731F40E944E
S11309F0EE0610925E0110925D01FF91EF91BF919E
S1130A00AF919F918F917F916F915F914F913F91A2
S1130A102F910F900FBE0F901F9018951F920F9259
S1130A200FB60F9211242F933F934F935F936F93BD
S1130A307F938F939F93AF93BF93EF93FF93E09133
S1130A402601F0E08091C600ED59FE4F8083E091CD
S1130A502601F0E0ED59FE4F80818A3009F085C00F
S1130A60E0912601F0E0ED59FE4F1082809165017E
S1130A70833321F080916501833321F498B181E0BF
S1130A80892788B9809165018D3621F080916501AF
S1130A908D3431F480916101909162010E94E206EB
S1130AA080916501813621F080916501813431F4B2
S1130AB080918D0190918E010E94E20680916501E2
S1130AC0843621F080916501843431F485B18064E9
S1130AD085B985B18F7785B980916501833721F018
S1130AE080916501833531F485B18F7B85B985B1FA
S1130AF08F7785B980916501823721F080916501F6
S1130B00823531F485B18F7B85B985B1806885B92B
S1130B1080916501883621F080916501883431F433
S1130B2087B58F5E87BD88B58F5E88BD809165016E
S1130B308C3621F0809165018C3431F487B5815174
S1130B4087BD88B5815188BD80916501863721F0C4
S1130B5080916501863531F4E3E6F1E0848187BD57
S1130B60848188BD1092260105C0809126018F5F83
S1130B7080932601FF91EF91BF91AF919F918F9147
S1130B807F916F915F914F913F912F910F900FBE85
S1130B900F901F90189580E480938000E1E8F0E0C6
S1130BA080818860808384B18D7F84B9089584B105
S1130BB08D7F84B90895CF92DF92EF92FF92CF9305
S1130BC0C42F20E030E040E853E40E940D099B016B
S1130BD0AC0160E074E284EF9AE40E94DE076B01EA
S1130BE07C016C2F70E080E090E00E948108A701F6
S1130BF096010E940D0920E030E040E85FE30E9486
S1130C0071070E947A090E945008862FCF91FF90A5
S1130C10EF90DF90CF9008950F931F93042F10E06F
S1130C200930110508F06CC0F801EC5CFF4F0C941E
S1130C30FA09E1E8F0E020812260208320812A7F04
S1130C40208341E04FC0E1E8F0E02081226020836E
S1130C5020812A7F208342E045C0E1E8F0E0208142
S1130C602260208320812A7F208344E03BC0E1E886
S1130C70F0E020812360208320812B7F208341E0CA
S1130C8031C0E1E8F0E020812360208320812B7FC4
S1130C90208342E027C0E1E8F0E020812460208343
S1130CA020812C7F208341E01DC0E1E8F0E0208119
S1130CB02460208320812C7F208342E013C0E1E85C
S1130CC0F0E020812560208320812D7F208341E076
S1130CD009C0E1E8F0E020812560208320812D7F98
S1130CE0208342E00E94DB0590E09093890080938A
S1130CF08800109285001092840084B1826084B9C7
S1130D001F910F9108950F931F93CF93DF938C013D
S1130D106AE070E081E090E00E94360AEC019801FC
S1130D20110F440B550B60E67AEE80E090E00E94D0
S1130D30DB093F832E83198618866AE070E081E020
S1130D4090E00E94360A99838883FC011182108204
S1130D509D838C83CE01DF91CF911F910F910895D4
S1130D608F929F92AF92BF92CF92EF920F931F9365
S1130D70CF93DF93EC014A015B01122F6AE070E02C
S1130D8081E090E00E94360AFC0111821082828286
S1130D909382A482B58216830783E086C186AC81E0
S1130DA0BD818D939C939D838C839B838A83DF91E8
S1130DB0CF911F910F91EF90CF90BF90AF909F90E4
S1130DC08F900895FC019093280180932701118648
S1130DD0108680819181938382830895E091270115
S1130DE0F0912801309709F459C080859185892BA9
S1130DF029F080859185019791878087A281B381AD
S1130E008D919C91892B59F480859185892B39F496
S1130E100E94D70510922801109227010895808519
S1130E209185019719F40E94D705089580859185CD
S1130E30892BA1F5A281B3818D919C9193838283A7
S1130E40A281B38119968C9181110EC0A281B381C4
S1130E500280F381E02D62817381848195811696ED
S1130E604C910E940C0602C00E94D705E091270114
S1130E70F0912801A281B38118962C9186819781E3
S1130E80A281B38117966C9170E00E94C709269FD6
S1130E90C001279F900D1124918780870895FC013C
S1130EA007C08091C00085FFFCCF9093C600F90174
S1130EB09F012F5F3F4F90819111F3CF8091C0002C
S1130EC085FFFCCF8AE08093C60008951092C50088
S1130ED01092C40088E98093C10086E08093C20028
S1130EE008955058BB27AA270E9489070C94D30859
S1130EF00E94C50838F00E94CC0820F039F49F3FC6
S1130F0019F426F40C94C2080EF4E095E7FB0C9453
S1130F10BC08E92F0E94E40858F3BA176207730764
S1130F208407950720F079F4A6F50C9406090EF4CD
S1130F30E0950B2EBA2FA02D0B01B90190010C01E5
S1130F40CA01A0011124FF27591B99F0593F50F4FD
S1130F50503E68F11A16F040A22F232F342F442755
S1130F60585FF3CF469537952795A795F04053954D
S1130F70C9F77EF41F16BA0B620B730B840BBAF01D
S1130F809150A1F0FF0FBB1F661F771F881FC2F788
S1130F900EC0BA0F621F731F841F48F4879577959C
S1130FA06795B795F7959E3F08F0B0CF9395880F56
S1130FB008F09927EE0F9795879508950E94F207F8
S1130FC00C94D3080E94CC0858F00E94C50840F045
S1130FD029F45F3F29F00C94BC0851110C940709C3
S1130FE00C94C2080E94E40868F39923B1F35523D2
S1130FF091F3951B550BBB27AA2762177307840728
S113100038F09F5F5F4F220F331F441FAA1FA9F3BD
S113101035D00E2E3AF0E0E832D091505040E695AB
S1131020001CCAF72BD0FE2F29D0660F771F881F0C
S1131030BB1F261737074807AB07B0E809F0BB0BFF
S1131040802DBF01FF2793585F4F3AF09E3F510513
S113105078F00C94BC080C9407095F3FE4F3983EC5
S1131060D4F3869577956795B795F7959F5FC9F7FC
S1131070880F911D9695879597F90895E1E0660F7D
S1131080771F881FBB1F621773078407BA0720F0F6
S1131090621B730B840BBA0BEE1F88F7E09508955F
S11310A00E94EC0888F09F5798F0B92F9927B75100
S11310B0B0F0E1F0660F771F881F991F1AF0BA95F8
S11310C0C9F714C0B13091F00E940609B1E0089547
S11310D00C940609672F782F8827B85F39F0B93F39
S11310E0CCF3869577956795B395D9F73EF49095AB
S11310F08095709561957F4F8F4F9F4F0895E89429
S113110009C097FB3EF490958095709561957F4F4B
S11311108F4F9F4F9923A9F0F92F96E9BB279395F9
S1131120F695879577956795B795F111F8CFFAF409
S1131130BB0F11F460FF1BC06F5F7F4F8F4F9F4F3A
S113114016C0882311F096E911C0772321F09EE898
S1131150872F762F05C0662371F096E8862F70E0FE
S113116060E02AF09A95660F771F881FDAF7880FD8
S11311709695879597F9089597F99F6780E870E0A9
S113118060E008959FEF80EC089500240A941616F9
S1131190170618060906089500240A941216130661
S11311A0140605060895092E0394000C11F48823EF
S11311B052F0BB0F40F4BF2B11F460FF04C06F5F0B
S11311C07F4F8F4F9F4F089557FD9058440F551FE1
S11311D059F05F3F71F04795880F97FB991F61F0B5
S11311E09F3F79F087950895121613061406551F2C
S11311F0F2CF4695F1DF08C0161617061806991F98
S1131200F1CF86957105610508940895E894BB278C
S113121066277727CB0197F908950E9420090C943B
S1131220D3080E94C50838F00E94CC0820F095230A
S113123011F00C94BC080C94C20811240C940709F6
S11312400E94E40870F3959FC1F3950F50E0551F79
S1131250629FF001729FBB27F00DB11D639FAA2707
S1131260F00DB11DAA1F649F6627B00DA11D661F56
S1131270829F2227B00DA11D621F739FB00DA11D77
S1131280621F839FA00D611D221F749F3327A00D31
S1131290611D231F849F600D211D822F762F6A2FCD
S11312A011249F5750409AF0F1F088234AF0EE0F32
S11312B0FF1FBB1F661F771F881F91505040A9F75F
S11312C09E3F510580F00C94BC080C9407095F3FC5
S11312D0E4F3983ED4F3869577956795B795F7959B
S11312E0E7959F5FC1F7FE2B880F911D9695879513
S11312F097F908950E94EC08E8F09E37E8F09639D3
S1131300B8F49E3848F4672F782F8827985FF9CF70
S113131086957795679593959539D0F3B62FB170E7
S11313206B0F711D811D20F48795779567959395B3
S11313300C949E090C94B9090C940709882371F440
S1131340772321F09850872B762F07C0662311F45A
S113135099270DC09051862B70E060E02AF09A9591
S1131360660F771F881FDAF7880F9695879597F988
S113137008959F3F31F0915020F4879577956795B4
S1131380B795880F911D9695879597F9089597FBC2
S1131390072E16F4009407D077FD09D00E94000AA6
S11313A007FC05D03EF4909581959F4F0895709564
S11313B061957F4F0895052E97FB1EF400940E94BB
S11313C0F20957FD07D00E94140A07FC03D04EF41B
S11313D00C94F20950954095309521953F4F4F4F0D
S11313E05F4F089590958095709561957F4F8F4FCD
S11313F09F4F0895EE0FFF1F0590F491E02D09947F
S1131400AA1BBB1B51E107C0AA1FBB1FA617B70726
S113141010F0A61BB70B881F991F5A95A9F7809542
S11314209095BC01CD010895A1E21A2EAA1BBB1B05
S1131430FD010DC0AA1FBB1FEE1FFF1FA217B3079C
S1131440E407F50720F0A21BB30BE40BF50B661FB2
S1131450771F881F991F1A9469F760957095809576
S113146090959B01AC01BD01CF0108950F931F938B
S1131470CF93DF93869F8001879F100D969F100D59
S11314801124C8010E94520AEC01009729F0A80116
S113149060E070E00E94730BCE01DF91CF911F9149
S11314A00F9108950F931F93CF93DF93823091058B
S11314B010F482E090E0E0919501F091960120E033
S11314C030E0A0E0B0E0309719F140815181028111
S11314D0138148175907C8F08417950769F41097C2
S11314E031F012960C93129713961C9327C0009315
S11314F095011093960122C02115310519F0421768
S1131500530718F49A01BD01EF01DF01F801DBCFA5
S113151021153105F9F0281B390B2430310580F4ED
S11315208A819B816115710521F0FB01938382837C
S113153004C09093960180939501FE01329644C0B5
S1131540FE01E20FF31F81939193225031093983F5
S113155028833AC02091930130919401232B41F4C4
S1131560209102013091030130939401209393015F
S113157020910001309101012115310541F42DB76D
S11315803EB74091040150910501241B350BE091B5
S11315909301F0919401E217F307A0F42E1B3F0B83
S11315A02817390778F0AC014E5F5F4F24173507D1
S11315B048F04E0F5F1F5093940140939301819321
S11315C0919302C0E0E0F0E0CF01DF91CF911F9151
S11315D00F910895CF93DF93009709F481C0FC0124
S11315E0329713821282A0919501B09196011097BF
S11315F081F420813181820F931F209193013091D6
S113160094012817390751F5F0939401E09393015D
S113161067C0ED0120E030E0CE17DF0740F44A81D7
S11316205B819E0141155105F1F0EA01F5CFD383A9
S1131630C28340815181840F951FC817D90759F47B
S113164088819981840F951F0296918380838A8172
S11316509B81938382832115310529F4F0939601AC
S1131660E09395013DC0E901FB83EA8349915991D7
S1131670C40FD51FEC17FD0761F480819181840F9D
S1131680951F0296E90199838883828193819B83C4
S11316908A83E0E0F0E012968D919C911397009775
S11316A019F0FD01DC01F7CF8D919C9111979D01FB
S11316B02E5F3F4F820F931F20919301309194012D
S11316C02817390769F4309729F41092960110927B
S11316D0950102C013821282B0939401A0939301E6
S11316E0DF91CF910895DC0101C06D9341505040CA
S11316F0E0F70895A0E0B0E0E0E8FBE00C94310EE0
S1131700AE014B5F5F4FFA0161917191AF0180911E
S1131710990190919A010E94900BE2E00C944D0E75
S1131720ABE0B0E0E6E9FBE00C94210E6C017B0138
S11317308A01FC0117821682838181FFCCC1CE010C
S113174001963C01F6019381F70193FD859193FF86
S113175081917F01882309F4BAC1853239F493FD5C
S1131760859193FF81917F01853229F4B60190E040
S11317700E94870DE7CF912C212C312CFFE1F3152A
S1131780D8F08B3279F038F4803279F08332A1F4D6
S1131790232D20611DC08D3261F0803369F4232D27
S11317A0216016C0832D8260382EE32DE4603E2E26
S11317B02AC0F32DF8601DC037FC2DC020ED280F82
S11317C02A3040F08E32B9F436FC81C1232D2064D6
S11317D0322E19C036FE06C08AE0989E200D1124D0
S11317E0922E11C0EAE02E9E200D1124222EF32DFC
S11317F0F0623F2E08C08C3621F4832D8068382E89
S113180002C0883641F4F70193FD859193FF8191DD
S11318107F018111B3CF982F9F7D9554933028F485
S11318200C5F1F4F9FE399830DC0833631F08337DC
S113183071F0833509F059C021C0F8018081898392
S11318400E5F1F4F88248394912C530113C02801E9
S1131850F2E04F0E511CF801A080B18036FE03C0A7
S1131860692D70E002C06FEF7FEFC5010E947C0D0F
S11318704C018201F32DFF773F2E16C0280122E090
S1131880420E511CF801A080B18036FE03C0692DC0
S113189070E002C06FEF7FEFC5010E94710D4C0133
S11318A0F32DF0683F2E820133FC1BC0822D90E0A3
S11318B088169906B0F4B60180E290E00E94870D84
S11318C02A94F4CFF50137FC859137FE81915F01AD
S11318D0B60190E00E94870D21102A9421E0821A1B
S11318E091088114910471F7E8C0843611F08936A7
S11318F041F5F80137FE07C06081718182819381CF
S11319000C5F1F4F08C060817181072E000C880B8B
S1131910990B0E5F1F4FF32DFF763F2E97FF09C0E3
S113192090958095709561957F4F8F4F9F4FF0688C
S11319303F2E2AE030E0A3010E94C30D882E8618B2
S113194045C0853731F4232D2F7EB22E2AE030E0B6
S113195025C0932D997FB92E8F36C1F018F48835A0
S113196079F0B5C0803719F0883721F0B0C0E92F7D
S1131970E061BE2EB4FE0DC0FB2DF460BF2E09C085
S113198034FE0AC0292F2660B22E06C028E030E0BB
S113199005C020E130E002C020E132E0F801B7FEEA
S11319A007C060817181828193810C5F1F4F06C0E3
S11319B06081718180E090E00E5F1F4FA3010E945F
S11319C0C30D882E8618FB2DFF773F2E36FE0DC0E3
S11319D0232D2E7FA22E891458F434FE0BC032FC22
S11319E009C0832D8E7EA82E05C0B82CA32C03C05D
S11319F0B82C01C0B92CA4FE0FC0FE01E80DF11DE6
S1131A008081803321F49A2D997EA92E09C0A2FEEB
S1131A1006C0B394B39404C08A2D867809F0B394B5
S1131A20A3FC11C0A0FE06C0B21488F4280C922CAA
S1131A309B180EC0B21460F4B60180E290E00E94DC
S1131A40870DB394F7CFB21418F42B1802C0982C56
S1131A50212CA4FE10C0B60180E390E00E94870D03
S1131A60A2FE17C0A1FC03C088E790E002C088E58D
S1131A7090E0B6010CC08A2D867859F0A1FE02C010
S1131A808BE201C080E2A7FC8DE2B60190E00E94E7
S1131A90870D891438F4B60180E390E00E94870D25
S1131AA09A94F7CF8A94F301E80DF11D8081B60171
S1131AB090E00E94870D8110F5CF222009F442CED8
S1131AC0B60180E290E00E94870D2A94F6CFF601D9
S1131AD08681978102C08FEF9FEF2B96E2E10C94F1
S1131AE03D0EFC010590615070400110D8F78095BF
S1131AF090958E0F9F1F0895FC01615070400190D6
S1131B000110D8F7809590958E0F9F1F08950F931D
S1131B101F93CF93DF93FB01238121FD03C08FEF3C
S1131B209FEF2CC022FF16C0468157812481358146
S1131B304217530744F4A081B1819D012F5F3F4FA9
S1131B40318320838C93268137812F5F3F4F3783E6
S1131B50268314C08B01EC01FB010084F185E02D88
S1131B600995892BE1F6D80116968D919C911797CA
S1131B70019617969C938E931697CE01DF91CF9181
S1131B801F910F910895FA01AA27283051F12031AD
S1131B9081F1E8946F936E7F6E5F7F4F8F4F9F4FFD
S1131BA0AF4FB1E03ED0B4E03CD0670F781F891F3F
S1131BB09A1FA11D680F791F8A1F911DA11D6A0F0D
S1131BC0711D811D911DA11D20D009F468943F91C0
S1131BD02AE0269F11243019305D3193DEF6CF01BF
S1131BE00895462F4770405D4193B3E00FD0C9F785
S1131BF0F6CF462F4F70405D4A3318F0495D31FDF2
S1131C004052419302D0A9F7EACFB4E0A695979544
S1131C10879577956795BA95C9F70097610571051A
S1131C2008959B01AC010A2E069457954795379564
S1131C302795BA95C9F7620F731F841F951FA01DBE
S1131C4008952F923F924F925F926F927F928F925C
S1131C509F92AF92BF92CF92DF92EF92FF920F9337
S1131C601F93CF93DF93CDB7DEB7CA1BDB0B0FB641
S1131C70F894DEBF0FBECDBF09942A8839884888FE
S1131C805F846E847D848C849B84AA84B984C88494
S1131C90DF80EE80FD800C811B81AA81B981CE0F8B
S1131CA0D11D0FB6F894DEBF0FBECDBFED01089570
S1071CB0F894FFCFD2
S1131CB400009D0120000000000200000000C50097
S1131CC40000000031207020310030206C002575A4
S1091CD420202020200066
S9030000FC
