S00E0000466A617272322E73726563EF
S11300000C944F000C946C000C946C000C946C00D9
S11300100C946C000C946C000C946C000C946C00AC
S11300200C946C000C946C000C946C000C946C009C
S11300300C946C000C946C000C94120A0C946C00DC
S11300400C946C000C946C000C94720A0C946C006C
S11300500C946C000C946C000C946C000C946C006C
S11300600C946C000C946C00AD0AB60ABB0AC40A6A
S1130070160B220B240B0E11111111110E1F11114D
S11300800A040A11111F000000000000001F0E15D1
S1130090151F15150E0011151F0E1F151100112423
S11300A01FBECFEFD8E0DEBFCDBF13E0A0E0B1E0CC
S11300B0E4ECFEE102C005900D92A233B107D9F73A
S11300C025E0A2E3B3E001C01D92A437B207E1F733
S11300D00E94F1070C94600F0C940000EAE7F0E032
S11300E08081876880830895ECE7F0E080838081D5
S11300F080648083EAE7F0E080818064808380818B
S113010086FDFDCF209178008091790090E0982FB2
S11301108827820F911D95958795959587950895C4
S113012029980895299A089580E091E090937105A3
S11301308093700508952A988EBD0DB407FEFDCFF7
S11301402A9A08950E94900089E30E949B008FE9F7
S11301509FE00197F1F700C000008DE10E949B0031
S11301608FE99FE00197F1F700C0000080E50E944D
S11301709B008FE99FE00197F1F700C000008CE637
S11301800E949B008FE99FE00197F1F700C00000F7
S113019088E70E949B008FE99FE00197F1F700C078
S11301A0000088E30E949B008FE99FE00197F1F72C
S11301B000C000008FE00E949B008FE99FE0019740
S11301C0F1F700C0000081E00E949B008FE99FE0EE
S11301D00197F1F700C0000086E00E949B008FE9C0
S11301E09FE00197F1F700C000008CE00E949B00A3
S11301F08FE99FE00197F1F700C000000E94920090
S113020080E091E0909371058093700508950E94B9
S11302109B0080E58A95F1F780E090E00895CF9304
S1130220C82F0E9490008C2F80680E949B000E941F
S1130230920080E58A95F1F7CF9108950E9490008D
S113024081E00E949B000E9492008FE99FE0019749
S1130250F1F700C000000895CF938295807F0E943B
S11302600F01C0E180E20E949B0080E58A95F1F7CE
S1130270C150C1F7CF910895CF9380E00E940F0140
S1130280C0E280E20E949B0080E58A95F1F7C150AC
S1130290C1F780E00E940F01CF9108950F931F933F
S11302A0CF93DF9328E0829FC0011124D82FD0641C
S11302B0062F172FC0E00E9490008C2F8D2B0E94D8
S11302C09B0080E58A95F1F70E949200F8018491E1
S11302D00E949B00F0E5FA95F1F7CF5F0F5F1F4F87
S11302E0C83049F7DF91CF911F910F91089566E9C6
S11302F070E081E00E944E016EE870E082E00E94AE
S11303004E0166E870E083E00E944E016EE770E003
S113031084E00E944E0166E770E085E00E944E0191
S1130320089597E0909336039093350396E0909365
S1130330320380930E0120E030E05FE040E213C01E
S1130340589FF001599FF00D1124E251FC4FE20F28
S1130350F31F408301968F30910591F72F5F3F4F34
S11303602F30310519F080E090E0EACF08958091B4
S11303703603811103C081E08093360380913603F4
S11303808150809336030895809136038F5F809364
S11303903603809136038F3018F08EE08093360355
S11303A0089580913503811103C081E08093350362
S11303B0809135038150809335039091350380916A
S11303C03203981720F48091350380933203089503
S11303D0809135038F5F80933503809135038F308F
S11303E018F08EE080933503209135038091320319
S11303F030E090E00296821793072CF48091350345
S1130400825080933203089520910E012223A9F192
S1130410E0913603209135033FE0E39FF00111247E
S1130420E251FC4FE20FF11D2081203231F5209181
S11304303603209334032091350320933303109221
S11304400E01E0913603209135033FE0E39FF00174
S11304501124E251FC4FE20FF11D28E52083FC0139
S1130460608323E3218320913603205D228320913E
S11304703503205D238314820895FC0110820895BE
S1130480FC0181E080930E01928190539093340398
S113049083818053809333038091340380933603A4
S11304A08091330380933503E091340380913303C7
S11304B09FE0E99FF0011124E251FC4FE80FF11D88
S11304C08FE480839091330380913203981720F452
S11304D0809133038093320320913303809132035C
S11304E030E090E00296821793072CF48091330356
S11304F08250809332030895CF93DC01C09132037C
S11305006C2F70E08091320390E0039668177907AE
S1130510A4F550E08FE0C93038F4FD01E50FF11D7A
S113052091E39C0F908306C0FD01E50FF11D98E354
S11305309C0F908391E0950F505F20E030E0829F04
S1130540F001839FF00D1124E251FC4FE60FF71FD9
S11305504081FD01E90FF11D40839F5F2F5F3F4FF5
S11305605913EDCFCF5F6C2F70E02091320330E050
S11305702D5F3F4F6217730774F2909135032091FA
S1130580320380913603921B8F5F20E1929F800D8E
S1130590112490910E01992389F0FD01E80FF11DBA
S11305A080818F3429F0883531F481E0808316C04E
S11305B082E0808313C08AE2808310C0FD01E80FCB
S11305C0F11D80818F3429F0883531F484E08083F3
S11305D005C085E0808302C083E08083D0961C92AE
S11305E0CF9108958F3080F46F3080F49FE0899F1D
S11305F0F0011124E251FC4FE60FF11D908181E0DE
S1130600941729F080E0089580E0089580E008952B
S1130610FF920F931F93CF93DF93E0913403809164
S113062033039FE0E99FF0011124E251FC4FE80FEE
S1130630F11DC0811091340300913303D1E001C056
S1130640DF5F4C2F602F812F8D1B0E94F2028111DE
S1130650F7CF80913403182FD81BFD2EF10E1F5FA6
S11306604C2F602F812F0E94F2028111F6CF84E07B
S11306708F1508F46DC000913403D091330311E059
S113068001C01F5F4C2F6D2F611B802F0E94F2024F
S11306908111F7CF80913303D82F181BF12EFD0E53
S11306A0DF5F4C2F6D2F802F0E94F2028111F6CF55
S11306B094E09F1508F44EC000913403D0913303A5
S11306C011E001C01F5F4C2F6D2F611B802F811B18
S11306D00E94F2028111F6CF00913403809133031A
S11306E0D82F181B081BF12EFD0EDF5F4C2F6D2F2A
S11306F0802F8D0F0E94F2028111F5CF84E08F15B7
S113070058F10091340310913303D1E001C0DF5F4D
S11307104C2F6D2F610F802F8D1B0E94F2028111CF
S1130720F6CF8091340300913303182FD81BFD2E8C
S1130730F10E01501F5F4C2F602F812F0E94F20297
S11307408111F5CF81E094E09F1538F080E005C079
S113075081E003C081E001C081E0DF91CF911F916E
S11307600F91FF90089584B18F6284B98CB581652F
S11307708CBD2098289A389888B1876288B9529895
S11307805A9A8AB1806E8AB98BB18F718BB98DE414
S113079087BD82E084BD95E095BD80936E000E9484
S11307A0A2000E946E000E94F30B0E94100C0E9493
S11307B07701789408950F931F93CF93DF9385E087
S11307C00E940F010DE113E01F930F930E94520C3E
S11307D085E00E940F0180915B031F928F93C4E414
S11307E0D2E0DF93CF930E94520C8DE00E940F0160
S11307F01F930F930E94520C8DE00E940F01809171
S11308005A031F928F93DF93CF930E94520C82E17D
S11308100E940F010CE113E01F930F930E94520CEE
S113082082E10E940F0180915803909159039F9394
S11308308F93DF93CF930E94520C88E10E940F01A3
S11308401F930F930E94520C88E10E940F01809124
S11308505603909157039F938F93DF93CF930E94F6
S1130860520C8EE10E940F011F930F930E94520CB1
S11308708EE10E940F01809132021F928F93DF93C9
S1130880CF930E94520C8DB79EB74E960FB6F89434
S11308909EBF0FBE8DBFDF91CF911F910F91089521
S11308A080914E03811106C0329904C081E0809387
S11308B04D0302C010924D03329907C081E080932A
S11308C04E038AE080934F0306C080914F03811149
S11308D002C010924E0380914C0381115EC018999E
S11308E061C081E080934B0304C081E080934A039C
S11308F002C010924A0383B18095817080934C03A7
S113090080914903811106C0309904C081E080932D
S1130910480302C01092480386B180958170809389
S1130920490380914703811106C0319904C081E0D5
S11309308093460302C01092460386B18695817067
S113094091E089278093470380914503811106C074
S1130950359904C081E08093440302C0109244039B
S113096086B185FB992790F981E089278093450317
S113097080914303811106C04A9904C081E08093A9
S1130980420302C01092420389B182FB992790F975
S113099081E0892780934303089510924B031899AB
S11309A0A4CFA7CF10924B03A4CF80915B038830D0
S11309B018F410925B0313C080915B03893F20F00D
S11309C08FEF80935B030BC080915B03893738F012
S11309D080915B03883818F480E880935B038091EE
S11309E05A03883018F410925A0313C080915A03A2
S11309F0893F20F08FEF80935A030BC080915A03F4
S1130A00893738F080915A03883818F480E8809345
S1130A105A0380915B0320915A0390E0821B910951
S1130A20909359038093580320915B0380915A0358
S1130A3090E0820F911D9A959093570380935603EB
S1130A40809158039091590381389F4F3CF481E879
S1130A509FEF90935903809358031FC080915803CC
S1130A6090915903803891053CF08FE790E0909382
S1130A7059038093580311C08091580390915903EE
S1130A808F3F9F4F54F080915803909159030297E0
S1130A9024F4109259031092580360913202809109
S1130AA058039091590370E00E941D0C70935903F0
S1130AB060935803809156039091570381389F4F58
S1130AC03CF481E89FEF90935703809356031FC033
S1130AD08091560390915703803891053CF08FE73D
S1130AE090E0909357038093560311C0809156036E
S1130AF0909157038F3F9F4F54F0809156039091EC
S1130B005703029724F410925703109256036091EE
S1130B103202809156039091570370E00E941D0C9D
S1130B2070935703609356030895109253031092E1
S1130B30520380915B03813440F080915B03803CDD
S1130B4020F481E0809355032DC0809155038823C0
S1130B5049F11092550380915B03813890F08091A4
S1130B605C03803128F480915C03805D80935C0396
S1130B7080915C03805180935C0381E080935303F4
S1130B8011C080915C03805F80935C0380915C035F
S1130B90803328F080915C03805380935C0381E070
S1130BA080935203109251031092500380915A0380
S1130BB0813440F080915A03803C20F481E080939A
S1130BC054030895809154038823C9F11092540367
S1130BD080915A038138D0F080915C03882341F0DE
S1130BE080915C03803121F080915C03803229F490
S1130BF080915C03805F80935C0380915C038150EF
S1130C0080935C0381E080935103089580915C0399
S1130C108F5F80935C0380915C03803141F080910D
S1130C205C03803221F080915C03803329F480914D
S1130C305C03805180935C0381E0809350030895AA
S1130C40CF9380913102882361F00E943C0187E4B4
S1130C5092E09F938F930E94520C109231020F9056
S1130C600F9080915303882371F080913C0381118C
S1130C7005C080913C038B5F80933C0380913C03CF
S1130C80815080933C0380915203882371F08091BA
S1130C903C038F5F80933C0380913C03853028F0B4
S1130CA080913C03855080933C0380914D038823BD
S1130CB059F10E94090C80913C03C1E1C89FC00115
S1130CC0112484529E4F9F938F9384E592E09F93C7
S1130CD08F930E94520C80913C03C89FC001112441
S1130CE084529E4F9F938F938AE592E09F938F93B4
S1130CF00E94520C0E9494008DB79EB708960FB6BE
S1130D00F8949EBF0FBE8DBF80E10E940F018091B9
S1130D103C0321E1829FC001112484529E4F9F9382
S1130D208F9380E692E09F938F930E94520C0F90D2
S1130D300F900F900F90CF910895CF93809131022F
S1130D40882361F00E943C0183E692E09F938F9395
S1130D500E94520C109231020F900F908091530315
S1130D60882371F08091DB01811105C08091DB0142
S1130D70855F8093DB018091DB0181508093DB01EF
S1130D8080915203882371F08091DB018F5F8093FF
S1130D90DB018091DB018B3028F08091DB018B50EB
S1130DA08093DB0180914D038823D9F08091DB018E
S1130DB091E0980F9A3018F4C1E3C80F02C0C8E359
S1130DC0C80F0E94090C1F92CF938DE692E09F9367
S1130DD08F930E94520C0E9494000F900F900F90DA
S1130DE00F9080E10E940F018091DB0121E1829F3D
S1130DF0C0011124805E9E4F9F938F9380E692E002
S1130E009F938F930E94520C0F900F900F900F900E
S1130E10CF9108950F931F93CF93DF938091310265
S1130E20882321F00E943C011092310280E00E944C
S1130E300F01C0E0D0E00AE110E080913A039E0186
S1130E40280F311DC901B8010E941D0C60E070E03B
S1130E508F5B0E9407012196C031D10571F78FE0A5
S1130E6091E09F938F9380E692E09F938F930E94EB
S1130E70520C0F900F900F900F9080915103882384
S1130E8061F080913A03811103C08AE180933A03AF
S1130E9080913A03815080933A03809150038823D0
S1130EA059F080913A038F5F80933A0380913A031B
S1130EB08A3110F010923A0380915303882371F021
S1130EC080913A03885F80933A0380913A038A3190
S1130ED028F080913A038A5180933A038091520317
S1130EE0882371F080913A03883028F480913A0382
S1130EF0865E80933A0380913A03885080933A0344
S1130F0080914D03882391F080913B03803170F4EC
S1130F10E0913B03F0E080913A038F5BE15FFE4F89
S1130F20808380913B038F5F80933B03DF91CF915C
S1130F301F910F91089584E095E00E947C0280E067
S1130F400E940F0184E095E09F938F9380E692E0E6
S1130F509F938F930E94520C0F900F900F900F90BD
S1130F6080915103882319F00E94B70105C0809134
S1130F70500381110E94C40180915303882319F006
S1130F800E94D10105C08091520381110E94E801A1
S1130F9080914D03882321F162E38FEF94E00E9456
S1130FA004028091FF048823D9F00E940803882357
S1130FB079F010923F031092410381E08093310253
S1130FC010925E0310925D0383E792E00E94800B0F
S1130FD00E94090C8FEF94E00E94680C0E94940018
S1130FE008950E94B3036894552455F80F2EF0E633
S1130FF0CF2EF2E0DF2EF02D442443940F2EF7EE93
S11310008F2EF2E09F2EF02D0F2EFAED6F2EF2E0D0
S11310107F2EF02D0F2EF5E03F2EF02D0F2EF0E653
S1131020AF2EFAEEBF2EF02DCFE0D1E00F2EF3EC71
S1131030EF2EF2E0FF2EF02D02EA12E08091410340
S11310408530F9F00E94C50B80913502811119C0D9
S1131050852D0E940F010E94E90BFC018081811102
S113106004C082E00E942C010CC00E94E90B9F93F3
S11310708F93DF92CF920E94520C0F900F900F909B
S11310800F9084E00E94740080935B0383E00E94CD
S1131090740080935A030E94500480914B03882368
S11310A091F080915D0390915E03892B61F40E941D
S11310B0090C80E892E00E94680C84E892E00E94A7
S11310C0680C0E94940080914A038823C1F08091A7
S11310D05D0390915E03892B91F4409231020E944A
S11310E0090C88E892E00E94680C8EE892E00E9465
S11310F0680C82E992E00E94680C0E94940080913E
S11311004C03882309F498C080915D0390915E0399
S1131110892B09F091C080914803882341F00E94F3
S1131120090C86E992E00E94680C0E949400809168
S11311304603882359F0809132028F5F80933202F4
S113114080913202843010F0409232028091440344
S1131150882341F00E94090C8AE992E00E94680CFD
S11311600E94940080914203882341F00E94090C5C
S11311708EE992E00E94680C0E9494000E94D504BB
S113118080914B03882379F080914103853019F4D1
S11311900E941E0102C00E943C011F930F930E94F3
S11311A0520C0F900F900E94DB0380913402811146
S11311B045CF809139032091580330915903082E6B
S11311C0000C990B8217930769F4809138032091DE
S11311D0560330915703082E000C990B821793077E
S11311E009F42CCF0E94090C209156033091570327
S11311F080915803909159033F932F939F938F931A
S1131200FF92EF920E94520C0E9494008AE0809315
S1131210340280915803909159038093390380914B
S1131220560390915703809338030F900F900F90BB
S11312300F900F900F9002CF80914803882341F0C4
S11312400E94090C8CEC92E00E94680C0E949400AD
S11312500E94950580914103843039F180914103C6
S1131260853019F180915003882369F080914103FE
S11312708F5F8093410380914103833010F010927B
S113128041034092310280915103882371F080918F
S11312904103811103C083E08093410380914103A2
S11312A08150809341034092310280914603882308
S11312B0E9F180914103843029F580913B0388232F
S11312C0E1F00E94090CDF93CF9384E592E09F93B1
S11312D08F930E94520CDF93CF938AE592E09F9301
S11312E08F930E94520C0E9494008DB79EB708966B
S11312F00FB6F8949EBF0FBE8DBF1092410340926B
S1131300310214C080E090E0FC01E15FFE4F5082A6
S1131310019680319105C1F7198A10923B0310920E
S11313203A0384E080934103409231028091440364
S11313308823D1F1809141038530A9F40E941E01D4
S1131340109241034092310210923F030E94090C13
S113135080ED92E00E94680C0E949400B0925E03BB
S1131360A0925D0321C080913F03882329F030922D
S113137041034092310218C080913D0390913E0395
S1131380892B49F40E94090C85ED92E00E94680CB7
S11313900E94940009C0842D0E94910140923F0351
S11313A0309241034092310280914103823009F12D
S11313B028F4882341F08130C9F024C08430E1F05E
S11313C08530E9F01FC080913102882309F436CEBC
S11313D00E943C0182E10E940F017F926F920E9461
S11313E0520C109231020F900F9028CE0E942006CA
S11313F025CE0E949D0622CE0E940A071FCE0E947F
S11314009B071CCE80913102882309F417CE0E94D9
S11314103C019F928F920E94520C109231020F90C5
S11314200F900CCE1F920F920FB60F9211242F9390
S11314303F934F935F936F937F938F939F93AF9358
S1131440BF93EF93FF930E945C0B80913402882337
S113145029F08091340281508093340280913302C8
S1131460882331F08091330281508093330202C08B
S11314700E94F10B80913D0390913E03892B49F02A
S113148080913D0390913E03019790933E03809396
S11314903D0380915D0390915E03892B49F0809117
S11314A05D0390915E03019790935E0380935D03C7
S11314B080914F03882329F080914F0381508093BA
S11314C04F03FF91EF91BF91AF919F918F917F91C6
S11314D06F915F914F913F912F910F900FBE0F909D
S11314E01F9018951F920F920FB60F9211242F93ED
S11314F03F934F935F936F937F938F939F93AF9398
S1131500BF93EF93FF93E0913703F0E08091C6001F
S1131510EB5CFA4F8083E0913703F0E0EB5CFA4F29
S113152080818A3009F0B2C0E0913703F0E0EB5CCF
S1131530FA4F108280913505833309F086C0E0911B
S113154036058E2F90E0FC01F097E730F10508F0A6
S11315507CC0EC5CFF4F0C94310C8BB15E989BB15A
S1131560807480958074892B8BB96FC087E395E074
S11315700E94910B6AC084E6809333020E94EF0BB1
S113158080E80E94FC0B61C080913705803308F429
S113159042C080913705813450F585E08093410342
S11315A081E08093310280913F03811102C00E9447
S11315B0910181E080933F0385E395E00E9440021E
S11315C00E940803882309F440C010923F0310923C
S11315D0410381E08093310280E69AEE90935E03AA
S11315E080935D0382E093E00E94800B2EC01092F2
S11315F03E0310923D0310923F031092410381E099
S11316008093310210925E0310925D0380E193E0B7
S11316100E94800B1AC081E293E00E94800B88EE46
S113162093E090933E0380933D030FC08091370570
S1131630803331F45F9810925E0310925D0305C00D
S11316405F9A03C05D9A01C05D988091350581332E
S1131650D1F4809136058133B1F48091390580331A
S113166081F480914003811108C084E680933302A1
S11316700E94EF0B80EC0E94FC0B81E080934003FE
S113168002C0109240031092370305C080913703C3
S11316908F5F80933703FF91EF91BF91AF919F913B
S11316A08F917F916F915F914F913F912F910F9007
S11316B00FBE0F901F90189580915F038823F9F057
S11316C08091EC039091ED0301969093ED03809348
S11316D0EC038536910598F08091EB038F5F80933E
S11316E0EB03863040F01092EB0310925F031092EC
S11316F05D05109235021092ED031092EC030895EB
S113170021E020935F031092ED031092EC031092FA
S1131710EB03BC018DE595E00E944B0C1092350261
S11317200895CF93DF93EC0180916003883081F4B6
S11317308091610391E0980F90936103877021E198
S1131740829FC00111248D599C4F0E94800B0AC0B6
S1131750809160038F5F80936003893018F088E084
S1131760809360038091620391E0980F90936203E9
S1131770877021E1829FC0011124BE018D599C4FC5
S11317800E944B0CDF91CF910895809160038823D0
S1131790F9F080915F0381111BC06091610381E0C6
S11317A0860F80936103677081E1689FB001112403
S11317B06D597C4F8DE595E00E944B0C10923502DB
S11317C081E080935F038091600381508093600384
S11317D0089581E0809335028DE595E00895539A4C
S11317E008955398089582E18093B00083E0809334
S11317F0B1000E94F10B08958093B3000895E0ECCA
S1131800F0E0908195FFFDCF8093C60080E090E0EA
S1131810089586E392E0909371058093700508958E
S11318208CE090E09093C5008093C40088E9809395
S1131830C10086E08093C200089597FB072E16F43A
S1131840009407D077FD09D00E94370C07FC05D01F
S11318503EF4909581959F4F0895709561957F4FC3
S11318600895EE0FFF1F0590F491E02D0994AA1B33
S1131870BB1B51E107C0AA1FBB1FA617B70710F077
S1131880A61BB70B881F991F5A95A9F780959095A9
S1131890BC01CD010895FB01DC0101900D920020F3
S11318A0E1F70895A0E0B0E0E8E5FCE00C94390F1E
S11318B0AE014B5F5F4FFA0161917191AF0180916D
S11318C07005909171050E94980CE2E00C94550FFC
S11318D00F931F93CF93DF93E0917005F0917105FF
S11318E0238121FF1BC08C01D0E0C0E0F80181916D
S11318F08F016091700570917105DB011896ED916F
S1131900FC911997882331F00995892B79F3DFEF3E
S1131910CFEFECCF8AE00995892B19F08FEF9FEF79
S113192002C08D2F9C2FDF91CF911F910F910895AD
S1131930ABE0B0E0EEE9FCE00C94290F6C017B0114
S11319408A01FC0117821682838181FFCCC1CE01FA
S113195001963C01F6019381F70193FD859193FF74
S113196081917F01882309F4BAC1853239F493FD4A
S1131970859193FF81917F01853229F4B60190E02E
S11319800E948F0EE7CF912C212C312CFFE1F3150F
S1131990D8F08B3279F038F4803279F08332A1F4C4
S11319A0232D20611DC08D3261F0803369F4232D15
S11319B0216016C0832D8260382EE32DE4603E2E14
S11319C02AC0F32DF8601DC037FC2DC020ED280F70
S11319D02A3040F08E32B9F436FC81C1232D2064C4
S11319E0322E19C036FE06C08AE0989E200D1124BE
S11319F0922E11C0EAE02E9E200D1124222EF32DEA
S1131A00F0623F2E08C08C3621F4832D8068382E76
S1131A1002C0883641F4F70193FD859193FF8191CB
S1131A207F018111B3CF982F9F7D9554933028F473
S1131A300C5F1F4F9FE399830DC0833631F08337CA
S1131A4071F0833509F059C021C0F8018081898380
S1131A500E5F1F4F88248394912C530113C02801D7
S1131A60F2E04F0E511CF801A080B18036FE03C095
S1131A70692D70E002C06FEF7FEFC5010E94840EF4
S1131A804C018201F32DFF773F2E16C0280122E07E
S1131A90420E511CF801A080B18036FE03C0692DAE
S1131AA070E002C06FEF7FEFC5010E94790E4C0118
S1131AB0F32DF0683F2E820133FC1BC0822D90E091
S1131AC088169906B0F4B60180E290E00E948F0E69
S1131AD02A94F4CFF50137FC859137FE81915F019B
S1131AE0B60190E00E948F0E21102A9421E0821A00
S1131AF091088114910471F7E8C0843611F0893695
S1131B0041F5F80137FE07C06081718182819381BC
S1131B100C5F1F4F08C060817181072E000C880B79
S1131B20990B0E5F1F4FF32DFF763F2E97FF09C0D1
S1131B3090958095709561957F4F8F4F9F4FF0687A
S1131B403F2E2AE030E0A3010E94CB0E882E861897
S1131B5045C0853731F4232D2F7EB22E2AE030E0A4
S1131B6025C0932D997FB92E8F36C1F018F488358E
S1131B7079F0B5C0803719F0883721F0B0C0E92F6B
S1131B80E061BE2EB4FE0DC0FB2DF460BF2E09C073
S1131B9034FE0AC0292F2660B22E06C028E030E0A9
S1131BA005C020E130E002C020E132E0F801B7FED8
S1131BB007C060817181828193810C5F1F4F06C0D1
S1131BC06081718180E090E00E5F1F4FA3010E944D
S1131BD0CB0E882E8618FB2DFF773F2E36FE0DC0C8
S1131BE0232D2E7FA22E891458F434FE0BC032FC10
S1131BF009C0832D8E7EA82E05C0B82CA32C03C04B
S1131C00B82C01C0B92CA4FE0FC0FE01E80DF11DD3
S1131C108081803321F49A2D997EA92E09C0A2FED9
S1131C2006C0B394B39404C08A2D867809F0B394A3
S1131C30A3FC11C0A0FE06C0B21488F4280C922C98
S1131C409B180EC0B21460F4B60180E290E00E94CA
S1131C508F0EB394F7CFB21418F42B1802C0982C3B
S1131C60212CA4FE10C0B60180E390E00E948F0EE8
S1131C70A2FE17C0A1FC03C088E790E002C088E57B
S1131C8090E0B6010CC08A2D867859F0A1FE02C0FE
S1131C908BE201C080E2A7FC8DE2B60190E00E94D5
S1131CA08F0E891438F4B60180E390E00E948F0E01
S1131CB09A94F7CF8A94F301E80DF11D8081B6015F
S1131CC090E00E948F0E8110F5CF222009F442CEBD
S1131CD0B60180E290E00E948F0E2A94F6CFF601BE
S1131CE08681978102C08FEF9FEF2B96E2E10C94DF
S1131CF0450FFC010590615070400110D8F78095A4
S1131D0090958E0F9F1F0895FC01615070400190C3
S1131D100110D8F7809590958E0F9F1F08950F930B
S1131D201F93CF93DF93FB01238121FD03C08FEF2A
S1131D309FEF2CC022FF16C0468157812481358134
S1131D404217530744F4A081B1819D012F5F3F4F97
S1131D50318320838C93268137812F5F3F4F3783D4
S1131D60268314C08B01EC01FB010084F185E02D76
S1131D700995892BE1F6D80116968D919C911797B8
S1131D80019617969C938E931697CE01DF91CF916F
S1131D901F910F910895FA01AA27283051F120319B
S1131DA081F1E8946F936E7F6E5F7F4F8F4F9F4FEB
S1131DB0AF4FB1E03ED0B4E03CD0670F781F891F2D
S1131DC09A1FA11D680F791F8A1F911DA11D6A0FFB
S1131DD0711D811D911DA11D20D009F468943F91AE
S1131DE02AE0269F11243019305D3193DEF6CF01AD
S1131DF00895462F4770405D4193B3E00FD0C9F773
S1131E00F6CF462F4F70405D4A3318F0495D31FDDF
S1131E104052419302D0A9F7EACFB4E0A695979532
S1131E20879577956795BA95C9F700976105710508
S1131E3008959B01AC010A2E069457954795379552
S1131E402795BA95C9F7620F731F841F951FA01DAC
S1131E5008952F923F924F925F926F927F928F924A
S1131E609F92AF92BF92CF92DF92EF92FF920F9325
S1131E701F93CF93DF93CDB7DEB7CA1BDB0B0FB62F
S1131E80F894DEBF0FBECDBF09942A8839884888EC
S1131E905F846E847D848C849B84AA84B984C88482
S1131EA0DF80EE80FD800C811B81AA81B981CE0F79
S1131EB0D11D0FB6F894DEBF0FBECDBFED0108955E
S1071EC0F894FFCFC0
S1131EC400000002000000000701000000000120DF
S1131ED4202020202020202020202020202020001A
S1131EE453746F70202020202020202020202020C4
S1131EF40043616E74696E612042616E6420202027
S1131F042000496D70657269616C204D617263686B
S1131F14202000536F7669657420416E7468656D82
S1131F2420202000416C6C205374617220202020F6
S1131F3420202020004D6969205468656D652020A7
S1131F4420202020200048616C6F205468656D6552
S1131F54202020202020004D6172696F2054686580
S1131F646D652020202020004D6172696F20476137
S1131F746C6178792020202000506F6B656D6F6E42
S1131F842043656E746572202000506574616C6230
S1131F9465726720202020202020000148656C6C95
S1131FA46F20776F726C6421202020200043616EBF
S1131FB420492064726976653F2020202000456E04
S1131FC461626C6520452D53746F70202020004499
S1131FD4697361626C6520452D53746F7020200011
S1131FE44C6F737420486561727462656174202057
S1131FF4000101640A010000000200000000FF0B5C
S11320040000000025640053656E64204D657373FD
S113201461676500303125730A00323125730A0083
S1132024257300506C617920536F6E67003032253C
S1132034630A0020202020596F7520776F6E2100D9
S11320443034330032343100303330203000303413
S1132054320032343000303230003038300030381E
S11320643100566572743A202020486F727A3A20FF
S113207420204C3A20202020523A20202020533A79
S1132084202000303325642025640A0032323000D5
S1132094323341410032332F2F00486F6D65205392
S11320A4637265656E21004552524F523A20556E53
S11320B46B6E6F776E20206D656E7520737461741A
S11320C46500202020596F7520206C6F73742100E3
S11320D420202020202020202020202020202020F8
S11320E40035496E204120526F7720496E76697419
S10520F4650081
S9030000FC
